{
	"data": {
		"bytecode": {
			"linkReferences": {
				"remix_accounts.sol": {
					"TestsAccounts": [
						{
							"length": 20,
							"start": 4803
						},
						{
							"length": 20,
							"start": 5003
						},
						{
							"length": 20,
							"start": 5203
						},
						{
							"length": 20,
							"start": 5403
						},
						{
							"length": 20,
							"start": 5603
						}
					]
				},
				"remix_tests.sol": {
					"Assert": [
						{
							"length": 20,
							"start": 1733
						},
						{
							"length": 20,
							"start": 2057
						},
						{
							"length": 20,
							"start": 2251
						},
						{
							"length": 20,
							"start": 2395
						},
						{
							"length": 20,
							"start": 3429
						},
						{
							"length": 20,
							"start": 3964
						},
						{
							"length": 20,
							"start": 4324
						},
						{
							"length": 20,
							"start": 4518
						},
						{
							"length": 20,
							"start": 4662
						},
						{
							"length": 20,
							"start": 5805
						},
						{
							"length": 20,
							"start": 6040
						},
						{
							"length": 20,
							"start": 6275
						},
						{
							"length": 20,
							"start": 6510
						},
						{
							"length": 20,
							"start": 6747
						},
						{
							"length": 20,
							"start": 6947
						},
						{
							"length": 20,
							"start": 7149
						},
						{
							"length": 20,
							"start": 7357
						},
						{
							"length": 20,
							"start": 7687
						},
						{
							"length": 20,
							"start": 7881
						},
						{
							"length": 20,
							"start": 8025
						},
						{
							"length": 20,
							"start": 8166
						},
						{
							"length": 20,
							"start": 8305
						},
						{
							"length": 20,
							"start": 8455
						}
					]
				}
			},
			"object": "608060405260006002556000600355600060045560405180602001604052806000815250600690805190602001906200003a929190620000ab565b506001600960006101000a81548160ff0219169083151502179055503480156200006357600080fd5b5033600560006101000a81548173ffffffffffffffffffffffffffffffffffffffff021916908373ffffffffffffffffffffffffffffffffffffffff160217905550620001c0565b828054620000b9906200015b565b90600052602060002090601f016020900481019282620000dd576000855562000129565b82601f10620000f857805160ff191683800117855562000129565b8280016001018555821562000129579182015b82811115620001285782518255916020019190600101906200010b565b5b5090506200013891906200013c565b5090565b5b80821115620001575760008160009055506001016200013d565b5090565b600060028204905060018216806200017457607f821691505b602082108114156200018b576200018a62000191565b5b50919050565b7f4e487b7100000000000000000000000000000000000000000000000000000000600052602260045260246000fd5b6138ad80620001d06000396000f3fe608060405234801561001057600080fd5b50600436106101585760003560e01c8063632a9a52116100c3578063a24a4e881161007c578063a24a4e8814610320578063a3bef4d71461032a578063a5627cf014610348578063a826724514610352578063a9a4070c1461035c578063bbb97ded1461036657610158565b8063632a9a52146102e457806377440e06146102ee5780637fea0d4b146102f8578063848b44271461030257806393fa7f471461030c578063947aea861461031657610158565b80631635b5d3116101155780631635b5d31461021f5780631ddabf7a1461023d5780632955fea31461026e5780633b9f708d1461027857806347098f36146102a8578063481c6a75146102c657610158565b806302daf12f1461015d57806302ee93c81461018d5780630843d16d146101bd578063085df976146101db5780630fdd0adc146101e5578063124258c6146101ef575b600080fd5b61017760048036038101906101729190612488565b610370565b6040516101849190612d08565b60405180910390f35b6101a760048036038101906101a2919061243f565b610410565b6040516101b49190612eda565b60405180910390f35b6101c56104ed565b6040516101d29190612eda565b60405180910390f35b6101e36104f3565b005b6101ed610589565b005b61020960048036038101906102049190612488565b610816565b6040516102169190612a55565b60405180910390f35b610227610a4c565b6040516102349190612d08565b60405180910390f35b6102576004803603810190610252919061235c565b610ada565b604051610265929190612d2a565b60405180910390f35b610276610b93565b005b610292600480360381019061028d91906123b6565b610c26565b60405161029f9190612eda565b60405180910390f35b6102b0610d7e565b6040516102bd9190612eda565b60405180910390f35b6102ce610d84565b6040516102db91906129d0565b60405180910390f35b6102ec610daa565b005b6102f6610e40565b005b6103006110f1565b005b61030a6114db565b005b610314611889565b005b61031e611a1b565b005b610328611aeb565b005b610332611b7e565b60405161033f9190612eda565b60405180910390f35b610350611b84565b005b61035a611e14565b005b610364611e9f565b005b61036e611f35565b005b6000602052806000526040600020600091509050805461038f906131e8565b80601f01602080910402602001604051908101604052809291908181526020018280546103bb906131e8565b80156104085780601f106103dd57610100808354040283529160200191610408565b820191906000526020600020905b8154815290600101906020018083116103eb57829003601f168201915b505050505081565b6000600560009054906101000a900473ffffffffffffffffffffffffffffffffffffffff1673ffffffffffffffffffffffffffffffffffffffff163373ffffffffffffffffffffffffffffffffffffffff16146104a2576040517f08c379a000000000000000000000000000000000000000000000000000000000815260040161049990612e9a565b60405180910390fd5b600260008154809291906104b59061324b565b919050555081600080600254815260200190815260200160002090805190602001906104e2929190612107565b506002549050919050565b60025481565b73__$acbfb1c35000d78352310b16a054a6b106$__63767392b36105176002610816565b60006040518363ffffffff1660e01b8152600401610536929190612aac565b60206040518083038186803b15801561054e57600080fd5b505af4158015610562573d6000803e3d6000fd5b505050506040513d601f19601f820116820180604052508101906105869190612412565b50565b3073ffffffffffffffffffffffffffffffffffffffff166302ee93c86040518163ffffffff1660e01b81526004016105c090612eba565b602060405180830381600087803b1580156105da57600080fd5b505af192505050801561060b57506040513d601f19601f8201168201806040525081019061060891906124b5565b60015b61078957610617613350565b806308c379a014156106c5575061062c61379c565b8061063757506106c7565b73__$acbfb1c35000d78352310b16a054a6b106$__63e8c2cb16826040518263ffffffff1660e01b815260040161066e9190612da2565b60206040518083038186803b15801561068657600080fd5b505af415801561069a573d6000803e3d6000fd5b505050506040513d601f19601f820116820180604052508101906106be9190612412565b5050610784565b505b3d80600081146106f3576040519150601f19603f3d011682016040523d82523d6000602084013e6106f8565b606091505b5073__$acbfb1c35000d78352310b16a054a6b106$__6339df137f60006040518263ffffffff1660e01b81526004016107319190612bae565b60206040518083038186803b15801561074957600080fd5b505af415801561075d573d6000803e3d6000fd5b505050506040513d601f19601f820116820180604052508101906107819190612412565b50505b610814565b73__$acbfb1c35000d78352310b16a054a6b106$__6339df137f60006040518263ffffffff1660e01b81526004016107c19190612bdc565b60206040518083038186803b1580156107d957600080fd5b505af41580156107ed573d6000803e3d6000fd5b505050506040513d601f19601f820116820180604052508101906108119190612412565b50505b565b600060011515600960009054906101000a900460ff1615151461086e576040517f08c379a000000000000000000000000000000000000000000000000000000000815260040161086590612e7a565b60405180910390fd5b600090506000600160003373ffffffffffffffffffffffffffffffffffffffff1673ffffffffffffffffffffffffffffffffffffffff16815260200190815260200160002060000180546108c1906131e8565b905014610a1b57600080600084815260200190815260200160002080546108e7906131e8565b905014610a1a576001905060018060003373ffffffffffffffffffffffffffffffffffffffff1673ffffffffffffffffffffffffffffffffffffffff16815260200190815260200160002060010160006101000a81548160ff02191690831515021790555061095461218d565b33816000019073ffffffffffffffffffffffffffffffffffffffff16908173ffffffffffffffffffffffffffffffffffffffff168152505082816020018181525050600460008154809291906109a99061324b565b91905055508060076000600454815260200190815260200160002060008201518160000160006101000a81548173ffffffffffffffffffffffffffffffffffffffff021916908373ffffffffffffffffffffffffffffffffffffffff16021790555060208201518160010155905050505b5b60016002600354610a2c91906130d3565b610a36919061307d565b60045410610a4757610a46611fd1565b5b919050565b60068054610a59906131e8565b80601f0160208091040260200160405190810160405280929190818152602001828054610a85906131e8565b8015610ad25780601f10610aa757610100808354040283529160200191610ad2565b820191906000526020600020905b815481529060010190602001808311610ab557829003601f168201915b505050505081565b6001602052806000526040600020600091509050806000018054610afd906131e8565b80601f0160208091040260200160405190810160405280929190818152602001828054610b29906131e8565b8015610b765780601f10610b4b57610100808354040283529160200191610b76565b820191906000526020600020905b815481529060010190602001808311610b5957829003601f168201915b5050505050908060010160009054906101000a900460ff16905082565b73__$acbfb1c35000d78352310b16a054a6b106$__6339df137f610bb76002610816565b6040518263ffffffff1660e01b8152600401610bd39190612c0a565b60206040518083038186803b158015610beb57600080fd5b505af4158015610bff573d6000803e3d6000fd5b505050506040513d601f19601f82011682018060405250810190610c239190612412565b50565b6000600560009054906101000a900473ffffffffffffffffffffffffffffffffffffffff1673ffffffffffffffffffffffffffffffffffffffff163373ffffffffffffffffffffffffffffffffffffffff1614610cb8576040517f08c379a0000000000000000000000000000000000000000000000000000000008152600401610caf90612e9a565b60405180910390fd5b610cc06121bd565b828160000181905250600081602001901515908115158152505080600160008673ffffffffffffffffffffffffffffffffffffffff1673ffffffffffffffffffffffffffffffffffffffff1681526020019081526020016000206000820151816000019080519060200190610d36929190612107565b5060208201518160010160006101000a81548160ff02191690831515021790555090505060036000815480929190610d6d9061324b565b919050555060035491505092915050565b60035481565b600560009054906101000a900473ffffffffffffffffffffffffffffffffffffffff1681565b73__$acbfb1c35000d78352310b16a054a6b106$__63767392b3610dce6002610816565b60016040518363ffffffff1660e01b8152600401610ded929190612ae8565b60206040518083038186803b158015610e0557600080fd5b505af4158015610e19573d6000803e3d6000fd5b505050506040513d601f19601f82011682018060405250810190610e3d9190612412565b50565b3073ffffffffffffffffffffffffffffffffffffffff16633b9f708d600d60009054906101000a900473ffffffffffffffffffffffffffffffffffffffff166040518263ffffffff1660e01b8152600401610e9b9190612a27565b602060405180830381600087803b158015610eb557600080fd5b505af1925050508015610ee657506040513d601f19601f82011682018060405250810190610ee391906124b5565b60015b61106457610ef2613350565b806308c379a01415610fa05750610f0761379c565b80610f125750610fa2565b73__$acbfb1c35000d78352310b16a054a6b106$__63e8c2cb16826040518263ffffffff1660e01b8152600401610f499190612dea565b60206040518083038186803b158015610f6157600080fd5b505af4158015610f75573d6000803e3d6000fd5b505050506040513d601f19601f82011682018060405250810190610f999190612412565b505061105f565b505b3d8060008114610fce576040519150601f19603f3d011682016040523d82523d6000602084013e610fd3565b606091505b5073__$acbfb1c35000d78352310b16a054a6b106$__6339df137f60006040518263ffffffff1660e01b815260040161100c9190612c38565b60206040518083038186803b15801561102457600080fd5b505af4158015611038573d6000803e3d6000fd5b505050506040513d601f19601f8201168201806040525081019061105c9190612412565b50505b6110ef565b73__$acbfb1c35000d78352310b16a054a6b106$__6339df137f60006040518263ffffffff1660e01b815260040161109c9190612b80565b60206040518083038186803b1580156110b457600080fd5b505af41580156110c8573d6000803e3d6000fd5b505050506040513d601f19601f820116820180604052508101906110ec9190612412565b50505b565b73__$1068a87eb54ed04c4e435de35b2ebf536f$__63ce88b14560006040518263ffffffff1660e01b81526004016111299190612c66565b60206040518083038186803b15801561114157600080fd5b505af4158015611155573d6000803e3d6000fd5b505050506040513d601f19601f820116820180604052508101906111799190612389565b600960016101000a81548173ffffffffffffffffffffffffffffffffffffffff021916908373ffffffffffffffffffffffffffffffffffffffff16021790555073__$1068a87eb54ed04c4e435de35b2ebf536f$__63ce88b14560016040518263ffffffff1660e01b81526004016111f19190612c81565b60206040518083038186803b15801561120957600080fd5b505af415801561121d573d6000803e3d6000fd5b505050506040513d601f19601f820116820180604052508101906112419190612389565b600a60006101000a81548173ffffffffffffffffffffffffffffffffffffffff021916908373ffffffffffffffffffffffffffffffffffffffff16021790555073__$1068a87eb54ed04c4e435de35b2ebf536f$__63ce88b14560026040518263ffffffff1660e01b81526004016112b99190612cb7565b60206040518083038186803b1580156112d157600080fd5b505af41580156112e5573d6000803e3d6000fd5b505050506040513d601f19601f820116820180604052508101906113099190612389565b600b60006101000a81548173ffffffffffffffffffffffffffffffffffffffff021916908373ffffffffffffffffffffffffffffffffffffffff16021790555073__$1068a87eb54ed04c4e435de35b2ebf536f$__63ce88b14560036040518263ffffffff1660e01b81526004016113819190612cd2565b60206040518083038186803b15801561139957600080fd5b505af41580156113ad573d6000803e3d6000fd5b505050506040513d601f19601f820116820180604052508101906113d19190612389565b600c60006101000a81548173ffffffffffffffffffffffffffffffffffffffff021916908373ffffffffffffffffffffffffffffffffffffffff16021790555073__$1068a87eb54ed04c4e435de35b2ebf536f$__63ce88b14560046040518263ffffffff1660e01b81526004016114499190612ced565b60206040518083038186803b15801561146157600080fd5b505af4158015611475573d6000803e3d6000fd5b505050506040513d601f19601f820116820180604052508101906114999190612389565b600d60006101000a81548173ffffffffffffffffffffffffffffffffffffffff021916908373ffffffffffffffffffffffffffffffffffffffff160217905550565b73__$acbfb1c35000d78352310b16a054a6b106$__63abcd7960611556600960019054906101000a900473ffffffffffffffffffffffffffffffffffffffff166040518060400160405280600681526020017f416c696365200000000000000000000000000000000000000000000000000000815250610c26565b60016040518363ffffffff1660e01b8152600401611575929190612ef5565b60206040518083038186803b15801561158d57600080fd5b505af41580156115a1573d6000803e3d6000fd5b505050506040513d601f19601f820116820180604052508101906115c59190612412565b5073__$acbfb1c35000d78352310b16a054a6b106$__63abcd7960611641600a60009054906101000a900473ffffffffffffffffffffffffffffffffffffffff166040518060400160405280600481526020017f426f622000000000000000000000000000000000000000000000000000000000815250610c26565b60026040518363ffffffff1660e01b8152600401611660929190612f31565b60206040518083038186803b15801561167857600080fd5b505af415801561168c573d6000803e3d6000fd5b505050506040513d601f19601f820116820180604052508101906116b09190612412565b5073__$acbfb1c35000d78352310b16a054a6b106$__63abcd796061172c600b60009054906101000a900473ffffffffffffffffffffffffffffffffffffffff166040518060400160405280600881526020017f436861726c696520000000000000000000000000000000000000000000000000815250610c26565b60036040518363ffffffff1660e01b815260040161174b929190612f6d565b60206040518083038186803b15801561176357600080fd5b505af4158015611777573d6000803e3d6000fd5b505050506040513d601f19601f8201168201806040525081019061179b9190612412565b5073__$acbfb1c35000d78352310b16a054a6b106$__63abcd7960611817600c60009054906101000a900473ffffffffffffffffffffffffffffffffffffffff166040518060400160405280600481526020017f4576652000000000000000000000000000000000000000000000000000000000815250610c26565b60046040518363ffffffff1660e01b8152600401611836929190612fa9565b60206040518083038186803b15801561184e57600080fd5b505af4158015611862573d6000803e3d6000fd5b505050506040513d601f19601f820116820180604052508101906118869190612412565b50565b73__$acbfb1c35000d78352310b16a054a6b106$__63abcd79606118e16040518060400160405280600e81526020017f436f757274796172642043616665000000000000000000000000000000000000815250610410565b60016040518363ffffffff1660e01b8152600401611900929190612ef5565b60206040518083038186803b15801561191857600080fd5b505af415801561192c573d6000803e3d6000fd5b505050506040513d601f19601f820116820180604052508101906119509190612412565b5073__$acbfb1c35000d78352310b16a054a6b106$__63abcd79606119a96040518060400160405280600881526020017f556e692043616665000000000000000000000000000000000000000000000000815250610410565b60026040518363ffffffff1660e01b81526004016119c8929190612f31565b60206040518083038186803b1580156119e057600080fd5b505af41580156119f4573d6000803e3d6000fd5b505050506040513d601f19601f82011682018060405250810190611a189190612412565b50565b73__$acbfb1c35000d78352310b16a054a6b106$__63bfba5dd6600560009054906101000a900473ffffffffffffffffffffffffffffffffffffffff16600960019054906101000a900473ffffffffffffffffffffffffffffffffffffffff166040518363ffffffff1660e01b8152600401611a989291906129eb565b60206040518083038186803b158015611ab057600080fd5b505af4158015611ac4573d6000803e3d6000fd5b505050506040513d601f19601f82011682018060405250810190611ae89190612412565b50565b73__$acbfb1c35000d78352310b16a054a6b106$__6339df137f611b0f6001610816565b6040518263ffffffff1660e01b8152600401611b2b9190612c0a565b60206040518083038186803b158015611b4357600080fd5b505af4158015611b57573d6000803e3d6000fd5b505050506040513d601f19601f82011682018060405250810190611b7b9190612412565b50565b60045481565b3073ffffffffffffffffffffffffffffffffffffffff1663124258c660016040518263ffffffff1660e01b8152600401611bbe9190612c9c565b602060405180830381600087803b158015611bd857600080fd5b505af1925050508015611c0957506040513d601f19601f82011682018060405250810190611c069190612412565b60015b611d8757611c15613350565b806308c379a01415611cc35750611c2a61379c565b80611c355750611cc5565b73__$acbfb1c35000d78352310b16a054a6b106$__63e8c2cb16826040518263ffffffff1660e01b8152600401611c6c9190612d5a565b60206040518083038186803b158015611c8457600080fd5b505af4158015611c98573d6000803e3d6000fd5b505050506040513d601f19601f82011682018060405250810190611cbc9190612412565b5050611d82565b505b3d8060008114611cf1576040519150601f19603f3d011682016040523d82523d6000602084013e611cf6565b606091505b5073__$acbfb1c35000d78352310b16a054a6b106$__6339df137f60006040518263ffffffff1660e01b8152600401611d2f9190612b52565b60206040518083038186803b158015611d4757600080fd5b505af4158015611d5b573d6000803e3d6000fd5b505050506040513d601f19601f82011682018060405250810190611d7f9190612412565b50505b611e12565b73__$acbfb1c35000d78352310b16a054a6b106$__6339df137f60006040518263ffffffff1660e01b8152600401611dbf9190612b24565b60206040518083038186803b158015611dd757600080fd5b505af4158015611deb573d6000803e3d6000fd5b505050506040513d601f19601f82011682018060405250810190611e0f9190612412565b50505b565b73__$acbfb1c35000d78352310b16a054a6b106$__63e8c2cb1660066040518263ffffffff1660e01b8152600401611e4c9190612e32565b60206040518083038186803b158015611e6457600080fd5b505af4158015611e78573d6000803e3d6000fd5b505050506040513d601f19601f82011682018060405250810190611e9c9190612412565b50565b73__$acbfb1c35000d78352310b16a054a6b106$__63767392b3611ec36001610816565b60006040518363ffffffff1660e01b8152600401611ee2929190612aac565b60206040518083038186803b158015611efa57600080fd5b505af4158015611f0e573d6000803e3d6000fd5b505050506040513d601f19601f82011682018060405250810190611f329190612412565b50565b73__$acbfb1c35000d78352310b16a054a6b106$__63767392b3600960009054906101000a900460ff1660006040518363ffffffff1660e01b8152600401611f7e929190612a70565b60206040518083038186803b158015611f9657600080fd5b505af4158015611faa573d6000803e3d6000fd5b505050506040513d601f19601f82011682018060405250810190611fce9190612412565b50565b6000806000600190505b60045481116120bb57600060019050600060086000600760008681526020019081526020016000206001015481526020019081526020016000205411156120545760086000600760008581526020019081526020016000206001015481526020019081526020016000205481612051919061307d565b90505b80600860006007600086815260200190815260200160002060010154815260200190815260200160002081905550838111156120a757809350600760008381526020019081526020016000206001015492505b5080806120b39061324b565b915050611fdb565b5060008082815260200190815260200160002060069080546120dc906131e8565b6120e79291906121d9565b506000600960006101000a81548160ff0219169083151502179055505050565b828054612113906131e8565b90600052602060002090601f016020900481019282612135576000855561217c565b82601f1061214e57805160ff191683800117855561217c565b8280016001018555821561217c579182015b8281111561217b578251825591602001919060010190612160565b5b5090506121899190612266565b5090565b6040518060400160405280600073ffffffffffffffffffffffffffffffffffffffff168152602001600081525090565b6040518060400160405280606081526020016000151581525090565b8280546121e5906131e8565b90600052602060002090601f0160209004810192826122075760008555612255565b82601f106122185780548555612255565b8280016001018555821561225557600052602060002091601f016020900482015b82811115612254578254825591600101919060010190612239565b5b5090506122629190612266565b5090565b5b8082111561227f576000816000905550600101612267565b5090565b60006122966122918461300a565b612fe5565b9050828152602081018484840111156122b2576122b1613377565b5b6122bd8482856131a6565b509392505050565b6000813590506122d481613832565b92915050565b6000815190506122e981613832565b92915050565b6000815190506122fe81613849565b92915050565b600082601f83011261231957612318613372565b5b8135612329848260208601612283565b91505092915050565b60008135905061234181613860565b92915050565b60008151905061235681613860565b92915050565b60006020828403121561237257612371613381565b5b6000612380848285016122c5565b91505092915050565b60006020828403121561239f5761239e613381565b5b60006123ad848285016122da565b91505092915050565b600080604083850312156123cd576123cc613381565b5b60006123db858286016122c5565b925050602083013567ffffffffffffffff8111156123fc576123fb61337c565b5b61240885828601612304565b9150509250929050565b60006020828403121561242857612427613381565b5b6000612436848285016122ef565b91505092915050565b60006020828403121561245557612454613381565b5b600082013567ffffffffffffffff8111156124735761247261337c565b5b61247f84828501612304565b91505092915050565b60006020828403121561249e5761249d613381565b5b60006124ac84828501612332565b91505092915050565b6000602082840312156124cb576124ca613381565b5b60006124d984828501612347565b91505092915050565b6124eb81613104565b82525050565b6124fa81613104565b82525050565b61250981613116565b82525050565b61251881613116565b82525050565b6125278161314c565b82525050565b6125368161315e565b82525050565b6125458161315e565b82525050565b61255481613170565b82525050565b61256381613182565b82525050565b61257281613194565b82525050565b600061258382613050565b61258d818561305b565b935061259d8185602086016131b5565b6125a681613386565b840191505092915050565b60006125bc82613050565b6125c6818561306c565b93506125d68185602086016131b5565b6125df81613386565b840191505092915050565b600081546125f7816131e8565b612601818661306c565b9450600182166000811461261c576001811461262e57612661565b60ff1983168652602086019350612661565b6126378561303b565b60005b838110156126595781548189015260018201915060208101905061263a565b808801955050505b50505092915050565b6000612677601d8361306c565b9150612682826133a4565b602082019050919050565b600061269a60138361306c565b91506126a5826133cd565b602082019050919050565b60006126bd60248361305b565b91506126c8826133f6565b604082019050919050565b60006126e060248361306c565b91506126eb826133f6565b604082019050919050565b6000612703601d8361306c565b915061270e82613445565b602082019050919050565b600061272660088361306c565b91506127318261346e565b602082019050919050565b600061274960148361306c565b915061275482613497565b602082019050919050565b600061276c60148361306c565b9150612777826134c0565b602082019050919050565b600061278f601d8361306c565b915061279a826134e9565b602082019050919050565b60006127b260148361306c565b91506127bd82613512565b602082019050919050565b60006127d560118361306c565b91506127e08261353b565b602082019050919050565b60006127f860188361306c565b915061280382613564565b602082019050919050565b600061281b60228361306c565b91506128268261358d565b604082019050919050565b600061283e601e8361306c565b9150612849826135dc565b602082019050919050565b600061286160148361306c565b915061286c82613605565b602082019050919050565b6000612884601c8361306c565b915061288f8261362e565b602082019050919050565b60006128a760238361305b565b91506128b282613657565b604082019050919050565b60006128ca60238361306c565b91506128d582613657565b604082019050919050565b60006128ed600b8361305b565b91506128f8826136a6565b602082019050919050565b6000612910601f8361306c565b915061291b826136cf565b602082019050919050565b6000612933601e8361306c565b915061293e826136f8565b602082019050919050565b600061295660128361306c565b915061296182613721565b602082019050919050565b600061297960088361305b565b91506129848261374a565b602082019050919050565b600061299c60168361306c565b91506129a782613773565b602082019050919050565b6129bb81613142565b82525050565b6129ca81613142565b82525050565b60006020820190506129e560008301846124e2565b92915050565b6000606082019050612a0060008301856124f1565b612a0d60208301846124f1565b8181036040830152612a1e8161298f565b90509392505050565b6000604082019050612a3c60008301846124e2565b8181036020830152612a4d8161296c565b905092915050565b6000602082019050612a6a6000830184612500565b92915050565b6000606082019050612a85600083018561250f565b612a92602083018461250f565b8181036040830152612aa3816127eb565b90509392505050565b6000606082019050612ac1600083018561250f565b612ace602083018461250f565b8181036040830152612adf81612903565b90509392505050565b6000606082019050612afd600083018561250f565b612b0a602083018461250f565b8181036040830152612b1b81612926565b90509392505050565b6000604082019050612b39600083018461250f565b8181036020830152612b4a8161266a565b905092915050565b6000604082019050612b67600083018461250f565b8181036020830152612b788161268d565b905092915050565b6000604082019050612b95600083018461250f565b8181036020830152612ba681612782565b905092915050565b6000604082019050612bc3600083018461250f565b8181036020830152612bd4816127c8565b905092915050565b6000604082019050612bf1600083018461250f565b8181036020830152612c0281612877565b905092915050565b6000604082019050612c1f600083018461250f565b8181036020830152612c3081612926565b905092915050565b6000604082019050612c4d600083018461250f565b8181036020830152612c5e81612949565b905092915050565b6000602082019050612c7b600083018461251e565b92915050565b6000602082019050612c96600083018461253c565b92915050565b6000602082019050612cb1600083018461252d565b92915050565b6000602082019050612ccc600083018461254b565b92915050565b6000602082019050612ce7600083018461255a565b92915050565b6000602082019050612d026000830184612569565b92915050565b60006020820190508181036000830152612d228184612578565b905092915050565b60006040820190508181036000830152612d448185612578565b9050612d536020830184612500565b9392505050565b60006060820190508181036000830152612d7481846125b1565b90508181036020830152612d87816126d3565b90508181036040830152612d9a81612831565b905092915050565b60006060820190508181036000830152612dbc81846125b1565b90508181036020830152612dcf816128bd565b90508181036040830152612de2816126f6565b905092915050565b60006060820190508181036000830152612e0481846125b1565b90508181036020830152612e17816128bd565b90508181036040830152612e2a81612831565b905092915050565b60006060820190508181036000830152612e4c81846125ea565b90508181036020830152612e5f81612719565b90508181036040830152612e728161280e565b905092915050565b60006020820190508181036000830152612e93816126b0565b9050919050565b60006020820190508181036000830152612eb38161289a565b9050919050565b60006020820190508181036000830152612ed3816128e0565b9050919050565b6000602082019050612eef60008301846129b2565b92915050565b6000606082019050612f0a60008301856129c1565b612f17602083018461253c565b8181036040830152612f2881612854565b90509392505050565b6000606082019050612f4660008301856129c1565b612f53602083018461254b565b8181036040830152612f648161273c565b90509392505050565b6000606082019050612f8260008301856129c1565b612f8f602083018461255a565b8181036040830152612fa0816127a5565b90509392505050565b6000606082019050612fbe60008301856129c1565b612fcb6020830184612569565b8181036040830152612fdc8161275f565b90509392505050565b6000612fef613000565b9050612ffb828261321a565b919050565b6000604051905090565b600067ffffffffffffffff82111561302557613024613321565b5b61302e82613386565b9050602081019050919050565b60008190508160005260206000209050919050565b600081519050919050565b600082825260208201905092915050565b600082825260208201905092915050565b600061308882613142565b915061309383613142565b9250827fffffffffffffffffffffffffffffffffffffffffffffffffffffffffffffffff038211156130c8576130c7613294565b5b828201905092915050565b60006130de82613142565b91506130e983613142565b9250826130f9576130f86132c3565b5b828204905092915050565b600061310f82613122565b9050919050565b60008115159050919050565b600073ffffffffffffffffffffffffffffffffffffffff82169050919050565b6000819050919050565b600061315782613142565b9050919050565b600061316982613142565b9050919050565b600061317b82613142565b9050919050565b600061318d82613142565b9050919050565b600061319f82613142565b9050919050565b82818337600083830152505050565b60005b838110156131d35780820151818401526020810190506131b8565b838111156131e2576000848401525b50505050565b6000600282049050600182168061320057607f821691505b60208210811415613214576132136132f2565b5b50919050565b61322382613386565b810181811067ffffffffffffffff8211171561324257613241613321565b5b80604052505050565b600061325682613142565b91507fffffffffffffffffffffffffffffffffffffffffffffffffffffffffffffffff82141561328957613288613294565b5b600182019050919050565b7f4e487b7100000000000000000000000000000000000000000000000000000000600052601160045260246000fd5b7f4e487b7100000000000000000000000000000000000000000000000000000000600052601260045260246000fd5b7f4e487b7100000000000000000000000000000000000000000000000000000000600052602260045260246000fd5b7f4e487b7100000000000000000000000000000000000000000000000000000000600052604160045260246000fd5b600060033d111561336f5760046000803e61336c600051613397565b90505b90565b600080fd5b600080fd5b600080fd5b600080fd5b6000601f19601f8301169050919050565b60008160e01c9050919050565b7f4d6574686f6420457865637574696f6e2053686f756c64204661696c20000000600082015250565b7f4661696c656420756e65787065637465646c7900000000000000000000000000600082015250565b7f43616e20766f7465206f6e6c79207768696c6520766f74696e67206973206f7060008201527f656e202e00000000000000000000000000000000000000000000000000000000602082015250565b7f4661696c6564207769746820756e657870656374656420726561736f6e000000600082015250565b7f556e692043616665000000000000000000000000000000000000000000000000600082015250565b7f53686f756c6420626520657175616c20746f2032000000000000000000000000600082015250565b7f53686f756c6420626520657175616c20746f2034000000000000000000000000600082015250565b7f4d6574686f6420657865637574696f6e2073686f756c64206661696c20000000600082015250565b7f53686f756c6420626520657175616c20746f2033000000000000000000000000600082015250565b7f4661696c656420756e6578706563746564000000000000000000000000000000600082015250565b7f566f74696e672073686f756c6420626520636c6f736564200000000000000000600082015250565b7f53656c65637465642076656e75652073686f756c6420626520556e692043616660008201527f6520000000000000000000000000000000000000000000000000000000000000602082015250565b7f4661696c6564207769746820756e657870656374656420726561736f6e200000600082015250565b7f53686f756c6420626520657175616c20746f2031000000000000000000000000600082015250565b7f4d6574686f6420657865637574696f6e2073686f756c64206661696c00000000600082015250565b7f43616e206f6e6c7920626520657865637574656420627920746865206d616e6160008201527f6765720000000000000000000000000000000000000000000000000000000000602082015250565b7f41746f6d69632043616665000000000000000000000000000000000000000000600082015250565b7f20566f74696e6720726573756c742073686f756c642062652066616c73652000600082015250565b7f20566f74696e6720726573756c742073686f756c642062652074727565200000600082015250565b7f4661696c656420756e6578706563746564200000000000000000000000000000600082015250565b7f44616e69656c7320000000000000000000000000000000000000000000000000600082015250565b7f4d616e616765722073686f756c64206265206163633000000000000000000000600082015250565b600060443d10156137ac5761382f565b6137b4613000565b60043d036004823e80513d602482011167ffffffffffffffff821117156137dc57505061382f565b808201805167ffffffffffffffff8111156137fa575050505061382f565b80602083010160043d03850181111561381757505050505061382f565b6138268260200185018661321a565b82955050505050505b90565b61383b81613104565b811461384657600080fd5b50565b61385281613116565b811461385d57600080fd5b50565b61386981613142565b811461387457600080fd5b5056fea264697066735822122053913c78f3d21a1d8926ceade6b563c2db6ca9fc4c9db59664d6dd15512b189c64736f6c63430008070033",
			"opcodes": "PUSH1 0x80 PUSH1 0x40 MSTORE PUSH1 0x0 PUSH1 0x2 SSTORE PUSH1 0x0 PUSH1 0x3 SSTORE PUSH1 0x0 PUSH1 0x4 SSTORE PUSH1 0x40 MLOAD DUP1 PUSH1 0x20 ADD PUSH1 0x40 MSTORE DUP1 PUSH1 0x0 DUP2 MSTORE POP PUSH1 0x6 SWAP1 DUP1 MLOAD SWAP1 PUSH1 0x20 ADD SWAP1 PUSH3 0x3A SWAP3 SWAP2 SWAP1 PUSH3 0xAB JUMP JUMPDEST POP PUSH1 0x1 PUSH1 0x9 PUSH1 0x0 PUSH2 0x100 EXP DUP2 SLOAD DUP2 PUSH1 0xFF MUL NOT AND SWAP1 DUP4 ISZERO ISZERO MUL OR SWAP1 SSTORE POP CALLVALUE DUP1 ISZERO PUSH3 0x63 JUMPI PUSH1 0x0 DUP1 REVERT JUMPDEST POP CALLER PUSH1 0x5 PUSH1 0x0 PUSH2 0x100 EXP DUP2 SLOAD DUP2 PUSH20 0xFFFFFFFFFFFFFFFFFFFFFFFFFFFFFFFFFFFFFFFF MUL NOT AND SWAP1 DUP4 PUSH20 0xFFFFFFFFFFFFFFFFFFFFFFFFFFFFFFFFFFFFFFFF AND MUL OR SWAP1 SSTORE POP PUSH3 0x1C0 JUMP JUMPDEST DUP3 DUP1 SLOAD PUSH3 0xB9 SWAP1 PUSH3 0x15B JUMP JUMPDEST SWAP1 PUSH1 0x0 MSTORE PUSH1 0x20 PUSH1 0x0 KECCAK256 SWAP1 PUSH1 0x1F ADD PUSH1 0x20 SWAP1 DIV DUP2 ADD SWAP3 DUP3 PUSH3 0xDD JUMPI PUSH1 0x0 DUP6 SSTORE PUSH3 0x129 JUMP JUMPDEST DUP3 PUSH1 0x1F LT PUSH3 0xF8 JUMPI DUP1 MLOAD PUSH1 0xFF NOT AND DUP4 DUP1 ADD OR DUP6 SSTORE PUSH3 0x129 JUMP JUMPDEST DUP3 DUP1 ADD PUSH1 0x1 ADD DUP6 SSTORE DUP3 ISZERO PUSH3 0x129 JUMPI SWAP2 DUP3 ADD JUMPDEST DUP3 DUP2 GT ISZERO PUSH3 0x128 JUMPI DUP3 MLOAD DUP3 SSTORE SWAP2 PUSH1 0x20 ADD SWAP2 SWAP1 PUSH1 0x1 ADD SWAP1 PUSH3 0x10B JUMP JUMPDEST JUMPDEST POP SWAP1 POP PUSH3 0x138 SWAP2 SWAP1 PUSH3 0x13C JUMP JUMPDEST POP SWAP1 JUMP JUMPDEST JUMPDEST DUP1 DUP3 GT ISZERO PUSH3 0x157 JUMPI PUSH1 0x0 DUP2 PUSH1 0x0 SWAP1 SSTORE POP PUSH1 0x1 ADD PUSH3 0x13D JUMP JUMPDEST POP SWAP1 JUMP JUMPDEST PUSH1 0x0 PUSH1 0x2 DUP3 DIV SWAP1 POP PUSH1 0x1 DUP3 AND DUP1 PUSH3 0x174 JUMPI PUSH1 0x7F DUP3 AND SWAP2 POP JUMPDEST PUSH1 0x20 DUP3 LT DUP2 EQ ISZERO PUSH3 0x18B JUMPI PUSH3 0x18A PUSH3 0x191 JUMP JUMPDEST JUMPDEST POP SWAP2 SWAP1 POP JUMP JUMPDEST PUSH32 0x4E487B7100000000000000000000000000000000000000000000000000000000 PUSH1 0x0 MSTORE PUSH1 0x22 PUSH1 0x4 MSTORE PUSH1 0x24 PUSH1 0x0 REVERT JUMPDEST PUSH2 0x38AD DUP1 PUSH3 0x1D0 PUSH1 0x0 CODECOPY PUSH1 0x0 RETURN INVALID PUSH1 0x80 PUSH1 0x40 MSTORE CALLVALUE DUP1 ISZERO PUSH2 0x10 JUMPI PUSH1 0x0 DUP1 REVERT JUMPDEST POP PUSH1 0x4 CALLDATASIZE LT PUSH2 0x158 JUMPI PUSH1 0x0 CALLDATALOAD PUSH1 0xE0 SHR DUP1 PUSH4 0x632A9A52 GT PUSH2 0xC3 JUMPI DUP1 PUSH4 0xA24A4E88 GT PUSH2 0x7C JUMPI DUP1 PUSH4 0xA24A4E88 EQ PUSH2 0x320 JUMPI DUP1 PUSH4 0xA3BEF4D7 EQ PUSH2 0x32A JUMPI DUP1 PUSH4 0xA5627CF0 EQ PUSH2 0x348 JUMPI DUP1 PUSH4 0xA8267245 EQ PUSH2 0x352 JUMPI DUP1 PUSH4 0xA9A4070C EQ PUSH2 0x35C JUMPI DUP1 PUSH4 0xBBB97DED EQ PUSH2 0x366 JUMPI PUSH2 0x158 JUMP JUMPDEST DUP1 PUSH4 0x632A9A52 EQ PUSH2 0x2E4 JUMPI DUP1 PUSH4 0x77440E06 EQ PUSH2 0x2EE JUMPI DUP1 PUSH4 0x7FEA0D4B EQ PUSH2 0x2F8 JUMPI DUP1 PUSH4 0x848B4427 EQ PUSH2 0x302 JUMPI DUP1 PUSH4 0x93FA7F47 EQ PUSH2 0x30C JUMPI DUP1 PUSH4 0x947AEA86 EQ PUSH2 0x316 JUMPI PUSH2 0x158 JUMP JUMPDEST DUP1 PUSH4 0x1635B5D3 GT PUSH2 0x115 JUMPI DUP1 PUSH4 0x1635B5D3 EQ PUSH2 0x21F JUMPI DUP1 PUSH4 0x1DDABF7A EQ PUSH2 0x23D JUMPI DUP1 PUSH4 0x2955FEA3 EQ PUSH2 0x26E JUMPI DUP1 PUSH4 0x3B9F708D EQ PUSH2 0x278 JUMPI DUP1 PUSH4 0x47098F36 EQ PUSH2 0x2A8 JUMPI DUP1 PUSH4 0x481C6A75 EQ PUSH2 0x2C6 JUMPI PUSH2 0x158 JUMP JUMPDEST DUP1 PUSH4 0x2DAF12F EQ PUSH2 0x15D JUMPI DUP1 PUSH4 0x2EE93C8 EQ PUSH2 0x18D JUMPI DUP1 PUSH4 0x843D16D EQ PUSH2 0x1BD JUMPI DUP1 PUSH4 0x85DF976 EQ PUSH2 0x1DB JUMPI DUP1 PUSH4 0xFDD0ADC EQ PUSH2 0x1E5 JUMPI DUP1 PUSH4 0x124258C6 EQ PUSH2 0x1EF JUMPI JUMPDEST PUSH1 0x0 DUP1 REVERT JUMPDEST PUSH2 0x177 PUSH1 0x4 DUP1 CALLDATASIZE SUB DUP2 ADD SWAP1 PUSH2 0x172 SWAP2 SWAP1 PUSH2 0x2488 JUMP JUMPDEST PUSH2 0x370 JUMP JUMPDEST PUSH1 0x40 MLOAD PUSH2 0x184 SWAP2 SWAP1 PUSH2 0x2D08 JUMP JUMPDEST PUSH1 0x40 MLOAD DUP1 SWAP2 SUB SWAP1 RETURN JUMPDEST PUSH2 0x1A7 PUSH1 0x4 DUP1 CALLDATASIZE SUB DUP2 ADD SWAP1 PUSH2 0x1A2 SWAP2 SWAP1 PUSH2 0x243F JUMP JUMPDEST PUSH2 0x410 JUMP JUMPDEST PUSH1 0x40 MLOAD PUSH2 0x1B4 SWAP2 SWAP1 PUSH2 0x2EDA JUMP JUMPDEST PUSH1 0x40 MLOAD DUP1 SWAP2 SUB SWAP1 RETURN JUMPDEST PUSH2 0x1C5 PUSH2 0x4ED JUMP JUMPDEST PUSH1 0x40 MLOAD PUSH2 0x1D2 SWAP2 SWAP1 PUSH2 0x2EDA JUMP JUMPDEST PUSH1 0x40 MLOAD DUP1 SWAP2 SUB SWAP1 RETURN JUMPDEST PUSH2 0x1E3 PUSH2 0x4F3 JUMP JUMPDEST STOP JUMPDEST PUSH2 0x1ED PUSH2 0x589 JUMP JUMPDEST STOP JUMPDEST PUSH2 0x209 PUSH1 0x4 DUP1 CALLDATASIZE SUB DUP2 ADD SWAP1 PUSH2 0x204 SWAP2 SWAP1 PUSH2 0x2488 JUMP JUMPDEST PUSH2 0x816 JUMP JUMPDEST PUSH1 0x40 MLOAD PUSH2 0x216 SWAP2 SWAP1 PUSH2 0x2A55 JUMP JUMPDEST PUSH1 0x40 MLOAD DUP1 SWAP2 SUB SWAP1 RETURN JUMPDEST PUSH2 0x227 PUSH2 0xA4C JUMP JUMPDEST PUSH1 0x40 MLOAD PUSH2 0x234 SWAP2 SWAP1 PUSH2 0x2D08 JUMP JUMPDEST PUSH1 0x40 MLOAD DUP1 SWAP2 SUB SWAP1 RETURN JUMPDEST PUSH2 0x257 PUSH1 0x4 DUP1 CALLDATASIZE SUB DUP2 ADD SWAP1 PUSH2 0x252 SWAP2 SWAP1 PUSH2 0x235C JUMP JUMPDEST PUSH2 0xADA JUMP JUMPDEST PUSH1 0x40 MLOAD PUSH2 0x265 SWAP3 SWAP2 SWAP1 PUSH2 0x2D2A JUMP JUMPDEST PUSH1 0x40 MLOAD DUP1 SWAP2 SUB SWAP1 RETURN JUMPDEST PUSH2 0x276 PUSH2 0xB93 JUMP JUMPDEST STOP JUMPDEST PUSH2 0x292 PUSH1 0x4 DUP1 CALLDATASIZE SUB DUP2 ADD SWAP1 PUSH2 0x28D SWAP2 SWAP1 PUSH2 0x23B6 JUMP JUMPDEST PUSH2 0xC26 JUMP JUMPDEST PUSH1 0x40 MLOAD PUSH2 0x29F SWAP2 SWAP1 PUSH2 0x2EDA JUMP JUMPDEST PUSH1 0x40 MLOAD DUP1 SWAP2 SUB SWAP1 RETURN JUMPDEST PUSH2 0x2B0 PUSH2 0xD7E JUMP JUMPDEST PUSH1 0x40 MLOAD PUSH2 0x2BD SWAP2 SWAP1 PUSH2 0x2EDA JUMP JUMPDEST PUSH1 0x40 MLOAD DUP1 SWAP2 SUB SWAP1 RETURN JUMPDEST PUSH2 0x2CE PUSH2 0xD84 JUMP JUMPDEST PUSH1 0x40 MLOAD PUSH2 0x2DB SWAP2 SWAP1 PUSH2 0x29D0 JUMP JUMPDEST PUSH1 0x40 MLOAD DUP1 SWAP2 SUB SWAP1 RETURN JUMPDEST PUSH2 0x2EC PUSH2 0xDAA JUMP JUMPDEST STOP JUMPDEST PUSH2 0x2F6 PUSH2 0xE40 JUMP JUMPDEST STOP JUMPDEST PUSH2 0x300 PUSH2 0x10F1 JUMP JUMPDEST STOP JUMPDEST PUSH2 0x30A PUSH2 0x14DB JUMP JUMPDEST STOP JUMPDEST PUSH2 0x314 PUSH2 0x1889 JUMP JUMPDEST STOP JUMPDEST PUSH2 0x31E PUSH2 0x1A1B JUMP JUMPDEST STOP JUMPDEST PUSH2 0x328 PUSH2 0x1AEB JUMP JUMPDEST STOP JUMPDEST PUSH2 0x332 PUSH2 0x1B7E JUMP JUMPDEST PUSH1 0x40 MLOAD PUSH2 0x33F SWAP2 SWAP1 PUSH2 0x2EDA JUMP JUMPDEST PUSH1 0x40 MLOAD DUP1 SWAP2 SUB SWAP1 RETURN JUMPDEST PUSH2 0x350 PUSH2 0x1B84 JUMP JUMPDEST STOP JUMPDEST PUSH2 0x35A PUSH2 0x1E14 JUMP JUMPDEST STOP JUMPDEST PUSH2 0x364 PUSH2 0x1E9F JUMP JUMPDEST STOP JUMPDEST PUSH2 0x36E PUSH2 0x1F35 JUMP JUMPDEST STOP JUMPDEST PUSH1 0x0 PUSH1 0x20 MSTORE DUP1 PUSH1 0x0 MSTORE PUSH1 0x40 PUSH1 0x0 KECCAK256 PUSH1 0x0 SWAP2 POP SWAP1 POP DUP1 SLOAD PUSH2 0x38F SWAP1 PUSH2 0x31E8 JUMP JUMPDEST DUP1 PUSH1 0x1F ADD PUSH1 0x20 DUP1 SWAP2 DIV MUL PUSH1 0x20 ADD PUSH1 0x40 MLOAD SWAP1 DUP2 ADD PUSH1 0x40 MSTORE DUP1 SWAP3 SWAP2 SWAP1 DUP2 DUP2 MSTORE PUSH1 0x20 ADD DUP3 DUP1 SLOAD PUSH2 0x3BB SWAP1 PUSH2 0x31E8 JUMP JUMPDEST DUP1 ISZERO PUSH2 0x408 JUMPI DUP1 PUSH1 0x1F LT PUSH2 0x3DD JUMPI PUSH2 0x100 DUP1 DUP4 SLOAD DIV MUL DUP4 MSTORE SWAP2 PUSH1 0x20 ADD SWAP2 PUSH2 0x408 JUMP JUMPDEST DUP3 ADD SWAP2 SWAP1 PUSH1 0x0 MSTORE PUSH1 0x20 PUSH1 0x0 KECCAK256 SWAP1 JUMPDEST DUP2 SLOAD DUP2 MSTORE SWAP1 PUSH1 0x1 ADD SWAP1 PUSH1 0x20 ADD DUP1 DUP4 GT PUSH2 0x3EB JUMPI DUP3 SWAP1 SUB PUSH1 0x1F AND DUP3 ADD SWAP2 JUMPDEST POP POP POP POP POP DUP2 JUMP JUMPDEST PUSH1 0x0 PUSH1 0x5 PUSH1 0x0 SWAP1 SLOAD SWAP1 PUSH2 0x100 EXP SWAP1 DIV PUSH20 0xFFFFFFFFFFFFFFFFFFFFFFFFFFFFFFFFFFFFFFFF AND PUSH20 0xFFFFFFFFFFFFFFFFFFFFFFFFFFFFFFFFFFFFFFFF AND CALLER PUSH20 0xFFFFFFFFFFFFFFFFFFFFFFFFFFFFFFFFFFFFFFFF AND EQ PUSH2 0x4A2 JUMPI PUSH1 0x40 MLOAD PUSH32 0x8C379A000000000000000000000000000000000000000000000000000000000 DUP2 MSTORE PUSH1 0x4 ADD PUSH2 0x499 SWAP1 PUSH2 0x2E9A JUMP JUMPDEST PUSH1 0x40 MLOAD DUP1 SWAP2 SUB SWAP1 REVERT JUMPDEST PUSH1 0x2 PUSH1 0x0 DUP2 SLOAD DUP1 SWAP3 SWAP2 SWAP1 PUSH2 0x4B5 SWAP1 PUSH2 0x324B JUMP JUMPDEST SWAP2 SWAP1 POP SSTORE POP DUP2 PUSH1 0x0 DUP1 PUSH1 0x2 SLOAD DUP2 MSTORE PUSH1 0x20 ADD SWAP1 DUP2 MSTORE PUSH1 0x20 ADD PUSH1 0x0 KECCAK256 SWAP1 DUP1 MLOAD SWAP1 PUSH1 0x20 ADD SWAP1 PUSH2 0x4E2 SWAP3 SWAP2 SWAP1 PUSH2 0x2107 JUMP JUMPDEST POP PUSH1 0x2 SLOAD SWAP1 POP SWAP2 SWAP1 POP JUMP JUMPDEST PUSH1 0x2 SLOAD DUP2 JUMP JUMPDEST PUSH20 0x0 PUSH4 0x767392B3 PUSH2 0x517 PUSH1 0x2 PUSH2 0x816 JUMP JUMPDEST PUSH1 0x0 PUSH1 0x40 MLOAD DUP4 PUSH4 0xFFFFFFFF AND PUSH1 0xE0 SHL DUP2 MSTORE PUSH1 0x4 ADD PUSH2 0x536 SWAP3 SWAP2 SWAP1 PUSH2 0x2AAC JUMP JUMPDEST PUSH1 0x20 PUSH1 0x40 MLOAD DUP1 DUP4 SUB DUP2 DUP7 DUP1 EXTCODESIZE ISZERO DUP1 ISZERO PUSH2 0x54E JUMPI PUSH1 0x0 DUP1 REVERT JUMPDEST POP GAS DELEGATECALL ISZERO DUP1 ISZERO PUSH2 0x562 JUMPI RETURNDATASIZE PUSH1 0x0 DUP1 RETURNDATACOPY RETURNDATASIZE PUSH1 0x0 REVERT JUMPDEST POP POP POP POP PUSH1 0x40 MLOAD RETURNDATASIZE PUSH1 0x1F NOT PUSH1 0x1F DUP3 ADD AND DUP3 ADD DUP1 PUSH1 0x40 MSTORE POP DUP2 ADD SWAP1 PUSH2 0x586 SWAP2 SWAP1 PUSH2 0x2412 JUMP JUMPDEST POP JUMP JUMPDEST ADDRESS PUSH20 0xFFFFFFFFFFFFFFFFFFFFFFFFFFFFFFFFFFFFFFFF AND PUSH4 0x2EE93C8 PUSH1 0x40 MLOAD DUP2 PUSH4 0xFFFFFFFF AND PUSH1 0xE0 SHL DUP2 MSTORE PUSH1 0x4 ADD PUSH2 0x5C0 SWAP1 PUSH2 0x2EBA JUMP JUMPDEST PUSH1 0x20 PUSH1 0x40 MLOAD DUP1 DUP4 SUB DUP2 PUSH1 0x0 DUP8 DUP1 EXTCODESIZE ISZERO DUP1 ISZERO PUSH2 0x5DA JUMPI PUSH1 0x0 DUP1 REVERT JUMPDEST POP GAS CALL SWAP3 POP POP POP DUP1 ISZERO PUSH2 0x60B JUMPI POP PUSH1 0x40 MLOAD RETURNDATASIZE PUSH1 0x1F NOT PUSH1 0x1F DUP3 ADD AND DUP3 ADD DUP1 PUSH1 0x40 MSTORE POP DUP2 ADD SWAP1 PUSH2 0x608 SWAP2 SWAP1 PUSH2 0x24B5 JUMP JUMPDEST PUSH1 0x1 JUMPDEST PUSH2 0x789 JUMPI PUSH2 0x617 PUSH2 0x3350 JUMP JUMPDEST DUP1 PUSH4 0x8C379A0 EQ ISZERO PUSH2 0x6C5 JUMPI POP PUSH2 0x62C PUSH2 0x379C JUMP JUMPDEST DUP1 PUSH2 0x637 JUMPI POP PUSH2 0x6C7 JUMP JUMPDEST PUSH20 0x0 PUSH4 0xE8C2CB16 DUP3 PUSH1 0x40 MLOAD DUP3 PUSH4 0xFFFFFFFF AND PUSH1 0xE0 SHL DUP2 MSTORE PUSH1 0x4 ADD PUSH2 0x66E SWAP2 SWAP1 PUSH2 0x2DA2 JUMP JUMPDEST PUSH1 0x20 PUSH1 0x40 MLOAD DUP1 DUP4 SUB DUP2 DUP7 DUP1 EXTCODESIZE ISZERO DUP1 ISZERO PUSH2 0x686 JUMPI PUSH1 0x0 DUP1 REVERT JUMPDEST POP GAS DELEGATECALL ISZERO DUP1 ISZERO PUSH2 0x69A JUMPI RETURNDATASIZE PUSH1 0x0 DUP1 RETURNDATACOPY RETURNDATASIZE PUSH1 0x0 REVERT JUMPDEST POP POP POP POP PUSH1 0x40 MLOAD RETURNDATASIZE PUSH1 0x1F NOT PUSH1 0x1F DUP3 ADD AND DUP3 ADD DUP1 PUSH1 0x40 MSTORE POP DUP2 ADD SWAP1 PUSH2 0x6BE SWAP2 SWAP1 PUSH2 0x2412 JUMP JUMPDEST POP POP PUSH2 0x784 JUMP JUMPDEST POP JUMPDEST RETURNDATASIZE DUP1 PUSH1 0x0 DUP2 EQ PUSH2 0x6F3 JUMPI PUSH1 0x40 MLOAD SWAP2 POP PUSH1 0x1F NOT PUSH1 0x3F RETURNDATASIZE ADD AND DUP3 ADD PUSH1 0x40 MSTORE RETURNDATASIZE DUP3 MSTORE RETURNDATASIZE PUSH1 0x0 PUSH1 0x20 DUP5 ADD RETURNDATACOPY PUSH2 0x6F8 JUMP JUMPDEST PUSH1 0x60 SWAP2 POP JUMPDEST POP PUSH20 0x0 PUSH4 0x39DF137F PUSH1 0x0 PUSH1 0x40 MLOAD DUP3 PUSH4 0xFFFFFFFF AND PUSH1 0xE0 SHL DUP2 MSTORE PUSH1 0x4 ADD PUSH2 0x731 SWAP2 SWAP1 PUSH2 0x2BAE JUMP JUMPDEST PUSH1 0x20 PUSH1 0x40 MLOAD DUP1 DUP4 SUB DUP2 DUP7 DUP1 EXTCODESIZE ISZERO DUP1 ISZERO PUSH2 0x749 JUMPI PUSH1 0x0 DUP1 REVERT JUMPDEST POP GAS DELEGATECALL ISZERO DUP1 ISZERO PUSH2 0x75D JUMPI RETURNDATASIZE PUSH1 0x0 DUP1 RETURNDATACOPY RETURNDATASIZE PUSH1 0x0 REVERT JUMPDEST POP POP POP POP PUSH1 0x40 MLOAD RETURNDATASIZE PUSH1 0x1F NOT PUSH1 0x1F DUP3 ADD AND DUP3 ADD DUP1 PUSH1 0x40 MSTORE POP DUP2 ADD SWAP1 PUSH2 0x781 SWAP2 SWAP1 PUSH2 0x2412 JUMP JUMPDEST POP POP JUMPDEST PUSH2 0x814 JUMP JUMPDEST PUSH20 0x0 PUSH4 0x39DF137F PUSH1 0x0 PUSH1 0x40 MLOAD DUP3 PUSH4 0xFFFFFFFF AND PUSH1 0xE0 SHL DUP2 MSTORE PUSH1 0x4 ADD PUSH2 0x7C1 SWAP2 SWAP1 PUSH2 0x2BDC JUMP JUMPDEST PUSH1 0x20 PUSH1 0x40 MLOAD DUP1 DUP4 SUB DUP2 DUP7 DUP1 EXTCODESIZE ISZERO DUP1 ISZERO PUSH2 0x7D9 JUMPI PUSH1 0x0 DUP1 REVERT JUMPDEST POP GAS DELEGATECALL ISZERO DUP1 ISZERO PUSH2 0x7ED JUMPI RETURNDATASIZE PUSH1 0x0 DUP1 RETURNDATACOPY RETURNDATASIZE PUSH1 0x0 REVERT JUMPDEST POP POP POP POP PUSH1 0x40 MLOAD RETURNDATASIZE PUSH1 0x1F NOT PUSH1 0x1F DUP3 ADD AND DUP3 ADD DUP1 PUSH1 0x40 MSTORE POP DUP2 ADD SWAP1 PUSH2 0x811 SWAP2 SWAP1 PUSH2 0x2412 JUMP JUMPDEST POP POP JUMPDEST JUMP JUMPDEST PUSH1 0x0 PUSH1 0x1 ISZERO ISZERO PUSH1 0x9 PUSH1 0x0 SWAP1 SLOAD SWAP1 PUSH2 0x100 EXP SWAP1 DIV PUSH1 0xFF AND ISZERO ISZERO EQ PUSH2 0x86E JUMPI PUSH1 0x40 MLOAD PUSH32 0x8C379A000000000000000000000000000000000000000000000000000000000 DUP2 MSTORE PUSH1 0x4 ADD PUSH2 0x865 SWAP1 PUSH2 0x2E7A JUMP JUMPDEST PUSH1 0x40 MLOAD DUP1 SWAP2 SUB SWAP1 REVERT JUMPDEST PUSH1 0x0 SWAP1 POP PUSH1 0x0 PUSH1 0x1 PUSH1 0x0 CALLER PUSH20 0xFFFFFFFFFFFFFFFFFFFFFFFFFFFFFFFFFFFFFFFF AND PUSH20 0xFFFFFFFFFFFFFFFFFFFFFFFFFFFFFFFFFFFFFFFF AND DUP2 MSTORE PUSH1 0x20 ADD SWAP1 DUP2 MSTORE PUSH1 0x20 ADD PUSH1 0x0 KECCAK256 PUSH1 0x0 ADD DUP1 SLOAD PUSH2 0x8C1 SWAP1 PUSH2 0x31E8 JUMP JUMPDEST SWAP1 POP EQ PUSH2 0xA1B JUMPI PUSH1 0x0 DUP1 PUSH1 0x0 DUP5 DUP2 MSTORE PUSH1 0x20 ADD SWAP1 DUP2 MSTORE PUSH1 0x20 ADD PUSH1 0x0 KECCAK256 DUP1 SLOAD PUSH2 0x8E7 SWAP1 PUSH2 0x31E8 JUMP JUMPDEST SWAP1 POP EQ PUSH2 0xA1A JUMPI PUSH1 0x1 SWAP1 POP PUSH1 0x1 DUP1 PUSH1 0x0 CALLER PUSH20 0xFFFFFFFFFFFFFFFFFFFFFFFFFFFFFFFFFFFFFFFF AND PUSH20 0xFFFFFFFFFFFFFFFFFFFFFFFFFFFFFFFFFFFFFFFF AND DUP2 MSTORE PUSH1 0x20 ADD SWAP1 DUP2 MSTORE PUSH1 0x20 ADD PUSH1 0x0 KECCAK256 PUSH1 0x1 ADD PUSH1 0x0 PUSH2 0x100 EXP DUP2 SLOAD DUP2 PUSH1 0xFF MUL NOT AND SWAP1 DUP4 ISZERO ISZERO MUL OR SWAP1 SSTORE POP PUSH2 0x954 PUSH2 0x218D JUMP JUMPDEST CALLER DUP2 PUSH1 0x0 ADD SWAP1 PUSH20 0xFFFFFFFFFFFFFFFFFFFFFFFFFFFFFFFFFFFFFFFF AND SWAP1 DUP2 PUSH20 0xFFFFFFFFFFFFFFFFFFFFFFFFFFFFFFFFFFFFFFFF AND DUP2 MSTORE POP POP DUP3 DUP2 PUSH1 0x20 ADD DUP2 DUP2 MSTORE POP POP PUSH1 0x4 PUSH1 0x0 DUP2 SLOAD DUP1 SWAP3 SWAP2 SWAP1 PUSH2 0x9A9 SWAP1 PUSH2 0x324B JUMP JUMPDEST SWAP2 SWAP1 POP SSTORE POP DUP1 PUSH1 0x7 PUSH1 0x0 PUSH1 0x4 SLOAD DUP2 MSTORE PUSH1 0x20 ADD SWAP1 DUP2 MSTORE PUSH1 0x20 ADD PUSH1 0x0 KECCAK256 PUSH1 0x0 DUP3 ADD MLOAD DUP2 PUSH1 0x0 ADD PUSH1 0x0 PUSH2 0x100 EXP DUP2 SLOAD DUP2 PUSH20 0xFFFFFFFFFFFFFFFFFFFFFFFFFFFFFFFFFFFFFFFF MUL NOT AND SWAP1 DUP4 PUSH20 0xFFFFFFFFFFFFFFFFFFFFFFFFFFFFFFFFFFFFFFFF AND MUL OR SWAP1 SSTORE POP PUSH1 0x20 DUP3 ADD MLOAD DUP2 PUSH1 0x1 ADD SSTORE SWAP1 POP POP POP JUMPDEST JUMPDEST PUSH1 0x1 PUSH1 0x2 PUSH1 0x3 SLOAD PUSH2 0xA2C SWAP2 SWAP1 PUSH2 0x30D3 JUMP JUMPDEST PUSH2 0xA36 SWAP2 SWAP1 PUSH2 0x307D JUMP JUMPDEST PUSH1 0x4 SLOAD LT PUSH2 0xA47 JUMPI PUSH2 0xA46 PUSH2 0x1FD1 JUMP JUMPDEST JUMPDEST SWAP2 SWAP1 POP JUMP JUMPDEST PUSH1 0x6 DUP1 SLOAD PUSH2 0xA59 SWAP1 PUSH2 0x31E8 JUMP JUMPDEST DUP1 PUSH1 0x1F ADD PUSH1 0x20 DUP1 SWAP2 DIV MUL PUSH1 0x20 ADD PUSH1 0x40 MLOAD SWAP1 DUP2 ADD PUSH1 0x40 MSTORE DUP1 SWAP3 SWAP2 SWAP1 DUP2 DUP2 MSTORE PUSH1 0x20 ADD DUP3 DUP1 SLOAD PUSH2 0xA85 SWAP1 PUSH2 0x31E8 JUMP JUMPDEST DUP1 ISZERO PUSH2 0xAD2 JUMPI DUP1 PUSH1 0x1F LT PUSH2 0xAA7 JUMPI PUSH2 0x100 DUP1 DUP4 SLOAD DIV MUL DUP4 MSTORE SWAP2 PUSH1 0x20 ADD SWAP2 PUSH2 0xAD2 JUMP JUMPDEST DUP3 ADD SWAP2 SWAP1 PUSH1 0x0 MSTORE PUSH1 0x20 PUSH1 0x0 KECCAK256 SWAP1 JUMPDEST DUP2 SLOAD DUP2 MSTORE SWAP1 PUSH1 0x1 ADD SWAP1 PUSH1 0x20 ADD DUP1 DUP4 GT PUSH2 0xAB5 JUMPI DUP3 SWAP1 SUB PUSH1 0x1F AND DUP3 ADD SWAP2 JUMPDEST POP POP POP POP POP DUP2 JUMP JUMPDEST PUSH1 0x1 PUSH1 0x20 MSTORE DUP1 PUSH1 0x0 MSTORE PUSH1 0x40 PUSH1 0x0 KECCAK256 PUSH1 0x0 SWAP2 POP SWAP1 POP DUP1 PUSH1 0x0 ADD DUP1 SLOAD PUSH2 0xAFD SWAP1 PUSH2 0x31E8 JUMP JUMPDEST DUP1 PUSH1 0x1F ADD PUSH1 0x20 DUP1 SWAP2 DIV MUL PUSH1 0x20 ADD PUSH1 0x40 MLOAD SWAP1 DUP2 ADD PUSH1 0x40 MSTORE DUP1 SWAP3 SWAP2 SWAP1 DUP2 DUP2 MSTORE PUSH1 0x20 ADD DUP3 DUP1 SLOAD PUSH2 0xB29 SWAP1 PUSH2 0x31E8 JUMP JUMPDEST DUP1 ISZERO PUSH2 0xB76 JUMPI DUP1 PUSH1 0x1F LT PUSH2 0xB4B JUMPI PUSH2 0x100 DUP1 DUP4 SLOAD DIV MUL DUP4 MSTORE SWAP2 PUSH1 0x20 ADD SWAP2 PUSH2 0xB76 JUMP JUMPDEST DUP3 ADD SWAP2 SWAP1 PUSH1 0x0 MSTORE PUSH1 0x20 PUSH1 0x0 KECCAK256 SWAP1 JUMPDEST DUP2 SLOAD DUP2 MSTORE SWAP1 PUSH1 0x1 ADD SWAP1 PUSH1 0x20 ADD DUP1 DUP4 GT PUSH2 0xB59 JUMPI DUP3 SWAP1 SUB PUSH1 0x1F AND DUP3 ADD SWAP2 JUMPDEST POP POP POP POP POP SWAP1 DUP1 PUSH1 0x1 ADD PUSH1 0x0 SWAP1 SLOAD SWAP1 PUSH2 0x100 EXP SWAP1 DIV PUSH1 0xFF AND SWAP1 POP DUP3 JUMP JUMPDEST PUSH20 0x0 PUSH4 0x39DF137F PUSH2 0xBB7 PUSH1 0x2 PUSH2 0x816 JUMP JUMPDEST PUSH1 0x40 MLOAD DUP3 PUSH4 0xFFFFFFFF AND PUSH1 0xE0 SHL DUP2 MSTORE PUSH1 0x4 ADD PUSH2 0xBD3 SWAP2 SWAP1 PUSH2 0x2C0A JUMP JUMPDEST PUSH1 0x20 PUSH1 0x40 MLOAD DUP1 DUP4 SUB DUP2 DUP7 DUP1 EXTCODESIZE ISZERO DUP1 ISZERO PUSH2 0xBEB JUMPI PUSH1 0x0 DUP1 REVERT JUMPDEST POP GAS DELEGATECALL ISZERO DUP1 ISZERO PUSH2 0xBFF JUMPI RETURNDATASIZE PUSH1 0x0 DUP1 RETURNDATACOPY RETURNDATASIZE PUSH1 0x0 REVERT JUMPDEST POP POP POP POP PUSH1 0x40 MLOAD RETURNDATASIZE PUSH1 0x1F NOT PUSH1 0x1F DUP3 ADD AND DUP3 ADD DUP1 PUSH1 0x40 MSTORE POP DUP2 ADD SWAP1 PUSH2 0xC23 SWAP2 SWAP1 PUSH2 0x2412 JUMP JUMPDEST POP JUMP JUMPDEST PUSH1 0x0 PUSH1 0x5 PUSH1 0x0 SWAP1 SLOAD SWAP1 PUSH2 0x100 EXP SWAP1 DIV PUSH20 0xFFFFFFFFFFFFFFFFFFFFFFFFFFFFFFFFFFFFFFFF AND PUSH20 0xFFFFFFFFFFFFFFFFFFFFFFFFFFFFFFFFFFFFFFFF AND CALLER PUSH20 0xFFFFFFFFFFFFFFFFFFFFFFFFFFFFFFFFFFFFFFFF AND EQ PUSH2 0xCB8 JUMPI PUSH1 0x40 MLOAD PUSH32 0x8C379A000000000000000000000000000000000000000000000000000000000 DUP2 MSTORE PUSH1 0x4 ADD PUSH2 0xCAF SWAP1 PUSH2 0x2E9A JUMP JUMPDEST PUSH1 0x40 MLOAD DUP1 SWAP2 SUB SWAP1 REVERT JUMPDEST PUSH2 0xCC0 PUSH2 0x21BD JUMP JUMPDEST DUP3 DUP2 PUSH1 0x0 ADD DUP2 SWAP1 MSTORE POP PUSH1 0x0 DUP2 PUSH1 0x20 ADD SWAP1 ISZERO ISZERO SWAP1 DUP2 ISZERO ISZERO DUP2 MSTORE POP POP DUP1 PUSH1 0x1 PUSH1 0x0 DUP7 PUSH20 0xFFFFFFFFFFFFFFFFFFFFFFFFFFFFFFFFFFFFFFFF AND PUSH20 0xFFFFFFFFFFFFFFFFFFFFFFFFFFFFFFFFFFFFFFFF AND DUP2 MSTORE PUSH1 0x20 ADD SWAP1 DUP2 MSTORE PUSH1 0x20 ADD PUSH1 0x0 KECCAK256 PUSH1 0x0 DUP3 ADD MLOAD DUP2 PUSH1 0x0 ADD SWAP1 DUP1 MLOAD SWAP1 PUSH1 0x20 ADD SWAP1 PUSH2 0xD36 SWAP3 SWAP2 SWAP1 PUSH2 0x2107 JUMP JUMPDEST POP PUSH1 0x20 DUP3 ADD MLOAD DUP2 PUSH1 0x1 ADD PUSH1 0x0 PUSH2 0x100 EXP DUP2 SLOAD DUP2 PUSH1 0xFF MUL NOT AND SWAP1 DUP4 ISZERO ISZERO MUL OR SWAP1 SSTORE POP SWAP1 POP POP PUSH1 0x3 PUSH1 0x0 DUP2 SLOAD DUP1 SWAP3 SWAP2 SWAP1 PUSH2 0xD6D SWAP1 PUSH2 0x324B JUMP JUMPDEST SWAP2 SWAP1 POP SSTORE POP PUSH1 0x3 SLOAD SWAP2 POP POP SWAP3 SWAP2 POP POP JUMP JUMPDEST PUSH1 0x3 SLOAD DUP2 JUMP JUMPDEST PUSH1 0x5 PUSH1 0x0 SWAP1 SLOAD SWAP1 PUSH2 0x100 EXP SWAP1 DIV PUSH20 0xFFFFFFFFFFFFFFFFFFFFFFFFFFFFFFFFFFFFFFFF AND DUP2 JUMP JUMPDEST PUSH20 0x0 PUSH4 0x767392B3 PUSH2 0xDCE PUSH1 0x2 PUSH2 0x816 JUMP JUMPDEST PUSH1 0x1 PUSH1 0x40 MLOAD DUP4 PUSH4 0xFFFFFFFF AND PUSH1 0xE0 SHL DUP2 MSTORE PUSH1 0x4 ADD PUSH2 0xDED SWAP3 SWAP2 SWAP1 PUSH2 0x2AE8 JUMP JUMPDEST PUSH1 0x20 PUSH1 0x40 MLOAD DUP1 DUP4 SUB DUP2 DUP7 DUP1 EXTCODESIZE ISZERO DUP1 ISZERO PUSH2 0xE05 JUMPI PUSH1 0x0 DUP1 REVERT JUMPDEST POP GAS DELEGATECALL ISZERO DUP1 ISZERO PUSH2 0xE19 JUMPI RETURNDATASIZE PUSH1 0x0 DUP1 RETURNDATACOPY RETURNDATASIZE PUSH1 0x0 REVERT JUMPDEST POP POP POP POP PUSH1 0x40 MLOAD RETURNDATASIZE PUSH1 0x1F NOT PUSH1 0x1F DUP3 ADD AND DUP3 ADD DUP1 PUSH1 0x40 MSTORE POP DUP2 ADD SWAP1 PUSH2 0xE3D SWAP2 SWAP1 PUSH2 0x2412 JUMP JUMPDEST POP JUMP JUMPDEST ADDRESS PUSH20 0xFFFFFFFFFFFFFFFFFFFFFFFFFFFFFFFFFFFFFFFF AND PUSH4 0x3B9F708D PUSH1 0xD PUSH1 0x0 SWAP1 SLOAD SWAP1 PUSH2 0x100 EXP SWAP1 DIV PUSH20 0xFFFFFFFFFFFFFFFFFFFFFFFFFFFFFFFFFFFFFFFF AND PUSH1 0x40 MLOAD DUP3 PUSH4 0xFFFFFFFF AND PUSH1 0xE0 SHL DUP2 MSTORE PUSH1 0x4 ADD PUSH2 0xE9B SWAP2 SWAP1 PUSH2 0x2A27 JUMP JUMPDEST PUSH1 0x20 PUSH1 0x40 MLOAD DUP1 DUP4 SUB DUP2 PUSH1 0x0 DUP8 DUP1 EXTCODESIZE ISZERO DUP1 ISZERO PUSH2 0xEB5 JUMPI PUSH1 0x0 DUP1 REVERT JUMPDEST POP GAS CALL SWAP3 POP POP POP DUP1 ISZERO PUSH2 0xEE6 JUMPI POP PUSH1 0x40 MLOAD RETURNDATASIZE PUSH1 0x1F NOT PUSH1 0x1F DUP3 ADD AND DUP3 ADD DUP1 PUSH1 0x40 MSTORE POP DUP2 ADD SWAP1 PUSH2 0xEE3 SWAP2 SWAP1 PUSH2 0x24B5 JUMP JUMPDEST PUSH1 0x1 JUMPDEST PUSH2 0x1064 JUMPI PUSH2 0xEF2 PUSH2 0x3350 JUMP JUMPDEST DUP1 PUSH4 0x8C379A0 EQ ISZERO PUSH2 0xFA0 JUMPI POP PUSH2 0xF07 PUSH2 0x379C JUMP JUMPDEST DUP1 PUSH2 0xF12 JUMPI POP PUSH2 0xFA2 JUMP JUMPDEST PUSH20 0x0 PUSH4 0xE8C2CB16 DUP3 PUSH1 0x40 MLOAD DUP3 PUSH4 0xFFFFFFFF AND PUSH1 0xE0 SHL DUP2 MSTORE PUSH1 0x4 ADD PUSH2 0xF49 SWAP2 SWAP1 PUSH2 0x2DEA JUMP JUMPDEST PUSH1 0x20 PUSH1 0x40 MLOAD DUP1 DUP4 SUB DUP2 DUP7 DUP1 EXTCODESIZE ISZERO DUP1 ISZERO PUSH2 0xF61 JUMPI PUSH1 0x0 DUP1 REVERT JUMPDEST POP GAS DELEGATECALL ISZERO DUP1 ISZERO PUSH2 0xF75 JUMPI RETURNDATASIZE PUSH1 0x0 DUP1 RETURNDATACOPY RETURNDATASIZE PUSH1 0x0 REVERT JUMPDEST POP POP POP POP PUSH1 0x40 MLOAD RETURNDATASIZE PUSH1 0x1F NOT PUSH1 0x1F DUP3 ADD AND DUP3 ADD DUP1 PUSH1 0x40 MSTORE POP DUP2 ADD SWAP1 PUSH2 0xF99 SWAP2 SWAP1 PUSH2 0x2412 JUMP JUMPDEST POP POP PUSH2 0x105F JUMP JUMPDEST POP JUMPDEST RETURNDATASIZE DUP1 PUSH1 0x0 DUP2 EQ PUSH2 0xFCE JUMPI PUSH1 0x40 MLOAD SWAP2 POP PUSH1 0x1F NOT PUSH1 0x3F RETURNDATASIZE ADD AND DUP3 ADD PUSH1 0x40 MSTORE RETURNDATASIZE DUP3 MSTORE RETURNDATASIZE PUSH1 0x0 PUSH1 0x20 DUP5 ADD RETURNDATACOPY PUSH2 0xFD3 JUMP JUMPDEST PUSH1 0x60 SWAP2 POP JUMPDEST POP PUSH20 0x0 PUSH4 0x39DF137F PUSH1 0x0 PUSH1 0x40 MLOAD DUP3 PUSH4 0xFFFFFFFF AND PUSH1 0xE0 SHL DUP2 MSTORE PUSH1 0x4 ADD PUSH2 0x100C SWAP2 SWAP1 PUSH2 0x2C38 JUMP JUMPDEST PUSH1 0x20 PUSH1 0x40 MLOAD DUP1 DUP4 SUB DUP2 DUP7 DUP1 EXTCODESIZE ISZERO DUP1 ISZERO PUSH2 0x1024 JUMPI PUSH1 0x0 DUP1 REVERT JUMPDEST POP GAS DELEGATECALL ISZERO DUP1 ISZERO PUSH2 0x1038 JUMPI RETURNDATASIZE PUSH1 0x0 DUP1 RETURNDATACOPY RETURNDATASIZE PUSH1 0x0 REVERT JUMPDEST POP POP POP POP PUSH1 0x40 MLOAD RETURNDATASIZE PUSH1 0x1F NOT PUSH1 0x1F DUP3 ADD AND DUP3 ADD DUP1 PUSH1 0x40 MSTORE POP DUP2 ADD SWAP1 PUSH2 0x105C SWAP2 SWAP1 PUSH2 0x2412 JUMP JUMPDEST POP POP JUMPDEST PUSH2 0x10EF JUMP JUMPDEST PUSH20 0x0 PUSH4 0x39DF137F PUSH1 0x0 PUSH1 0x40 MLOAD DUP3 PUSH4 0xFFFFFFFF AND PUSH1 0xE0 SHL DUP2 MSTORE PUSH1 0x4 ADD PUSH2 0x109C SWAP2 SWAP1 PUSH2 0x2B80 JUMP JUMPDEST PUSH1 0x20 PUSH1 0x40 MLOAD DUP1 DUP4 SUB DUP2 DUP7 DUP1 EXTCODESIZE ISZERO DUP1 ISZERO PUSH2 0x10B4 JUMPI PUSH1 0x0 DUP1 REVERT JUMPDEST POP GAS DELEGATECALL ISZERO DUP1 ISZERO PUSH2 0x10C8 JUMPI RETURNDATASIZE PUSH1 0x0 DUP1 RETURNDATACOPY RETURNDATASIZE PUSH1 0x0 REVERT JUMPDEST POP POP POP POP PUSH1 0x40 MLOAD RETURNDATASIZE PUSH1 0x1F NOT PUSH1 0x1F DUP3 ADD AND DUP3 ADD DUP1 PUSH1 0x40 MSTORE POP DUP2 ADD SWAP1 PUSH2 0x10EC SWAP2 SWAP1 PUSH2 0x2412 JUMP JUMPDEST POP POP JUMPDEST JUMP JUMPDEST PUSH20 0x0 PUSH4 0xCE88B145 PUSH1 0x0 PUSH1 0x40 MLOAD DUP3 PUSH4 0xFFFFFFFF AND PUSH1 0xE0 SHL DUP2 MSTORE PUSH1 0x4 ADD PUSH2 0x1129 SWAP2 SWAP1 PUSH2 0x2C66 JUMP JUMPDEST PUSH1 0x20 PUSH1 0x40 MLOAD DUP1 DUP4 SUB DUP2 DUP7 DUP1 EXTCODESIZE ISZERO DUP1 ISZERO PUSH2 0x1141 JUMPI PUSH1 0x0 DUP1 REVERT JUMPDEST POP GAS DELEGATECALL ISZERO DUP1 ISZERO PUSH2 0x1155 JUMPI RETURNDATASIZE PUSH1 0x0 DUP1 RETURNDATACOPY RETURNDATASIZE PUSH1 0x0 REVERT JUMPDEST POP POP POP POP PUSH1 0x40 MLOAD RETURNDATASIZE PUSH1 0x1F NOT PUSH1 0x1F DUP3 ADD AND DUP3 ADD DUP1 PUSH1 0x40 MSTORE POP DUP2 ADD SWAP1 PUSH2 0x1179 SWAP2 SWAP1 PUSH2 0x2389 JUMP JUMPDEST PUSH1 0x9 PUSH1 0x1 PUSH2 0x100 EXP DUP2 SLOAD DUP2 PUSH20 0xFFFFFFFFFFFFFFFFFFFFFFFFFFFFFFFFFFFFFFFF MUL NOT AND SWAP1 DUP4 PUSH20 0xFFFFFFFFFFFFFFFFFFFFFFFFFFFFFFFFFFFFFFFF AND MUL OR SWAP1 SSTORE POP PUSH20 0x0 PUSH4 0xCE88B145 PUSH1 0x1 PUSH1 0x40 MLOAD DUP3 PUSH4 0xFFFFFFFF AND PUSH1 0xE0 SHL DUP2 MSTORE PUSH1 0x4 ADD PUSH2 0x11F1 SWAP2 SWAP1 PUSH2 0x2C81 JUMP JUMPDEST PUSH1 0x20 PUSH1 0x40 MLOAD DUP1 DUP4 SUB DUP2 DUP7 DUP1 EXTCODESIZE ISZERO DUP1 ISZERO PUSH2 0x1209 JUMPI PUSH1 0x0 DUP1 REVERT JUMPDEST POP GAS DELEGATECALL ISZERO DUP1 ISZERO PUSH2 0x121D JUMPI RETURNDATASIZE PUSH1 0x0 DUP1 RETURNDATACOPY RETURNDATASIZE PUSH1 0x0 REVERT JUMPDEST POP POP POP POP PUSH1 0x40 MLOAD RETURNDATASIZE PUSH1 0x1F NOT PUSH1 0x1F DUP3 ADD AND DUP3 ADD DUP1 PUSH1 0x40 MSTORE POP DUP2 ADD SWAP1 PUSH2 0x1241 SWAP2 SWAP1 PUSH2 0x2389 JUMP JUMPDEST PUSH1 0xA PUSH1 0x0 PUSH2 0x100 EXP DUP2 SLOAD DUP2 PUSH20 0xFFFFFFFFFFFFFFFFFFFFFFFFFFFFFFFFFFFFFFFF MUL NOT AND SWAP1 DUP4 PUSH20 0xFFFFFFFFFFFFFFFFFFFFFFFFFFFFFFFFFFFFFFFF AND MUL OR SWAP1 SSTORE POP PUSH20 0x0 PUSH4 0xCE88B145 PUSH1 0x2 PUSH1 0x40 MLOAD DUP3 PUSH4 0xFFFFFFFF AND PUSH1 0xE0 SHL DUP2 MSTORE PUSH1 0x4 ADD PUSH2 0x12B9 SWAP2 SWAP1 PUSH2 0x2CB7 JUMP JUMPDEST PUSH1 0x20 PUSH1 0x40 MLOAD DUP1 DUP4 SUB DUP2 DUP7 DUP1 EXTCODESIZE ISZERO DUP1 ISZERO PUSH2 0x12D1 JUMPI PUSH1 0x0 DUP1 REVERT JUMPDEST POP GAS DELEGATECALL ISZERO DUP1 ISZERO PUSH2 0x12E5 JUMPI RETURNDATASIZE PUSH1 0x0 DUP1 RETURNDATACOPY RETURNDATASIZE PUSH1 0x0 REVERT JUMPDEST POP POP POP POP PUSH1 0x40 MLOAD RETURNDATASIZE PUSH1 0x1F NOT PUSH1 0x1F DUP3 ADD AND DUP3 ADD DUP1 PUSH1 0x40 MSTORE POP DUP2 ADD SWAP1 PUSH2 0x1309 SWAP2 SWAP1 PUSH2 0x2389 JUMP JUMPDEST PUSH1 0xB PUSH1 0x0 PUSH2 0x100 EXP DUP2 SLOAD DUP2 PUSH20 0xFFFFFFFFFFFFFFFFFFFFFFFFFFFFFFFFFFFFFFFF MUL NOT AND SWAP1 DUP4 PUSH20 0xFFFFFFFFFFFFFFFFFFFFFFFFFFFFFFFFFFFFFFFF AND MUL OR SWAP1 SSTORE POP PUSH20 0x0 PUSH4 0xCE88B145 PUSH1 0x3 PUSH1 0x40 MLOAD DUP3 PUSH4 0xFFFFFFFF AND PUSH1 0xE0 SHL DUP2 MSTORE PUSH1 0x4 ADD PUSH2 0x1381 SWAP2 SWAP1 PUSH2 0x2CD2 JUMP JUMPDEST PUSH1 0x20 PUSH1 0x40 MLOAD DUP1 DUP4 SUB DUP2 DUP7 DUP1 EXTCODESIZE ISZERO DUP1 ISZERO PUSH2 0x1399 JUMPI PUSH1 0x0 DUP1 REVERT JUMPDEST POP GAS DELEGATECALL ISZERO DUP1 ISZERO PUSH2 0x13AD JUMPI RETURNDATASIZE PUSH1 0x0 DUP1 RETURNDATACOPY RETURNDATASIZE PUSH1 0x0 REVERT JUMPDEST POP POP POP POP PUSH1 0x40 MLOAD RETURNDATASIZE PUSH1 0x1F NOT PUSH1 0x1F DUP3 ADD AND DUP3 ADD DUP1 PUSH1 0x40 MSTORE POP DUP2 ADD SWAP1 PUSH2 0x13D1 SWAP2 SWAP1 PUSH2 0x2389 JUMP JUMPDEST PUSH1 0xC PUSH1 0x0 PUSH2 0x100 EXP DUP2 SLOAD DUP2 PUSH20 0xFFFFFFFFFFFFFFFFFFFFFFFFFFFFFFFFFFFFFFFF MUL NOT AND SWAP1 DUP4 PUSH20 0xFFFFFFFFFFFFFFFFFFFFFFFFFFFFFFFFFFFFFFFF AND MUL OR SWAP1 SSTORE POP PUSH20 0x0 PUSH4 0xCE88B145 PUSH1 0x4 PUSH1 0x40 MLOAD DUP3 PUSH4 0xFFFFFFFF AND PUSH1 0xE0 SHL DUP2 MSTORE PUSH1 0x4 ADD PUSH2 0x1449 SWAP2 SWAP1 PUSH2 0x2CED JUMP JUMPDEST PUSH1 0x20 PUSH1 0x40 MLOAD DUP1 DUP4 SUB DUP2 DUP7 DUP1 EXTCODESIZE ISZERO DUP1 ISZERO PUSH2 0x1461 JUMPI PUSH1 0x0 DUP1 REVERT JUMPDEST POP GAS DELEGATECALL ISZERO DUP1 ISZERO PUSH2 0x1475 JUMPI RETURNDATASIZE PUSH1 0x0 DUP1 RETURNDATACOPY RETURNDATASIZE PUSH1 0x0 REVERT JUMPDEST POP POP POP POP PUSH1 0x40 MLOAD RETURNDATASIZE PUSH1 0x1F NOT PUSH1 0x1F DUP3 ADD AND DUP3 ADD DUP1 PUSH1 0x40 MSTORE POP DUP2 ADD SWAP1 PUSH2 0x1499 SWAP2 SWAP1 PUSH2 0x2389 JUMP JUMPDEST PUSH1 0xD PUSH1 0x0 PUSH2 0x100 EXP DUP2 SLOAD DUP2 PUSH20 0xFFFFFFFFFFFFFFFFFFFFFFFFFFFFFFFFFFFFFFFF MUL NOT AND SWAP1 DUP4 PUSH20 0xFFFFFFFFFFFFFFFFFFFFFFFFFFFFFFFFFFFFFFFF AND MUL OR SWAP1 SSTORE POP JUMP JUMPDEST PUSH20 0x0 PUSH4 0xABCD7960 PUSH2 0x1556 PUSH1 0x9 PUSH1 0x1 SWAP1 SLOAD SWAP1 PUSH2 0x100 EXP SWAP1 DIV PUSH20 0xFFFFFFFFFFFFFFFFFFFFFFFFFFFFFFFFFFFFFFFF AND PUSH1 0x40 MLOAD DUP1 PUSH1 0x40 ADD PUSH1 0x40 MSTORE DUP1 PUSH1 0x6 DUP2 MSTORE PUSH1 0x20 ADD PUSH32 0x416C696365200000000000000000000000000000000000000000000000000000 DUP2 MSTORE POP PUSH2 0xC26 JUMP JUMPDEST PUSH1 0x1 PUSH1 0x40 MLOAD DUP4 PUSH4 0xFFFFFFFF AND PUSH1 0xE0 SHL DUP2 MSTORE PUSH1 0x4 ADD PUSH2 0x1575 SWAP3 SWAP2 SWAP1 PUSH2 0x2EF5 JUMP JUMPDEST PUSH1 0x20 PUSH1 0x40 MLOAD DUP1 DUP4 SUB DUP2 DUP7 DUP1 EXTCODESIZE ISZERO DUP1 ISZERO PUSH2 0x158D JUMPI PUSH1 0x0 DUP1 REVERT JUMPDEST POP GAS DELEGATECALL ISZERO DUP1 ISZERO PUSH2 0x15A1 JUMPI RETURNDATASIZE PUSH1 0x0 DUP1 RETURNDATACOPY RETURNDATASIZE PUSH1 0x0 REVERT JUMPDEST POP POP POP POP PUSH1 0x40 MLOAD RETURNDATASIZE PUSH1 0x1F NOT PUSH1 0x1F DUP3 ADD AND DUP3 ADD DUP1 PUSH1 0x40 MSTORE POP DUP2 ADD SWAP1 PUSH2 0x15C5 SWAP2 SWAP1 PUSH2 0x2412 JUMP JUMPDEST POP PUSH20 0x0 PUSH4 0xABCD7960 PUSH2 0x1641 PUSH1 0xA PUSH1 0x0 SWAP1 SLOAD SWAP1 PUSH2 0x100 EXP SWAP1 DIV PUSH20 0xFFFFFFFFFFFFFFFFFFFFFFFFFFFFFFFFFFFFFFFF AND PUSH1 0x40 MLOAD DUP1 PUSH1 0x40 ADD PUSH1 0x40 MSTORE DUP1 PUSH1 0x4 DUP2 MSTORE PUSH1 0x20 ADD PUSH32 0x426F622000000000000000000000000000000000000000000000000000000000 DUP2 MSTORE POP PUSH2 0xC26 JUMP JUMPDEST PUSH1 0x2 PUSH1 0x40 MLOAD DUP4 PUSH4 0xFFFFFFFF AND PUSH1 0xE0 SHL DUP2 MSTORE PUSH1 0x4 ADD PUSH2 0x1660 SWAP3 SWAP2 SWAP1 PUSH2 0x2F31 JUMP JUMPDEST PUSH1 0x20 PUSH1 0x40 MLOAD DUP1 DUP4 SUB DUP2 DUP7 DUP1 EXTCODESIZE ISZERO DUP1 ISZERO PUSH2 0x1678 JUMPI PUSH1 0x0 DUP1 REVERT JUMPDEST POP GAS DELEGATECALL ISZERO DUP1 ISZERO PUSH2 0x168C JUMPI RETURNDATASIZE PUSH1 0x0 DUP1 RETURNDATACOPY RETURNDATASIZE PUSH1 0x0 REVERT JUMPDEST POP POP POP POP PUSH1 0x40 MLOAD RETURNDATASIZE PUSH1 0x1F NOT PUSH1 0x1F DUP3 ADD AND DUP3 ADD DUP1 PUSH1 0x40 MSTORE POP DUP2 ADD SWAP1 PUSH2 0x16B0 SWAP2 SWAP1 PUSH2 0x2412 JUMP JUMPDEST POP PUSH20 0x0 PUSH4 0xABCD7960 PUSH2 0x172C PUSH1 0xB PUSH1 0x0 SWAP1 SLOAD SWAP1 PUSH2 0x100 EXP SWAP1 DIV PUSH20 0xFFFFFFFFFFFFFFFFFFFFFFFFFFFFFFFFFFFFFFFF AND PUSH1 0x40 MLOAD DUP1 PUSH1 0x40 ADD PUSH1 0x40 MSTORE DUP1 PUSH1 0x8 DUP2 MSTORE PUSH1 0x20 ADD PUSH32 0x436861726C696520000000000000000000000000000000000000000000000000 DUP2 MSTORE POP PUSH2 0xC26 JUMP JUMPDEST PUSH1 0x3 PUSH1 0x40 MLOAD DUP4 PUSH4 0xFFFFFFFF AND PUSH1 0xE0 SHL DUP2 MSTORE PUSH1 0x4 ADD PUSH2 0x174B SWAP3 SWAP2 SWAP1 PUSH2 0x2F6D JUMP JUMPDEST PUSH1 0x20 PUSH1 0x40 MLOAD DUP1 DUP4 SUB DUP2 DUP7 DUP1 EXTCODESIZE ISZERO DUP1 ISZERO PUSH2 0x1763 JUMPI PUSH1 0x0 DUP1 REVERT JUMPDEST POP GAS DELEGATECALL ISZERO DUP1 ISZERO PUSH2 0x1777 JUMPI RETURNDATASIZE PUSH1 0x0 DUP1 RETURNDATACOPY RETURNDATASIZE PUSH1 0x0 REVERT JUMPDEST POP POP POP POP PUSH1 0x40 MLOAD RETURNDATASIZE PUSH1 0x1F NOT PUSH1 0x1F DUP3 ADD AND DUP3 ADD DUP1 PUSH1 0x40 MSTORE POP DUP2 ADD SWAP1 PUSH2 0x179B SWAP2 SWAP1 PUSH2 0x2412 JUMP JUMPDEST POP PUSH20 0x0 PUSH4 0xABCD7960 PUSH2 0x1817 PUSH1 0xC PUSH1 0x0 SWAP1 SLOAD SWAP1 PUSH2 0x100 EXP SWAP1 DIV PUSH20 0xFFFFFFFFFFFFFFFFFFFFFFFFFFFFFFFFFFFFFFFF AND PUSH1 0x40 MLOAD DUP1 PUSH1 0x40 ADD PUSH1 0x40 MSTORE DUP1 PUSH1 0x4 DUP2 MSTORE PUSH1 0x20 ADD PUSH32 0x4576652000000000000000000000000000000000000000000000000000000000 DUP2 MSTORE POP PUSH2 0xC26 JUMP JUMPDEST PUSH1 0x4 PUSH1 0x40 MLOAD DUP4 PUSH4 0xFFFFFFFF AND PUSH1 0xE0 SHL DUP2 MSTORE PUSH1 0x4 ADD PUSH2 0x1836 SWAP3 SWAP2 SWAP1 PUSH2 0x2FA9 JUMP JUMPDEST PUSH1 0x20 PUSH1 0x40 MLOAD DUP1 DUP4 SUB DUP2 DUP7 DUP1 EXTCODESIZE ISZERO DUP1 ISZERO PUSH2 0x184E JUMPI PUSH1 0x0 DUP1 REVERT JUMPDEST POP GAS DELEGATECALL ISZERO DUP1 ISZERO PUSH2 0x1862 JUMPI RETURNDATASIZE PUSH1 0x0 DUP1 RETURNDATACOPY RETURNDATASIZE PUSH1 0x0 REVERT JUMPDEST POP POP POP POP PUSH1 0x40 MLOAD RETURNDATASIZE PUSH1 0x1F NOT PUSH1 0x1F DUP3 ADD AND DUP3 ADD DUP1 PUSH1 0x40 MSTORE POP DUP2 ADD SWAP1 PUSH2 0x1886 SWAP2 SWAP1 PUSH2 0x2412 JUMP JUMPDEST POP JUMP JUMPDEST PUSH20 0x0 PUSH4 0xABCD7960 PUSH2 0x18E1 PUSH1 0x40 MLOAD DUP1 PUSH1 0x40 ADD PUSH1 0x40 MSTORE DUP1 PUSH1 0xE DUP2 MSTORE PUSH1 0x20 ADD PUSH32 0x436F757274796172642043616665000000000000000000000000000000000000 DUP2 MSTORE POP PUSH2 0x410 JUMP JUMPDEST PUSH1 0x1 PUSH1 0x40 MLOAD DUP4 PUSH4 0xFFFFFFFF AND PUSH1 0xE0 SHL DUP2 MSTORE PUSH1 0x4 ADD PUSH2 0x1900 SWAP3 SWAP2 SWAP1 PUSH2 0x2EF5 JUMP JUMPDEST PUSH1 0x20 PUSH1 0x40 MLOAD DUP1 DUP4 SUB DUP2 DUP7 DUP1 EXTCODESIZE ISZERO DUP1 ISZERO PUSH2 0x1918 JUMPI PUSH1 0x0 DUP1 REVERT JUMPDEST POP GAS DELEGATECALL ISZERO DUP1 ISZERO PUSH2 0x192C JUMPI RETURNDATASIZE PUSH1 0x0 DUP1 RETURNDATACOPY RETURNDATASIZE PUSH1 0x0 REVERT JUMPDEST POP POP POP POP PUSH1 0x40 MLOAD RETURNDATASIZE PUSH1 0x1F NOT PUSH1 0x1F DUP3 ADD AND DUP3 ADD DUP1 PUSH1 0x40 MSTORE POP DUP2 ADD SWAP1 PUSH2 0x1950 SWAP2 SWAP1 PUSH2 0x2412 JUMP JUMPDEST POP PUSH20 0x0 PUSH4 0xABCD7960 PUSH2 0x19A9 PUSH1 0x40 MLOAD DUP1 PUSH1 0x40 ADD PUSH1 0x40 MSTORE DUP1 PUSH1 0x8 DUP2 MSTORE PUSH1 0x20 ADD PUSH32 0x556E692043616665000000000000000000000000000000000000000000000000 DUP2 MSTORE POP PUSH2 0x410 JUMP JUMPDEST PUSH1 0x2 PUSH1 0x40 MLOAD DUP4 PUSH4 0xFFFFFFFF AND PUSH1 0xE0 SHL DUP2 MSTORE PUSH1 0x4 ADD PUSH2 0x19C8 SWAP3 SWAP2 SWAP1 PUSH2 0x2F31 JUMP JUMPDEST PUSH1 0x20 PUSH1 0x40 MLOAD DUP1 DUP4 SUB DUP2 DUP7 DUP1 EXTCODESIZE ISZERO DUP1 ISZERO PUSH2 0x19E0 JUMPI PUSH1 0x0 DUP1 REVERT JUMPDEST POP GAS DELEGATECALL ISZERO DUP1 ISZERO PUSH2 0x19F4 JUMPI RETURNDATASIZE PUSH1 0x0 DUP1 RETURNDATACOPY RETURNDATASIZE PUSH1 0x0 REVERT JUMPDEST POP POP POP POP PUSH1 0x40 MLOAD RETURNDATASIZE PUSH1 0x1F NOT PUSH1 0x1F DUP3 ADD AND DUP3 ADD DUP1 PUSH1 0x40 MSTORE POP DUP2 ADD SWAP1 PUSH2 0x1A18 SWAP2 SWAP1 PUSH2 0x2412 JUMP JUMPDEST POP JUMP JUMPDEST PUSH20 0x0 PUSH4 0xBFBA5DD6 PUSH1 0x5 PUSH1 0x0 SWAP1 SLOAD SWAP1 PUSH2 0x100 EXP SWAP1 DIV PUSH20 0xFFFFFFFFFFFFFFFFFFFFFFFFFFFFFFFFFFFFFFFF AND PUSH1 0x9 PUSH1 0x1 SWAP1 SLOAD SWAP1 PUSH2 0x100 EXP SWAP1 DIV PUSH20 0xFFFFFFFFFFFFFFFFFFFFFFFFFFFFFFFFFFFFFFFF AND PUSH1 0x40 MLOAD DUP4 PUSH4 0xFFFFFFFF AND PUSH1 0xE0 SHL DUP2 MSTORE PUSH1 0x4 ADD PUSH2 0x1A98 SWAP3 SWAP2 SWAP1 PUSH2 0x29EB JUMP JUMPDEST PUSH1 0x20 PUSH1 0x40 MLOAD DUP1 DUP4 SUB DUP2 DUP7 DUP1 EXTCODESIZE ISZERO DUP1 ISZERO PUSH2 0x1AB0 JUMPI PUSH1 0x0 DUP1 REVERT JUMPDEST POP GAS DELEGATECALL ISZERO DUP1 ISZERO PUSH2 0x1AC4 JUMPI RETURNDATASIZE PUSH1 0x0 DUP1 RETURNDATACOPY RETURNDATASIZE PUSH1 0x0 REVERT JUMPDEST POP POP POP POP PUSH1 0x40 MLOAD RETURNDATASIZE PUSH1 0x1F NOT PUSH1 0x1F DUP3 ADD AND DUP3 ADD DUP1 PUSH1 0x40 MSTORE POP DUP2 ADD SWAP1 PUSH2 0x1AE8 SWAP2 SWAP1 PUSH2 0x2412 JUMP JUMPDEST POP JUMP JUMPDEST PUSH20 0x0 PUSH4 0x39DF137F PUSH2 0x1B0F PUSH1 0x1 PUSH2 0x816 JUMP JUMPDEST PUSH1 0x40 MLOAD DUP3 PUSH4 0xFFFFFFFF AND PUSH1 0xE0 SHL DUP2 MSTORE PUSH1 0x4 ADD PUSH2 0x1B2B SWAP2 SWAP1 PUSH2 0x2C0A JUMP JUMPDEST PUSH1 0x20 PUSH1 0x40 MLOAD DUP1 DUP4 SUB DUP2 DUP7 DUP1 EXTCODESIZE ISZERO DUP1 ISZERO PUSH2 0x1B43 JUMPI PUSH1 0x0 DUP1 REVERT JUMPDEST POP GAS DELEGATECALL ISZERO DUP1 ISZERO PUSH2 0x1B57 JUMPI RETURNDATASIZE PUSH1 0x0 DUP1 RETURNDATACOPY RETURNDATASIZE PUSH1 0x0 REVERT JUMPDEST POP POP POP POP PUSH1 0x40 MLOAD RETURNDATASIZE PUSH1 0x1F NOT PUSH1 0x1F DUP3 ADD AND DUP3 ADD DUP1 PUSH1 0x40 MSTORE POP DUP2 ADD SWAP1 PUSH2 0x1B7B SWAP2 SWAP1 PUSH2 0x2412 JUMP JUMPDEST POP JUMP JUMPDEST PUSH1 0x4 SLOAD DUP2 JUMP JUMPDEST ADDRESS PUSH20 0xFFFFFFFFFFFFFFFFFFFFFFFFFFFFFFFFFFFFFFFF AND PUSH4 0x124258C6 PUSH1 0x1 PUSH1 0x40 MLOAD DUP3 PUSH4 0xFFFFFFFF AND PUSH1 0xE0 SHL DUP2 MSTORE PUSH1 0x4 ADD PUSH2 0x1BBE SWAP2 SWAP1 PUSH2 0x2C9C JUMP JUMPDEST PUSH1 0x20 PUSH1 0x40 MLOAD DUP1 DUP4 SUB DUP2 PUSH1 0x0 DUP8 DUP1 EXTCODESIZE ISZERO DUP1 ISZERO PUSH2 0x1BD8 JUMPI PUSH1 0x0 DUP1 REVERT JUMPDEST POP GAS CALL SWAP3 POP POP POP DUP1 ISZERO PUSH2 0x1C09 JUMPI POP PUSH1 0x40 MLOAD RETURNDATASIZE PUSH1 0x1F NOT PUSH1 0x1F DUP3 ADD AND DUP3 ADD DUP1 PUSH1 0x40 MSTORE POP DUP2 ADD SWAP1 PUSH2 0x1C06 SWAP2 SWAP1 PUSH2 0x2412 JUMP JUMPDEST PUSH1 0x1 JUMPDEST PUSH2 0x1D87 JUMPI PUSH2 0x1C15 PUSH2 0x3350 JUMP JUMPDEST DUP1 PUSH4 0x8C379A0 EQ ISZERO PUSH2 0x1CC3 JUMPI POP PUSH2 0x1C2A PUSH2 0x379C JUMP JUMPDEST DUP1 PUSH2 0x1C35 JUMPI POP PUSH2 0x1CC5 JUMP JUMPDEST PUSH20 0x0 PUSH4 0xE8C2CB16 DUP3 PUSH1 0x40 MLOAD DUP3 PUSH4 0xFFFFFFFF AND PUSH1 0xE0 SHL DUP2 MSTORE PUSH1 0x4 ADD PUSH2 0x1C6C SWAP2 SWAP1 PUSH2 0x2D5A JUMP JUMPDEST PUSH1 0x20 PUSH1 0x40 MLOAD DUP1 DUP4 SUB DUP2 DUP7 DUP1 EXTCODESIZE ISZERO DUP1 ISZERO PUSH2 0x1C84 JUMPI PUSH1 0x0 DUP1 REVERT JUMPDEST POP GAS DELEGATECALL ISZERO DUP1 ISZERO PUSH2 0x1C98 JUMPI RETURNDATASIZE PUSH1 0x0 DUP1 RETURNDATACOPY RETURNDATASIZE PUSH1 0x0 REVERT JUMPDEST POP POP POP POP PUSH1 0x40 MLOAD RETURNDATASIZE PUSH1 0x1F NOT PUSH1 0x1F DUP3 ADD AND DUP3 ADD DUP1 PUSH1 0x40 MSTORE POP DUP2 ADD SWAP1 PUSH2 0x1CBC SWAP2 SWAP1 PUSH2 0x2412 JUMP JUMPDEST POP POP PUSH2 0x1D82 JUMP JUMPDEST POP JUMPDEST RETURNDATASIZE DUP1 PUSH1 0x0 DUP2 EQ PUSH2 0x1CF1 JUMPI PUSH1 0x40 MLOAD SWAP2 POP PUSH1 0x1F NOT PUSH1 0x3F RETURNDATASIZE ADD AND DUP3 ADD PUSH1 0x40 MSTORE RETURNDATASIZE DUP3 MSTORE RETURNDATASIZE PUSH1 0x0 PUSH1 0x20 DUP5 ADD RETURNDATACOPY PUSH2 0x1CF6 JUMP JUMPDEST PUSH1 0x60 SWAP2 POP JUMPDEST POP PUSH20 0x0 PUSH4 0x39DF137F PUSH1 0x0 PUSH1 0x40 MLOAD DUP3 PUSH4 0xFFFFFFFF AND PUSH1 0xE0 SHL DUP2 MSTORE PUSH1 0x4 ADD PUSH2 0x1D2F SWAP2 SWAP1 PUSH2 0x2B52 JUMP JUMPDEST PUSH1 0x20 PUSH1 0x40 MLOAD DUP1 DUP4 SUB DUP2 DUP7 DUP1 EXTCODESIZE ISZERO DUP1 ISZERO PUSH2 0x1D47 JUMPI PUSH1 0x0 DUP1 REVERT JUMPDEST POP GAS DELEGATECALL ISZERO DUP1 ISZERO PUSH2 0x1D5B JUMPI RETURNDATASIZE PUSH1 0x0 DUP1 RETURNDATACOPY RETURNDATASIZE PUSH1 0x0 REVERT JUMPDEST POP POP POP POP PUSH1 0x40 MLOAD RETURNDATASIZE PUSH1 0x1F NOT PUSH1 0x1F DUP3 ADD AND DUP3 ADD DUP1 PUSH1 0x40 MSTORE POP DUP2 ADD SWAP1 PUSH2 0x1D7F SWAP2 SWAP1 PUSH2 0x2412 JUMP JUMPDEST POP POP JUMPDEST PUSH2 0x1E12 JUMP JUMPDEST PUSH20 0x0 PUSH4 0x39DF137F PUSH1 0x0 PUSH1 0x40 MLOAD DUP3 PUSH4 0xFFFFFFFF AND PUSH1 0xE0 SHL DUP2 MSTORE PUSH1 0x4 ADD PUSH2 0x1DBF SWAP2 SWAP1 PUSH2 0x2B24 JUMP JUMPDEST PUSH1 0x20 PUSH1 0x40 MLOAD DUP1 DUP4 SUB DUP2 DUP7 DUP1 EXTCODESIZE ISZERO DUP1 ISZERO PUSH2 0x1DD7 JUMPI PUSH1 0x0 DUP1 REVERT JUMPDEST POP GAS DELEGATECALL ISZERO DUP1 ISZERO PUSH2 0x1DEB JUMPI RETURNDATASIZE PUSH1 0x0 DUP1 RETURNDATACOPY RETURNDATASIZE PUSH1 0x0 REVERT JUMPDEST POP POP POP POP PUSH1 0x40 MLOAD RETURNDATASIZE PUSH1 0x1F NOT PUSH1 0x1F DUP3 ADD AND DUP3 ADD DUP1 PUSH1 0x40 MSTORE POP DUP2 ADD SWAP1 PUSH2 0x1E0F SWAP2 SWAP1 PUSH2 0x2412 JUMP JUMPDEST POP POP JUMPDEST JUMP JUMPDEST PUSH20 0x0 PUSH4 0xE8C2CB16 PUSH1 0x6 PUSH1 0x40 MLOAD DUP3 PUSH4 0xFFFFFFFF AND PUSH1 0xE0 SHL DUP2 MSTORE PUSH1 0x4 ADD PUSH2 0x1E4C SWAP2 SWAP1 PUSH2 0x2E32 JUMP JUMPDEST PUSH1 0x20 PUSH1 0x40 MLOAD DUP1 DUP4 SUB DUP2 DUP7 DUP1 EXTCODESIZE ISZERO DUP1 ISZERO PUSH2 0x1E64 JUMPI PUSH1 0x0 DUP1 REVERT JUMPDEST POP GAS DELEGATECALL ISZERO DUP1 ISZERO PUSH2 0x1E78 JUMPI RETURNDATASIZE PUSH1 0x0 DUP1 RETURNDATACOPY RETURNDATASIZE PUSH1 0x0 REVERT JUMPDEST POP POP POP POP PUSH1 0x40 MLOAD RETURNDATASIZE PUSH1 0x1F NOT PUSH1 0x1F DUP3 ADD AND DUP3 ADD DUP1 PUSH1 0x40 MSTORE POP DUP2 ADD SWAP1 PUSH2 0x1E9C SWAP2 SWAP1 PUSH2 0x2412 JUMP JUMPDEST POP JUMP JUMPDEST PUSH20 0x0 PUSH4 0x767392B3 PUSH2 0x1EC3 PUSH1 0x1 PUSH2 0x816 JUMP JUMPDEST PUSH1 0x0 PUSH1 0x40 MLOAD DUP4 PUSH4 0xFFFFFFFF AND PUSH1 0xE0 SHL DUP2 MSTORE PUSH1 0x4 ADD PUSH2 0x1EE2 SWAP3 SWAP2 SWAP1 PUSH2 0x2AAC JUMP JUMPDEST PUSH1 0x20 PUSH1 0x40 MLOAD DUP1 DUP4 SUB DUP2 DUP7 DUP1 EXTCODESIZE ISZERO DUP1 ISZERO PUSH2 0x1EFA JUMPI PUSH1 0x0 DUP1 REVERT JUMPDEST POP GAS DELEGATECALL ISZERO DUP1 ISZERO PUSH2 0x1F0E JUMPI RETURNDATASIZE PUSH1 0x0 DUP1 RETURNDATACOPY RETURNDATASIZE PUSH1 0x0 REVERT JUMPDEST POP POP POP POP PUSH1 0x40 MLOAD RETURNDATASIZE PUSH1 0x1F NOT PUSH1 0x1F DUP3 ADD AND DUP3 ADD DUP1 PUSH1 0x40 MSTORE POP DUP2 ADD SWAP1 PUSH2 0x1F32 SWAP2 SWAP1 PUSH2 0x2412 JUMP JUMPDEST POP JUMP JUMPDEST PUSH20 0x0 PUSH4 0x767392B3 PUSH1 0x9 PUSH1 0x0 SWAP1 SLOAD SWAP1 PUSH2 0x100 EXP SWAP1 DIV PUSH1 0xFF AND PUSH1 0x0 PUSH1 0x40 MLOAD DUP4 PUSH4 0xFFFFFFFF AND PUSH1 0xE0 SHL DUP2 MSTORE PUSH1 0x4 ADD PUSH2 0x1F7E SWAP3 SWAP2 SWAP1 PUSH2 0x2A70 JUMP JUMPDEST PUSH1 0x20 PUSH1 0x40 MLOAD DUP1 DUP4 SUB DUP2 DUP7 DUP1 EXTCODESIZE ISZERO DUP1 ISZERO PUSH2 0x1F96 JUMPI PUSH1 0x0 DUP1 REVERT JUMPDEST POP GAS DELEGATECALL ISZERO DUP1 ISZERO PUSH2 0x1FAA JUMPI RETURNDATASIZE PUSH1 0x0 DUP1 RETURNDATACOPY RETURNDATASIZE PUSH1 0x0 REVERT JUMPDEST POP POP POP POP PUSH1 0x40 MLOAD RETURNDATASIZE PUSH1 0x1F NOT PUSH1 0x1F DUP3 ADD AND DUP3 ADD DUP1 PUSH1 0x40 MSTORE POP DUP2 ADD SWAP1 PUSH2 0x1FCE SWAP2 SWAP1 PUSH2 0x2412 JUMP JUMPDEST POP JUMP JUMPDEST PUSH1 0x0 DUP1 PUSH1 0x0 PUSH1 0x1 SWAP1 POP JUMPDEST PUSH1 0x4 SLOAD DUP2 GT PUSH2 0x20BB JUMPI PUSH1 0x0 PUSH1 0x1 SWAP1 POP PUSH1 0x0 PUSH1 0x8 PUSH1 0x0 PUSH1 0x7 PUSH1 0x0 DUP7 DUP2 MSTORE PUSH1 0x20 ADD SWAP1 DUP2 MSTORE PUSH1 0x20 ADD PUSH1 0x0 KECCAK256 PUSH1 0x1 ADD SLOAD DUP2 MSTORE PUSH1 0x20 ADD SWAP1 DUP2 MSTORE PUSH1 0x20 ADD PUSH1 0x0 KECCAK256 SLOAD GT ISZERO PUSH2 0x2054 JUMPI PUSH1 0x8 PUSH1 0x0 PUSH1 0x7 PUSH1 0x0 DUP6 DUP2 MSTORE PUSH1 0x20 ADD SWAP1 DUP2 MSTORE PUSH1 0x20 ADD PUSH1 0x0 KECCAK256 PUSH1 0x1 ADD SLOAD DUP2 MSTORE PUSH1 0x20 ADD SWAP1 DUP2 MSTORE PUSH1 0x20 ADD PUSH1 0x0 KECCAK256 SLOAD DUP2 PUSH2 0x2051 SWAP2 SWAP1 PUSH2 0x307D JUMP JUMPDEST SWAP1 POP JUMPDEST DUP1 PUSH1 0x8 PUSH1 0x0 PUSH1 0x7 PUSH1 0x0 DUP7 DUP2 MSTORE PUSH1 0x20 ADD SWAP1 DUP2 MSTORE PUSH1 0x20 ADD PUSH1 0x0 KECCAK256 PUSH1 0x1 ADD SLOAD DUP2 MSTORE PUSH1 0x20 ADD SWAP1 DUP2 MSTORE PUSH1 0x20 ADD PUSH1 0x0 KECCAK256 DUP2 SWAP1 SSTORE POP DUP4 DUP2 GT ISZERO PUSH2 0x20A7 JUMPI DUP1 SWAP4 POP PUSH1 0x7 PUSH1 0x0 DUP4 DUP2 MSTORE PUSH1 0x20 ADD SWAP1 DUP2 MSTORE PUSH1 0x20 ADD PUSH1 0x0 KECCAK256 PUSH1 0x1 ADD SLOAD SWAP3 POP JUMPDEST POP DUP1 DUP1 PUSH2 0x20B3 SWAP1 PUSH2 0x324B JUMP JUMPDEST SWAP2 POP POP PUSH2 0x1FDB JUMP JUMPDEST POP PUSH1 0x0 DUP1 DUP3 DUP2 MSTORE PUSH1 0x20 ADD SWAP1 DUP2 MSTORE PUSH1 0x20 ADD PUSH1 0x0 KECCAK256 PUSH1 0x6 SWAP1 DUP1 SLOAD PUSH2 0x20DC SWAP1 PUSH2 0x31E8 JUMP JUMPDEST PUSH2 0x20E7 SWAP3 SWAP2 SWAP1 PUSH2 0x21D9 JUMP JUMPDEST POP PUSH1 0x0 PUSH1 0x9 PUSH1 0x0 PUSH2 0x100 EXP DUP2 SLOAD DUP2 PUSH1 0xFF MUL NOT AND SWAP1 DUP4 ISZERO ISZERO MUL OR SWAP1 SSTORE POP POP POP JUMP JUMPDEST DUP3 DUP1 SLOAD PUSH2 0x2113 SWAP1 PUSH2 0x31E8 JUMP JUMPDEST SWAP1 PUSH1 0x0 MSTORE PUSH1 0x20 PUSH1 0x0 KECCAK256 SWAP1 PUSH1 0x1F ADD PUSH1 0x20 SWAP1 DIV DUP2 ADD SWAP3 DUP3 PUSH2 0x2135 JUMPI PUSH1 0x0 DUP6 SSTORE PUSH2 0x217C JUMP JUMPDEST DUP3 PUSH1 0x1F LT PUSH2 0x214E JUMPI DUP1 MLOAD PUSH1 0xFF NOT AND DUP4 DUP1 ADD OR DUP6 SSTORE PUSH2 0x217C JUMP JUMPDEST DUP3 DUP1 ADD PUSH1 0x1 ADD DUP6 SSTORE DUP3 ISZERO PUSH2 0x217C JUMPI SWAP2 DUP3 ADD JUMPDEST DUP3 DUP2 GT ISZERO PUSH2 0x217B JUMPI DUP3 MLOAD DUP3 SSTORE SWAP2 PUSH1 0x20 ADD SWAP2 SWAP1 PUSH1 0x1 ADD SWAP1 PUSH2 0x2160 JUMP JUMPDEST JUMPDEST POP SWAP1 POP PUSH2 0x2189 SWAP2 SWAP1 PUSH2 0x2266 JUMP JUMPDEST POP SWAP1 JUMP JUMPDEST PUSH1 0x40 MLOAD DUP1 PUSH1 0x40 ADD PUSH1 0x40 MSTORE DUP1 PUSH1 0x0 PUSH20 0xFFFFFFFFFFFFFFFFFFFFFFFFFFFFFFFFFFFFFFFF AND DUP2 MSTORE PUSH1 0x20 ADD PUSH1 0x0 DUP2 MSTORE POP SWAP1 JUMP JUMPDEST PUSH1 0x40 MLOAD DUP1 PUSH1 0x40 ADD PUSH1 0x40 MSTORE DUP1 PUSH1 0x60 DUP2 MSTORE PUSH1 0x20 ADD PUSH1 0x0 ISZERO ISZERO DUP2 MSTORE POP SWAP1 JUMP JUMPDEST DUP3 DUP1 SLOAD PUSH2 0x21E5 SWAP1 PUSH2 0x31E8 JUMP JUMPDEST SWAP1 PUSH1 0x0 MSTORE PUSH1 0x20 PUSH1 0x0 KECCAK256 SWAP1 PUSH1 0x1F ADD PUSH1 0x20 SWAP1 DIV DUP2 ADD SWAP3 DUP3 PUSH2 0x2207 JUMPI PUSH1 0x0 DUP6 SSTORE PUSH2 0x2255 JUMP JUMPDEST DUP3 PUSH1 0x1F LT PUSH2 0x2218 JUMPI DUP1 SLOAD DUP6 SSTORE PUSH2 0x2255 JUMP JUMPDEST DUP3 DUP1 ADD PUSH1 0x1 ADD DUP6 SSTORE DUP3 ISZERO PUSH2 0x2255 JUMPI PUSH1 0x0 MSTORE PUSH1 0x20 PUSH1 0x0 KECCAK256 SWAP2 PUSH1 0x1F ADD PUSH1 0x20 SWAP1 DIV DUP3 ADD JUMPDEST DUP3 DUP2 GT ISZERO PUSH2 0x2254 JUMPI DUP3 SLOAD DUP3 SSTORE SWAP2 PUSH1 0x1 ADD SWAP2 SWAP1 PUSH1 0x1 ADD SWAP1 PUSH2 0x2239 JUMP JUMPDEST JUMPDEST POP SWAP1 POP PUSH2 0x2262 SWAP2 SWAP1 PUSH2 0x2266 JUMP JUMPDEST POP SWAP1 JUMP JUMPDEST JUMPDEST DUP1 DUP3 GT ISZERO PUSH2 0x227F JUMPI PUSH1 0x0 DUP2 PUSH1 0x0 SWAP1 SSTORE POP PUSH1 0x1 ADD PUSH2 0x2267 JUMP JUMPDEST POP SWAP1 JUMP JUMPDEST PUSH1 0x0 PUSH2 0x2296 PUSH2 0x2291 DUP5 PUSH2 0x300A JUMP JUMPDEST PUSH2 0x2FE5 JUMP JUMPDEST SWAP1 POP DUP3 DUP2 MSTORE PUSH1 0x20 DUP2 ADD DUP5 DUP5 DUP5 ADD GT ISZERO PUSH2 0x22B2 JUMPI PUSH2 0x22B1 PUSH2 0x3377 JUMP JUMPDEST JUMPDEST PUSH2 0x22BD DUP5 DUP3 DUP6 PUSH2 0x31A6 JUMP JUMPDEST POP SWAP4 SWAP3 POP POP POP JUMP JUMPDEST PUSH1 0x0 DUP2 CALLDATALOAD SWAP1 POP PUSH2 0x22D4 DUP2 PUSH2 0x3832 JUMP JUMPDEST SWAP3 SWAP2 POP POP JUMP JUMPDEST PUSH1 0x0 DUP2 MLOAD SWAP1 POP PUSH2 0x22E9 DUP2 PUSH2 0x3832 JUMP JUMPDEST SWAP3 SWAP2 POP POP JUMP JUMPDEST PUSH1 0x0 DUP2 MLOAD SWAP1 POP PUSH2 0x22FE DUP2 PUSH2 0x3849 JUMP JUMPDEST SWAP3 SWAP2 POP POP JUMP JUMPDEST PUSH1 0x0 DUP3 PUSH1 0x1F DUP4 ADD SLT PUSH2 0x2319 JUMPI PUSH2 0x2318 PUSH2 0x3372 JUMP JUMPDEST JUMPDEST DUP2 CALLDATALOAD PUSH2 0x2329 DUP5 DUP3 PUSH1 0x20 DUP7 ADD PUSH2 0x2283 JUMP JUMPDEST SWAP2 POP POP SWAP3 SWAP2 POP POP JUMP JUMPDEST PUSH1 0x0 DUP2 CALLDATALOAD SWAP1 POP PUSH2 0x2341 DUP2 PUSH2 0x3860 JUMP JUMPDEST SWAP3 SWAP2 POP POP JUMP JUMPDEST PUSH1 0x0 DUP2 MLOAD SWAP1 POP PUSH2 0x2356 DUP2 PUSH2 0x3860 JUMP JUMPDEST SWAP3 SWAP2 POP POP JUMP JUMPDEST PUSH1 0x0 PUSH1 0x20 DUP3 DUP5 SUB SLT ISZERO PUSH2 0x2372 JUMPI PUSH2 0x2371 PUSH2 0x3381 JUMP JUMPDEST JUMPDEST PUSH1 0x0 PUSH2 0x2380 DUP5 DUP3 DUP6 ADD PUSH2 0x22C5 JUMP JUMPDEST SWAP2 POP POP SWAP3 SWAP2 POP POP JUMP JUMPDEST PUSH1 0x0 PUSH1 0x20 DUP3 DUP5 SUB SLT ISZERO PUSH2 0x239F JUMPI PUSH2 0x239E PUSH2 0x3381 JUMP JUMPDEST JUMPDEST PUSH1 0x0 PUSH2 0x23AD DUP5 DUP3 DUP6 ADD PUSH2 0x22DA JUMP JUMPDEST SWAP2 POP POP SWAP3 SWAP2 POP POP JUMP JUMPDEST PUSH1 0x0 DUP1 PUSH1 0x40 DUP4 DUP6 SUB SLT ISZERO PUSH2 0x23CD JUMPI PUSH2 0x23CC PUSH2 0x3381 JUMP JUMPDEST JUMPDEST PUSH1 0x0 PUSH2 0x23DB DUP6 DUP3 DUP7 ADD PUSH2 0x22C5 JUMP JUMPDEST SWAP3 POP POP PUSH1 0x20 DUP4 ADD CALLDATALOAD PUSH8 0xFFFFFFFFFFFFFFFF DUP2 GT ISZERO PUSH2 0x23FC JUMPI PUSH2 0x23FB PUSH2 0x337C JUMP JUMPDEST JUMPDEST PUSH2 0x2408 DUP6 DUP3 DUP7 ADD PUSH2 0x2304 JUMP JUMPDEST SWAP2 POP POP SWAP3 POP SWAP3 SWAP1 POP JUMP JUMPDEST PUSH1 0x0 PUSH1 0x20 DUP3 DUP5 SUB SLT ISZERO PUSH2 0x2428 JUMPI PUSH2 0x2427 PUSH2 0x3381 JUMP JUMPDEST JUMPDEST PUSH1 0x0 PUSH2 0x2436 DUP5 DUP3 DUP6 ADD PUSH2 0x22EF JUMP JUMPDEST SWAP2 POP POP SWAP3 SWAP2 POP POP JUMP JUMPDEST PUSH1 0x0 PUSH1 0x20 DUP3 DUP5 SUB SLT ISZERO PUSH2 0x2455 JUMPI PUSH2 0x2454 PUSH2 0x3381 JUMP JUMPDEST JUMPDEST PUSH1 0x0 DUP3 ADD CALLDATALOAD PUSH8 0xFFFFFFFFFFFFFFFF DUP2 GT ISZERO PUSH2 0x2473 JUMPI PUSH2 0x2472 PUSH2 0x337C JUMP JUMPDEST JUMPDEST PUSH2 0x247F DUP5 DUP3 DUP6 ADD PUSH2 0x2304 JUMP JUMPDEST SWAP2 POP POP SWAP3 SWAP2 POP POP JUMP JUMPDEST PUSH1 0x0 PUSH1 0x20 DUP3 DUP5 SUB SLT ISZERO PUSH2 0x249E JUMPI PUSH2 0x249D PUSH2 0x3381 JUMP JUMPDEST JUMPDEST PUSH1 0x0 PUSH2 0x24AC DUP5 DUP3 DUP6 ADD PUSH2 0x2332 JUMP JUMPDEST SWAP2 POP POP SWAP3 SWAP2 POP POP JUMP JUMPDEST PUSH1 0x0 PUSH1 0x20 DUP3 DUP5 SUB SLT ISZERO PUSH2 0x24CB JUMPI PUSH2 0x24CA PUSH2 0x3381 JUMP JUMPDEST JUMPDEST PUSH1 0x0 PUSH2 0x24D9 DUP5 DUP3 DUP6 ADD PUSH2 0x2347 JUMP JUMPDEST SWAP2 POP POP SWAP3 SWAP2 POP POP JUMP JUMPDEST PUSH2 0x24EB DUP2 PUSH2 0x3104 JUMP JUMPDEST DUP3 MSTORE POP POP JUMP JUMPDEST PUSH2 0x24FA DUP2 PUSH2 0x3104 JUMP JUMPDEST DUP3 MSTORE POP POP JUMP JUMPDEST PUSH2 0x2509 DUP2 PUSH2 0x3116 JUMP JUMPDEST DUP3 MSTORE POP POP JUMP JUMPDEST PUSH2 0x2518 DUP2 PUSH2 0x3116 JUMP JUMPDEST DUP3 MSTORE POP POP JUMP JUMPDEST PUSH2 0x2527 DUP2 PUSH2 0x314C JUMP JUMPDEST DUP3 MSTORE POP POP JUMP JUMPDEST PUSH2 0x2536 DUP2 PUSH2 0x315E JUMP JUMPDEST DUP3 MSTORE POP POP JUMP JUMPDEST PUSH2 0x2545 DUP2 PUSH2 0x315E JUMP JUMPDEST DUP3 MSTORE POP POP JUMP JUMPDEST PUSH2 0x2554 DUP2 PUSH2 0x3170 JUMP JUMPDEST DUP3 MSTORE POP POP JUMP JUMPDEST PUSH2 0x2563 DUP2 PUSH2 0x3182 JUMP JUMPDEST DUP3 MSTORE POP POP JUMP JUMPDEST PUSH2 0x2572 DUP2 PUSH2 0x3194 JUMP JUMPDEST DUP3 MSTORE POP POP JUMP JUMPDEST PUSH1 0x0 PUSH2 0x2583 DUP3 PUSH2 0x3050 JUMP JUMPDEST PUSH2 0x258D DUP2 DUP6 PUSH2 0x305B JUMP JUMPDEST SWAP4 POP PUSH2 0x259D DUP2 DUP6 PUSH1 0x20 DUP7 ADD PUSH2 0x31B5 JUMP JUMPDEST PUSH2 0x25A6 DUP2 PUSH2 0x3386 JUMP JUMPDEST DUP5 ADD SWAP2 POP POP SWAP3 SWAP2 POP POP JUMP JUMPDEST PUSH1 0x0 PUSH2 0x25BC DUP3 PUSH2 0x3050 JUMP JUMPDEST PUSH2 0x25C6 DUP2 DUP6 PUSH2 0x306C JUMP JUMPDEST SWAP4 POP PUSH2 0x25D6 DUP2 DUP6 PUSH1 0x20 DUP7 ADD PUSH2 0x31B5 JUMP JUMPDEST PUSH2 0x25DF DUP2 PUSH2 0x3386 JUMP JUMPDEST DUP5 ADD SWAP2 POP POP SWAP3 SWAP2 POP POP JUMP JUMPDEST PUSH1 0x0 DUP2 SLOAD PUSH2 0x25F7 DUP2 PUSH2 0x31E8 JUMP JUMPDEST PUSH2 0x2601 DUP2 DUP7 PUSH2 0x306C JUMP JUMPDEST SWAP5 POP PUSH1 0x1 DUP3 AND PUSH1 0x0 DUP2 EQ PUSH2 0x261C JUMPI PUSH1 0x1 DUP2 EQ PUSH2 0x262E JUMPI PUSH2 0x2661 JUMP JUMPDEST PUSH1 0xFF NOT DUP4 AND DUP7 MSTORE PUSH1 0x20 DUP7 ADD SWAP4 POP PUSH2 0x2661 JUMP JUMPDEST PUSH2 0x2637 DUP6 PUSH2 0x303B JUMP JUMPDEST PUSH1 0x0 JUMPDEST DUP4 DUP2 LT ISZERO PUSH2 0x2659 JUMPI DUP2 SLOAD DUP2 DUP10 ADD MSTORE PUSH1 0x1 DUP3 ADD SWAP2 POP PUSH1 0x20 DUP2 ADD SWAP1 POP PUSH2 0x263A JUMP JUMPDEST DUP1 DUP9 ADD SWAP6 POP POP POP JUMPDEST POP POP POP SWAP3 SWAP2 POP POP JUMP JUMPDEST PUSH1 0x0 PUSH2 0x2677 PUSH1 0x1D DUP4 PUSH2 0x306C JUMP JUMPDEST SWAP2 POP PUSH2 0x2682 DUP3 PUSH2 0x33A4 JUMP JUMPDEST PUSH1 0x20 DUP3 ADD SWAP1 POP SWAP2 SWAP1 POP JUMP JUMPDEST PUSH1 0x0 PUSH2 0x269A PUSH1 0x13 DUP4 PUSH2 0x306C JUMP JUMPDEST SWAP2 POP PUSH2 0x26A5 DUP3 PUSH2 0x33CD JUMP JUMPDEST PUSH1 0x20 DUP3 ADD SWAP1 POP SWAP2 SWAP1 POP JUMP JUMPDEST PUSH1 0x0 PUSH2 0x26BD PUSH1 0x24 DUP4 PUSH2 0x305B JUMP JUMPDEST SWAP2 POP PUSH2 0x26C8 DUP3 PUSH2 0x33F6 JUMP JUMPDEST PUSH1 0x40 DUP3 ADD SWAP1 POP SWAP2 SWAP1 POP JUMP JUMPDEST PUSH1 0x0 PUSH2 0x26E0 PUSH1 0x24 DUP4 PUSH2 0x306C JUMP JUMPDEST SWAP2 POP PUSH2 0x26EB DUP3 PUSH2 0x33F6 JUMP JUMPDEST PUSH1 0x40 DUP3 ADD SWAP1 POP SWAP2 SWAP1 POP JUMP JUMPDEST PUSH1 0x0 PUSH2 0x2703 PUSH1 0x1D DUP4 PUSH2 0x306C JUMP JUMPDEST SWAP2 POP PUSH2 0x270E DUP3 PUSH2 0x3445 JUMP JUMPDEST PUSH1 0x20 DUP3 ADD SWAP1 POP SWAP2 SWAP1 POP JUMP JUMPDEST PUSH1 0x0 PUSH2 0x2726 PUSH1 0x8 DUP4 PUSH2 0x306C JUMP JUMPDEST SWAP2 POP PUSH2 0x2731 DUP3 PUSH2 0x346E JUMP JUMPDEST PUSH1 0x20 DUP3 ADD SWAP1 POP SWAP2 SWAP1 POP JUMP JUMPDEST PUSH1 0x0 PUSH2 0x2749 PUSH1 0x14 DUP4 PUSH2 0x306C JUMP JUMPDEST SWAP2 POP PUSH2 0x2754 DUP3 PUSH2 0x3497 JUMP JUMPDEST PUSH1 0x20 DUP3 ADD SWAP1 POP SWAP2 SWAP1 POP JUMP JUMPDEST PUSH1 0x0 PUSH2 0x276C PUSH1 0x14 DUP4 PUSH2 0x306C JUMP JUMPDEST SWAP2 POP PUSH2 0x2777 DUP3 PUSH2 0x34C0 JUMP JUMPDEST PUSH1 0x20 DUP3 ADD SWAP1 POP SWAP2 SWAP1 POP JUMP JUMPDEST PUSH1 0x0 PUSH2 0x278F PUSH1 0x1D DUP4 PUSH2 0x306C JUMP JUMPDEST SWAP2 POP PUSH2 0x279A DUP3 PUSH2 0x34E9 JUMP JUMPDEST PUSH1 0x20 DUP3 ADD SWAP1 POP SWAP2 SWAP1 POP JUMP JUMPDEST PUSH1 0x0 PUSH2 0x27B2 PUSH1 0x14 DUP4 PUSH2 0x306C JUMP JUMPDEST SWAP2 POP PUSH2 0x27BD DUP3 PUSH2 0x3512 JUMP JUMPDEST PUSH1 0x20 DUP3 ADD SWAP1 POP SWAP2 SWAP1 POP JUMP JUMPDEST PUSH1 0x0 PUSH2 0x27D5 PUSH1 0x11 DUP4 PUSH2 0x306C JUMP JUMPDEST SWAP2 POP PUSH2 0x27E0 DUP3 PUSH2 0x353B JUMP JUMPDEST PUSH1 0x20 DUP3 ADD SWAP1 POP SWAP2 SWAP1 POP JUMP JUMPDEST PUSH1 0x0 PUSH2 0x27F8 PUSH1 0x18 DUP4 PUSH2 0x306C JUMP JUMPDEST SWAP2 POP PUSH2 0x2803 DUP3 PUSH2 0x3564 JUMP JUMPDEST PUSH1 0x20 DUP3 ADD SWAP1 POP SWAP2 SWAP1 POP JUMP JUMPDEST PUSH1 0x0 PUSH2 0x281B PUSH1 0x22 DUP4 PUSH2 0x306C JUMP JUMPDEST SWAP2 POP PUSH2 0x2826 DUP3 PUSH2 0x358D JUMP JUMPDEST PUSH1 0x40 DUP3 ADD SWAP1 POP SWAP2 SWAP1 POP JUMP JUMPDEST PUSH1 0x0 PUSH2 0x283E PUSH1 0x1E DUP4 PUSH2 0x306C JUMP JUMPDEST SWAP2 POP PUSH2 0x2849 DUP3 PUSH2 0x35DC JUMP JUMPDEST PUSH1 0x20 DUP3 ADD SWAP1 POP SWAP2 SWAP1 POP JUMP JUMPDEST PUSH1 0x0 PUSH2 0x2861 PUSH1 0x14 DUP4 PUSH2 0x306C JUMP JUMPDEST SWAP2 POP PUSH2 0x286C DUP3 PUSH2 0x3605 JUMP JUMPDEST PUSH1 0x20 DUP3 ADD SWAP1 POP SWAP2 SWAP1 POP JUMP JUMPDEST PUSH1 0x0 PUSH2 0x2884 PUSH1 0x1C DUP4 PUSH2 0x306C JUMP JUMPDEST SWAP2 POP PUSH2 0x288F DUP3 PUSH2 0x362E JUMP JUMPDEST PUSH1 0x20 DUP3 ADD SWAP1 POP SWAP2 SWAP1 POP JUMP JUMPDEST PUSH1 0x0 PUSH2 0x28A7 PUSH1 0x23 DUP4 PUSH2 0x305B JUMP JUMPDEST SWAP2 POP PUSH2 0x28B2 DUP3 PUSH2 0x3657 JUMP JUMPDEST PUSH1 0x40 DUP3 ADD SWAP1 POP SWAP2 SWAP1 POP JUMP JUMPDEST PUSH1 0x0 PUSH2 0x28CA PUSH1 0x23 DUP4 PUSH2 0x306C JUMP JUMPDEST SWAP2 POP PUSH2 0x28D5 DUP3 PUSH2 0x3657 JUMP JUMPDEST PUSH1 0x40 DUP3 ADD SWAP1 POP SWAP2 SWAP1 POP JUMP JUMPDEST PUSH1 0x0 PUSH2 0x28ED PUSH1 0xB DUP4 PUSH2 0x305B JUMP JUMPDEST SWAP2 POP PUSH2 0x28F8 DUP3 PUSH2 0x36A6 JUMP JUMPDEST PUSH1 0x20 DUP3 ADD SWAP1 POP SWAP2 SWAP1 POP JUMP JUMPDEST PUSH1 0x0 PUSH2 0x2910 PUSH1 0x1F DUP4 PUSH2 0x306C JUMP JUMPDEST SWAP2 POP PUSH2 0x291B DUP3 PUSH2 0x36CF JUMP JUMPDEST PUSH1 0x20 DUP3 ADD SWAP1 POP SWAP2 SWAP1 POP JUMP JUMPDEST PUSH1 0x0 PUSH2 0x2933 PUSH1 0x1E DUP4 PUSH2 0x306C JUMP JUMPDEST SWAP2 POP PUSH2 0x293E DUP3 PUSH2 0x36F8 JUMP JUMPDEST PUSH1 0x20 DUP3 ADD SWAP1 POP SWAP2 SWAP1 POP JUMP JUMPDEST PUSH1 0x0 PUSH2 0x2956 PUSH1 0x12 DUP4 PUSH2 0x306C JUMP JUMPDEST SWAP2 POP PUSH2 0x2961 DUP3 PUSH2 0x3721 JUMP JUMPDEST PUSH1 0x20 DUP3 ADD SWAP1 POP SWAP2 SWAP1 POP JUMP JUMPDEST PUSH1 0x0 PUSH2 0x2979 PUSH1 0x8 DUP4 PUSH2 0x305B JUMP JUMPDEST SWAP2 POP PUSH2 0x2984 DUP3 PUSH2 0x374A JUMP JUMPDEST PUSH1 0x20 DUP3 ADD SWAP1 POP SWAP2 SWAP1 POP JUMP JUMPDEST PUSH1 0x0 PUSH2 0x299C PUSH1 0x16 DUP4 PUSH2 0x306C JUMP JUMPDEST SWAP2 POP PUSH2 0x29A7 DUP3 PUSH2 0x3773 JUMP JUMPDEST PUSH1 0x20 DUP3 ADD SWAP1 POP SWAP2 SWAP1 POP JUMP JUMPDEST PUSH2 0x29BB DUP2 PUSH2 0x3142 JUMP JUMPDEST DUP3 MSTORE POP POP JUMP JUMPDEST PUSH2 0x29CA DUP2 PUSH2 0x3142 JUMP JUMPDEST DUP3 MSTORE POP POP JUMP JUMPDEST PUSH1 0x0 PUSH1 0x20 DUP3 ADD SWAP1 POP PUSH2 0x29E5 PUSH1 0x0 DUP4 ADD DUP5 PUSH2 0x24E2 JUMP JUMPDEST SWAP3 SWAP2 POP POP JUMP JUMPDEST PUSH1 0x0 PUSH1 0x60 DUP3 ADD SWAP1 POP PUSH2 0x2A00 PUSH1 0x0 DUP4 ADD DUP6 PUSH2 0x24F1 JUMP JUMPDEST PUSH2 0x2A0D PUSH1 0x20 DUP4 ADD DUP5 PUSH2 0x24F1 JUMP JUMPDEST DUP2 DUP2 SUB PUSH1 0x40 DUP4 ADD MSTORE PUSH2 0x2A1E DUP2 PUSH2 0x298F JUMP JUMPDEST SWAP1 POP SWAP4 SWAP3 POP POP POP JUMP JUMPDEST PUSH1 0x0 PUSH1 0x40 DUP3 ADD SWAP1 POP PUSH2 0x2A3C PUSH1 0x0 DUP4 ADD DUP5 PUSH2 0x24E2 JUMP JUMPDEST DUP2 DUP2 SUB PUSH1 0x20 DUP4 ADD MSTORE PUSH2 0x2A4D DUP2 PUSH2 0x296C JUMP JUMPDEST SWAP1 POP SWAP3 SWAP2 POP POP JUMP JUMPDEST PUSH1 0x0 PUSH1 0x20 DUP3 ADD SWAP1 POP PUSH2 0x2A6A PUSH1 0x0 DUP4 ADD DUP5 PUSH2 0x2500 JUMP JUMPDEST SWAP3 SWAP2 POP POP JUMP JUMPDEST PUSH1 0x0 PUSH1 0x60 DUP3 ADD SWAP1 POP PUSH2 0x2A85 PUSH1 0x0 DUP4 ADD DUP6 PUSH2 0x250F JUMP JUMPDEST PUSH2 0x2A92 PUSH1 0x20 DUP4 ADD DUP5 PUSH2 0x250F JUMP JUMPDEST DUP2 DUP2 SUB PUSH1 0x40 DUP4 ADD MSTORE PUSH2 0x2AA3 DUP2 PUSH2 0x27EB JUMP JUMPDEST SWAP1 POP SWAP4 SWAP3 POP POP POP JUMP JUMPDEST PUSH1 0x0 PUSH1 0x60 DUP3 ADD SWAP1 POP PUSH2 0x2AC1 PUSH1 0x0 DUP4 ADD DUP6 PUSH2 0x250F JUMP JUMPDEST PUSH2 0x2ACE PUSH1 0x20 DUP4 ADD DUP5 PUSH2 0x250F JUMP JUMPDEST DUP2 DUP2 SUB PUSH1 0x40 DUP4 ADD MSTORE PUSH2 0x2ADF DUP2 PUSH2 0x2903 JUMP JUMPDEST SWAP1 POP SWAP4 SWAP3 POP POP POP JUMP JUMPDEST PUSH1 0x0 PUSH1 0x60 DUP3 ADD SWAP1 POP PUSH2 0x2AFD PUSH1 0x0 DUP4 ADD DUP6 PUSH2 0x250F JUMP JUMPDEST PUSH2 0x2B0A PUSH1 0x20 DUP4 ADD DUP5 PUSH2 0x250F JUMP JUMPDEST DUP2 DUP2 SUB PUSH1 0x40 DUP4 ADD MSTORE PUSH2 0x2B1B DUP2 PUSH2 0x2926 JUMP JUMPDEST SWAP1 POP SWAP4 SWAP3 POP POP POP JUMP JUMPDEST PUSH1 0x0 PUSH1 0x40 DUP3 ADD SWAP1 POP PUSH2 0x2B39 PUSH1 0x0 DUP4 ADD DUP5 PUSH2 0x250F JUMP JUMPDEST DUP2 DUP2 SUB PUSH1 0x20 DUP4 ADD MSTORE PUSH2 0x2B4A DUP2 PUSH2 0x266A JUMP JUMPDEST SWAP1 POP SWAP3 SWAP2 POP POP JUMP JUMPDEST PUSH1 0x0 PUSH1 0x40 DUP3 ADD SWAP1 POP PUSH2 0x2B67 PUSH1 0x0 DUP4 ADD DUP5 PUSH2 0x250F JUMP JUMPDEST DUP2 DUP2 SUB PUSH1 0x20 DUP4 ADD MSTORE PUSH2 0x2B78 DUP2 PUSH2 0x268D JUMP JUMPDEST SWAP1 POP SWAP3 SWAP2 POP POP JUMP JUMPDEST PUSH1 0x0 PUSH1 0x40 DUP3 ADD SWAP1 POP PUSH2 0x2B95 PUSH1 0x0 DUP4 ADD DUP5 PUSH2 0x250F JUMP JUMPDEST DUP2 DUP2 SUB PUSH1 0x20 DUP4 ADD MSTORE PUSH2 0x2BA6 DUP2 PUSH2 0x2782 JUMP JUMPDEST SWAP1 POP SWAP3 SWAP2 POP POP JUMP JUMPDEST PUSH1 0x0 PUSH1 0x40 DUP3 ADD SWAP1 POP PUSH2 0x2BC3 PUSH1 0x0 DUP4 ADD DUP5 PUSH2 0x250F JUMP JUMPDEST DUP2 DUP2 SUB PUSH1 0x20 DUP4 ADD MSTORE PUSH2 0x2BD4 DUP2 PUSH2 0x27C8 JUMP JUMPDEST SWAP1 POP SWAP3 SWAP2 POP POP JUMP JUMPDEST PUSH1 0x0 PUSH1 0x40 DUP3 ADD SWAP1 POP PUSH2 0x2BF1 PUSH1 0x0 DUP4 ADD DUP5 PUSH2 0x250F JUMP JUMPDEST DUP2 DUP2 SUB PUSH1 0x20 DUP4 ADD MSTORE PUSH2 0x2C02 DUP2 PUSH2 0x2877 JUMP JUMPDEST SWAP1 POP SWAP3 SWAP2 POP POP JUMP JUMPDEST PUSH1 0x0 PUSH1 0x40 DUP3 ADD SWAP1 POP PUSH2 0x2C1F PUSH1 0x0 DUP4 ADD DUP5 PUSH2 0x250F JUMP JUMPDEST DUP2 DUP2 SUB PUSH1 0x20 DUP4 ADD MSTORE PUSH2 0x2C30 DUP2 PUSH2 0x2926 JUMP JUMPDEST SWAP1 POP SWAP3 SWAP2 POP POP JUMP JUMPDEST PUSH1 0x0 PUSH1 0x40 DUP3 ADD SWAP1 POP PUSH2 0x2C4D PUSH1 0x0 DUP4 ADD DUP5 PUSH2 0x250F JUMP JUMPDEST DUP2 DUP2 SUB PUSH1 0x20 DUP4 ADD MSTORE PUSH2 0x2C5E DUP2 PUSH2 0x2949 JUMP JUMPDEST SWAP1 POP SWAP3 SWAP2 POP POP JUMP JUMPDEST PUSH1 0x0 PUSH1 0x20 DUP3 ADD SWAP1 POP PUSH2 0x2C7B PUSH1 0x0 DUP4 ADD DUP5 PUSH2 0x251E JUMP JUMPDEST SWAP3 SWAP2 POP POP JUMP JUMPDEST PUSH1 0x0 PUSH1 0x20 DUP3 ADD SWAP1 POP PUSH2 0x2C96 PUSH1 0x0 DUP4 ADD DUP5 PUSH2 0x253C JUMP JUMPDEST SWAP3 SWAP2 POP POP JUMP JUMPDEST PUSH1 0x0 PUSH1 0x20 DUP3 ADD SWAP1 POP PUSH2 0x2CB1 PUSH1 0x0 DUP4 ADD DUP5 PUSH2 0x252D JUMP JUMPDEST SWAP3 SWAP2 POP POP JUMP JUMPDEST PUSH1 0x0 PUSH1 0x20 DUP3 ADD SWAP1 POP PUSH2 0x2CCC PUSH1 0x0 DUP4 ADD DUP5 PUSH2 0x254B JUMP JUMPDEST SWAP3 SWAP2 POP POP JUMP JUMPDEST PUSH1 0x0 PUSH1 0x20 DUP3 ADD SWAP1 POP PUSH2 0x2CE7 PUSH1 0x0 DUP4 ADD DUP5 PUSH2 0x255A JUMP JUMPDEST SWAP3 SWAP2 POP POP JUMP JUMPDEST PUSH1 0x0 PUSH1 0x20 DUP3 ADD SWAP1 POP PUSH2 0x2D02 PUSH1 0x0 DUP4 ADD DUP5 PUSH2 0x2569 JUMP JUMPDEST SWAP3 SWAP2 POP POP JUMP JUMPDEST PUSH1 0x0 PUSH1 0x20 DUP3 ADD SWAP1 POP DUP2 DUP2 SUB PUSH1 0x0 DUP4 ADD MSTORE PUSH2 0x2D22 DUP2 DUP5 PUSH2 0x2578 JUMP JUMPDEST SWAP1 POP SWAP3 SWAP2 POP POP JUMP JUMPDEST PUSH1 0x0 PUSH1 0x40 DUP3 ADD SWAP1 POP DUP2 DUP2 SUB PUSH1 0x0 DUP4 ADD MSTORE PUSH2 0x2D44 DUP2 DUP6 PUSH2 0x2578 JUMP JUMPDEST SWAP1 POP PUSH2 0x2D53 PUSH1 0x20 DUP4 ADD DUP5 PUSH2 0x2500 JUMP JUMPDEST SWAP4 SWAP3 POP POP POP JUMP JUMPDEST PUSH1 0x0 PUSH1 0x60 DUP3 ADD SWAP1 POP DUP2 DUP2 SUB PUSH1 0x0 DUP4 ADD MSTORE PUSH2 0x2D74 DUP2 DUP5 PUSH2 0x25B1 JUMP JUMPDEST SWAP1 POP DUP2 DUP2 SUB PUSH1 0x20 DUP4 ADD MSTORE PUSH2 0x2D87 DUP2 PUSH2 0x26D3 JUMP JUMPDEST SWAP1 POP DUP2 DUP2 SUB PUSH1 0x40 DUP4 ADD MSTORE PUSH2 0x2D9A DUP2 PUSH2 0x2831 JUMP JUMPDEST SWAP1 POP SWAP3 SWAP2 POP POP JUMP JUMPDEST PUSH1 0x0 PUSH1 0x60 DUP3 ADD SWAP1 POP DUP2 DUP2 SUB PUSH1 0x0 DUP4 ADD MSTORE PUSH2 0x2DBC DUP2 DUP5 PUSH2 0x25B1 JUMP JUMPDEST SWAP1 POP DUP2 DUP2 SUB PUSH1 0x20 DUP4 ADD MSTORE PUSH2 0x2DCF DUP2 PUSH2 0x28BD JUMP JUMPDEST SWAP1 POP DUP2 DUP2 SUB PUSH1 0x40 DUP4 ADD MSTORE PUSH2 0x2DE2 DUP2 PUSH2 0x26F6 JUMP JUMPDEST SWAP1 POP SWAP3 SWAP2 POP POP JUMP JUMPDEST PUSH1 0x0 PUSH1 0x60 DUP3 ADD SWAP1 POP DUP2 DUP2 SUB PUSH1 0x0 DUP4 ADD MSTORE PUSH2 0x2E04 DUP2 DUP5 PUSH2 0x25B1 JUMP JUMPDEST SWAP1 POP DUP2 DUP2 SUB PUSH1 0x20 DUP4 ADD MSTORE PUSH2 0x2E17 DUP2 PUSH2 0x28BD JUMP JUMPDEST SWAP1 POP DUP2 DUP2 SUB PUSH1 0x40 DUP4 ADD MSTORE PUSH2 0x2E2A DUP2 PUSH2 0x2831 JUMP JUMPDEST SWAP1 POP SWAP3 SWAP2 POP POP JUMP JUMPDEST PUSH1 0x0 PUSH1 0x60 DUP3 ADD SWAP1 POP DUP2 DUP2 SUB PUSH1 0x0 DUP4 ADD MSTORE PUSH2 0x2E4C DUP2 DUP5 PUSH2 0x25EA JUMP JUMPDEST SWAP1 POP DUP2 DUP2 SUB PUSH1 0x20 DUP4 ADD MSTORE PUSH2 0x2E5F DUP2 PUSH2 0x2719 JUMP JUMPDEST SWAP1 POP DUP2 DUP2 SUB PUSH1 0x40 DUP4 ADD MSTORE PUSH2 0x2E72 DUP2 PUSH2 0x280E JUMP JUMPDEST SWAP1 POP SWAP3 SWAP2 POP POP JUMP JUMPDEST PUSH1 0x0 PUSH1 0x20 DUP3 ADD SWAP1 POP DUP2 DUP2 SUB PUSH1 0x0 DUP4 ADD MSTORE PUSH2 0x2E93 DUP2 PUSH2 0x26B0 JUMP JUMPDEST SWAP1 POP SWAP2 SWAP1 POP JUMP JUMPDEST PUSH1 0x0 PUSH1 0x20 DUP3 ADD SWAP1 POP DUP2 DUP2 SUB PUSH1 0x0 DUP4 ADD MSTORE PUSH2 0x2EB3 DUP2 PUSH2 0x289A JUMP JUMPDEST SWAP1 POP SWAP2 SWAP1 POP JUMP JUMPDEST PUSH1 0x0 PUSH1 0x20 DUP3 ADD SWAP1 POP DUP2 DUP2 SUB PUSH1 0x0 DUP4 ADD MSTORE PUSH2 0x2ED3 DUP2 PUSH2 0x28E0 JUMP JUMPDEST SWAP1 POP SWAP2 SWAP1 POP JUMP JUMPDEST PUSH1 0x0 PUSH1 0x20 DUP3 ADD SWAP1 POP PUSH2 0x2EEF PUSH1 0x0 DUP4 ADD DUP5 PUSH2 0x29B2 JUMP JUMPDEST SWAP3 SWAP2 POP POP JUMP JUMPDEST PUSH1 0x0 PUSH1 0x60 DUP3 ADD SWAP1 POP PUSH2 0x2F0A PUSH1 0x0 DUP4 ADD DUP6 PUSH2 0x29C1 JUMP JUMPDEST PUSH2 0x2F17 PUSH1 0x20 DUP4 ADD DUP5 PUSH2 0x253C JUMP JUMPDEST DUP2 DUP2 SUB PUSH1 0x40 DUP4 ADD MSTORE PUSH2 0x2F28 DUP2 PUSH2 0x2854 JUMP JUMPDEST SWAP1 POP SWAP4 SWAP3 POP POP POP JUMP JUMPDEST PUSH1 0x0 PUSH1 0x60 DUP3 ADD SWAP1 POP PUSH2 0x2F46 PUSH1 0x0 DUP4 ADD DUP6 PUSH2 0x29C1 JUMP JUMPDEST PUSH2 0x2F53 PUSH1 0x20 DUP4 ADD DUP5 PUSH2 0x254B JUMP JUMPDEST DUP2 DUP2 SUB PUSH1 0x40 DUP4 ADD MSTORE PUSH2 0x2F64 DUP2 PUSH2 0x273C JUMP JUMPDEST SWAP1 POP SWAP4 SWAP3 POP POP POP JUMP JUMPDEST PUSH1 0x0 PUSH1 0x60 DUP3 ADD SWAP1 POP PUSH2 0x2F82 PUSH1 0x0 DUP4 ADD DUP6 PUSH2 0x29C1 JUMP JUMPDEST PUSH2 0x2F8F PUSH1 0x20 DUP4 ADD DUP5 PUSH2 0x255A JUMP JUMPDEST DUP2 DUP2 SUB PUSH1 0x40 DUP4 ADD MSTORE PUSH2 0x2FA0 DUP2 PUSH2 0x27A5 JUMP JUMPDEST SWAP1 POP SWAP4 SWAP3 POP POP POP JUMP JUMPDEST PUSH1 0x0 PUSH1 0x60 DUP3 ADD SWAP1 POP PUSH2 0x2FBE PUSH1 0x0 DUP4 ADD DUP6 PUSH2 0x29C1 JUMP JUMPDEST PUSH2 0x2FCB PUSH1 0x20 DUP4 ADD DUP5 PUSH2 0x2569 JUMP JUMPDEST DUP2 DUP2 SUB PUSH1 0x40 DUP4 ADD MSTORE PUSH2 0x2FDC DUP2 PUSH2 0x275F JUMP JUMPDEST SWAP1 POP SWAP4 SWAP3 POP POP POP JUMP JUMPDEST PUSH1 0x0 PUSH2 0x2FEF PUSH2 0x3000 JUMP JUMPDEST SWAP1 POP PUSH2 0x2FFB DUP3 DUP3 PUSH2 0x321A JUMP JUMPDEST SWAP2 SWAP1 POP JUMP JUMPDEST PUSH1 0x0 PUSH1 0x40 MLOAD SWAP1 POP SWAP1 JUMP JUMPDEST PUSH1 0x0 PUSH8 0xFFFFFFFFFFFFFFFF DUP3 GT ISZERO PUSH2 0x3025 JUMPI PUSH2 0x3024 PUSH2 0x3321 JUMP JUMPDEST JUMPDEST PUSH2 0x302E DUP3 PUSH2 0x3386 JUMP JUMPDEST SWAP1 POP PUSH1 0x20 DUP2 ADD SWAP1 POP SWAP2 SWAP1 POP JUMP JUMPDEST PUSH1 0x0 DUP2 SWAP1 POP DUP2 PUSH1 0x0 MSTORE PUSH1 0x20 PUSH1 0x0 KECCAK256 SWAP1 POP SWAP2 SWAP1 POP JUMP JUMPDEST PUSH1 0x0 DUP2 MLOAD SWAP1 POP SWAP2 SWAP1 POP JUMP JUMPDEST PUSH1 0x0 DUP3 DUP3 MSTORE PUSH1 0x20 DUP3 ADD SWAP1 POP SWAP3 SWAP2 POP POP JUMP JUMPDEST PUSH1 0x0 DUP3 DUP3 MSTORE PUSH1 0x20 DUP3 ADD SWAP1 POP SWAP3 SWAP2 POP POP JUMP JUMPDEST PUSH1 0x0 PUSH2 0x3088 DUP3 PUSH2 0x3142 JUMP JUMPDEST SWAP2 POP PUSH2 0x3093 DUP4 PUSH2 0x3142 JUMP JUMPDEST SWAP3 POP DUP3 PUSH32 0xFFFFFFFFFFFFFFFFFFFFFFFFFFFFFFFFFFFFFFFFFFFFFFFFFFFFFFFFFFFFFFFF SUB DUP3 GT ISZERO PUSH2 0x30C8 JUMPI PUSH2 0x30C7 PUSH2 0x3294 JUMP JUMPDEST JUMPDEST DUP3 DUP3 ADD SWAP1 POP SWAP3 SWAP2 POP POP JUMP JUMPDEST PUSH1 0x0 PUSH2 0x30DE DUP3 PUSH2 0x3142 JUMP JUMPDEST SWAP2 POP PUSH2 0x30E9 DUP4 PUSH2 0x3142 JUMP JUMPDEST SWAP3 POP DUP3 PUSH2 0x30F9 JUMPI PUSH2 0x30F8 PUSH2 0x32C3 JUMP JUMPDEST JUMPDEST DUP3 DUP3 DIV SWAP1 POP SWAP3 SWAP2 POP POP JUMP JUMPDEST PUSH1 0x0 PUSH2 0x310F DUP3 PUSH2 0x3122 JUMP JUMPDEST SWAP1 POP SWAP2 SWAP1 POP JUMP JUMPDEST PUSH1 0x0 DUP2 ISZERO ISZERO SWAP1 POP SWAP2 SWAP1 POP JUMP JUMPDEST PUSH1 0x0 PUSH20 0xFFFFFFFFFFFFFFFFFFFFFFFFFFFFFFFFFFFFFFFF DUP3 AND SWAP1 POP SWAP2 SWAP1 POP JUMP JUMPDEST PUSH1 0x0 DUP2 SWAP1 POP SWAP2 SWAP1 POP JUMP JUMPDEST PUSH1 0x0 PUSH2 0x3157 DUP3 PUSH2 0x3142 JUMP JUMPDEST SWAP1 POP SWAP2 SWAP1 POP JUMP JUMPDEST PUSH1 0x0 PUSH2 0x3169 DUP3 PUSH2 0x3142 JUMP JUMPDEST SWAP1 POP SWAP2 SWAP1 POP JUMP JUMPDEST PUSH1 0x0 PUSH2 0x317B DUP3 PUSH2 0x3142 JUMP JUMPDEST SWAP1 POP SWAP2 SWAP1 POP JUMP JUMPDEST PUSH1 0x0 PUSH2 0x318D DUP3 PUSH2 0x3142 JUMP JUMPDEST SWAP1 POP SWAP2 SWAP1 POP JUMP JUMPDEST PUSH1 0x0 PUSH2 0x319F DUP3 PUSH2 0x3142 JUMP JUMPDEST SWAP1 POP SWAP2 SWAP1 POP JUMP JUMPDEST DUP3 DUP2 DUP4 CALLDATACOPY PUSH1 0x0 DUP4 DUP4 ADD MSTORE POP POP POP JUMP JUMPDEST PUSH1 0x0 JUMPDEST DUP4 DUP2 LT ISZERO PUSH2 0x31D3 JUMPI DUP1 DUP3 ADD MLOAD DUP2 DUP5 ADD MSTORE PUSH1 0x20 DUP2 ADD SWAP1 POP PUSH2 0x31B8 JUMP JUMPDEST DUP4 DUP2 GT ISZERO PUSH2 0x31E2 JUMPI PUSH1 0x0 DUP5 DUP5 ADD MSTORE JUMPDEST POP POP POP POP JUMP JUMPDEST PUSH1 0x0 PUSH1 0x2 DUP3 DIV SWAP1 POP PUSH1 0x1 DUP3 AND DUP1 PUSH2 0x3200 JUMPI PUSH1 0x7F DUP3 AND SWAP2 POP JUMPDEST PUSH1 0x20 DUP3 LT DUP2 EQ ISZERO PUSH2 0x3214 JUMPI PUSH2 0x3213 PUSH2 0x32F2 JUMP JUMPDEST JUMPDEST POP SWAP2 SWAP1 POP JUMP JUMPDEST PUSH2 0x3223 DUP3 PUSH2 0x3386 JUMP JUMPDEST DUP2 ADD DUP2 DUP2 LT PUSH8 0xFFFFFFFFFFFFFFFF DUP3 GT OR ISZERO PUSH2 0x3242 JUMPI PUSH2 0x3241 PUSH2 0x3321 JUMP JUMPDEST JUMPDEST DUP1 PUSH1 0x40 MSTORE POP POP POP JUMP JUMPDEST PUSH1 0x0 PUSH2 0x3256 DUP3 PUSH2 0x3142 JUMP JUMPDEST SWAP2 POP PUSH32 0xFFFFFFFFFFFFFFFFFFFFFFFFFFFFFFFFFFFFFFFFFFFFFFFFFFFFFFFFFFFFFFFF DUP3 EQ ISZERO PUSH2 0x3289 JUMPI PUSH2 0x3288 PUSH2 0x3294 JUMP JUMPDEST JUMPDEST PUSH1 0x1 DUP3 ADD SWAP1 POP SWAP2 SWAP1 POP JUMP JUMPDEST PUSH32 0x4E487B7100000000000000000000000000000000000000000000000000000000 PUSH1 0x0 MSTORE PUSH1 0x11 PUSH1 0x4 MSTORE PUSH1 0x24 PUSH1 0x0 REVERT JUMPDEST PUSH32 0x4E487B7100000000000000000000000000000000000000000000000000000000 PUSH1 0x0 MSTORE PUSH1 0x12 PUSH1 0x4 MSTORE PUSH1 0x24 PUSH1 0x0 REVERT JUMPDEST PUSH32 0x4E487B7100000000000000000000000000000000000000000000000000000000 PUSH1 0x0 MSTORE PUSH1 0x22 PUSH1 0x4 MSTORE PUSH1 0x24 PUSH1 0x0 REVERT JUMPDEST PUSH32 0x4E487B7100000000000000000000000000000000000000000000000000000000 PUSH1 0x0 MSTORE PUSH1 0x41 PUSH1 0x4 MSTORE PUSH1 0x24 PUSH1 0x0 REVERT JUMPDEST PUSH1 0x0 PUSH1 0x3 RETURNDATASIZE GT ISZERO PUSH2 0x336F JUMPI PUSH1 0x4 PUSH1 0x0 DUP1 RETURNDATACOPY PUSH2 0x336C PUSH1 0x0 MLOAD PUSH2 0x3397 JUMP JUMPDEST SWAP1 POP JUMPDEST SWAP1 JUMP JUMPDEST PUSH1 0x0 DUP1 REVERT JUMPDEST PUSH1 0x0 DUP1 REVERT JUMPDEST PUSH1 0x0 DUP1 REVERT JUMPDEST PUSH1 0x0 DUP1 REVERT JUMPDEST PUSH1 0x0 PUSH1 0x1F NOT PUSH1 0x1F DUP4 ADD AND SWAP1 POP SWAP2 SWAP1 POP JUMP JUMPDEST PUSH1 0x0 DUP2 PUSH1 0xE0 SHR SWAP1 POP SWAP2 SWAP1 POP JUMP JUMPDEST PUSH32 0x4D6574686F6420457865637574696F6E2053686F756C64204661696C20000000 PUSH1 0x0 DUP3 ADD MSTORE POP JUMP JUMPDEST PUSH32 0x4661696C656420756E65787065637465646C7900000000000000000000000000 PUSH1 0x0 DUP3 ADD MSTORE POP JUMP JUMPDEST PUSH32 0x43616E20766F7465206F6E6C79207768696C6520766F74696E67206973206F70 PUSH1 0x0 DUP3 ADD MSTORE PUSH32 0x656E202E00000000000000000000000000000000000000000000000000000000 PUSH1 0x20 DUP3 ADD MSTORE POP JUMP JUMPDEST PUSH32 0x4661696C6564207769746820756E657870656374656420726561736F6E000000 PUSH1 0x0 DUP3 ADD MSTORE POP JUMP JUMPDEST PUSH32 0x556E692043616665000000000000000000000000000000000000000000000000 PUSH1 0x0 DUP3 ADD MSTORE POP JUMP JUMPDEST PUSH32 0x53686F756C6420626520657175616C20746F2032000000000000000000000000 PUSH1 0x0 DUP3 ADD MSTORE POP JUMP JUMPDEST PUSH32 0x53686F756C6420626520657175616C20746F2034000000000000000000000000 PUSH1 0x0 DUP3 ADD MSTORE POP JUMP JUMPDEST PUSH32 0x4D6574686F6420657865637574696F6E2073686F756C64206661696C20000000 PUSH1 0x0 DUP3 ADD MSTORE POP JUMP JUMPDEST PUSH32 0x53686F756C6420626520657175616C20746F2033000000000000000000000000 PUSH1 0x0 DUP3 ADD MSTORE POP JUMP JUMPDEST PUSH32 0x4661696C656420756E6578706563746564000000000000000000000000000000 PUSH1 0x0 DUP3 ADD MSTORE POP JUMP JUMPDEST PUSH32 0x566F74696E672073686F756C6420626520636C6F736564200000000000000000 PUSH1 0x0 DUP3 ADD MSTORE POP JUMP JUMPDEST PUSH32 0x53656C65637465642076656E75652073686F756C6420626520556E6920436166 PUSH1 0x0 DUP3 ADD MSTORE PUSH32 0x6520000000000000000000000000000000000000000000000000000000000000 PUSH1 0x20 DUP3 ADD MSTORE POP JUMP JUMPDEST PUSH32 0x4661696C6564207769746820756E657870656374656420726561736F6E200000 PUSH1 0x0 DUP3 ADD MSTORE POP JUMP JUMPDEST PUSH32 0x53686F756C6420626520657175616C20746F2031000000000000000000000000 PUSH1 0x0 DUP3 ADD MSTORE POP JUMP JUMPDEST PUSH32 0x4D6574686F6420657865637574696F6E2073686F756C64206661696C00000000 PUSH1 0x0 DUP3 ADD MSTORE POP JUMP JUMPDEST PUSH32 0x43616E206F6E6C7920626520657865637574656420627920746865206D616E61 PUSH1 0x0 DUP3 ADD MSTORE PUSH32 0x6765720000000000000000000000000000000000000000000000000000000000 PUSH1 0x20 DUP3 ADD MSTORE POP JUMP JUMPDEST PUSH32 0x41746F6D69632043616665000000000000000000000000000000000000000000 PUSH1 0x0 DUP3 ADD MSTORE POP JUMP JUMPDEST PUSH32 0x20566F74696E6720726573756C742073686F756C642062652066616C73652000 PUSH1 0x0 DUP3 ADD MSTORE POP JUMP JUMPDEST PUSH32 0x20566F74696E6720726573756C742073686F756C642062652074727565200000 PUSH1 0x0 DUP3 ADD MSTORE POP JUMP JUMPDEST PUSH32 0x4661696C656420756E6578706563746564200000000000000000000000000000 PUSH1 0x0 DUP3 ADD MSTORE POP JUMP JUMPDEST PUSH32 0x44616E69656C7320000000000000000000000000000000000000000000000000 PUSH1 0x0 DUP3 ADD MSTORE POP JUMP JUMPDEST PUSH32 0x4D616E616765722073686F756C64206265206163633000000000000000000000 PUSH1 0x0 DUP3 ADD MSTORE POP JUMP JUMPDEST PUSH1 0x0 PUSH1 0x44 RETURNDATASIZE LT ISZERO PUSH2 0x37AC JUMPI PUSH2 0x382F JUMP JUMPDEST PUSH2 0x37B4 PUSH2 0x3000 JUMP JUMPDEST PUSH1 0x4 RETURNDATASIZE SUB PUSH1 0x4 DUP3 RETURNDATACOPY DUP1 MLOAD RETURNDATASIZE PUSH1 0x24 DUP3 ADD GT PUSH8 0xFFFFFFFFFFFFFFFF DUP3 GT OR ISZERO PUSH2 0x37DC JUMPI POP POP PUSH2 0x382F JUMP JUMPDEST DUP1 DUP3 ADD DUP1 MLOAD PUSH8 0xFFFFFFFFFFFFFFFF DUP2 GT ISZERO PUSH2 0x37FA JUMPI POP POP POP POP PUSH2 0x382F JUMP JUMPDEST DUP1 PUSH1 0x20 DUP4 ADD ADD PUSH1 0x4 RETURNDATASIZE SUB DUP6 ADD DUP2 GT ISZERO PUSH2 0x3817 JUMPI POP POP POP POP POP PUSH2 0x382F JUMP JUMPDEST PUSH2 0x3826 DUP3 PUSH1 0x20 ADD DUP6 ADD DUP7 PUSH2 0x321A JUMP JUMPDEST DUP3 SWAP6 POP POP POP POP POP POP JUMPDEST SWAP1 JUMP JUMPDEST PUSH2 0x383B DUP2 PUSH2 0x3104 JUMP JUMPDEST DUP2 EQ PUSH2 0x3846 JUMPI PUSH1 0x0 DUP1 REVERT JUMPDEST POP JUMP JUMPDEST PUSH2 0x3852 DUP2 PUSH2 0x3116 JUMP JUMPDEST DUP2 EQ PUSH2 0x385D JUMPI PUSH1 0x0 DUP1 REVERT JUMPDEST POP JUMP JUMPDEST PUSH2 0x3869 DUP2 PUSH2 0x3142 JUMP JUMPDEST DUP2 EQ PUSH2 0x3874 JUMPI PUSH1 0x0 DUP1 REVERT JUMPDEST POP JUMP INVALID LOG2 PUSH5 0x6970667358 0x22 SLT KECCAK256 MSTORE8 SWAP2 EXTCODECOPY PUSH25 0xF3D21A1D8926CEADE6B563C2DB6CA9FC4C9DB59664D6DD1551 0x2B XOR SWAP13 PUSH5 0x736F6C6343 STOP ADDMOD SMOD STOP CALLER "
		},
		"gasEstimates": {
			"creation": {
				"codeDepositCost": "2901800",
				"executionCost": "infinite",
				"totalCost": "infinite"
			},
			"external": {
				"addFriend(address,string)": "infinite",
				"addVenue(string)": "infinite",
				"beforeAll()": "infinite",
				"doVote(uint256)": "infinite",
				"friends(address)": "infinite",
				"lunchVenueTest()": "infinite",
				"manager()": "2647",
				"managerTest()": "infinite",
				"numFriends()": "2540",
				"numVenues()": "2497",
				"numVotes()": "2473",
				"secondVoteForAddressFailure()": "infinite",
				"setFriend()": "infinite",
				"setFriendFailure()": "infinite",
				"setLunchVenue()": "infinite",
				"setLunchVenueFailure()": "infinite",
				"venues(uint256)": "infinite",
				"vote()": "infinite",
				"vote2()": "infinite",
				"vote3()": "infinite",
				"voteAfterClosedFailure()": "infinite",
				"voteFailure()": "infinite",
				"voteOpenTest()": "infinite",
				"votedVenue()": "infinite"
			}
		},
		"methodIdentifiers": {
			"addFriend(address,string)": "3b9f708d",
			"addVenue(string)": "02ee93c8",
			"beforeAll()": "7fea0d4b",
			"doVote(uint256)": "124258c6",
			"friends(address)": "1ddabf7a",
			"lunchVenueTest()": "a8267245",
			"manager()": "481c6a75",
			"managerTest()": "947aea86",
			"numFriends()": "47098f36",
			"numVenues()": "0843d16d",
			"numVotes()": "a3bef4d7",
			"secondVoteForAddressFailure()": "085df976",
			"setFriend()": "848b4427",
			"setFriendFailure()": "77440e06",
			"setLunchVenue()": "93fa7f47",
			"setLunchVenueFailure()": "0fdd0adc",
			"venues(uint256)": "02daf12f",
			"vote()": "632a9a52",
			"vote2()": "a24a4e88",
			"vote3()": "2955fea3",
			"voteAfterClosedFailure()": "a5627cf0",
			"voteFailure()": "a9a4070c",
			"voteOpenTest()": "bbb97ded",
			"votedVenue()": "1635b5d3"
		}
	},
	"abi": [
		{
			"inputs": [
				{
					"internalType": "address",
					"name": "friendAddress",
					"type": "address"
				},
				{
					"internalType": "string",
					"name": "name",
					"type": "string"
				}
			],
			"name": "addFriend",
			"outputs": [
				{
					"internalType": "uint256",
					"name": "",
					"type": "uint256"
				}
			],
			"stateMutability": "nonpayable",
			"type": "function"
		},
		{
			"inputs": [
				{
					"internalType": "string",
					"name": "name",
					"type": "string"
				}
			],
			"name": "addVenue",
			"outputs": [
				{
					"internalType": "uint256",
					"name": "",
					"type": "uint256"
				}
			],
			"stateMutability": "nonpayable",
			"type": "function"
		},
		{
			"inputs": [],
			"name": "beforeAll",
			"outputs": [],
			"stateMutability": "nonpayable",
			"type": "function"
		},
		{
			"inputs": [
				{
					"internalType": "uint256",
					"name": "venue",
					"type": "uint256"
				}
			],
			"name": "doVote",
			"outputs": [
				{
					"internalType": "bool",
					"name": "validVote",
					"type": "bool"
				}
			],
			"stateMutability": "nonpayable",
			"type": "function"
		},
		{
			"inputs": [
				{
					"internalType": "address",
					"name": "",
					"type": "address"
				}
			],
			"name": "friends",
			"outputs": [
				{
					"internalType": "string",
					"name": "name",
					"type": "string"
				},
				{
					"internalType": "bool",
					"name": "voted",
					"type": "bool"
				}
			],
			"stateMutability": "view",
			"type": "function"
		},
		{
			"inputs": [],
			"name": "lunchVenueTest",
			"outputs": [],
			"stateMutability": "nonpayable",
			"type": "function"
		},
		{
			"inputs": [],
			"name": "manager",
			"outputs": [
				{
					"internalType": "address",
					"name": "",
					"type": "address"
				}
			],
			"stateMutability": "view",
			"type": "function"
		},
		{
			"inputs": [],
			"name": "managerTest",
			"outputs": [],
			"stateMutability": "nonpayable",
			"type": "function"
		},
		{
			"inputs": [],
			"name": "numFriends",
			"outputs": [
				{
					"internalType": "uint256",
					"name": "",
					"type": "uint256"
				}
			],
			"stateMutability": "view",
			"type": "function"
		},
		{
			"inputs": [],
			"name": "numVenues",
			"outputs": [
				{
					"internalType": "uint256",
					"name": "",
					"type": "uint256"
				}
			],
			"stateMutability": "view",
			"type": "function"
		},
		{
			"inputs": [],
			"name": "numVotes",
			"outputs": [
				{
					"internalType": "uint256",
					"name": "",
					"type": "uint256"
				}
			],
			"stateMutability": "view",
			"type": "function"
		},
		{
			"inputs": [],
			"name": "secondVoteForAddressFailure",
			"outputs": [],
			"stateMutability": "nonpayable",
			"type": "function"
		},
		{
			"inputs": [],
			"name": "setFriend",
			"outputs": [],
			"stateMutability": "nonpayable",
			"type": "function"
		},
		{
			"inputs": [],
			"name": "setFriendFailure",
			"outputs": [],
			"stateMutability": "nonpayable",
			"type": "function"
		},
		{
			"inputs": [],
			"name": "setLunchVenue",
			"outputs": [],
			"stateMutability": "nonpayable",
			"type": "function"
		},
		{
			"inputs": [],
			"name": "setLunchVenueFailure",
			"outputs": [],
			"stateMutability": "nonpayable",
			"type": "function"
		},
		{
			"inputs": [
				{
					"internalType": "uint256",
					"name": "",
					"type": "uint256"
				}
			],
			"name": "venues",
			"outputs": [
				{
					"internalType": "string",
					"name": "",
					"type": "string"
				}
			],
			"stateMutability": "view",
			"type": "function"
		},
		{
			"inputs": [],
			"name": "vote",
			"outputs": [],
			"stateMutability": "nonpayable",
			"type": "function"
		},
		{
			"inputs": [],
			"name": "vote2",
			"outputs": [],
			"stateMutability": "nonpayable",
			"type": "function"
		},
		{
			"inputs": [],
			"name": "vote3",
			"outputs": [],
			"stateMutability": "nonpayable",
			"type": "function"
		},
		{
			"inputs": [],
			"name": "voteAfterClosedFailure",
			"outputs": [],
			"stateMutability": "nonpayable",
			"type": "function"
		},
		{
			"inputs": [],
			"name": "voteFailure",
			"outputs": [],
			"stateMutability": "nonpayable",
			"type": "function"
		},
		{
			"inputs": [],
			"name": "voteOpenTest",
			"outputs": [],
			"stateMutability": "nonpayable",
			"type": "function"
		},
		{
			"inputs": [],
			"name": "votedVenue",
			"outputs": [
				{
					"internalType": "string",
					"name": "",
					"type": "string"
				}
			],
			"stateMutability": "view",
			"type": "function"
		}
	]
}