{
	"contracts/LunchVenue_updated.sol": {
		"LunchVenue": {
			"abi": [
				{
					"inputs": [],
					"stateMutability": "nonpayable",
					"type": "constructor"
				},
				{
					"inputs": [
						{
							"internalType": "address",
							"name": "friendAddress",
							"type": "address"
						},
						{
							"internalType": "string",
							"name": "name",
							"type": "string"
						}
					],
					"name": "addFriend",
					"outputs": [
						{
							"internalType": "uint256",
							"name": "",
							"type": "uint256"
						}
					],
					"stateMutability": "nonpayable",
					"type": "function"
				},
				{
					"inputs": [
						{
							"internalType": "string",
							"name": "name",
							"type": "string"
						}
					],
					"name": "addVenue",
					"outputs": [
						{
							"internalType": "uint256",
							"name": "",
							"type": "uint256"
						}
					],
					"stateMutability": "nonpayable",
					"type": "function"
				},
				{
					"inputs": [],
					"name": "cancelLunch",
					"outputs": [],
					"stateMutability": "nonpayable",
					"type": "function"
				},
				{
					"inputs": [
						{
							"internalType": "uint256",
							"name": "venue",
							"type": "uint256"
						}
					],
					"name": "doVote",
					"outputs": [
						{
							"internalType": "bool",
							"name": "validVote",
							"type": "bool"
						}
					],
					"stateMutability": "nonpayable",
					"type": "function"
				},
				{
					"inputs": [
						{
							"internalType": "address",
							"name": "",
							"type": "address"
						}
					],
					"name": "friends",
					"outputs": [
						{
							"internalType": "string",
							"name": "name",
							"type": "string"
						},
						{
							"internalType": "bool",
							"name": "voted",
							"type": "bool"
						}
					],
					"stateMutability": "view",
					"type": "function"
				},
				{
					"inputs": [],
					"name": "manager",
					"outputs": [
						{
							"internalType": "address",
							"name": "",
							"type": "address"
						}
					],
					"stateMutability": "view",
					"type": "function"
				},
				{
					"inputs": [],
					"name": "numFriends",
					"outputs": [
						{
							"internalType": "uint256",
							"name": "",
							"type": "uint256"
						}
					],
					"stateMutability": "view",
					"type": "function"
				},
				{
					"inputs": [],
					"name": "numVenues",
					"outputs": [
						{
							"internalType": "uint256",
							"name": "",
							"type": "uint256"
						}
					],
					"stateMutability": "view",
					"type": "function"
				},
				{
					"inputs": [],
					"name": "numVotes",
					"outputs": [
						{
							"internalType": "uint256",
							"name": "",
							"type": "uint256"
						}
					],
					"stateMutability": "view",
					"type": "function"
				},
				{
					"inputs": [],
					"name": "openVoting",
					"outputs": [],
					"stateMutability": "nonpayable",
					"type": "function"
				},
				{
					"inputs": [],
					"name": "uncancelLunch",
					"outputs": [],
					"stateMutability": "nonpayable",
					"type": "function"
				},
				{
					"inputs": [
						{
							"internalType": "uint256",
							"name": "",
							"type": "uint256"
						}
					],
					"name": "venues",
					"outputs": [
						{
							"internalType": "string",
							"name": "",
							"type": "string"
						}
					],
					"stateMutability": "view",
					"type": "function"
				},
				{
					"inputs": [],
					"name": "votedVenue",
					"outputs": [
						{
							"internalType": "string",
							"name": "",
							"type": "string"
						}
					],
					"stateMutability": "view",
					"type": "function"
				}
			],
			"devdoc": {
				"kind": "dev",
				"methods": {
					"addFriend(address,string)": {
						"details": "To simplify the code duplication of friends is not checked",
						"params": {
							"friendAddress": "Friend ’s account address",
							"name": "Friend ’s name"
						},
						"returns": {
							"_0": "Number of friends added so far"
						}
					},
					"addVenue(string)": {
						"details": "To simplify the code duplication of venues is not checked",
						"params": {
							"name": "Name of the venue"
						},
						"returns": {
							"_0": "Number of lunch venues added so far"
						}
					},
					"doVote(uint256)": {
						"details": "To simplify the code multiple votes by a friend is not checked",
						"params": {
							"venue": "Venue number being voted"
						},
						"returns": {
							"validVote": "Is the vote valid ? A valid vote should be from a registered end and to a registered venue"
						}
					}
				},
				"title": "Contract to agree on the lunch venue",
				"version": 1
			},
			"evm": {
				"assembly": "    /* \"contracts/LunchVenue_updated.sol\":113:4990  contract LunchVenue {... */\n  mstore(0x40, 0x80)\n    /* \"contracts/LunchVenue_updated.sol\":491:492  0 */\n  0x00\n    /* \"contracts/LunchVenue_updated.sol\":467:492  uint public numVenues = 0 */\n  0x02\n  sstore\n    /* \"contracts/LunchVenue_updated.sol\":523:524  0 */\n  0x00\n    /* \"contracts/LunchVenue_updated.sol\":498:524  uint public numFriends = 0 */\n  0x03\n  sstore\n    /* \"contracts/LunchVenue_updated.sol\":553:554  0 */\n  0x00\n    /* \"contracts/LunchVenue_updated.sol\":530:554  uint public numVotes = 0 */\n  0x04\n  sstore\n    /* \"contracts/LunchVenue_updated.sol\":616:645  string public votedVenue = \"\" */\n  mload(0x40)\n  dup1\n  0x20\n  add\n  0x40\n  mstore\n  dup1\n  0x00\n  dup2\n  mstore\n  pop\n  0x06\n  swap1\n  dup1\n  mload\n  swap1\n  0x20\n  add\n  swap1\n  tag_1\n  swap3\n  swap2\n  swap1\n  tag_2\n  jump\t// in\ntag_1:\n  pop\n    /* \"contracts/LunchVenue_updated.sol\":877:881  true */\n  0x01\n    /* \"contracts/LunchVenue_updated.sol\":861:881  bool voteOpen = true */\n  0x09\n  exp(0x0100, 0x00)\n  dup2\n  sload\n  dup2\n  0xff\n  mul\n  not\n  and\n  swap1\n  dup4\n  iszero\n  iszero\n  mul\n  or\n  swap1\n  sstore\n  pop\n    /* \"contracts/LunchVenue_updated.sol\":928:933  false */\n  0x00\n    /* \"contracts/LunchVenue_updated.sol\":906:933  bool lunchCancelled = false */\n  0x09\n  exp(0x0100, 0x01)\n  dup2\n  sload\n  dup2\n  0xff\n  mul\n  not\n  and\n  swap1\n  dup4\n  iszero\n  iszero\n  mul\n  or\n  swap1\n  sstore\n  pop\n    /* \"contracts/LunchVenue_updated.sol\":982:1070  constructor () {... */\n  callvalue\n  dup1\n  iszero\n  tag_3\n  jumpi\n  0x00\n  dup1\n  revert\ntag_3:\n  pop\n    /* \"contracts/LunchVenue_updated.sol\":1017:1027  msg.sender */\n  caller\n    /* \"contracts/LunchVenue_updated.sol\":1007:1014  manager */\n  0x05\n  0x00\n    /* \"contracts/LunchVenue_updated.sol\":1007:1027  manager = msg.sender */\n  0x0100\n  exp\n  dup2\n  sload\n  dup2\n  0xffffffffffffffffffffffffffffffffffffffff\n  mul\n  not\n  and\n  swap1\n  dup4\n  0xffffffffffffffffffffffffffffffffffffffff\n  and\n  mul\n  or\n  swap1\n  sstore\n  pop\n    /* \"contracts/LunchVenue_updated.sol\":113:4990  contract LunchVenue {... */\n  jump(tag_6)\ntag_2:\n  dup3\n  dup1\n  sload\n  tag_7\n  swap1\n  tag_8\n  jump\t// in\ntag_7:\n  swap1\n  0x00\n  mstore\n  keccak256(0x00, 0x20)\n  swap1\n  0x1f\n  add\n  0x20\n  swap1\n  div\n  dup2\n  add\n  swap3\n  dup3\n  tag_10\n  jumpi\n  0x00\n  dup6\n  sstore\n  jump(tag_9)\ntag_10:\n  dup3\n  0x1f\n  lt\n  tag_11\n  jumpi\n  dup1\n  mload\n  not(0xff)\n  and\n  dup4\n  dup1\n  add\n  or\n  dup6\n  sstore\n  jump(tag_9)\ntag_11:\n  dup3\n  dup1\n  add\n  0x01\n  add\n  dup6\n  sstore\n  dup3\n  iszero\n  tag_9\n  jumpi\n  swap2\n  dup3\n  add\ntag_12:\n  dup3\n  dup2\n  gt\n  iszero\n  tag_13\n  jumpi\n  dup3\n  mload\n  dup3\n  sstore\n  swap2\n  0x20\n  add\n  swap2\n  swap1\n  0x01\n  add\n  swap1\n  jump(tag_12)\ntag_13:\ntag_9:\n  pop\n  swap1\n  pop\n  tag_14\n  swap2\n  swap1\n  tag_15\n  jump\t// in\ntag_14:\n  pop\n  swap1\n  jump\t// out\ntag_15:\ntag_16:\n  dup1\n  dup3\n  gt\n  iszero\n  tag_17\n  jumpi\n  0x00\n  dup2\n  0x00\n  swap1\n  sstore\n  pop\n  0x01\n  add\n  jump(tag_16)\ntag_17:\n  pop\n  swap1\n  jump\t// out\n    /* \"#utility.yul\":7:327   */\ntag_8:\n    /* \"#utility.yul\":51:57   */\n  0x00\n    /* \"#utility.yul\":88:89   */\n  0x02\n    /* \"#utility.yul\":82:86   */\n  dup3\n    /* \"#utility.yul\":78:90   */\n  div\n    /* \"#utility.yul\":68:90   */\n  swap1\n  pop\n    /* \"#utility.yul\":135:136   */\n  0x01\n    /* \"#utility.yul\":129:133   */\n  dup3\n    /* \"#utility.yul\":125:137   */\n  and\n    /* \"#utility.yul\":156:174   */\n  dup1\n    /* \"#utility.yul\":146:227   */\n  tag_20\n  jumpi\n    /* \"#utility.yul\":212:216   */\n  0x7f\n    /* \"#utility.yul\":204:210   */\n  dup3\n    /* \"#utility.yul\":200:217   */\n  and\n    /* \"#utility.yul\":190:217   */\n  swap2\n  pop\n    /* \"#utility.yul\":146:227   */\ntag_20:\n    /* \"#utility.yul\":274:276   */\n  0x20\n    /* \"#utility.yul\":266:272   */\n  dup3\n    /* \"#utility.yul\":263:277   */\n  lt\n    /* \"#utility.yul\":243:261   */\n  dup2\n    /* \"#utility.yul\":240:278   */\n  eq\n    /* \"#utility.yul\":237:321   */\n  iszero\n  tag_21\n  jumpi\n    /* \"#utility.yul\":293:311   */\n  tag_22\n  tag_23\n  jump\t// in\ntag_22:\n    /* \"#utility.yul\":237:321   */\ntag_21:\n    /* \"#utility.yul\":58:327   */\n  pop\n    /* \"#utility.yul\":7:327   */\n  swap2\n  swap1\n  pop\n  jump\t// out\n    /* \"#utility.yul\":333:513   */\ntag_23:\n    /* \"#utility.yul\":381:458   */\n  0x4e487b7100000000000000000000000000000000000000000000000000000000\n    /* \"#utility.yul\":378:379   */\n  0x00\n    /* \"#utility.yul\":371:459   */\n  mstore\n    /* \"#utility.yul\":478:482   */\n  0x22\n    /* \"#utility.yul\":475:476   */\n  0x04\n    /* \"#utility.yul\":468:483   */\n  mstore\n    /* \"#utility.yul\":502:506   */\n  0x24\n    /* \"#utility.yul\":499:500   */\n  0x00\n    /* \"#utility.yul\":492:507   */\n  revert\n    /* \"contracts/LunchVenue_updated.sol\":113:4990  contract LunchVenue {... */\ntag_6:\n  dataSize(sub_0)\n  dup1\n  dataOffset(sub_0)\n  0x00\n  codecopy\n  0x00\n  return\nstop\n\nsub_0: assembly {\n        /* \"contracts/LunchVenue_updated.sol\":113:4990  contract LunchVenue {... */\n      mstore(0x40, 0x80)\n      callvalue\n      dup1\n      iszero\n      tag_1\n      jumpi\n      0x00\n      dup1\n      revert\n    tag_1:\n      pop\n      jumpi(tag_2, lt(calldatasize, 0x04))\n      shr(0xe0, calldataload(0x00))\n      dup1\n      0x3b9f708d\n      gt\n      tag_16\n      jumpi\n      dup1\n      0xa3bef4d7\n      gt\n      tag_17\n      jumpi\n      dup1\n      0xa3bef4d7\n      eq\n      tag_12\n      jumpi\n      dup1\n      0xaffc0670\n      eq\n      tag_13\n      jumpi\n      dup1\n      0xd4ad644e\n      eq\n      tag_14\n      jumpi\n      dup1\n      0xe2393021\n      eq\n      tag_15\n      jumpi\n      jump(tag_2)\n    tag_17:\n      dup1\n      0x3b9f708d\n      eq\n      tag_9\n      jumpi\n      dup1\n      0x47098f36\n      eq\n      tag_10\n      jumpi\n      dup1\n      0x481c6a75\n      eq\n      tag_11\n      jumpi\n      jump(tag_2)\n    tag_16:\n      dup1\n      0x02daf12f\n      eq\n      tag_3\n      jumpi\n      dup1\n      0x02ee93c8\n      eq\n      tag_4\n      jumpi\n      dup1\n      0x0843d16d\n      eq\n      tag_5\n      jumpi\n      dup1\n      0x124258c6\n      eq\n      tag_6\n      jumpi\n      dup1\n      0x1635b5d3\n      eq\n      tag_7\n      jumpi\n      dup1\n      0x1ddabf7a\n      eq\n      tag_8\n      jumpi\n    tag_2:\n      0x00\n      dup1\n      revert\n        /* \"contracts/LunchVenue_updated.sol\":291:331  mapping ( uint => string ) public venues */\n    tag_3:\n      tag_18\n      0x04\n      dup1\n      calldatasize\n      sub\n      dup2\n      add\n      swap1\n      tag_19\n      swap2\n      swap1\n      tag_20\n      jump\t// in\n    tag_19:\n      tag_21\n      jump\t// in\n    tag_18:\n      mload(0x40)\n      tag_22\n      swap2\n      swap1\n      tag_23\n      jump\t// in\n    tag_22:\n      mload(0x40)\n      dup1\n      swap2\n      sub\n      swap1\n      return\n        /* \"contracts/LunchVenue_updated.sol\":1275:1437  function addVenue(string memory name) public restricted returns (uint){... */\n    tag_4:\n      tag_24\n      0x04\n      dup1\n      calldatasize\n      sub\n      dup2\n      add\n      swap1\n      tag_25\n      swap2\n      swap1\n      tag_26\n      jump\t// in\n    tag_25:\n      tag_27\n      jump\t// in\n    tag_24:\n      mload(0x40)\n      tag_28\n      swap2\n      swap1\n      tag_29\n      jump\t// in\n    tag_28:\n      mload(0x40)\n      dup1\n      swap2\n      sub\n      swap1\n      return\n        /* \"contracts/LunchVenue_updated.sol\":467:492  uint public numVenues = 0 */\n    tag_5:\n      tag_30\n      tag_31\n      jump\t// in\n    tag_30:\n      mload(0x40)\n      tag_32\n      swap2\n      swap1\n      tag_29\n      jump\t// in\n    tag_32:\n      mload(0x40)\n      dup1\n      swap2\n      sub\n      swap1\n      return\n        /* \"contracts/LunchVenue_updated.sol\":2289:3154  function doVote ( uint venue ) public votingOpen lunchNotCancelled returns ( bool validVote ){... */\n    tag_6:\n      tag_33\n      0x04\n      dup1\n      calldatasize\n      sub\n      dup2\n      add\n      swap1\n      tag_34\n      swap2\n      swap1\n      tag_20\n      jump\t// in\n    tag_34:\n      tag_35\n      jump\t// in\n    tag_33:\n      mload(0x40)\n      tag_36\n      swap2\n      swap1\n      tag_37\n      jump\t// in\n    tag_36:\n      mload(0x40)\n      dup1\n      swap2\n      sub\n      swap1\n      return\n        /* \"contracts/LunchVenue_updated.sol\":616:645  string public votedVenue = \"\" */\n    tag_7:\n      tag_38\n      tag_39\n      jump\t// in\n    tag_38:\n      mload(0x40)\n      tag_40\n      swap2\n      swap1\n      tag_23\n      jump\t// in\n    tag_40:\n      mload(0x40)\n      dup1\n      swap2\n      sub\n      swap1\n      return\n        /* \"contracts/LunchVenue_updated.sol\":376:420  mapping ( address => Friend ) public friends */\n    tag_8:\n      tag_41\n      0x04\n      dup1\n      calldatasize\n      sub\n      dup2\n      add\n      swap1\n      tag_42\n      swap2\n      swap1\n      tag_43\n      jump\t// in\n    tag_42:\n      tag_44\n      jump\t// in\n    tag_41:\n      mload(0x40)\n      tag_45\n      swap3\n      swap2\n      swap1\n      tag_46\n      jump\t// in\n    tag_45:\n      mload(0x40)\n      dup1\n      swap2\n      sub\n      swap1\n      return\n        /* \"contracts/LunchVenue_updated.sol\":1720:2005  function addFriend ( address friendAddress , string memory name ) public restricted... */\n    tag_9:\n      tag_47\n      0x04\n      dup1\n      calldatasize\n      sub\n      dup2\n      add\n      swap1\n      tag_48\n      swap2\n      swap1\n      tag_49\n      jump\t// in\n    tag_48:\n      tag_50\n      jump\t// in\n    tag_47:\n      mload(0x40)\n      tag_51\n      swap2\n      swap1\n      tag_29\n      jump\t// in\n    tag_51:\n      mload(0x40)\n      dup1\n      swap2\n      sub\n      swap1\n      return\n        /* \"contracts/LunchVenue_updated.sol\":498:524  uint public numFriends = 0 */\n    tag_10:\n      tag_52\n      tag_53\n      jump\t// in\n    tag_52:\n      mload(0x40)\n      tag_54\n      swap2\n      swap1\n      tag_29\n      jump\t// in\n    tag_54:\n      mload(0x40)\n      dup1\n      swap2\n      sub\n      swap1\n      return\n        /* \"contracts/LunchVenue_updated.sol\":560:582  address public manager */\n    tag_11:\n      tag_55\n      tag_56\n      jump\t// in\n    tag_55:\n      mload(0x40)\n      tag_57\n      swap2\n      swap1\n      tag_58\n      jump\t// in\n    tag_57:\n      mload(0x40)\n      dup1\n      swap2\n      sub\n      swap1\n      return\n        /* \"contracts/LunchVenue_updated.sol\":530:554  uint public numVotes = 0 */\n    tag_12:\n      tag_59\n      tag_60\n      jump\t// in\n    tag_59:\n      mload(0x40)\n      tag_61\n      swap2\n      swap1\n      tag_29\n      jump\t// in\n    tag_61:\n      mload(0x40)\n      dup1\n      swap2\n      sub\n      swap1\n      return\n        /* \"contracts/LunchVenue_updated.sol\":4043:4115  function openVoting() public restricted {... */\n    tag_13:\n      tag_62\n      tag_63\n      jump\t// in\n    tag_62:\n      stop\n        /* \"contracts/LunchVenue_updated.sol\":4372:4454  function uncancelLunch() public restricted {... */\n    tag_14:\n      tag_64\n      tag_65\n      jump\t// in\n    tag_64:\n      stop\n        /* \"contracts/LunchVenue_updated.sol\":4176:4309  function cancelLunch() public restricted {... */\n    tag_15:\n      tag_66\n      tag_67\n      jump\t// in\n    tag_66:\n      stop\n        /* \"contracts/LunchVenue_updated.sol\":291:331  mapping ( uint => string ) public venues */\n    tag_21:\n      mstore(0x20, 0x00)\n      dup1\n      0x00\n      mstore\n      keccak256(0x00, 0x40)\n      0x00\n      swap2\n      pop\n      swap1\n      pop\n      dup1\n      sload\n      tag_68\n      swap1\n      tag_69\n      jump\t// in\n    tag_68:\n      dup1\n      0x1f\n      add\n      0x20\n      dup1\n      swap2\n      div\n      mul\n      0x20\n      add\n      mload(0x40)\n      swap1\n      dup2\n      add\n      0x40\n      mstore\n      dup1\n      swap3\n      swap2\n      swap1\n      dup2\n      dup2\n      mstore\n      0x20\n      add\n      dup3\n      dup1\n      sload\n      tag_70\n      swap1\n      tag_69\n      jump\t// in\n    tag_70:\n      dup1\n      iszero\n      tag_71\n      jumpi\n      dup1\n      0x1f\n      lt\n      tag_72\n      jumpi\n      0x0100\n      dup1\n      dup4\n      sload\n      div\n      mul\n      dup4\n      mstore\n      swap2\n      0x20\n      add\n      swap2\n      jump(tag_71)\n    tag_72:\n      dup3\n      add\n      swap2\n      swap1\n      0x00\n      mstore\n      keccak256(0x00, 0x20)\n      swap1\n    tag_73:\n      dup2\n      sload\n      dup2\n      mstore\n      swap1\n      0x01\n      add\n      swap1\n      0x20\n      add\n      dup1\n      dup4\n      gt\n      tag_73\n      jumpi\n      dup3\n      swap1\n      sub\n      0x1f\n      and\n      dup3\n      add\n      swap2\n    tag_71:\n      pop\n      pop\n      pop\n      pop\n      pop\n      dup2\n      jump\t// out\n        /* \"contracts/LunchVenue_updated.sol\":1275:1437  function addVenue(string memory name) public restricted returns (uint){... */\n    tag_27:\n        /* \"contracts/LunchVenue_updated.sol\":1340:1344  uint */\n      0x00\n        /* \"contracts/LunchVenue_updated.sol\":4742:4749  manager */\n      0x05\n      0x00\n      swap1\n      sload\n      swap1\n      0x0100\n      exp\n      swap1\n      div\n      0xffffffffffffffffffffffffffffffffffffffff\n      and\n        /* \"contracts/LunchVenue_updated.sol\":4726:4749  msg . sender == manager */\n      0xffffffffffffffffffffffffffffffffffffffff\n      and\n        /* \"contracts/LunchVenue_updated.sol\":4726:4738  msg . sender */\n      caller\n        /* \"contracts/LunchVenue_updated.sol\":4726:4749  msg . sender == manager */\n      0xffffffffffffffffffffffffffffffffffffffff\n      and\n      eq\n        /* \"contracts/LunchVenue_updated.sol\":4716:4790  require ( msg . sender == manager , \"Can only be executed by the manager\") */\n      tag_75\n      jumpi\n      mload(0x40)\n      0x08c379a000000000000000000000000000000000000000000000000000000000\n      dup2\n      mstore\n      0x04\n      add\n      tag_76\n      swap1\n      tag_77\n      jump\t// in\n    tag_76:\n      mload(0x40)\n      dup1\n      swap2\n      sub\n      swap1\n      revert\n    tag_75:\n        /* \"contracts/LunchVenue_updated.sol\":1355:1364  numVenues */\n      0x02\n      0x00\n        /* \"contracts/LunchVenue_updated.sol\":1355:1367  numVenues ++ */\n      dup2\n      sload\n      dup1\n      swap3\n      swap2\n      swap1\n      tag_79\n      swap1\n      tag_80\n      jump\t// in\n    tag_79:\n      swap2\n      swap1\n      pop\n      sstore\n      pop\n        /* \"contracts/LunchVenue_updated.sol\":1398:1402  name */\n      dup2\n        /* \"contracts/LunchVenue_updated.sol\":1377:1383  venues */\n      0x00\n        /* \"contracts/LunchVenue_updated.sol\":1377:1395  venues [numVenues] */\n      dup1\n        /* \"contracts/LunchVenue_updated.sol\":1385:1394  numVenues */\n      sload(0x02)\n        /* \"contracts/LunchVenue_updated.sol\":1377:1395  venues [numVenues] */\n      dup2\n      mstore\n      0x20\n      add\n      swap1\n      dup2\n      mstore\n      0x20\n      add\n      0x00\n      keccak256\n        /* \"contracts/LunchVenue_updated.sol\":1377:1402  venues [numVenues] = name */\n      swap1\n      dup1\n      mload\n      swap1\n      0x20\n      add\n      swap1\n      tag_81\n      swap3\n      swap2\n      swap1\n      tag_82\n      jump\t// in\n    tag_81:\n      pop\n        /* \"contracts/LunchVenue_updated.sol\":1420:1429  numVenues */\n      sload(0x02)\n        /* \"contracts/LunchVenue_updated.sol\":1413:1429  return numVenues */\n      swap1\n      pop\n        /* \"contracts/LunchVenue_updated.sol\":1275:1437  function addVenue(string memory name) public restricted returns (uint){... */\n      swap2\n      swap1\n      pop\n      jump\t// out\n        /* \"contracts/LunchVenue_updated.sol\":467:492  uint public numVenues = 0 */\n    tag_31:\n      sload(0x02)\n      dup2\n      jump\t// out\n        /* \"contracts/LunchVenue_updated.sol\":2289:3154  function doVote ( uint venue ) public votingOpen lunchNotCancelled returns ( bool validVote ){... */\n    tag_35:\n        /* \"contracts/LunchVenue_updated.sol\":2366:2380  bool validVote */\n      0x00\n        /* \"contracts/LunchVenue_updated.sol\":4917:4921  true */\n      0x01\n        /* \"contracts/LunchVenue_updated.sol\":4905:4921  voteOpen == true */\n      iszero\n      iszero\n        /* \"contracts/LunchVenue_updated.sol\":4905:4913  voteOpen */\n      0x09\n      0x00\n      swap1\n      sload\n      swap1\n      0x0100\n      exp\n      swap1\n      div\n      0xff\n      and\n        /* \"contracts/LunchVenue_updated.sol\":4905:4921  voteOpen == true */\n      iszero\n      iszero\n      eq\n        /* \"contracts/LunchVenue_updated.sol\":4895:4963  require ( voteOpen == true , \"Can vote only while voting is open .\") */\n      tag_84\n      jumpi\n      mload(0x40)\n      0x08c379a000000000000000000000000000000000000000000000000000000000\n      dup2\n      mstore\n      0x04\n      add\n      tag_85\n      swap1\n      tag_86\n      jump\t// in\n    tag_85:\n      mload(0x40)\n      dup1\n      swap2\n      sub\n      swap1\n      revert\n    tag_84:\n        /* \"contracts/LunchVenue_updated.sol\":4564:4569  false */\n      0x00\n        /* \"contracts/LunchVenue_updated.sol\":4546:4569  lunchCancelled == false */\n      iszero\n      iszero\n        /* \"contracts/LunchVenue_updated.sol\":4546:4560  lunchCancelled */\n      0x09\n      0x01\n      swap1\n      sload\n      swap1\n      0x0100\n      exp\n      swap1\n      div\n      0xff\n      and\n        /* \"contracts/LunchVenue_updated.sol\":4546:4569  lunchCancelled == false */\n      iszero\n      iszero\n      eq\n        /* \"contracts/LunchVenue_updated.sol\":4536:4623  require ( lunchCancelled == false , \"Cannot execute function while lunch is cancelled\") */\n      tag_88\n      jumpi\n      mload(0x40)\n      0x08c379a000000000000000000000000000000000000000000000000000000000\n      dup2\n      mstore\n      0x04\n      add\n      tag_89\n      swap1\n      tag_90\n      jump\t// in\n    tag_89:\n      mload(0x40)\n      dup1\n      swap2\n      sub\n      swap1\n      revert\n    tag_88:\n        /* \"contracts/LunchVenue_updated.sol\":2404:2409  false */\n      0x00\n        /* \"contracts/LunchVenue_updated.sol\":2392:2409  validVote = false */\n      swap1\n      pop\n        /* \"contracts/LunchVenue_updated.sol\":2500:2501  0 */\n      0x00\n        /* \"contracts/LunchVenue_updated.sol\":2456:2463  friends */\n      0x01\n        /* \"contracts/LunchVenue_updated.sol\":2456:2480  friends [ msg . sender ] */\n      0x00\n        /* \"contracts/LunchVenue_updated.sol\":2466:2478  msg . sender */\n      caller\n        /* \"contracts/LunchVenue_updated.sol\":2456:2480  friends [ msg . sender ] */\n      0xffffffffffffffffffffffffffffffffffffffff\n      and\n      0xffffffffffffffffffffffffffffffffffffffff\n      and\n      dup2\n      mstore\n      0x20\n      add\n      swap1\n      dup2\n      mstore\n      0x20\n      add\n      0x00\n      keccak256\n        /* \"contracts/LunchVenue_updated.sol\":2456:2486  friends [ msg . sender ]. name */\n      0x00\n      add\n        /* \"contracts/LunchVenue_updated.sol\":2448:2496  bytes ( friends [ msg . sender ]. name ). length */\n      dup1\n      sload\n      tag_92\n      swap1\n      tag_69\n      jump\t// in\n    tag_92:\n      swap1\n      pop\n        /* \"contracts/LunchVenue_updated.sol\":2448:2501  bytes ( friends [ msg . sender ]. name ). length != 0 */\n      eq\n        /* \"contracts/LunchVenue_updated.sol\":2443:3015  if ( bytes ( friends [ msg . sender ]. name ). length != 0) { // Does friend exist ?... */\n      tag_93\n      jumpi\n        /* \"contracts/LunchVenue_updated.sol\":2573:2577  true */\n      0x01\n        /* \"contracts/LunchVenue_updated.sol\":2544:2577  friends[msg.sender].voted == true */\n      iszero\n      iszero\n        /* \"contracts/LunchVenue_updated.sol\":2544:2551  friends */\n      0x01\n        /* \"contracts/LunchVenue_updated.sol\":2544:2563  friends[msg.sender] */\n      0x00\n        /* \"contracts/LunchVenue_updated.sol\":2552:2562  msg.sender */\n      caller\n        /* \"contracts/LunchVenue_updated.sol\":2544:2563  friends[msg.sender] */\n      0xffffffffffffffffffffffffffffffffffffffff\n      and\n      0xffffffffffffffffffffffffffffffffffffffff\n      and\n      dup2\n      mstore\n      0x20\n      add\n      swap1\n      dup2\n      mstore\n      0x20\n      add\n      0x00\n      keccak256\n        /* \"contracts/LunchVenue_updated.sol\":2544:2569  friends[msg.sender].voted */\n      0x01\n      add\n      0x00\n      swap1\n      sload\n      swap1\n      0x0100\n      exp\n      swap1\n      div\n      0xff\n      and\n        /* \"contracts/LunchVenue_updated.sol\":2544:2577  friends[msg.sender].voted == true */\n      iszero\n      iszero\n      eq\n        /* \"contracts/LunchVenue_updated.sol\":2540:3005  if (friends[msg.sender].voted == true) {    ... */\n      iszero\n      tag_94\n      jumpi\n        /* \"contracts/LunchVenue_updated.sol\":2644:2645  0 */\n      0x00\n        /* \"contracts/LunchVenue_updated.sol\":2614:2620  venues */\n      dup1\n        /* \"contracts/LunchVenue_updated.sol\":2614:2630  venues [ venue ] */\n      0x00\n        /* \"contracts/LunchVenue_updated.sol\":2623:2628  venue */\n      dup5\n        /* \"contracts/LunchVenue_updated.sol\":2614:2630  venues [ venue ] */\n      dup2\n      mstore\n      0x20\n      add\n      swap1\n      dup2\n      mstore\n      0x20\n      add\n      0x00\n      keccak256\n        /* \"contracts/LunchVenue_updated.sol\":2606:2640  bytes ( venues [ venue ]) . length */\n      dup1\n      sload\n      tag_95\n      swap1\n      tag_69\n      jump\t// in\n    tag_95:\n      swap1\n      pop\n        /* \"contracts/LunchVenue_updated.sol\":2606:2645  bytes ( venues [ venue ]) . length != 0 */\n      eq\n        /* \"contracts/LunchVenue_updated.sol\":2601:2991  if ( bytes ( venues [ venue ]) . length != 0) { // Does venue exist ?... */\n      tag_96\n      jumpi\n        /* \"contracts/LunchVenue_updated.sol\":2703:2707  true */\n      0x01\n        /* \"contracts/LunchVenue_updated.sol\":2691:2707  validVote = true */\n      swap1\n      pop\n        /* \"contracts/LunchVenue_updated.sol\":2763:2767  true */\n      0x01\n        /* \"contracts/LunchVenue_updated.sol\":2730:2737  friends */\n      dup1\n        /* \"contracts/LunchVenue_updated.sol\":2730:2753  friends [msg . sender ] */\n      0x00\n        /* \"contracts/LunchVenue_updated.sol\":2739:2751  msg . sender */\n      caller\n        /* \"contracts/LunchVenue_updated.sol\":2730:2753  friends [msg . sender ] */\n      0xffffffffffffffffffffffffffffffffffffffff\n      and\n      0xffffffffffffffffffffffffffffffffffffffff\n      and\n      dup2\n      mstore\n      0x20\n      add\n      swap1\n      dup2\n      mstore\n      0x20\n      add\n      0x00\n      keccak256\n        /* \"contracts/LunchVenue_updated.sol\":2730:2760  friends [msg . sender ]. voted */\n      0x01\n      add\n      0x00\n        /* \"contracts/LunchVenue_updated.sol\":2730:2767  friends [msg . sender ]. voted = true */\n      0x0100\n      exp\n      dup2\n      sload\n      dup2\n      0xff\n      mul\n      not\n      and\n      swap1\n      dup4\n      iszero\n      iszero\n      mul\n      or\n      swap1\n      sstore\n      pop\n        /* \"contracts/LunchVenue_updated.sol\":2790:2803  Vote memory v */\n      tag_97\n      tag_98\n      jump\t// in\n    tag_97:\n        /* \"contracts/LunchVenue_updated.sol\":2843:2855  msg . sender */\n      caller\n        /* \"contracts/LunchVenue_updated.sol\":2825:2826  v */\n      dup2\n        /* \"contracts/LunchVenue_updated.sol\":2825:2840  v. voterAddress */\n      0x00\n      add\n        /* \"contracts/LunchVenue_updated.sol\":2825:2855  v. voterAddress = msg . sender */\n      swap1\n      0xffffffffffffffffffffffffffffffffffffffff\n      and\n      swap1\n      dup2\n      0xffffffffffffffffffffffffffffffffffffffff\n      and\n      dup2\n      mstore\n      pop\n      pop\n        /* \"contracts/LunchVenue_updated.sol\":2889:2894  venue */\n      dup3\n        /* \"contracts/LunchVenue_updated.sol\":2878:2879  v */\n      dup2\n        /* \"contracts/LunchVenue_updated.sol\":2878:2886  v. venue */\n      0x20\n      add\n        /* \"contracts/LunchVenue_updated.sol\":2878:2894  v. venue = venue */\n      dup2\n      dup2\n      mstore\n      pop\n      pop\n        /* \"contracts/LunchVenue_updated.sol\":2917:2925  numVotes */\n      0x04\n      0x00\n        /* \"contracts/LunchVenue_updated.sol\":2917:2928  numVotes ++ */\n      dup2\n      sload\n      dup1\n      swap3\n      swap2\n      swap1\n      tag_99\n      swap1\n      tag_80\n      jump\t// in\n    tag_99:\n      swap2\n      swap1\n      pop\n      sstore\n      pop\n        /* \"contracts/LunchVenue_updated.sol\":2971:2972  v */\n      dup1\n        /* \"contracts/LunchVenue_updated.sol\":2950:2955  votes */\n      0x07\n        /* \"contracts/LunchVenue_updated.sol\":2950:2968  votes [ numVotes ] */\n      0x00\n        /* \"contracts/LunchVenue_updated.sol\":2958:2966  numVotes */\n      sload(0x04)\n        /* \"contracts/LunchVenue_updated.sol\":2950:2968  votes [ numVotes ] */\n      dup2\n      mstore\n      0x20\n      add\n      swap1\n      dup2\n      mstore\n      0x20\n      add\n      0x00\n      keccak256\n        /* \"contracts/LunchVenue_updated.sol\":2950:2972  votes [ numVotes ] = v */\n      0x00\n      dup3\n      add\n      mload\n      dup2\n      0x00\n      add\n      exp(0x0100, 0x00)\n      dup2\n      sload\n      dup2\n      0xffffffffffffffffffffffffffffffffffffffff\n      mul\n      not\n      and\n      swap1\n      dup4\n      0xffffffffffffffffffffffffffffffffffffffff\n      and\n      mul\n      or\n      swap1\n      sstore\n      pop\n      0x20\n      dup3\n      add\n      mload\n      dup2\n      0x01\n      add\n      sstore\n      swap1\n      pop\n      pop\n        /* \"contracts/LunchVenue_updated.sol\":2647:2991  { // Does venue exist ?... */\n      pop\n        /* \"contracts/LunchVenue_updated.sol\":2601:2991  if ( bytes ( venues [ venue ]) . length != 0) { // Does venue exist ?... */\n    tag_96:\n        /* \"contracts/LunchVenue_updated.sol\":2540:3005  if (friends[msg.sender].voted == true) {    ... */\n    tag_94:\n        /* \"contracts/LunchVenue_updated.sol\":2443:3015  if ( bytes ( friends [ msg . sender ]. name ). length != 0) { // Does friend exist ?... */\n    tag_93:\n        /* \"contracts/LunchVenue_updated.sol\":3057:3058  1 */\n      0x01\n        /* \"contracts/LunchVenue_updated.sol\":3053:3054  2 */\n      0x02\n        /* \"contracts/LunchVenue_updated.sol\":3041:3051  numFriends */\n      sload(0x03)\n        /* \"contracts/LunchVenue_updated.sol\":3041:3054  numFriends /2 */\n      tag_100\n      swap2\n      swap1\n      tag_101\n      jump\t// in\n    tag_100:\n        /* \"contracts/LunchVenue_updated.sol\":3041:3058  numFriends /2 + 1 */\n      tag_102\n      swap2\n      swap1\n      tag_103\n      jump\t// in\n    tag_102:\n        /* \"contracts/LunchVenue_updated.sol\":3029:3037  numVotes */\n      sload(0x04)\n        /* \"contracts/LunchVenue_updated.sol\":3029:3058  numVotes >= numFriends /2 + 1 */\n      lt\n        /* \"contracts/LunchVenue_updated.sol\":3024:3117  if ( numVotes >= numFriends /2 + 1) { // Quorum is met... */\n      tag_104\n      jumpi\n        /* \"contracts/LunchVenue_updated.sol\":3091:3105  finalResult () */\n      tag_105\n        /* \"contracts/LunchVenue_updated.sol\":3091:3102  finalResult */\n      tag_106\n        /* \"contracts/LunchVenue_updated.sol\":3091:3105  finalResult () */\n      jump\t// in\n    tag_105:\n        /* \"contracts/LunchVenue_updated.sol\":3024:3117  if ( numVotes >= numFriends /2 + 1) { // Quorum is met... */\n    tag_104:\n        /* \"contracts/LunchVenue_updated.sol\":2289:3154  function doVote ( uint venue ) public votingOpen lunchNotCancelled returns ( bool validVote ){... */\n      swap2\n      swap1\n      pop\n      jump\t// out\n        /* \"contracts/LunchVenue_updated.sol\":616:645  string public votedVenue = \"\" */\n    tag_39:\n      0x06\n      dup1\n      sload\n      tag_107\n      swap1\n      tag_69\n      jump\t// in\n    tag_107:\n      dup1\n      0x1f\n      add\n      0x20\n      dup1\n      swap2\n      div\n      mul\n      0x20\n      add\n      mload(0x40)\n      swap1\n      dup2\n      add\n      0x40\n      mstore\n      dup1\n      swap3\n      swap2\n      swap1\n      dup2\n      dup2\n      mstore\n      0x20\n      add\n      dup3\n      dup1\n      sload\n      tag_108\n      swap1\n      tag_69\n      jump\t// in\n    tag_108:\n      dup1\n      iszero\n      tag_109\n      jumpi\n      dup1\n      0x1f\n      lt\n      tag_110\n      jumpi\n      0x0100\n      dup1\n      dup4\n      sload\n      div\n      mul\n      dup4\n      mstore\n      swap2\n      0x20\n      add\n      swap2\n      jump(tag_109)\n    tag_110:\n      dup3\n      add\n      swap2\n      swap1\n      0x00\n      mstore\n      keccak256(0x00, 0x20)\n      swap1\n    tag_111:\n      dup2\n      sload\n      dup2\n      mstore\n      swap1\n      0x01\n      add\n      swap1\n      0x20\n      add\n      dup1\n      dup4\n      gt\n      tag_111\n      jumpi\n      dup3\n      swap1\n      sub\n      0x1f\n      and\n      dup3\n      add\n      swap2\n    tag_109:\n      pop\n      pop\n      pop\n      pop\n      pop\n      dup2\n      jump\t// out\n        /* \"contracts/LunchVenue_updated.sol\":376:420  mapping ( address => Friend ) public friends */\n    tag_44:\n      mstore(0x20, 0x01)\n      dup1\n      0x00\n      mstore\n      keccak256(0x00, 0x40)\n      0x00\n      swap2\n      pop\n      swap1\n      pop\n      dup1\n      0x00\n      add\n      dup1\n      sload\n      tag_112\n      swap1\n      tag_69\n      jump\t// in\n    tag_112:\n      dup1\n      0x1f\n      add\n      0x20\n      dup1\n      swap2\n      div\n      mul\n      0x20\n      add\n      mload(0x40)\n      swap1\n      dup2\n      add\n      0x40\n      mstore\n      dup1\n      swap3\n      swap2\n      swap1\n      dup2\n      dup2\n      mstore\n      0x20\n      add\n      dup3\n      dup1\n      sload\n      tag_113\n      swap1\n      tag_69\n      jump\t// in\n    tag_113:\n      dup1\n      iszero\n      tag_114\n      jumpi\n      dup1\n      0x1f\n      lt\n      tag_115\n      jumpi\n      0x0100\n      dup1\n      dup4\n      sload\n      div\n      mul\n      dup4\n      mstore\n      swap2\n      0x20\n      add\n      swap2\n      jump(tag_114)\n    tag_115:\n      dup3\n      add\n      swap2\n      swap1\n      0x00\n      mstore\n      keccak256(0x00, 0x20)\n      swap1\n    tag_116:\n      dup2\n      sload\n      dup2\n      mstore\n      swap1\n      0x01\n      add\n      swap1\n      0x20\n      add\n      dup1\n      dup4\n      gt\n      tag_116\n      jumpi\n      dup3\n      swap1\n      sub\n      0x1f\n      and\n      dup3\n      add\n      swap2\n    tag_114:\n      pop\n      pop\n      pop\n      pop\n      pop\n      swap1\n      dup1\n      0x01\n      add\n      0x00\n      swap1\n      sload\n      swap1\n      0x0100\n      exp\n      swap1\n      div\n      0xff\n      and\n      swap1\n      pop\n      dup3\n      jump\t// out\n        /* \"contracts/LunchVenue_updated.sol\":1720:2005  function addFriend ( address friendAddress , string memory name ) public restricted... */\n    tag_50:\n        /* \"contracts/LunchVenue_updated.sol\":1822:1826  uint */\n      0x00\n        /* \"contracts/LunchVenue_updated.sol\":4742:4749  manager */\n      0x05\n      0x00\n      swap1\n      sload\n      swap1\n      0x0100\n      exp\n      swap1\n      div\n      0xffffffffffffffffffffffffffffffffffffffff\n      and\n        /* \"contracts/LunchVenue_updated.sol\":4726:4749  msg . sender == manager */\n      0xffffffffffffffffffffffffffffffffffffffff\n      and\n        /* \"contracts/LunchVenue_updated.sol\":4726:4738  msg . sender */\n      caller\n        /* \"contracts/LunchVenue_updated.sol\":4726:4749  msg . sender == manager */\n      0xffffffffffffffffffffffffffffffffffffffff\n      and\n      eq\n        /* \"contracts/LunchVenue_updated.sol\":4716:4790  require ( msg . sender == manager , \"Can only be executed by the manager\") */\n      tag_118\n      jumpi\n      mload(0x40)\n      0x08c379a000000000000000000000000000000000000000000000000000000000\n      dup2\n      mstore\n      0x04\n      add\n      tag_119\n      swap1\n      tag_77\n      jump\t// in\n    tag_119:\n      mload(0x40)\n      dup1\n      swap2\n      sub\n      swap1\n      revert\n    tag_118:\n        /* \"contracts/LunchVenue_updated.sol\":1838:1853  Friend memory f */\n      tag_121\n      tag_122\n      jump\t// in\n    tag_121:\n        /* \"contracts/LunchVenue_updated.sol\":1873:1877  name */\n      dup3\n        /* \"contracts/LunchVenue_updated.sol\":1863:1864  f */\n      dup2\n        /* \"contracts/LunchVenue_updated.sol\":1863:1870  f. name */\n      0x00\n      add\n        /* \"contracts/LunchVenue_updated.sol\":1863:1877  f. name = name */\n      dup2\n      swap1\n      mstore\n      pop\n        /* \"contracts/LunchVenue_updated.sol\":1899:1904  false */\n      0x00\n        /* \"contracts/LunchVenue_updated.sol\":1888:1889  f */\n      dup2\n        /* \"contracts/LunchVenue_updated.sol\":1888:1896  f. voted */\n      0x20\n      add\n        /* \"contracts/LunchVenue_updated.sol\":1888:1904  f. voted = false */\n      swap1\n      iszero\n      iszero\n      swap1\n      dup2\n      iszero\n      iszero\n      dup2\n      mstore\n      pop\n      pop\n        /* \"contracts/LunchVenue_updated.sol\":1943:1944  f */\n      dup1\n        /* \"contracts/LunchVenue_updated.sol\":1915:1922  friends */\n      0x01\n        /* \"contracts/LunchVenue_updated.sol\":1915:1940  friends [ friendAddress ] */\n      0x00\n        /* \"contracts/LunchVenue_updated.sol\":1925:1938  friendAddress */\n      dup7\n        /* \"contracts/LunchVenue_updated.sol\":1915:1940  friends [ friendAddress ] */\n      0xffffffffffffffffffffffffffffffffffffffff\n      and\n      0xffffffffffffffffffffffffffffffffffffffff\n      and\n      dup2\n      mstore\n      0x20\n      add\n      swap1\n      dup2\n      mstore\n      0x20\n      add\n      0x00\n      keccak256\n        /* \"contracts/LunchVenue_updated.sol\":1915:1944  friends [ friendAddress ] = f */\n      0x00\n      dup3\n      add\n      mload\n      dup2\n      0x00\n      add\n      swap1\n      dup1\n      mload\n      swap1\n      0x20\n      add\n      swap1\n      tag_123\n      swap3\n      swap2\n      swap1\n      tag_82\n      jump\t// in\n    tag_123:\n      pop\n      0x20\n      dup3\n      add\n      mload\n      dup2\n      0x01\n      add\n      exp(0x0100, 0x00)\n      dup2\n      sload\n      dup2\n      0xff\n      mul\n      not\n      and\n      swap1\n      dup4\n      iszero\n      iszero\n      mul\n      or\n      swap1\n      sstore\n      pop\n      swap1\n      pop\n      pop\n        /* \"contracts/LunchVenue_updated.sol\":1955:1965  numFriends */\n      0x03\n      0x00\n        /* \"contracts/LunchVenue_updated.sol\":1955:1967  numFriends++ */\n      dup2\n      sload\n      dup1\n      swap3\n      swap2\n      swap1\n      tag_124\n      swap1\n      tag_80\n      jump\t// in\n    tag_124:\n      swap2\n      swap1\n      pop\n      sstore\n      pop\n        /* \"contracts/LunchVenue_updated.sol\":1984:1994  numFriends */\n      sload(0x03)\n        /* \"contracts/LunchVenue_updated.sol\":1977:1994  return numFriends */\n      swap2\n      pop\n      pop\n        /* \"contracts/LunchVenue_updated.sol\":1720:2005  function addFriend ( address friendAddress , string memory name ) public restricted... */\n      swap3\n      swap2\n      pop\n      pop\n      jump\t// out\n        /* \"contracts/LunchVenue_updated.sol\":498:524  uint public numFriends = 0 */\n    tag_53:\n      sload(0x03)\n      dup2\n      jump\t// out\n        /* \"contracts/LunchVenue_updated.sol\":560:582  address public manager */\n    tag_56:\n      0x05\n      0x00\n      swap1\n      sload\n      swap1\n      0x0100\n      exp\n      swap1\n      div\n      0xffffffffffffffffffffffffffffffffffffffff\n      and\n      dup2\n      jump\t// out\n        /* \"contracts/LunchVenue_updated.sol\":530:554  uint public numVotes = 0 */\n    tag_60:\n      sload(0x04)\n      dup2\n      jump\t// out\n        /* \"contracts/LunchVenue_updated.sol\":4043:4115  function openVoting() public restricted {... */\n    tag_63:\n        /* \"contracts/LunchVenue_updated.sol\":4742:4749  manager */\n      0x05\n      0x00\n      swap1\n      sload\n      swap1\n      0x0100\n      exp\n      swap1\n      div\n      0xffffffffffffffffffffffffffffffffffffffff\n      and\n        /* \"contracts/LunchVenue_updated.sol\":4726:4749  msg . sender == manager */\n      0xffffffffffffffffffffffffffffffffffffffff\n      and\n        /* \"contracts/LunchVenue_updated.sol\":4726:4738  msg . sender */\n      caller\n        /* \"contracts/LunchVenue_updated.sol\":4726:4749  msg . sender == manager */\n      0xffffffffffffffffffffffffffffffffffffffff\n      and\n      eq\n        /* \"contracts/LunchVenue_updated.sol\":4716:4790  require ( msg . sender == manager , \"Can only be executed by the manager\") */\n      tag_126\n      jumpi\n      mload(0x40)\n      0x08c379a000000000000000000000000000000000000000000000000000000000\n      dup2\n      mstore\n      0x04\n      add\n      tag_127\n      swap1\n      tag_77\n      jump\t// in\n    tag_127:\n      mload(0x40)\n      dup1\n      swap2\n      sub\n      swap1\n      revert\n    tag_126:\n        /* \"contracts/LunchVenue_updated.sol\":4104:4108  true */\n      0x01\n        /* \"contracts/LunchVenue_updated.sol\":4093:4101  voteOpen */\n      0x09\n      0x00\n        /* \"contracts/LunchVenue_updated.sol\":4093:4108  voteOpen = true */\n      0x0100\n      exp\n      dup2\n      sload\n      dup2\n      0xff\n      mul\n      not\n      and\n      swap1\n      dup4\n      iszero\n      iszero\n      mul\n      or\n      swap1\n      sstore\n      pop\n        /* \"contracts/LunchVenue_updated.sol\":4043:4115  function openVoting() public restricted {... */\n      jump\t// out\n        /* \"contracts/LunchVenue_updated.sol\":4372:4454  function uncancelLunch() public restricted {... */\n    tag_65:\n        /* \"contracts/LunchVenue_updated.sol\":4742:4749  manager */\n      0x05\n      0x00\n      swap1\n      sload\n      swap1\n      0x0100\n      exp\n      swap1\n      div\n      0xffffffffffffffffffffffffffffffffffffffff\n      and\n        /* \"contracts/LunchVenue_updated.sol\":4726:4749  msg . sender == manager */\n      0xffffffffffffffffffffffffffffffffffffffff\n      and\n        /* \"contracts/LunchVenue_updated.sol\":4726:4738  msg . sender */\n      caller\n        /* \"contracts/LunchVenue_updated.sol\":4726:4749  msg . sender == manager */\n      0xffffffffffffffffffffffffffffffffffffffff\n      and\n      eq\n        /* \"contracts/LunchVenue_updated.sol\":4716:4790  require ( msg . sender == manager , \"Can only be executed by the manager\") */\n      tag_130\n      jumpi\n      mload(0x40)\n      0x08c379a000000000000000000000000000000000000000000000000000000000\n      dup2\n      mstore\n      0x04\n      add\n      tag_131\n      swap1\n      tag_77\n      jump\t// in\n    tag_131:\n      mload(0x40)\n      dup1\n      swap2\n      sub\n      swap1\n      revert\n    tag_130:\n        /* \"contracts/LunchVenue_updated.sol\":4442:4447  false */\n      0x00\n        /* \"contracts/LunchVenue_updated.sol\":4425:4439  lunchCancelled */\n      0x09\n      0x01\n        /* \"contracts/LunchVenue_updated.sol\":4425:4447  lunchCancelled = false */\n      0x0100\n      exp\n      dup2\n      sload\n      dup2\n      0xff\n      mul\n      not\n      and\n      swap1\n      dup4\n      iszero\n      iszero\n      mul\n      or\n      swap1\n      sstore\n      pop\n        /* \"contracts/LunchVenue_updated.sol\":4372:4454  function uncancelLunch() public restricted {... */\n      jump\t// out\n        /* \"contracts/LunchVenue_updated.sol\":4176:4309  function cancelLunch() public restricted {... */\n    tag_67:\n        /* \"contracts/LunchVenue_updated.sol\":4742:4749  manager */\n      0x05\n      0x00\n      swap1\n      sload\n      swap1\n      0x0100\n      exp\n      swap1\n      div\n      0xffffffffffffffffffffffffffffffffffffffff\n      and\n        /* \"contracts/LunchVenue_updated.sol\":4726:4749  msg . sender == manager */\n      0xffffffffffffffffffffffffffffffffffffffff\n      and\n        /* \"contracts/LunchVenue_updated.sol\":4726:4738  msg . sender */\n      caller\n        /* \"contracts/LunchVenue_updated.sol\":4726:4749  msg . sender == manager */\n      0xffffffffffffffffffffffffffffffffffffffff\n      and\n      eq\n        /* \"contracts/LunchVenue_updated.sol\":4716:4790  require ( msg . sender == manager , \"Can only be executed by the manager\") */\n      tag_134\n      jumpi\n      mload(0x40)\n      0x08c379a000000000000000000000000000000000000000000000000000000000\n      dup2\n      mstore\n      0x04\n      add\n      tag_135\n      swap1\n      tag_77\n      jump\t// in\n    tag_135:\n      mload(0x40)\n      dup1\n      swap2\n      sub\n      swap1\n      revert\n    tag_134:\n        /* \"contracts/LunchVenue_updated.sol\":4244:4248  true */\n      0x01\n        /* \"contracts/LunchVenue_updated.sol\":4227:4241  lunchCancelled */\n      0x09\n      0x01\n        /* \"contracts/LunchVenue_updated.sol\":4227:4248  lunchCancelled = true */\n      0x0100\n      exp\n      dup2\n      sload\n      dup2\n      0xff\n      mul\n      not\n      and\n      swap1\n      dup4\n      iszero\n      iszero\n      mul\n      or\n      swap1\n      sstore\n      pop\n        /* \"contracts/LunchVenue_updated.sol\":4258:4302  votedVenue = 'No venue - lunch is cancelled' */\n      mload(0x40)\n      dup1\n      0x40\n      add\n      0x40\n      mstore\n      dup1\n      0x1d\n      dup2\n      mstore\n      0x20\n      add\n      0x4e6f2076656e7565202d206c756e63682069732063616e63656c6c6564000000\n      dup2\n      mstore\n      pop\n        /* \"contracts/LunchVenue_updated.sol\":4258:4268  votedVenue */\n      0x06\n        /* \"contracts/LunchVenue_updated.sol\":4258:4302  votedVenue = 'No venue - lunch is cancelled' */\n      swap1\n      dup1\n      mload\n      swap1\n      0x20\n      add\n      swap1\n      tag_137\n      swap3\n      swap2\n      swap1\n      tag_82\n      jump\t// in\n    tag_137:\n      pop\n        /* \"contracts/LunchVenue_updated.sol\":4176:4309  function cancelLunch() public restricted {... */\n      jump\t// out\n        /* \"contracts/LunchVenue_updated.sol\":3290:3990  function finalResult () private {... */\n    tag_106:\n        /* \"contracts/LunchVenue_updated.sol\":3332:3349  uint highestVotes */\n      0x00\n        /* \"contracts/LunchVenue_updated.sol\":3363:3380  uint highestVenue */\n      dup1\n        /* \"contracts/LunchVenue_updated.sol\":3400:3406  uint i */\n      0x00\n        /* \"contracts/LunchVenue_updated.sol\":3409:3410  1 */\n      0x01\n        /* \"contracts/LunchVenue_updated.sol\":3400:3410  uint i = 1 */\n      swap1\n      pop\n        /* \"contracts/LunchVenue_updated.sol\":3394:3865  for ( uint i = 1; i <= numVotes ; i++) { // For each vote... */\n    tag_139:\n        /* \"contracts/LunchVenue_updated.sol\":3417:3425  numVotes */\n      sload(0x04)\n        /* \"contracts/LunchVenue_updated.sol\":3412:3413  i */\n      dup2\n        /* \"contracts/LunchVenue_updated.sol\":3412:3425  i <= numVotes */\n      gt\n        /* \"contracts/LunchVenue_updated.sol\":3394:3865  for ( uint i = 1; i <= numVotes ; i++) { // For each vote... */\n      tag_140\n      jumpi\n        /* \"contracts/LunchVenue_updated.sol\":3464:3478  uint voteCount */\n      0x00\n        /* \"contracts/LunchVenue_updated.sol\":3481:3482  1 */\n      0x01\n        /* \"contracts/LunchVenue_updated.sol\":3464:3482  uint voteCount = 1 */\n      swap1\n      pop\n        /* \"contracts/LunchVenue_updated.sol\":3531:3532  0 */\n      0x00\n        /* \"contracts/LunchVenue_updated.sol\":3500:3507  results */\n      0x08\n        /* \"contracts/LunchVenue_updated.sol\":3500:3528  results [ votes [i]. venue ] */\n      0x00\n        /* \"contracts/LunchVenue_updated.sol\":3510:3515  votes */\n      0x07\n        /* \"contracts/LunchVenue_updated.sol\":3510:3519  votes [i] */\n      0x00\n        /* \"contracts/LunchVenue_updated.sol\":3517:3518  i */\n      dup7\n        /* \"contracts/LunchVenue_updated.sol\":3510:3519  votes [i] */\n      dup2\n      mstore\n      0x20\n      add\n      swap1\n      dup2\n      mstore\n      0x20\n      add\n      0x00\n      keccak256\n        /* \"contracts/LunchVenue_updated.sol\":3510:3526  votes [i]. venue */\n      0x01\n      add\n      sload\n        /* \"contracts/LunchVenue_updated.sol\":3500:3528  results [ votes [i]. venue ] */\n      dup2\n      mstore\n      0x20\n      add\n      swap1\n      dup2\n      mstore\n      0x20\n      add\n      0x00\n      keccak256\n      sload\n        /* \"contracts/LunchVenue_updated.sol\":3500:3532  results [ votes [i]. venue ] > 0 */\n      gt\n        /* \"contracts/LunchVenue_updated.sol\":3496:3634  if( results [ votes [i]. venue ] > 0) { // Already start counting... */\n      iszero\n      tag_142\n      jumpi\n        /* \"contracts/LunchVenue_updated.sol\":3591:3598  results */\n      0x08\n        /* \"contracts/LunchVenue_updated.sol\":3591:3619  results [ votes [i]. venue ] */\n      0x00\n        /* \"contracts/LunchVenue_updated.sol\":3601:3606  votes */\n      0x07\n        /* \"contracts/LunchVenue_updated.sol\":3601:3610  votes [i] */\n      0x00\n        /* \"contracts/LunchVenue_updated.sol\":3608:3609  i */\n      dup6\n        /* \"contracts/LunchVenue_updated.sol\":3601:3610  votes [i] */\n      dup2\n      mstore\n      0x20\n      add\n      swap1\n      dup2\n      mstore\n      0x20\n      add\n      0x00\n      keccak256\n        /* \"contracts/LunchVenue_updated.sol\":3601:3617  votes [i]. venue */\n      0x01\n      add\n      sload\n        /* \"contracts/LunchVenue_updated.sol\":3591:3619  results [ votes [i]. venue ] */\n      dup2\n      mstore\n      0x20\n      add\n      swap1\n      dup2\n      mstore\n      0x20\n      add\n      0x00\n      keccak256\n      sload\n        /* \"contracts/LunchVenue_updated.sol\":3578:3619  voteCount += results [ votes [i]. venue ] */\n      dup2\n      tag_143\n      swap2\n      swap1\n      tag_103\n      jump\t// in\n    tag_143:\n      swap1\n      pop\n        /* \"contracts/LunchVenue_updated.sol\":3496:3634  if( results [ votes [i]. venue ] > 0) { // Already start counting... */\n    tag_142:\n        /* \"contracts/LunchVenue_updated.sol\":3678:3687  voteCount */\n      dup1\n        /* \"contracts/LunchVenue_updated.sol\":3647:3654  results */\n      0x08\n        /* \"contracts/LunchVenue_updated.sol\":3647:3675  results [ votes [i]. venue ] */\n      0x00\n        /* \"contracts/LunchVenue_updated.sol\":3657:3662  votes */\n      0x07\n        /* \"contracts/LunchVenue_updated.sol\":3657:3666  votes [i] */\n      0x00\n        /* \"contracts/LunchVenue_updated.sol\":3664:3665  i */\n      dup7\n        /* \"contracts/LunchVenue_updated.sol\":3657:3666  votes [i] */\n      dup2\n      mstore\n      0x20\n      add\n      swap1\n      dup2\n      mstore\n      0x20\n      add\n      0x00\n      keccak256\n        /* \"contracts/LunchVenue_updated.sol\":3657:3673  votes [i]. venue */\n      0x01\n      add\n      sload\n        /* \"contracts/LunchVenue_updated.sol\":3647:3675  results [ votes [i]. venue ] */\n      dup2\n      mstore\n      0x20\n      add\n      swap1\n      dup2\n      mstore\n      0x20\n      add\n      0x00\n      keccak256\n        /* \"contracts/LunchVenue_updated.sol\":3647:3687  results [ votes [i]. venue ] = voteCount */\n      dup2\n      swap1\n      sstore\n      pop\n        /* \"contracts/LunchVenue_updated.sol\":3719:3731  highestVotes */\n      dup4\n        /* \"contracts/LunchVenue_updated.sol\":3707:3716  voteCount */\n      dup2\n        /* \"contracts/LunchVenue_updated.sol\":3707:3731  voteCount > highestVotes */\n      gt\n        /* \"contracts/LunchVenue_updated.sol\":3702:3855  if ( voteCount > highestVotes ){ // New winner... */\n      iszero\n      tag_144\n      jumpi\n        /* \"contracts/LunchVenue_updated.sol\":3780:3789  voteCount */\n      dup1\n        /* \"contracts/LunchVenue_updated.sol\":3765:3789  highestVotes = voteCount */\n      swap4\n      pop\n        /* \"contracts/LunchVenue_updated.sol\":3823:3828  votes */\n      0x07\n        /* \"contracts/LunchVenue_updated.sol\":3823:3832  votes [i] */\n      0x00\n        /* \"contracts/LunchVenue_updated.sol\":3830:3831  i */\n      dup4\n        /* \"contracts/LunchVenue_updated.sol\":3823:3832  votes [i] */\n      dup2\n      mstore\n      0x20\n      add\n      swap1\n      dup2\n      mstore\n      0x20\n      add\n      0x00\n      keccak256\n        /* \"contracts/LunchVenue_updated.sol\":3823:3839  votes [i]. venue */\n      0x01\n      add\n      sload\n        /* \"contracts/LunchVenue_updated.sol\":3808:3839  highestVenue = votes [i]. venue */\n      swap3\n      pop\n        /* \"contracts/LunchVenue_updated.sol\":3702:3855  if ( voteCount > highestVotes ){ // New winner... */\n    tag_144:\n        /* \"contracts/LunchVenue_updated.sol\":3433:3865  { // For each vote... */\n      pop\n        /* \"contracts/LunchVenue_updated.sol\":3428:3431  i++ */\n      dup1\n      dup1\n      tag_145\n      swap1\n      tag_80\n      jump\t// in\n    tag_145:\n      swap2\n      pop\n      pop\n        /* \"contracts/LunchVenue_updated.sol\":3394:3865  for ( uint i = 1; i <= numVotes ; i++) { // For each vote... */\n      jump(tag_139)\n    tag_140:\n      pop\n        /* \"contracts/LunchVenue_updated.sol\":3887:3893  venues */\n      0x00\n        /* \"contracts/LunchVenue_updated.sol\":3887:3910  venues [ highestVenue ] */\n      dup1\n        /* \"contracts/LunchVenue_updated.sol\":3896:3908  highestVenue */\n      dup3\n        /* \"contracts/LunchVenue_updated.sol\":3887:3910  venues [ highestVenue ] */\n      dup2\n      mstore\n      0x20\n      add\n      swap1\n      dup2\n      mstore\n      0x20\n      add\n      0x00\n      keccak256\n        /* \"contracts/LunchVenue_updated.sol\":3874:3884  votedVenue */\n      0x06\n        /* \"contracts/LunchVenue_updated.sol\":3874:3910  votedVenue = venues [ highestVenue ] */\n      swap1\n      dup1\n      sload\n      tag_146\n      swap1\n      tag_69\n      jump\t// in\n    tag_146:\n      tag_147\n      swap3\n      swap2\n      swap1\n      tag_148\n      jump\t// in\n    tag_147:\n      pop\n        /* \"contracts/LunchVenue_updated.sol\":3953:3958  false */\n      0x00\n        /* \"contracts/LunchVenue_updated.sol\":3942:3950  voteOpen */\n      0x09\n      0x00\n        /* \"contracts/LunchVenue_updated.sol\":3942:3958  voteOpen = false */\n      0x0100\n      exp\n      dup2\n      sload\n      dup2\n      0xff\n      mul\n      not\n      and\n      swap1\n      dup4\n      iszero\n      iszero\n      mul\n      or\n      swap1\n      sstore\n      pop\n        /* \"contracts/LunchVenue_updated.sol\":3322:3990  {... */\n      pop\n      pop\n        /* \"contracts/LunchVenue_updated.sol\":3290:3990  function finalResult () private {... */\n      jump\t// out\n    tag_82:\n      dup3\n      dup1\n      sload\n      tag_149\n      swap1\n      tag_69\n      jump\t// in\n    tag_149:\n      swap1\n      0x00\n      mstore\n      keccak256(0x00, 0x20)\n      swap1\n      0x1f\n      add\n      0x20\n      swap1\n      div\n      dup2\n      add\n      swap3\n      dup3\n      tag_151\n      jumpi\n      0x00\n      dup6\n      sstore\n      jump(tag_150)\n    tag_151:\n      dup3\n      0x1f\n      lt\n      tag_152\n      jumpi\n      dup1\n      mload\n      not(0xff)\n      and\n      dup4\n      dup1\n      add\n      or\n      dup6\n      sstore\n      jump(tag_150)\n    tag_152:\n      dup3\n      dup1\n      add\n      0x01\n      add\n      dup6\n      sstore\n      dup3\n      iszero\n      tag_150\n      jumpi\n      swap2\n      dup3\n      add\n    tag_153:\n      dup3\n      dup2\n      gt\n      iszero\n      tag_154\n      jumpi\n      dup3\n      mload\n      dup3\n      sstore\n      swap2\n      0x20\n      add\n      swap2\n      swap1\n      0x01\n      add\n      swap1\n      jump(tag_153)\n    tag_154:\n    tag_150:\n      pop\n      swap1\n      pop\n      tag_155\n      swap2\n      swap1\n      tag_156\n      jump\t// in\n    tag_155:\n      pop\n      swap1\n      jump\t// out\n    tag_98:\n      mload(0x40)\n      dup1\n      0x40\n      add\n      0x40\n      mstore\n      dup1\n      and(0xffffffffffffffffffffffffffffffffffffffff, 0x00)\n      dup2\n      mstore\n      0x20\n      add\n      0x00\n      dup2\n      mstore\n      pop\n      swap1\n      jump\t// out\n    tag_122:\n      mload(0x40)\n      dup1\n      0x40\n      add\n      0x40\n      mstore\n      dup1\n      0x60\n      dup2\n      mstore\n      0x20\n      add\n      iszero(iszero(0x00))\n      dup2\n      mstore\n      pop\n      swap1\n      jump\t// out\n    tag_148:\n      dup3\n      dup1\n      sload\n      tag_157\n      swap1\n      tag_69\n      jump\t// in\n    tag_157:\n      swap1\n      0x00\n      mstore\n      keccak256(0x00, 0x20)\n      swap1\n      0x1f\n      add\n      0x20\n      swap1\n      div\n      dup2\n      add\n      swap3\n      dup3\n      tag_159\n      jumpi\n      0x00\n      dup6\n      sstore\n      jump(tag_158)\n    tag_159:\n      dup3\n      0x1f\n      lt\n      tag_160\n      jumpi\n      dup1\n      sload\n      dup6\n      sstore\n      jump(tag_158)\n    tag_160:\n      dup3\n      dup1\n      add\n      0x01\n      add\n      dup6\n      sstore\n      dup3\n      iszero\n      tag_158\n      jumpi\n      0x00\n      mstore\n      keccak256(0x00, 0x20)\n      swap2\n      0x1f\n      add\n      0x20\n      swap1\n      div\n      dup3\n      add\n    tag_161:\n      dup3\n      dup2\n      gt\n      iszero\n      tag_162\n      jumpi\n      dup3\n      sload\n      dup3\n      sstore\n      swap2\n      0x01\n      add\n      swap2\n      swap1\n      0x01\n      add\n      swap1\n      jump(tag_161)\n    tag_162:\n    tag_158:\n      pop\n      swap1\n      pop\n      tag_163\n      swap2\n      swap1\n      tag_156\n      jump\t// in\n    tag_163:\n      pop\n      swap1\n      jump\t// out\n    tag_156:\n    tag_164:\n      dup1\n      dup3\n      gt\n      iszero\n      tag_165\n      jumpi\n      0x00\n      dup2\n      0x00\n      swap1\n      sstore\n      pop\n      0x01\n      add\n      jump(tag_164)\n    tag_165:\n      pop\n      swap1\n      jump\t// out\n        /* \"#utility.yul\":7:419   */\n    tag_167:\n        /* \"#utility.yul\":85:90   */\n      0x00\n        /* \"#utility.yul\":110:176   */\n      tag_169\n        /* \"#utility.yul\":126:175   */\n      tag_170\n        /* \"#utility.yul\":168:174   */\n      dup5\n        /* \"#utility.yul\":126:175   */\n      tag_171\n      jump\t// in\n    tag_170:\n        /* \"#utility.yul\":110:176   */\n      tag_172\n      jump\t// in\n    tag_169:\n        /* \"#utility.yul\":101:176   */\n      swap1\n      pop\n        /* \"#utility.yul\":199:205   */\n      dup3\n        /* \"#utility.yul\":192:197   */\n      dup2\n        /* \"#utility.yul\":185:206   */\n      mstore\n        /* \"#utility.yul\":237:241   */\n      0x20\n        /* \"#utility.yul\":230:235   */\n      dup2\n        /* \"#utility.yul\":226:242   */\n      add\n        /* \"#utility.yul\":275:278   */\n      dup5\n        /* \"#utility.yul\":266:272   */\n      dup5\n        /* \"#utility.yul\":261:264   */\n      dup5\n        /* \"#utility.yul\":257:273   */\n      add\n        /* \"#utility.yul\":254:279   */\n      gt\n        /* \"#utility.yul\":251:363   */\n      iszero\n      tag_173\n      jumpi\n        /* \"#utility.yul\":282:361   */\n      tag_174\n      tag_175\n      jump\t// in\n    tag_174:\n        /* \"#utility.yul\":251:363   */\n    tag_173:\n        /* \"#utility.yul\":372:413   */\n      tag_176\n        /* \"#utility.yul\":406:412   */\n      dup5\n        /* \"#utility.yul\":401:404   */\n      dup3\n        /* \"#utility.yul\":396:399   */\n      dup6\n        /* \"#utility.yul\":372:413   */\n      tag_177\n      jump\t// in\n    tag_176:\n        /* \"#utility.yul\":91:419   */\n      pop\n        /* \"#utility.yul\":7:419   */\n      swap4\n      swap3\n      pop\n      pop\n      pop\n      jump\t// out\n        /* \"#utility.yul\":425:564   */\n    tag_178:\n        /* \"#utility.yul\":471:476   */\n      0x00\n        /* \"#utility.yul\":509:515   */\n      dup2\n        /* \"#utility.yul\":496:516   */\n      calldataload\n        /* \"#utility.yul\":487:516   */\n      swap1\n      pop\n        /* \"#utility.yul\":525:558   */\n      tag_180\n        /* \"#utility.yul\":552:557   */\n      dup2\n        /* \"#utility.yul\":525:558   */\n      tag_181\n      jump\t// in\n    tag_180:\n        /* \"#utility.yul\":425:564   */\n      swap3\n      swap2\n      pop\n      pop\n      jump\t// out\n        /* \"#utility.yul\":584:924   */\n    tag_182:\n        /* \"#utility.yul\":640:645   */\n      0x00\n        /* \"#utility.yul\":689:692   */\n      dup3\n        /* \"#utility.yul\":682:686   */\n      0x1f\n        /* \"#utility.yul\":674:680   */\n      dup4\n        /* \"#utility.yul\":670:687   */\n      add\n        /* \"#utility.yul\":666:693   */\n      slt\n        /* \"#utility.yul\":656:778   */\n      tag_184\n      jumpi\n        /* \"#utility.yul\":697:776   */\n      tag_185\n      tag_186\n      jump\t// in\n    tag_185:\n        /* \"#utility.yul\":656:778   */\n    tag_184:\n        /* \"#utility.yul\":814:820   */\n      dup2\n        /* \"#utility.yul\":801:821   */\n      calldataload\n        /* \"#utility.yul\":839:918   */\n      tag_187\n        /* \"#utility.yul\":914:917   */\n      dup5\n        /* \"#utility.yul\":906:912   */\n      dup3\n        /* \"#utility.yul\":899:903   */\n      0x20\n        /* \"#utility.yul\":891:897   */\n      dup7\n        /* \"#utility.yul\":887:904   */\n      add\n        /* \"#utility.yul\":839:918   */\n      tag_167\n      jump\t// in\n    tag_187:\n        /* \"#utility.yul\":830:918   */\n      swap2\n      pop\n        /* \"#utility.yul\":646:924   */\n      pop\n        /* \"#utility.yul\":584:924   */\n      swap3\n      swap2\n      pop\n      pop\n      jump\t// out\n        /* \"#utility.yul\":930:1069   */\n    tag_188:\n        /* \"#utility.yul\":976:981   */\n      0x00\n        /* \"#utility.yul\":1014:1020   */\n      dup2\n        /* \"#utility.yul\":1001:1021   */\n      calldataload\n        /* \"#utility.yul\":992:1021   */\n      swap1\n      pop\n        /* \"#utility.yul\":1030:1063   */\n      tag_190\n        /* \"#utility.yul\":1057:1062   */\n      dup2\n        /* \"#utility.yul\":1030:1063   */\n      tag_191\n      jump\t// in\n    tag_190:\n        /* \"#utility.yul\":930:1069   */\n      swap3\n      swap2\n      pop\n      pop\n      jump\t// out\n        /* \"#utility.yul\":1075:1404   */\n    tag_43:\n        /* \"#utility.yul\":1134:1140   */\n      0x00\n        /* \"#utility.yul\":1183:1185   */\n      0x20\n        /* \"#utility.yul\":1171:1180   */\n      dup3\n        /* \"#utility.yul\":1162:1169   */\n      dup5\n        /* \"#utility.yul\":1158:1181   */\n      sub\n        /* \"#utility.yul\":1154:1186   */\n      slt\n        /* \"#utility.yul\":1151:1270   */\n      iszero\n      tag_193\n      jumpi\n        /* \"#utility.yul\":1189:1268   */\n      tag_194\n      tag_195\n      jump\t// in\n    tag_194:\n        /* \"#utility.yul\":1151:1270   */\n    tag_193:\n        /* \"#utility.yul\":1309:1310   */\n      0x00\n        /* \"#utility.yul\":1334:1387   */\n      tag_196\n        /* \"#utility.yul\":1379:1386   */\n      dup5\n        /* \"#utility.yul\":1370:1376   */\n      dup3\n        /* \"#utility.yul\":1359:1368   */\n      dup6\n        /* \"#utility.yul\":1355:1377   */\n      add\n        /* \"#utility.yul\":1334:1387   */\n      tag_178\n      jump\t// in\n    tag_196:\n        /* \"#utility.yul\":1324:1387   */\n      swap2\n      pop\n        /* \"#utility.yul\":1280:1397   */\n      pop\n        /* \"#utility.yul\":1075:1404   */\n      swap3\n      swap2\n      pop\n      pop\n      jump\t// out\n        /* \"#utility.yul\":1410:2064   */\n    tag_49:\n        /* \"#utility.yul\":1488:1494   */\n      0x00\n        /* \"#utility.yul\":1496:1502   */\n      dup1\n        /* \"#utility.yul\":1545:1547   */\n      0x40\n        /* \"#utility.yul\":1533:1542   */\n      dup4\n        /* \"#utility.yul\":1524:1531   */\n      dup6\n        /* \"#utility.yul\":1520:1543   */\n      sub\n        /* \"#utility.yul\":1516:1548   */\n      slt\n        /* \"#utility.yul\":1513:1632   */\n      iszero\n      tag_198\n      jumpi\n        /* \"#utility.yul\":1551:1630   */\n      tag_199\n      tag_195\n      jump\t// in\n    tag_199:\n        /* \"#utility.yul\":1513:1632   */\n    tag_198:\n        /* \"#utility.yul\":1671:1672   */\n      0x00\n        /* \"#utility.yul\":1696:1749   */\n      tag_200\n        /* \"#utility.yul\":1741:1748   */\n      dup6\n        /* \"#utility.yul\":1732:1738   */\n      dup3\n        /* \"#utility.yul\":1721:1730   */\n      dup7\n        /* \"#utility.yul\":1717:1739   */\n      add\n        /* \"#utility.yul\":1696:1749   */\n      tag_178\n      jump\t// in\n    tag_200:\n        /* \"#utility.yul\":1686:1749   */\n      swap3\n      pop\n        /* \"#utility.yul\":1642:1759   */\n      pop\n        /* \"#utility.yul\":1826:1828   */\n      0x20\n        /* \"#utility.yul\":1815:1824   */\n      dup4\n        /* \"#utility.yul\":1811:1829   */\n      add\n        /* \"#utility.yul\":1798:1830   */\n      calldataload\n        /* \"#utility.yul\":1857:1875   */\n      0xffffffffffffffff\n        /* \"#utility.yul\":1849:1855   */\n      dup2\n        /* \"#utility.yul\":1846:1876   */\n      gt\n        /* \"#utility.yul\":1843:1960   */\n      iszero\n      tag_201\n      jumpi\n        /* \"#utility.yul\":1879:1958   */\n      tag_202\n      tag_203\n      jump\t// in\n    tag_202:\n        /* \"#utility.yul\":1843:1960   */\n    tag_201:\n        /* \"#utility.yul\":1984:2047   */\n      tag_204\n        /* \"#utility.yul\":2039:2046   */\n      dup6\n        /* \"#utility.yul\":2030:2036   */\n      dup3\n        /* \"#utility.yul\":2019:2028   */\n      dup7\n        /* \"#utility.yul\":2015:2037   */\n      add\n        /* \"#utility.yul\":1984:2047   */\n      tag_182\n      jump\t// in\n    tag_204:\n        /* \"#utility.yul\":1974:2047   */\n      swap2\n      pop\n        /* \"#utility.yul\":1769:2057   */\n      pop\n        /* \"#utility.yul\":1410:2064   */\n      swap3\n      pop\n      swap3\n      swap1\n      pop\n      jump\t// out\n        /* \"#utility.yul\":2070:2579   */\n    tag_26:\n        /* \"#utility.yul\":2139:2145   */\n      0x00\n        /* \"#utility.yul\":2188:2190   */\n      0x20\n        /* \"#utility.yul\":2176:2185   */\n      dup3\n        /* \"#utility.yul\":2167:2174   */\n      dup5\n        /* \"#utility.yul\":2163:2186   */\n      sub\n        /* \"#utility.yul\":2159:2191   */\n      slt\n        /* \"#utility.yul\":2156:2275   */\n      iszero\n      tag_206\n      jumpi\n        /* \"#utility.yul\":2194:2273   */\n      tag_207\n      tag_195\n      jump\t// in\n    tag_207:\n        /* \"#utility.yul\":2156:2275   */\n    tag_206:\n        /* \"#utility.yul\":2342:2343   */\n      0x00\n        /* \"#utility.yul\":2331:2340   */\n      dup3\n        /* \"#utility.yul\":2327:2344   */\n      add\n        /* \"#utility.yul\":2314:2345   */\n      calldataload\n        /* \"#utility.yul\":2372:2390   */\n      0xffffffffffffffff\n        /* \"#utility.yul\":2364:2370   */\n      dup2\n        /* \"#utility.yul\":2361:2391   */\n      gt\n        /* \"#utility.yul\":2358:2475   */\n      iszero\n      tag_208\n      jumpi\n        /* \"#utility.yul\":2394:2473   */\n      tag_209\n      tag_203\n      jump\t// in\n    tag_209:\n        /* \"#utility.yul\":2358:2475   */\n    tag_208:\n        /* \"#utility.yul\":2499:2562   */\n      tag_210\n        /* \"#utility.yul\":2554:2561   */\n      dup5\n        /* \"#utility.yul\":2545:2551   */\n      dup3\n        /* \"#utility.yul\":2534:2543   */\n      dup6\n        /* \"#utility.yul\":2530:2552   */\n      add\n        /* \"#utility.yul\":2499:2562   */\n      tag_182\n      jump\t// in\n    tag_210:\n        /* \"#utility.yul\":2489:2562   */\n      swap2\n      pop\n        /* \"#utility.yul\":2285:2572   */\n      pop\n        /* \"#utility.yul\":2070:2579   */\n      swap3\n      swap2\n      pop\n      pop\n      jump\t// out\n        /* \"#utility.yul\":2585:2914   */\n    tag_20:\n        /* \"#utility.yul\":2644:2650   */\n      0x00\n        /* \"#utility.yul\":2693:2695   */\n      0x20\n        /* \"#utility.yul\":2681:2690   */\n      dup3\n        /* \"#utility.yul\":2672:2679   */\n      dup5\n        /* \"#utility.yul\":2668:2691   */\n      sub\n        /* \"#utility.yul\":2664:2696   */\n      slt\n        /* \"#utility.yul\":2661:2780   */\n      iszero\n      tag_212\n      jumpi\n        /* \"#utility.yul\":2699:2778   */\n      tag_213\n      tag_195\n      jump\t// in\n    tag_213:\n        /* \"#utility.yul\":2661:2780   */\n    tag_212:\n        /* \"#utility.yul\":2819:2820   */\n      0x00\n        /* \"#utility.yul\":2844:2897   */\n      tag_214\n        /* \"#utility.yul\":2889:2896   */\n      dup5\n        /* \"#utility.yul\":2880:2886   */\n      dup3\n        /* \"#utility.yul\":2869:2878   */\n      dup6\n        /* \"#utility.yul\":2865:2887   */\n      add\n        /* \"#utility.yul\":2844:2897   */\n      tag_188\n      jump\t// in\n    tag_214:\n        /* \"#utility.yul\":2834:2897   */\n      swap2\n      pop\n        /* \"#utility.yul\":2790:2907   */\n      pop\n        /* \"#utility.yul\":2585:2914   */\n      swap3\n      swap2\n      pop\n      pop\n      jump\t// out\n        /* \"#utility.yul\":2920:3038   */\n    tag_215:\n        /* \"#utility.yul\":3007:3031   */\n      tag_217\n        /* \"#utility.yul\":3025:3030   */\n      dup2\n        /* \"#utility.yul\":3007:3031   */\n      tag_218\n      jump\t// in\n    tag_217:\n        /* \"#utility.yul\":3002:3005   */\n      dup3\n        /* \"#utility.yul\":2995:3032   */\n      mstore\n        /* \"#utility.yul\":2920:3038   */\n      pop\n      pop\n      jump\t// out\n        /* \"#utility.yul\":3044:3153   */\n    tag_219:\n        /* \"#utility.yul\":3125:3146   */\n      tag_221\n        /* \"#utility.yul\":3140:3145   */\n      dup2\n        /* \"#utility.yul\":3125:3146   */\n      tag_222\n      jump\t// in\n    tag_221:\n        /* \"#utility.yul\":3120:3123   */\n      dup3\n        /* \"#utility.yul\":3113:3147   */\n      mstore\n        /* \"#utility.yul\":3044:3153   */\n      pop\n      pop\n      jump\t// out\n        /* \"#utility.yul\":3159:3523   */\n    tag_223:\n        /* \"#utility.yul\":3247:3250   */\n      0x00\n        /* \"#utility.yul\":3275:3314   */\n      tag_225\n        /* \"#utility.yul\":3308:3313   */\n      dup3\n        /* \"#utility.yul\":3275:3314   */\n      tag_226\n      jump\t// in\n    tag_225:\n        /* \"#utility.yul\":3330:3401   */\n      tag_227\n        /* \"#utility.yul\":3394:3400   */\n      dup2\n        /* \"#utility.yul\":3389:3392   */\n      dup6\n        /* \"#utility.yul\":3330:3401   */\n      tag_228\n      jump\t// in\n    tag_227:\n        /* \"#utility.yul\":3323:3401   */\n      swap4\n      pop\n        /* \"#utility.yul\":3410:3462   */\n      tag_229\n        /* \"#utility.yul\":3455:3461   */\n      dup2\n        /* \"#utility.yul\":3450:3453   */\n      dup6\n        /* \"#utility.yul\":3443:3447   */\n      0x20\n        /* \"#utility.yul\":3436:3441   */\n      dup7\n        /* \"#utility.yul\":3432:3448   */\n      add\n        /* \"#utility.yul\":3410:3462   */\n      tag_230\n      jump\t// in\n    tag_229:\n        /* \"#utility.yul\":3487:3516   */\n      tag_231\n        /* \"#utility.yul\":3509:3515   */\n      dup2\n        /* \"#utility.yul\":3487:3516   */\n      tag_232\n      jump\t// in\n    tag_231:\n        /* \"#utility.yul\":3482:3485   */\n      dup5\n        /* \"#utility.yul\":3478:3517   */\n      add\n        /* \"#utility.yul\":3471:3517   */\n      swap2\n      pop\n        /* \"#utility.yul\":3251:3523   */\n      pop\n        /* \"#utility.yul\":3159:3523   */\n      swap3\n      swap2\n      pop\n      pop\n      jump\t// out\n        /* \"#utility.yul\":3529:3895   */\n    tag_233:\n        /* \"#utility.yul\":3671:3674   */\n      0x00\n        /* \"#utility.yul\":3692:3759   */\n      tag_235\n        /* \"#utility.yul\":3756:3758   */\n      0x24\n        /* \"#utility.yul\":3751:3754   */\n      dup4\n        /* \"#utility.yul\":3692:3759   */\n      tag_228\n      jump\t// in\n    tag_235:\n        /* \"#utility.yul\":3685:3759   */\n      swap2\n      pop\n        /* \"#utility.yul\":3768:3861   */\n      tag_236\n        /* \"#utility.yul\":3857:3860   */\n      dup3\n        /* \"#utility.yul\":3768:3861   */\n      tag_237\n      jump\t// in\n    tag_236:\n        /* \"#utility.yul\":3886:3888   */\n      0x40\n        /* \"#utility.yul\":3881:3884   */\n      dup3\n        /* \"#utility.yul\":3877:3889   */\n      add\n        /* \"#utility.yul\":3870:3889   */\n      swap1\n      pop\n        /* \"#utility.yul\":3529:3895   */\n      swap2\n      swap1\n      pop\n      jump\t// out\n        /* \"#utility.yul\":3901:4267   */\n    tag_238:\n        /* \"#utility.yul\":4043:4046   */\n      0x00\n        /* \"#utility.yul\":4064:4131   */\n      tag_240\n        /* \"#utility.yul\":4128:4130   */\n      0x23\n        /* \"#utility.yul\":4123:4126   */\n      dup4\n        /* \"#utility.yul\":4064:4131   */\n      tag_228\n      jump\t// in\n    tag_240:\n        /* \"#utility.yul\":4057:4131   */\n      swap2\n      pop\n        /* \"#utility.yul\":4140:4233   */\n      tag_241\n        /* \"#utility.yul\":4229:4232   */\n      dup3\n        /* \"#utility.yul\":4140:4233   */\n      tag_242\n      jump\t// in\n    tag_241:\n        /* \"#utility.yul\":4258:4260   */\n      0x40\n        /* \"#utility.yul\":4253:4256   */\n      dup3\n        /* \"#utility.yul\":4249:4261   */\n      add\n        /* \"#utility.yul\":4242:4261   */\n      swap1\n      pop\n        /* \"#utility.yul\":3901:4267   */\n      swap2\n      swap1\n      pop\n      jump\t// out\n        /* \"#utility.yul\":4273:4639   */\n    tag_243:\n        /* \"#utility.yul\":4415:4418   */\n      0x00\n        /* \"#utility.yul\":4436:4503   */\n      tag_245\n        /* \"#utility.yul\":4500:4502   */\n      0x30\n        /* \"#utility.yul\":4495:4498   */\n      dup4\n        /* \"#utility.yul\":4436:4503   */\n      tag_228\n      jump\t// in\n    tag_245:\n        /* \"#utility.yul\":4429:4503   */\n      swap2\n      pop\n        /* \"#utility.yul\":4512:4605   */\n      tag_246\n        /* \"#utility.yul\":4601:4604   */\n      dup3\n        /* \"#utility.yul\":4512:4605   */\n      tag_247\n      jump\t// in\n    tag_246:\n        /* \"#utility.yul\":4630:4632   */\n      0x40\n        /* \"#utility.yul\":4625:4628   */\n      dup3\n        /* \"#utility.yul\":4621:4633   */\n      add\n        /* \"#utility.yul\":4614:4633   */\n      swap1\n      pop\n        /* \"#utility.yul\":4273:4639   */\n      swap2\n      swap1\n      pop\n      jump\t// out\n        /* \"#utility.yul\":4645:4763   */\n    tag_248:\n        /* \"#utility.yul\":4732:4756   */\n      tag_250\n        /* \"#utility.yul\":4750:4755   */\n      dup2\n        /* \"#utility.yul\":4732:4756   */\n      tag_251\n      jump\t// in\n    tag_250:\n        /* \"#utility.yul\":4727:4730   */\n      dup3\n        /* \"#utility.yul\":4720:4757   */\n      mstore\n        /* \"#utility.yul\":4645:4763   */\n      pop\n      pop\n      jump\t// out\n        /* \"#utility.yul\":4769:4991   */\n    tag_58:\n        /* \"#utility.yul\":4862:4866   */\n      0x00\n        /* \"#utility.yul\":4900:4902   */\n      0x20\n        /* \"#utility.yul\":4889:4898   */\n      dup3\n        /* \"#utility.yul\":4885:4903   */\n      add\n        /* \"#utility.yul\":4877:4903   */\n      swap1\n      pop\n        /* \"#utility.yul\":4913:4984   */\n      tag_253\n        /* \"#utility.yul\":4981:4982   */\n      0x00\n        /* \"#utility.yul\":4970:4979   */\n      dup4\n        /* \"#utility.yul\":4966:4983   */\n      add\n        /* \"#utility.yul\":4957:4963   */\n      dup5\n        /* \"#utility.yul\":4913:4984   */\n      tag_215\n      jump\t// in\n    tag_253:\n        /* \"#utility.yul\":4769:4991   */\n      swap3\n      swap2\n      pop\n      pop\n      jump\t// out\n        /* \"#utility.yul\":4997:5207   */\n    tag_37:\n        /* \"#utility.yul\":5084:5088   */\n      0x00\n        /* \"#utility.yul\":5122:5124   */\n      0x20\n        /* \"#utility.yul\":5111:5120   */\n      dup3\n        /* \"#utility.yul\":5107:5125   */\n      add\n        /* \"#utility.yul\":5099:5125   */\n      swap1\n      pop\n        /* \"#utility.yul\":5135:5200   */\n      tag_255\n        /* \"#utility.yul\":5197:5198   */\n      0x00\n        /* \"#utility.yul\":5186:5195   */\n      dup4\n        /* \"#utility.yul\":5182:5199   */\n      add\n        /* \"#utility.yul\":5173:5179   */\n      dup5\n        /* \"#utility.yul\":5135:5200   */\n      tag_219\n      jump\t// in\n    tag_255:\n        /* \"#utility.yul\":4997:5207   */\n      swap3\n      swap2\n      pop\n      pop\n      jump\t// out\n        /* \"#utility.yul\":5213:5526   */\n    tag_23:\n        /* \"#utility.yul\":5326:5330   */\n      0x00\n        /* \"#utility.yul\":5364:5366   */\n      0x20\n        /* \"#utility.yul\":5353:5362   */\n      dup3\n        /* \"#utility.yul\":5349:5367   */\n      add\n        /* \"#utility.yul\":5341:5367   */\n      swap1\n      pop\n        /* \"#utility.yul\":5413:5422   */\n      dup2\n        /* \"#utility.yul\":5407:5411   */\n      dup2\n        /* \"#utility.yul\":5403:5423   */\n      sub\n        /* \"#utility.yul\":5399:5400   */\n      0x00\n        /* \"#utility.yul\":5388:5397   */\n      dup4\n        /* \"#utility.yul\":5384:5401   */\n      add\n        /* \"#utility.yul\":5377:5424   */\n      mstore\n        /* \"#utility.yul\":5441:5519   */\n      tag_257\n        /* \"#utility.yul\":5514:5518   */\n      dup2\n        /* \"#utility.yul\":5505:5511   */\n      dup5\n        /* \"#utility.yul\":5441:5519   */\n      tag_223\n      jump\t// in\n    tag_257:\n        /* \"#utility.yul\":5433:5519   */\n      swap1\n      pop\n        /* \"#utility.yul\":5213:5526   */\n      swap3\n      swap2\n      pop\n      pop\n      jump\t// out\n        /* \"#utility.yul\":5532:5943   */\n    tag_46:\n        /* \"#utility.yul\":5667:5671   */\n      0x00\n        /* \"#utility.yul\":5705:5707   */\n      0x40\n        /* \"#utility.yul\":5694:5703   */\n      dup3\n        /* \"#utility.yul\":5690:5708   */\n      add\n        /* \"#utility.yul\":5682:5708   */\n      swap1\n      pop\n        /* \"#utility.yul\":5754:5763   */\n      dup2\n        /* \"#utility.yul\":5748:5752   */\n      dup2\n        /* \"#utility.yul\":5744:5764   */\n      sub\n        /* \"#utility.yul\":5740:5741   */\n      0x00\n        /* \"#utility.yul\":5729:5738   */\n      dup4\n        /* \"#utility.yul\":5725:5742   */\n      add\n        /* \"#utility.yul\":5718:5765   */\n      mstore\n        /* \"#utility.yul\":5782:5860   */\n      tag_259\n        /* \"#utility.yul\":5855:5859   */\n      dup2\n        /* \"#utility.yul\":5846:5852   */\n      dup6\n        /* \"#utility.yul\":5782:5860   */\n      tag_223\n      jump\t// in\n    tag_259:\n        /* \"#utility.yul\":5774:5860   */\n      swap1\n      pop\n        /* \"#utility.yul\":5870:5936   */\n      tag_260\n        /* \"#utility.yul\":5932:5934   */\n      0x20\n        /* \"#utility.yul\":5921:5930   */\n      dup4\n        /* \"#utility.yul\":5917:5935   */\n      add\n        /* \"#utility.yul\":5908:5914   */\n      dup5\n        /* \"#utility.yul\":5870:5936   */\n      tag_219\n      jump\t// in\n    tag_260:\n        /* \"#utility.yul\":5532:5943   */\n      swap4\n      swap3\n      pop\n      pop\n      pop\n      jump\t// out\n        /* \"#utility.yul\":5949:6368   */\n    tag_86:\n        /* \"#utility.yul\":6115:6119   */\n      0x00\n        /* \"#utility.yul\":6153:6155   */\n      0x20\n        /* \"#utility.yul\":6142:6151   */\n      dup3\n        /* \"#utility.yul\":6138:6156   */\n      add\n        /* \"#utility.yul\":6130:6156   */\n      swap1\n      pop\n        /* \"#utility.yul\":6202:6211   */\n      dup2\n        /* \"#utility.yul\":6196:6200   */\n      dup2\n        /* \"#utility.yul\":6192:6212   */\n      sub\n        /* \"#utility.yul\":6188:6189   */\n      0x00\n        /* \"#utility.yul\":6177:6186   */\n      dup4\n        /* \"#utility.yul\":6173:6190   */\n      add\n        /* \"#utility.yul\":6166:6213   */\n      mstore\n        /* \"#utility.yul\":6230:6361   */\n      tag_262\n        /* \"#utility.yul\":6356:6360   */\n      dup2\n        /* \"#utility.yul\":6230:6361   */\n      tag_233\n      jump\t// in\n    tag_262:\n        /* \"#utility.yul\":6222:6361   */\n      swap1\n      pop\n        /* \"#utility.yul\":5949:6368   */\n      swap2\n      swap1\n      pop\n      jump\t// out\n        /* \"#utility.yul\":6374:6793   */\n    tag_77:\n        /* \"#utility.yul\":6540:6544   */\n      0x00\n        /* \"#utility.yul\":6578:6580   */\n      0x20\n        /* \"#utility.yul\":6567:6576   */\n      dup3\n        /* \"#utility.yul\":6563:6581   */\n      add\n        /* \"#utility.yul\":6555:6581   */\n      swap1\n      pop\n        /* \"#utility.yul\":6627:6636   */\n      dup2\n        /* \"#utility.yul\":6621:6625   */\n      dup2\n        /* \"#utility.yul\":6617:6637   */\n      sub\n        /* \"#utility.yul\":6613:6614   */\n      0x00\n        /* \"#utility.yul\":6602:6611   */\n      dup4\n        /* \"#utility.yul\":6598:6615   */\n      add\n        /* \"#utility.yul\":6591:6638   */\n      mstore\n        /* \"#utility.yul\":6655:6786   */\n      tag_264\n        /* \"#utility.yul\":6781:6785   */\n      dup2\n        /* \"#utility.yul\":6655:6786   */\n      tag_238\n      jump\t// in\n    tag_264:\n        /* \"#utility.yul\":6647:6786   */\n      swap1\n      pop\n        /* \"#utility.yul\":6374:6793   */\n      swap2\n      swap1\n      pop\n      jump\t// out\n        /* \"#utility.yul\":6799:7218   */\n    tag_90:\n        /* \"#utility.yul\":6965:6969   */\n      0x00\n        /* \"#utility.yul\":7003:7005   */\n      0x20\n        /* \"#utility.yul\":6992:7001   */\n      dup3\n        /* \"#utility.yul\":6988:7006   */\n      add\n        /* \"#utility.yul\":6980:7006   */\n      swap1\n      pop\n        /* \"#utility.yul\":7052:7061   */\n      dup2\n        /* \"#utility.yul\":7046:7050   */\n      dup2\n        /* \"#utility.yul\":7042:7062   */\n      sub\n        /* \"#utility.yul\":7038:7039   */\n      0x00\n        /* \"#utility.yul\":7027:7036   */\n      dup4\n        /* \"#utility.yul\":7023:7040   */\n      add\n        /* \"#utility.yul\":7016:7063   */\n      mstore\n        /* \"#utility.yul\":7080:7211   */\n      tag_266\n        /* \"#utility.yul\":7206:7210   */\n      dup2\n        /* \"#utility.yul\":7080:7211   */\n      tag_243\n      jump\t// in\n    tag_266:\n        /* \"#utility.yul\":7072:7211   */\n      swap1\n      pop\n        /* \"#utility.yul\":6799:7218   */\n      swap2\n      swap1\n      pop\n      jump\t// out\n        /* \"#utility.yul\":7224:7446   */\n    tag_29:\n        /* \"#utility.yul\":7317:7321   */\n      0x00\n        /* \"#utility.yul\":7355:7357   */\n      0x20\n        /* \"#utility.yul\":7344:7353   */\n      dup3\n        /* \"#utility.yul\":7340:7358   */\n      add\n        /* \"#utility.yul\":7332:7358   */\n      swap1\n      pop\n        /* \"#utility.yul\":7368:7439   */\n      tag_268\n        /* \"#utility.yul\":7436:7437   */\n      0x00\n        /* \"#utility.yul\":7425:7434   */\n      dup4\n        /* \"#utility.yul\":7421:7438   */\n      add\n        /* \"#utility.yul\":7412:7418   */\n      dup5\n        /* \"#utility.yul\":7368:7439   */\n      tag_248\n      jump\t// in\n    tag_268:\n        /* \"#utility.yul\":7224:7446   */\n      swap3\n      swap2\n      pop\n      pop\n      jump\t// out\n        /* \"#utility.yul\":7452:7581   */\n    tag_172:\n        /* \"#utility.yul\":7486:7492   */\n      0x00\n        /* \"#utility.yul\":7513:7533   */\n      tag_270\n      tag_271\n      jump\t// in\n    tag_270:\n        /* \"#utility.yul\":7503:7533   */\n      swap1\n      pop\n        /* \"#utility.yul\":7542:7575   */\n      tag_272\n        /* \"#utility.yul\":7570:7574   */\n      dup3\n        /* \"#utility.yul\":7562:7568   */\n      dup3\n        /* \"#utility.yul\":7542:7575   */\n      tag_273\n      jump\t// in\n    tag_272:\n        /* \"#utility.yul\":7452:7581   */\n      swap2\n      swap1\n      pop\n      jump\t// out\n        /* \"#utility.yul\":7587:7662   */\n    tag_271:\n        /* \"#utility.yul\":7620:7626   */\n      0x00\n        /* \"#utility.yul\":7653:7655   */\n      0x40\n        /* \"#utility.yul\":7647:7656   */\n      mload\n        /* \"#utility.yul\":7637:7656   */\n      swap1\n      pop\n        /* \"#utility.yul\":7587:7662   */\n      swap1\n      jump\t// out\n        /* \"#utility.yul\":7668:7976   */\n    tag_171:\n        /* \"#utility.yul\":7730:7734   */\n      0x00\n        /* \"#utility.yul\":7820:7838   */\n      0xffffffffffffffff\n        /* \"#utility.yul\":7812:7818   */\n      dup3\n        /* \"#utility.yul\":7809:7839   */\n      gt\n        /* \"#utility.yul\":7806:7862   */\n      iszero\n      tag_276\n      jumpi\n        /* \"#utility.yul\":7842:7860   */\n      tag_277\n      tag_278\n      jump\t// in\n    tag_277:\n        /* \"#utility.yul\":7806:7862   */\n    tag_276:\n        /* \"#utility.yul\":7880:7909   */\n      tag_279\n        /* \"#utility.yul\":7902:7908   */\n      dup3\n        /* \"#utility.yul\":7880:7909   */\n      tag_232\n      jump\t// in\n    tag_279:\n        /* \"#utility.yul\":7872:7909   */\n      swap1\n      pop\n        /* \"#utility.yul\":7964:7968   */\n      0x20\n        /* \"#utility.yul\":7958:7962   */\n      dup2\n        /* \"#utility.yul\":7954:7969   */\n      add\n        /* \"#utility.yul\":7946:7969   */\n      swap1\n      pop\n        /* \"#utility.yul\":7668:7976   */\n      swap2\n      swap1\n      pop\n      jump\t// out\n        /* \"#utility.yul\":7982:8081   */\n    tag_226:\n        /* \"#utility.yul\":8034:8040   */\n      0x00\n        /* \"#utility.yul\":8068:8073   */\n      dup2\n        /* \"#utility.yul\":8062:8074   */\n      mload\n        /* \"#utility.yul\":8052:8074   */\n      swap1\n      pop\n        /* \"#utility.yul\":7982:8081   */\n      swap2\n      swap1\n      pop\n      jump\t// out\n        /* \"#utility.yul\":8087:8256   */\n    tag_228:\n        /* \"#utility.yul\":8171:8182   */\n      0x00\n        /* \"#utility.yul\":8205:8211   */\n      dup3\n        /* \"#utility.yul\":8200:8203   */\n      dup3\n        /* \"#utility.yul\":8193:8212   */\n      mstore\n        /* \"#utility.yul\":8245:8249   */\n      0x20\n        /* \"#utility.yul\":8240:8243   */\n      dup3\n        /* \"#utility.yul\":8236:8250   */\n      add\n        /* \"#utility.yul\":8221:8250   */\n      swap1\n      pop\n        /* \"#utility.yul\":8087:8256   */\n      swap3\n      swap2\n      pop\n      pop\n      jump\t// out\n        /* \"#utility.yul\":8262:8567   */\n    tag_103:\n        /* \"#utility.yul\":8302:8305   */\n      0x00\n        /* \"#utility.yul\":8321:8341   */\n      tag_283\n        /* \"#utility.yul\":8339:8340   */\n      dup3\n        /* \"#utility.yul\":8321:8341   */\n      tag_251\n      jump\t// in\n    tag_283:\n        /* \"#utility.yul\":8316:8341   */\n      swap2\n      pop\n        /* \"#utility.yul\":8355:8375   */\n      tag_284\n        /* \"#utility.yul\":8373:8374   */\n      dup4\n        /* \"#utility.yul\":8355:8375   */\n      tag_251\n      jump\t// in\n    tag_284:\n        /* \"#utility.yul\":8350:8375   */\n      swap3\n      pop\n        /* \"#utility.yul\":8509:8510   */\n      dup3\n        /* \"#utility.yul\":8441:8507   */\n      0xffffffffffffffffffffffffffffffffffffffffffffffffffffffffffffffff\n        /* \"#utility.yul\":8437:8511   */\n      sub\n        /* \"#utility.yul\":8434:8435   */\n      dup3\n        /* \"#utility.yul\":8431:8512   */\n      gt\n        /* \"#utility.yul\":8428:8535   */\n      iszero\n      tag_285\n      jumpi\n        /* \"#utility.yul\":8515:8533   */\n      tag_286\n      tag_287\n      jump\t// in\n    tag_286:\n        /* \"#utility.yul\":8428:8535   */\n    tag_285:\n        /* \"#utility.yul\":8559:8560   */\n      dup3\n        /* \"#utility.yul\":8556:8557   */\n      dup3\n        /* \"#utility.yul\":8552:8561   */\n      add\n        /* \"#utility.yul\":8545:8561   */\n      swap1\n      pop\n        /* \"#utility.yul\":8262:8567   */\n      swap3\n      swap2\n      pop\n      pop\n      jump\t// out\n        /* \"#utility.yul\":8573:8758   */\n    tag_101:\n        /* \"#utility.yul\":8613:8614   */\n      0x00\n        /* \"#utility.yul\":8630:8650   */\n      tag_289\n        /* \"#utility.yul\":8648:8649   */\n      dup3\n        /* \"#utility.yul\":8630:8650   */\n      tag_251\n      jump\t// in\n    tag_289:\n        /* \"#utility.yul\":8625:8650   */\n      swap2\n      pop\n        /* \"#utility.yul\":8664:8684   */\n      tag_290\n        /* \"#utility.yul\":8682:8683   */\n      dup4\n        /* \"#utility.yul\":8664:8684   */\n      tag_251\n      jump\t// in\n    tag_290:\n        /* \"#utility.yul\":8659:8684   */\n      swap3\n      pop\n        /* \"#utility.yul\":8703:8704   */\n      dup3\n        /* \"#utility.yul\":8693:8728   */\n      tag_291\n      jumpi\n        /* \"#utility.yul\":8708:8726   */\n      tag_292\n      tag_293\n      jump\t// in\n    tag_292:\n        /* \"#utility.yul\":8693:8728   */\n    tag_291:\n        /* \"#utility.yul\":8750:8751   */\n      dup3\n        /* \"#utility.yul\":8747:8748   */\n      dup3\n        /* \"#utility.yul\":8743:8752   */\n      div\n        /* \"#utility.yul\":8738:8752   */\n      swap1\n      pop\n        /* \"#utility.yul\":8573:8758   */\n      swap3\n      swap2\n      pop\n      pop\n      jump\t// out\n        /* \"#utility.yul\":8764:8860   */\n    tag_218:\n        /* \"#utility.yul\":8801:8808   */\n      0x00\n        /* \"#utility.yul\":8830:8854   */\n      tag_295\n        /* \"#utility.yul\":8848:8853   */\n      dup3\n        /* \"#utility.yul\":8830:8854   */\n      tag_296\n      jump\t// in\n    tag_295:\n        /* \"#utility.yul\":8819:8854   */\n      swap1\n      pop\n        /* \"#utility.yul\":8764:8860   */\n      swap2\n      swap1\n      pop\n      jump\t// out\n        /* \"#utility.yul\":8866:8956   */\n    tag_222:\n        /* \"#utility.yul\":8900:8907   */\n      0x00\n        /* \"#utility.yul\":8943:8948   */\n      dup2\n        /* \"#utility.yul\":8936:8949   */\n      iszero\n        /* \"#utility.yul\":8929:8950   */\n      iszero\n        /* \"#utility.yul\":8918:8950   */\n      swap1\n      pop\n        /* \"#utility.yul\":8866:8956   */\n      swap2\n      swap1\n      pop\n      jump\t// out\n        /* \"#utility.yul\":8962:9088   */\n    tag_296:\n        /* \"#utility.yul\":8999:9006   */\n      0x00\n        /* \"#utility.yul\":9039:9081   */\n      0xffffffffffffffffffffffffffffffffffffffff\n        /* \"#utility.yul\":9032:9037   */\n      dup3\n        /* \"#utility.yul\":9028:9082   */\n      and\n        /* \"#utility.yul\":9017:9082   */\n      swap1\n      pop\n        /* \"#utility.yul\":8962:9088   */\n      swap2\n      swap1\n      pop\n      jump\t// out\n        /* \"#utility.yul\":9094:9171   */\n    tag_251:\n        /* \"#utility.yul\":9131:9138   */\n      0x00\n        /* \"#utility.yul\":9160:9165   */\n      dup2\n        /* \"#utility.yul\":9149:9165   */\n      swap1\n      pop\n        /* \"#utility.yul\":9094:9171   */\n      swap2\n      swap1\n      pop\n      jump\t// out\n        /* \"#utility.yul\":9177:9331   */\n    tag_177:\n        /* \"#utility.yul\":9261:9267   */\n      dup3\n        /* \"#utility.yul\":9256:9259   */\n      dup2\n        /* \"#utility.yul\":9251:9254   */\n      dup4\n        /* \"#utility.yul\":9238:9268   */\n      calldatacopy\n        /* \"#utility.yul\":9323:9324   */\n      0x00\n        /* \"#utility.yul\":9314:9320   */\n      dup4\n        /* \"#utility.yul\":9309:9312   */\n      dup4\n        /* \"#utility.yul\":9305:9321   */\n      add\n        /* \"#utility.yul\":9298:9325   */\n      mstore\n        /* \"#utility.yul\":9177:9331   */\n      pop\n      pop\n      pop\n      jump\t// out\n        /* \"#utility.yul\":9337:9644   */\n    tag_230:\n        /* \"#utility.yul\":9405:9406   */\n      0x00\n        /* \"#utility.yul\":9415:9528   */\n    tag_302:\n        /* \"#utility.yul\":9429:9435   */\n      dup4\n        /* \"#utility.yul\":9426:9427   */\n      dup2\n        /* \"#utility.yul\":9423:9436   */\n      lt\n        /* \"#utility.yul\":9415:9528   */\n      iszero\n      tag_304\n      jumpi\n        /* \"#utility.yul\":9514:9515   */\n      dup1\n        /* \"#utility.yul\":9509:9512   */\n      dup3\n        /* \"#utility.yul\":9505:9516   */\n      add\n        /* \"#utility.yul\":9499:9517   */\n      mload\n        /* \"#utility.yul\":9495:9496   */\n      dup2\n        /* \"#utility.yul\":9490:9493   */\n      dup5\n        /* \"#utility.yul\":9486:9497   */\n      add\n        /* \"#utility.yul\":9479:9518   */\n      mstore\n        /* \"#utility.yul\":9451:9453   */\n      0x20\n        /* \"#utility.yul\":9448:9449   */\n      dup2\n        /* \"#utility.yul\":9444:9454   */\n      add\n        /* \"#utility.yul\":9439:9454   */\n      swap1\n      pop\n        /* \"#utility.yul\":9415:9528   */\n      jump(tag_302)\n    tag_304:\n        /* \"#utility.yul\":9546:9552   */\n      dup4\n        /* \"#utility.yul\":9543:9544   */\n      dup2\n        /* \"#utility.yul\":9540:9553   */\n      gt\n        /* \"#utility.yul\":9537:9638   */\n      iszero\n      tag_305\n      jumpi\n        /* \"#utility.yul\":9626:9627   */\n      0x00\n        /* \"#utility.yul\":9617:9623   */\n      dup5\n        /* \"#utility.yul\":9612:9615   */\n      dup5\n        /* \"#utility.yul\":9608:9624   */\n      add\n        /* \"#utility.yul\":9601:9628   */\n      mstore\n        /* \"#utility.yul\":9537:9638   */\n    tag_305:\n        /* \"#utility.yul\":9386:9644   */\n      pop\n        /* \"#utility.yul\":9337:9644   */\n      pop\n      pop\n      pop\n      jump\t// out\n        /* \"#utility.yul\":9650:9970   */\n    tag_69:\n        /* \"#utility.yul\":9694:9700   */\n      0x00\n        /* \"#utility.yul\":9731:9732   */\n      0x02\n        /* \"#utility.yul\":9725:9729   */\n      dup3\n        /* \"#utility.yul\":9721:9733   */\n      div\n        /* \"#utility.yul\":9711:9733   */\n      swap1\n      pop\n        /* \"#utility.yul\":9778:9779   */\n      0x01\n        /* \"#utility.yul\":9772:9776   */\n      dup3\n        /* \"#utility.yul\":9768:9780   */\n      and\n        /* \"#utility.yul\":9799:9817   */\n      dup1\n        /* \"#utility.yul\":9789:9870   */\n      tag_307\n      jumpi\n        /* \"#utility.yul\":9855:9859   */\n      0x7f\n        /* \"#utility.yul\":9847:9853   */\n      dup3\n        /* \"#utility.yul\":9843:9860   */\n      and\n        /* \"#utility.yul\":9833:9860   */\n      swap2\n      pop\n        /* \"#utility.yul\":9789:9870   */\n    tag_307:\n        /* \"#utility.yul\":9917:9919   */\n      0x20\n        /* \"#utility.yul\":9909:9915   */\n      dup3\n        /* \"#utility.yul\":9906:9920   */\n      lt\n        /* \"#utility.yul\":9886:9904   */\n      dup2\n        /* \"#utility.yul\":9883:9921   */\n      eq\n        /* \"#utility.yul\":9880:9964   */\n      iszero\n      tag_308\n      jumpi\n        /* \"#utility.yul\":9936:9954   */\n      tag_309\n      tag_310\n      jump\t// in\n    tag_309:\n        /* \"#utility.yul\":9880:9964   */\n    tag_308:\n        /* \"#utility.yul\":9701:9970   */\n      pop\n        /* \"#utility.yul\":9650:9970   */\n      swap2\n      swap1\n      pop\n      jump\t// out\n        /* \"#utility.yul\":9976:10257   */\n    tag_273:\n        /* \"#utility.yul\":10059:10086   */\n      tag_312\n        /* \"#utility.yul\":10081:10085   */\n      dup3\n        /* \"#utility.yul\":10059:10086   */\n      tag_232\n      jump\t// in\n    tag_312:\n        /* \"#utility.yul\":10051:10057   */\n      dup2\n        /* \"#utility.yul\":10047:10087   */\n      add\n        /* \"#utility.yul\":10189:10195   */\n      dup2\n        /* \"#utility.yul\":10177:10187   */\n      dup2\n        /* \"#utility.yul\":10174:10196   */\n      lt\n        /* \"#utility.yul\":10153:10171   */\n      0xffffffffffffffff\n        /* \"#utility.yul\":10141:10151   */\n      dup3\n        /* \"#utility.yul\":10138:10172   */\n      gt\n        /* \"#utility.yul\":10135:10197   */\n      or\n        /* \"#utility.yul\":10132:10220   */\n      iszero\n      tag_313\n      jumpi\n        /* \"#utility.yul\":10200:10218   */\n      tag_314\n      tag_278\n      jump\t// in\n    tag_314:\n        /* \"#utility.yul\":10132:10220   */\n    tag_313:\n        /* \"#utility.yul\":10240:10250   */\n      dup1\n        /* \"#utility.yul\":10236:10238   */\n      0x40\n        /* \"#utility.yul\":10229:10251   */\n      mstore\n        /* \"#utility.yul\":10019:10257   */\n      pop\n        /* \"#utility.yul\":9976:10257   */\n      pop\n      pop\n      jump\t// out\n        /* \"#utility.yul\":10263:10496   */\n    tag_80:\n        /* \"#utility.yul\":10302:10305   */\n      0x00\n        /* \"#utility.yul\":10325:10349   */\n      tag_316\n        /* \"#utility.yul\":10343:10348   */\n      dup3\n        /* \"#utility.yul\":10325:10349   */\n      tag_251\n      jump\t// in\n    tag_316:\n        /* \"#utility.yul\":10316:10349   */\n      swap2\n      pop\n        /* \"#utility.yul\":10371:10437   */\n      0xffffffffffffffffffffffffffffffffffffffffffffffffffffffffffffffff\n        /* \"#utility.yul\":10364:10369   */\n      dup3\n        /* \"#utility.yul\":10361:10438   */\n      eq\n        /* \"#utility.yul\":10358:10461   */\n      iszero\n      tag_317\n      jumpi\n        /* \"#utility.yul\":10441:10459   */\n      tag_318\n      tag_287\n      jump\t// in\n    tag_318:\n        /* \"#utility.yul\":10358:10461   */\n    tag_317:\n        /* \"#utility.yul\":10488:10489   */\n      0x01\n        /* \"#utility.yul\":10481:10486   */\n      dup3\n        /* \"#utility.yul\":10477:10490   */\n      add\n        /* \"#utility.yul\":10470:10490   */\n      swap1\n      pop\n        /* \"#utility.yul\":10263:10496   */\n      swap2\n      swap1\n      pop\n      jump\t// out\n        /* \"#utility.yul\":10502:10682   */\n    tag_287:\n        /* \"#utility.yul\":10550:10627   */\n      0x4e487b7100000000000000000000000000000000000000000000000000000000\n        /* \"#utility.yul\":10547:10548   */\n      0x00\n        /* \"#utility.yul\":10540:10628   */\n      mstore\n        /* \"#utility.yul\":10647:10651   */\n      0x11\n        /* \"#utility.yul\":10644:10645   */\n      0x04\n        /* \"#utility.yul\":10637:10652   */\n      mstore\n        /* \"#utility.yul\":10671:10675   */\n      0x24\n        /* \"#utility.yul\":10668:10669   */\n      0x00\n        /* \"#utility.yul\":10661:10676   */\n      revert\n        /* \"#utility.yul\":10688:10868   */\n    tag_293:\n        /* \"#utility.yul\":10736:10813   */\n      0x4e487b7100000000000000000000000000000000000000000000000000000000\n        /* \"#utility.yul\":10733:10734   */\n      0x00\n        /* \"#utility.yul\":10726:10814   */\n      mstore\n        /* \"#utility.yul\":10833:10837   */\n      0x12\n        /* \"#utility.yul\":10830:10831   */\n      0x04\n        /* \"#utility.yul\":10823:10838   */\n      mstore\n        /* \"#utility.yul\":10857:10861   */\n      0x24\n        /* \"#utility.yul\":10854:10855   */\n      0x00\n        /* \"#utility.yul\":10847:10862   */\n      revert\n        /* \"#utility.yul\":10874:11054   */\n    tag_310:\n        /* \"#utility.yul\":10922:10999   */\n      0x4e487b7100000000000000000000000000000000000000000000000000000000\n        /* \"#utility.yul\":10919:10920   */\n      0x00\n        /* \"#utility.yul\":10912:11000   */\n      mstore\n        /* \"#utility.yul\":11019:11023   */\n      0x22\n        /* \"#utility.yul\":11016:11017   */\n      0x04\n        /* \"#utility.yul\":11009:11024   */\n      mstore\n        /* \"#utility.yul\":11043:11047   */\n      0x24\n        /* \"#utility.yul\":11040:11041   */\n      0x00\n        /* \"#utility.yul\":11033:11048   */\n      revert\n        /* \"#utility.yul\":11060:11240   */\n    tag_278:\n        /* \"#utility.yul\":11108:11185   */\n      0x4e487b7100000000000000000000000000000000000000000000000000000000\n        /* \"#utility.yul\":11105:11106   */\n      0x00\n        /* \"#utility.yul\":11098:11186   */\n      mstore\n        /* \"#utility.yul\":11205:11209   */\n      0x41\n        /* \"#utility.yul\":11202:11203   */\n      0x04\n        /* \"#utility.yul\":11195:11210   */\n      mstore\n        /* \"#utility.yul\":11229:11233   */\n      0x24\n        /* \"#utility.yul\":11226:11227   */\n      0x00\n        /* \"#utility.yul\":11219:11234   */\n      revert\n        /* \"#utility.yul\":11246:11363   */\n    tag_186:\n        /* \"#utility.yul\":11355:11356   */\n      0x00\n        /* \"#utility.yul\":11352:11353   */\n      dup1\n        /* \"#utility.yul\":11345:11357   */\n      revert\n        /* \"#utility.yul\":11369:11486   */\n    tag_175:\n        /* \"#utility.yul\":11478:11479   */\n      0x00\n        /* \"#utility.yul\":11475:11476   */\n      dup1\n        /* \"#utility.yul\":11468:11480   */\n      revert\n        /* \"#utility.yul\":11492:11609   */\n    tag_203:\n        /* \"#utility.yul\":11601:11602   */\n      0x00\n        /* \"#utility.yul\":11598:11599   */\n      dup1\n        /* \"#utility.yul\":11591:11603   */\n      revert\n        /* \"#utility.yul\":11615:11732   */\n    tag_195:\n        /* \"#utility.yul\":11724:11725   */\n      0x00\n        /* \"#utility.yul\":11721:11722   */\n      dup1\n        /* \"#utility.yul\":11714:11726   */\n      revert\n        /* \"#utility.yul\":11738:11840   */\n    tag_232:\n        /* \"#utility.yul\":11779:11785   */\n      0x00\n        /* \"#utility.yul\":11830:11832   */\n      0x1f\n        /* \"#utility.yul\":11826:11833   */\n      not\n        /* \"#utility.yul\":11821:11823   */\n      0x1f\n        /* \"#utility.yul\":11814:11819   */\n      dup4\n        /* \"#utility.yul\":11810:11824   */\n      add\n        /* \"#utility.yul\":11806:11834   */\n      and\n        /* \"#utility.yul\":11796:11834   */\n      swap1\n      pop\n        /* \"#utility.yul\":11738:11840   */\n      swap2\n      swap1\n      pop\n      jump\t// out\n        /* \"#utility.yul\":11846:12069   */\n    tag_237:\n        /* \"#utility.yul\":11986:12020   */\n      0x43616e20766f7465206f6e6c79207768696c6520766f74696e67206973206f70\n        /* \"#utility.yul\":11982:11983   */\n      0x00\n        /* \"#utility.yul\":11974:11980   */\n      dup3\n        /* \"#utility.yul\":11970:11984   */\n      add\n        /* \"#utility.yul\":11963:12021   */\n      mstore\n        /* \"#utility.yul\":12055:12061   */\n      0x656e202e00000000000000000000000000000000000000000000000000000000\n        /* \"#utility.yul\":12050:12052   */\n      0x20\n        /* \"#utility.yul\":12042:12048   */\n      dup3\n        /* \"#utility.yul\":12038:12053   */\n      add\n        /* \"#utility.yul\":12031:12062   */\n      mstore\n        /* \"#utility.yul\":11846:12069   */\n      pop\n      jump\t// out\n        /* \"#utility.yul\":12075:12297   */\n    tag_242:\n        /* \"#utility.yul\":12215:12249   */\n      0x43616e206f6e6c7920626520657865637574656420627920746865206d616e61\n        /* \"#utility.yul\":12211:12212   */\n      0x00\n        /* \"#utility.yul\":12203:12209   */\n      dup3\n        /* \"#utility.yul\":12199:12213   */\n      add\n        /* \"#utility.yul\":12192:12250   */\n      mstore\n        /* \"#utility.yul\":12284:12289   */\n      0x6765720000000000000000000000000000000000000000000000000000000000\n        /* \"#utility.yul\":12279:12281   */\n      0x20\n        /* \"#utility.yul\":12271:12277   */\n      dup3\n        /* \"#utility.yul\":12267:12282   */\n      add\n        /* \"#utility.yul\":12260:12290   */\n      mstore\n        /* \"#utility.yul\":12075:12297   */\n      pop\n      jump\t// out\n        /* \"#utility.yul\":12303:12538   */\n    tag_247:\n        /* \"#utility.yul\":12443:12477   */\n      0x43616e6e6f7420657865637574652066756e6374696f6e207768696c65206c75\n        /* \"#utility.yul\":12439:12440   */\n      0x00\n        /* \"#utility.yul\":12431:12437   */\n      dup3\n        /* \"#utility.yul\":12427:12441   */\n      add\n        /* \"#utility.yul\":12420:12478   */\n      mstore\n        /* \"#utility.yul\":12512:12530   */\n      0x6e63682069732063616e63656c6c656400000000000000000000000000000000\n        /* \"#utility.yul\":12507:12509   */\n      0x20\n        /* \"#utility.yul\":12499:12505   */\n      dup3\n        /* \"#utility.yul\":12495:12510   */\n      add\n        /* \"#utility.yul\":12488:12531   */\n      mstore\n        /* \"#utility.yul\":12303:12538   */\n      pop\n      jump\t// out\n        /* \"#utility.yul\":12544:12666   */\n    tag_181:\n        /* \"#utility.yul\":12617:12641   */\n      tag_332\n        /* \"#utility.yul\":12635:12640   */\n      dup2\n        /* \"#utility.yul\":12617:12641   */\n      tag_218\n      jump\t// in\n    tag_332:\n        /* \"#utility.yul\":12610:12615   */\n      dup2\n        /* \"#utility.yul\":12607:12642   */\n      eq\n        /* \"#utility.yul\":12597:12660   */\n      tag_333\n      jumpi\n        /* \"#utility.yul\":12656:12657   */\n      0x00\n        /* \"#utility.yul\":12653:12654   */\n      dup1\n        /* \"#utility.yul\":12646:12658   */\n      revert\n        /* \"#utility.yul\":12597:12660   */\n    tag_333:\n        /* \"#utility.yul\":12544:12666   */\n      pop\n      jump\t// out\n        /* \"#utility.yul\":12672:12794   */\n    tag_191:\n        /* \"#utility.yul\":12745:12769   */\n      tag_335\n        /* \"#utility.yul\":12763:12768   */\n      dup2\n        /* \"#utility.yul\":12745:12769   */\n      tag_251\n      jump\t// in\n    tag_335:\n        /* \"#utility.yul\":12738:12743   */\n      dup2\n        /* \"#utility.yul\":12735:12770   */\n      eq\n        /* \"#utility.yul\":12725:12788   */\n      tag_336\n      jumpi\n        /* \"#utility.yul\":12784:12785   */\n      0x00\n        /* \"#utility.yul\":12781:12782   */\n      dup1\n        /* \"#utility.yul\":12774:12786   */\n      revert\n        /* \"#utility.yul\":12725:12788   */\n    tag_336:\n        /* \"#utility.yul\":12672:12794   */\n      pop\n      jump\t// out\n\n    auxdata: 0xa2646970667358221220b0ba577b5236389481f2a1045f817c1bff787e51525c6f5b92b6fa681c06f6f764736f6c63430008070033\n}\n",
				"bytecode": {
					"linkReferences": {},
					"object": "608060405260006002556000600355600060045560405180602001604052806000815250600690805190602001906200003a929190620000c6565b506001600960006101000a81548160ff0219169083151502179055506000600960016101000a81548160ff0219169083151502179055503480156200007e57600080fd5b5033600560006101000a81548173ffffffffffffffffffffffffffffffffffffffff021916908373ffffffffffffffffffffffffffffffffffffffff160217905550620001db565b828054620000d49062000176565b90600052602060002090601f016020900481019282620000f8576000855562000144565b82601f106200011357805160ff191683800117855562000144565b8280016001018555821562000144579182015b828111156200014357825182559160200191906001019062000126565b5b50905062000153919062000157565b5090565b5b808211156200017257600081600090555060010162000158565b5090565b600060028204905060018216806200018f57607f821691505b60208210811415620001a657620001a5620001ac565b5b50919050565b7f4e487b7100000000000000000000000000000000000000000000000000000000600052602260045260246000fd5b61168780620001eb6000396000f3fe608060405234801561001057600080fd5b50600436106100cf5760003560e01c80633b9f708d1161008c578063a3bef4d711610066578063a3bef4d71461023d578063affc06701461025b578063d4ad644e14610265578063e23930211461026f576100cf565b80633b9f708d146101d157806347098f3614610201578063481c6a751461021f576100cf565b806302daf12f146100d457806302ee93c8146101045780630843d16d14610134578063124258c6146101525780631635b5d3146101825780631ddabf7a146101a0575b600080fd5b6100ee60048036038101906100e99190611027565b610279565b6040516100fb9190611159565b60405180910390f35b61011e60048036038101906101199190610fde565b610319565b60405161012b919061120b565b60405180910390f35b61013c6103f6565b604051610149919061120b565b60405180910390f35b61016c60048036038101906101679190611027565b6103fc565b604051610179919061113e565b60405180910390f35b61018a6106e5565b6040516101979190611159565b60405180910390f35b6101ba60048036038101906101b59190610f55565b610773565b6040516101c892919061117b565b60405180910390f35b6101eb60048036038101906101e69190610f82565b61082c565b6040516101f8919061120b565b60405180910390f35b610209610984565b604051610216919061120b565b60405180910390f35b61022761098a565b6040516102349190611123565b60405180910390f35b6102456109b0565b604051610252919061120b565b60405180910390f35b6102636109b6565b005b61026d610a63565b005b610277610b10565b005b60006020528060005260406000206000915090508054610298906113a9565b80601f01602080910402602001604051908101604052809291908181526020018280546102c4906113a9565b80156103115780601f106102e657610100808354040283529160200191610311565b820191906000526020600020905b8154815290600101906020018083116102f457829003601f168201915b505050505081565b6000600560009054906101000a900473ffffffffffffffffffffffffffffffffffffffff1673ffffffffffffffffffffffffffffffffffffffff163373ffffffffffffffffffffffffffffffffffffffff16146103ab576040517f08c379a00000000000000000000000000000000000000000000000000000000081526004016103a2906111cb565b60405180910390fd5b600260008154809291906103be9061140c565b919050555081600080600254815260200190815260200160002090805190602001906103eb929190610d3f565b506002549050919050565b60025481565b600060011515600960009054906101000a900460ff16151514610454576040517f08c379a000000000000000000000000000000000000000000000000000000000815260040161044b906111ab565b60405180910390fd5b60001515600960019054906101000a900460ff161515146104aa576040517f08c379a00000000000000000000000000000000000000000000000000000000081526004016104a1906111eb565b60405180910390fd5b600090506000600160003373ffffffffffffffffffffffffffffffffffffffff1673ffffffffffffffffffffffffffffffffffffffff16815260200190815260200160002060000180546104fd906113a9565b9050146106b45760011515600160003373ffffffffffffffffffffffffffffffffffffffff1673ffffffffffffffffffffffffffffffffffffffff16815260200190815260200160002060010160009054906101000a900460ff16151514156106b3576000806000848152602001908152602001600020805461057f906113a9565b9050146106b2576001905060018060003373ffffffffffffffffffffffffffffffffffffffff1673ffffffffffffffffffffffffffffffffffffffff16815260200190815260200160002060010160006101000a81548160ff0219169083151502179055506105ec610dc5565b33816000019073ffffffffffffffffffffffffffffffffffffffff16908173ffffffffffffffffffffffffffffffffffffffff168152505082816020018181525050600460008154809291906106419061140c565b91905055508060076000600454815260200190815260200160002060008201518160000160006101000a81548173ffffffffffffffffffffffffffffffffffffffff021916908373ffffffffffffffffffffffffffffffffffffffff16021790555060208201518160010155905050505b5b5b600160026003546106c591906112ee565b6106cf9190611298565b600454106106e0576106df610c09565b5b919050565b600680546106f2906113a9565b80601f016020809104026020016040519081016040528092919081815260200182805461071e906113a9565b801561076b5780601f106107405761010080835404028352916020019161076b565b820191906000526020600020905b81548152906001019060200180831161074e57829003601f168201915b505050505081565b6001602052806000526040600020600091509050806000018054610796906113a9565b80601f01602080910402602001604051908101604052809291908181526020018280546107c2906113a9565b801561080f5780601f106107e45761010080835404028352916020019161080f565b820191906000526020600020905b8154815290600101906020018083116107f257829003601f168201915b5050505050908060010160009054906101000a900460ff16905082565b6000600560009054906101000a900473ffffffffffffffffffffffffffffffffffffffff1673ffffffffffffffffffffffffffffffffffffffff163373ffffffffffffffffffffffffffffffffffffffff16146108be576040517f08c379a00000000000000000000000000000000000000000000000000000000081526004016108b5906111cb565b60405180910390fd5b6108c6610df5565b828160000181905250600081602001901515908115158152505080600160008673ffffffffffffffffffffffffffffffffffffffff1673ffffffffffffffffffffffffffffffffffffffff168152602001908152602001600020600082015181600001908051906020019061093c929190610d3f565b5060208201518160010160006101000a81548160ff021916908315150217905550905050600360008154809291906109739061140c565b919050555060035491505092915050565b60035481565b600560009054906101000a900473ffffffffffffffffffffffffffffffffffffffff1681565b60045481565b600560009054906101000a900473ffffffffffffffffffffffffffffffffffffffff1673ffffffffffffffffffffffffffffffffffffffff163373ffffffffffffffffffffffffffffffffffffffff1614610a46576040517f08c379a0000000000000000000000000000000000000000000000000000000008152600401610a3d906111cb565b60405180910390fd5b6001600960006101000a81548160ff021916908315150217905550565b600560009054906101000a900473ffffffffffffffffffffffffffffffffffffffff1673ffffffffffffffffffffffffffffffffffffffff163373ffffffffffffffffffffffffffffffffffffffff1614610af3576040517f08c379a0000000000000000000000000000000000000000000000000000000008152600401610aea906111cb565b60405180910390fd5b6000600960016101000a81548160ff021916908315150217905550565b600560009054906101000a900473ffffffffffffffffffffffffffffffffffffffff1673ffffffffffffffffffffffffffffffffffffffff163373ffffffffffffffffffffffffffffffffffffffff1614610ba0576040517f08c379a0000000000000000000000000000000000000000000000000000000008152600401610b97906111cb565b60405180910390fd5b6001600960016101000a81548160ff0219169083151502179055506040518060400160405280601d81526020017f4e6f2076656e7565202d206c756e63682069732063616e63656c6c656400000081525060069080519060200190610c06929190610d3f565b50565b6000806000600190505b6004548111610cf35760006001905060006008600060076000868152602001908152602001600020600101548152602001908152602001600020541115610c8c5760086000600760008581526020019081526020016000206001015481526020019081526020016000205481610c899190611298565b90505b8060086000600760008681526020019081526020016000206001015481526020019081526020016000208190555083811115610cdf57809350600760008381526020019081526020016000206001015492505b508080610ceb9061140c565b915050610c13565b506000808281526020019081526020016000206006908054610d14906113a9565b610d1f929190610e11565b506000600960006101000a81548160ff0219169083151502179055505050565b828054610d4b906113a9565b90600052602060002090601f016020900481019282610d6d5760008555610db4565b82601f10610d8657805160ff1916838001178555610db4565b82800160010185558215610db4579182015b82811115610db3578251825591602001919060010190610d98565b5b509050610dc19190610e9e565b5090565b6040518060400160405280600073ffffffffffffffffffffffffffffffffffffffff168152602001600081525090565b6040518060400160405280606081526020016000151581525090565b828054610e1d906113a9565b90600052602060002090601f016020900481019282610e3f5760008555610e8d565b82601f10610e505780548555610e8d565b82800160010185558215610e8d57600052602060002091601f016020900482015b82811115610e8c578254825591600101919060010190610e71565b5b509050610e9a9190610e9e565b5090565b5b80821115610eb7576000816000905550600101610e9f565b5090565b6000610ece610ec98461124b565b611226565b905082815260208101848484011115610eea57610ee9611516565b5b610ef5848285611367565b509392505050565b600081359050610f0c81611623565b92915050565b600082601f830112610f2757610f26611511565b5b8135610f37848260208601610ebb565b91505092915050565b600081359050610f4f8161163a565b92915050565b600060208284031215610f6b57610f6a611520565b5b6000610f7984828501610efd565b91505092915050565b60008060408385031215610f9957610f98611520565b5b6000610fa785828601610efd565b925050602083013567ffffffffffffffff811115610fc857610fc761151b565b5b610fd485828601610f12565b9150509250929050565b600060208284031215610ff457610ff3611520565b5b600082013567ffffffffffffffff8111156110125761101161151b565b5b61101e84828501610f12565b91505092915050565b60006020828403121561103d5761103c611520565b5b600061104b84828501610f40565b91505092915050565b61105d8161131f565b82525050565b61106c81611331565b82525050565b600061107d8261127c565b6110878185611287565b9350611097818560208601611376565b6110a081611525565b840191505092915050565b60006110b8602483611287565b91506110c382611536565b604082019050919050565b60006110db602383611287565b91506110e682611585565b604082019050919050565b60006110fe603083611287565b9150611109826115d4565b604082019050919050565b61111d8161135d565b82525050565b60006020820190506111386000830184611054565b92915050565b60006020820190506111536000830184611063565b92915050565b600060208201905081810360008301526111738184611072565b905092915050565b600060408201905081810360008301526111958185611072565b90506111a46020830184611063565b9392505050565b600060208201905081810360008301526111c4816110ab565b9050919050565b600060208201905081810360008301526111e4816110ce565b9050919050565b60006020820190508181036000830152611204816110f1565b9050919050565b60006020820190506112206000830184611114565b92915050565b6000611230611241565b905061123c82826113db565b919050565b6000604051905090565b600067ffffffffffffffff821115611266576112656114e2565b5b61126f82611525565b9050602081019050919050565b600081519050919050565b600082825260208201905092915050565b60006112a38261135d565b91506112ae8361135d565b9250827fffffffffffffffffffffffffffffffffffffffffffffffffffffffffffffffff038211156112e3576112e2611455565b5b828201905092915050565b60006112f98261135d565b91506113048361135d565b92508261131457611313611484565b5b828204905092915050565b600061132a8261133d565b9050919050565b60008115159050919050565b600073ffffffffffffffffffffffffffffffffffffffff82169050919050565b6000819050919050565b82818337600083830152505050565b60005b83811015611394578082015181840152602081019050611379565b838111156113a3576000848401525b50505050565b600060028204905060018216806113c157607f821691505b602082108114156113d5576113d46114b3565b5b50919050565b6113e482611525565b810181811067ffffffffffffffff82111715611403576114026114e2565b5b80604052505050565b60006114178261135d565b91507fffffffffffffffffffffffffffffffffffffffffffffffffffffffffffffffff82141561144a57611449611455565b5b600182019050919050565b7f4e487b7100000000000000000000000000000000000000000000000000000000600052601160045260246000fd5b7f4e487b7100000000000000000000000000000000000000000000000000000000600052601260045260246000fd5b7f4e487b7100000000000000000000000000000000000000000000000000000000600052602260045260246000fd5b7f4e487b7100000000000000000000000000000000000000000000000000000000600052604160045260246000fd5b600080fd5b600080fd5b600080fd5b600080fd5b6000601f19601f8301169050919050565b7f43616e20766f7465206f6e6c79207768696c6520766f74696e67206973206f7060008201527f656e202e00000000000000000000000000000000000000000000000000000000602082015250565b7f43616e206f6e6c7920626520657865637574656420627920746865206d616e6160008201527f6765720000000000000000000000000000000000000000000000000000000000602082015250565b7f43616e6e6f7420657865637574652066756e6374696f6e207768696c65206c7560008201527f6e63682069732063616e63656c6c656400000000000000000000000000000000602082015250565b61162c8161131f565b811461163757600080fd5b50565b6116438161135d565b811461164e57600080fd5b5056fea2646970667358221220b0ba577b5236389481f2a1045f817c1bff787e51525c6f5b92b6fa681c06f6f764736f6c63430008070033",
					"opcodes": "PUSH1 0x80 PUSH1 0x40 MSTORE PUSH1 0x0 PUSH1 0x2 SSTORE PUSH1 0x0 PUSH1 0x3 SSTORE PUSH1 0x0 PUSH1 0x4 SSTORE PUSH1 0x40 MLOAD DUP1 PUSH1 0x20 ADD PUSH1 0x40 MSTORE DUP1 PUSH1 0x0 DUP2 MSTORE POP PUSH1 0x6 SWAP1 DUP1 MLOAD SWAP1 PUSH1 0x20 ADD SWAP1 PUSH3 0x3A SWAP3 SWAP2 SWAP1 PUSH3 0xC6 JUMP JUMPDEST POP PUSH1 0x1 PUSH1 0x9 PUSH1 0x0 PUSH2 0x100 EXP DUP2 SLOAD DUP2 PUSH1 0xFF MUL NOT AND SWAP1 DUP4 ISZERO ISZERO MUL OR SWAP1 SSTORE POP PUSH1 0x0 PUSH1 0x9 PUSH1 0x1 PUSH2 0x100 EXP DUP2 SLOAD DUP2 PUSH1 0xFF MUL NOT AND SWAP1 DUP4 ISZERO ISZERO MUL OR SWAP1 SSTORE POP CALLVALUE DUP1 ISZERO PUSH3 0x7E JUMPI PUSH1 0x0 DUP1 REVERT JUMPDEST POP CALLER PUSH1 0x5 PUSH1 0x0 PUSH2 0x100 EXP DUP2 SLOAD DUP2 PUSH20 0xFFFFFFFFFFFFFFFFFFFFFFFFFFFFFFFFFFFFFFFF MUL NOT AND SWAP1 DUP4 PUSH20 0xFFFFFFFFFFFFFFFFFFFFFFFFFFFFFFFFFFFFFFFF AND MUL OR SWAP1 SSTORE POP PUSH3 0x1DB JUMP JUMPDEST DUP3 DUP1 SLOAD PUSH3 0xD4 SWAP1 PUSH3 0x176 JUMP JUMPDEST SWAP1 PUSH1 0x0 MSTORE PUSH1 0x20 PUSH1 0x0 KECCAK256 SWAP1 PUSH1 0x1F ADD PUSH1 0x20 SWAP1 DIV DUP2 ADD SWAP3 DUP3 PUSH3 0xF8 JUMPI PUSH1 0x0 DUP6 SSTORE PUSH3 0x144 JUMP JUMPDEST DUP3 PUSH1 0x1F LT PUSH3 0x113 JUMPI DUP1 MLOAD PUSH1 0xFF NOT AND DUP4 DUP1 ADD OR DUP6 SSTORE PUSH3 0x144 JUMP JUMPDEST DUP3 DUP1 ADD PUSH1 0x1 ADD DUP6 SSTORE DUP3 ISZERO PUSH3 0x144 JUMPI SWAP2 DUP3 ADD JUMPDEST DUP3 DUP2 GT ISZERO PUSH3 0x143 JUMPI DUP3 MLOAD DUP3 SSTORE SWAP2 PUSH1 0x20 ADD SWAP2 SWAP1 PUSH1 0x1 ADD SWAP1 PUSH3 0x126 JUMP JUMPDEST JUMPDEST POP SWAP1 POP PUSH3 0x153 SWAP2 SWAP1 PUSH3 0x157 JUMP JUMPDEST POP SWAP1 JUMP JUMPDEST JUMPDEST DUP1 DUP3 GT ISZERO PUSH3 0x172 JUMPI PUSH1 0x0 DUP2 PUSH1 0x0 SWAP1 SSTORE POP PUSH1 0x1 ADD PUSH3 0x158 JUMP JUMPDEST POP SWAP1 JUMP JUMPDEST PUSH1 0x0 PUSH1 0x2 DUP3 DIV SWAP1 POP PUSH1 0x1 DUP3 AND DUP1 PUSH3 0x18F JUMPI PUSH1 0x7F DUP3 AND SWAP2 POP JUMPDEST PUSH1 0x20 DUP3 LT DUP2 EQ ISZERO PUSH3 0x1A6 JUMPI PUSH3 0x1A5 PUSH3 0x1AC JUMP JUMPDEST JUMPDEST POP SWAP2 SWAP1 POP JUMP JUMPDEST PUSH32 0x4E487B7100000000000000000000000000000000000000000000000000000000 PUSH1 0x0 MSTORE PUSH1 0x22 PUSH1 0x4 MSTORE PUSH1 0x24 PUSH1 0x0 REVERT JUMPDEST PUSH2 0x1687 DUP1 PUSH3 0x1EB PUSH1 0x0 CODECOPY PUSH1 0x0 RETURN INVALID PUSH1 0x80 PUSH1 0x40 MSTORE CALLVALUE DUP1 ISZERO PUSH2 0x10 JUMPI PUSH1 0x0 DUP1 REVERT JUMPDEST POP PUSH1 0x4 CALLDATASIZE LT PUSH2 0xCF JUMPI PUSH1 0x0 CALLDATALOAD PUSH1 0xE0 SHR DUP1 PUSH4 0x3B9F708D GT PUSH2 0x8C JUMPI DUP1 PUSH4 0xA3BEF4D7 GT PUSH2 0x66 JUMPI DUP1 PUSH4 0xA3BEF4D7 EQ PUSH2 0x23D JUMPI DUP1 PUSH4 0xAFFC0670 EQ PUSH2 0x25B JUMPI DUP1 PUSH4 0xD4AD644E EQ PUSH2 0x265 JUMPI DUP1 PUSH4 0xE2393021 EQ PUSH2 0x26F JUMPI PUSH2 0xCF JUMP JUMPDEST DUP1 PUSH4 0x3B9F708D EQ PUSH2 0x1D1 JUMPI DUP1 PUSH4 0x47098F36 EQ PUSH2 0x201 JUMPI DUP1 PUSH4 0x481C6A75 EQ PUSH2 0x21F JUMPI PUSH2 0xCF JUMP JUMPDEST DUP1 PUSH4 0x2DAF12F EQ PUSH2 0xD4 JUMPI DUP1 PUSH4 0x2EE93C8 EQ PUSH2 0x104 JUMPI DUP1 PUSH4 0x843D16D EQ PUSH2 0x134 JUMPI DUP1 PUSH4 0x124258C6 EQ PUSH2 0x152 JUMPI DUP1 PUSH4 0x1635B5D3 EQ PUSH2 0x182 JUMPI DUP1 PUSH4 0x1DDABF7A EQ PUSH2 0x1A0 JUMPI JUMPDEST PUSH1 0x0 DUP1 REVERT JUMPDEST PUSH2 0xEE PUSH1 0x4 DUP1 CALLDATASIZE SUB DUP2 ADD SWAP1 PUSH2 0xE9 SWAP2 SWAP1 PUSH2 0x1027 JUMP JUMPDEST PUSH2 0x279 JUMP JUMPDEST PUSH1 0x40 MLOAD PUSH2 0xFB SWAP2 SWAP1 PUSH2 0x1159 JUMP JUMPDEST PUSH1 0x40 MLOAD DUP1 SWAP2 SUB SWAP1 RETURN JUMPDEST PUSH2 0x11E PUSH1 0x4 DUP1 CALLDATASIZE SUB DUP2 ADD SWAP1 PUSH2 0x119 SWAP2 SWAP1 PUSH2 0xFDE JUMP JUMPDEST PUSH2 0x319 JUMP JUMPDEST PUSH1 0x40 MLOAD PUSH2 0x12B SWAP2 SWAP1 PUSH2 0x120B JUMP JUMPDEST PUSH1 0x40 MLOAD DUP1 SWAP2 SUB SWAP1 RETURN JUMPDEST PUSH2 0x13C PUSH2 0x3F6 JUMP JUMPDEST PUSH1 0x40 MLOAD PUSH2 0x149 SWAP2 SWAP1 PUSH2 0x120B JUMP JUMPDEST PUSH1 0x40 MLOAD DUP1 SWAP2 SUB SWAP1 RETURN JUMPDEST PUSH2 0x16C PUSH1 0x4 DUP1 CALLDATASIZE SUB DUP2 ADD SWAP1 PUSH2 0x167 SWAP2 SWAP1 PUSH2 0x1027 JUMP JUMPDEST PUSH2 0x3FC JUMP JUMPDEST PUSH1 0x40 MLOAD PUSH2 0x179 SWAP2 SWAP1 PUSH2 0x113E JUMP JUMPDEST PUSH1 0x40 MLOAD DUP1 SWAP2 SUB SWAP1 RETURN JUMPDEST PUSH2 0x18A PUSH2 0x6E5 JUMP JUMPDEST PUSH1 0x40 MLOAD PUSH2 0x197 SWAP2 SWAP1 PUSH2 0x1159 JUMP JUMPDEST PUSH1 0x40 MLOAD DUP1 SWAP2 SUB SWAP1 RETURN JUMPDEST PUSH2 0x1BA PUSH1 0x4 DUP1 CALLDATASIZE SUB DUP2 ADD SWAP1 PUSH2 0x1B5 SWAP2 SWAP1 PUSH2 0xF55 JUMP JUMPDEST PUSH2 0x773 JUMP JUMPDEST PUSH1 0x40 MLOAD PUSH2 0x1C8 SWAP3 SWAP2 SWAP1 PUSH2 0x117B JUMP JUMPDEST PUSH1 0x40 MLOAD DUP1 SWAP2 SUB SWAP1 RETURN JUMPDEST PUSH2 0x1EB PUSH1 0x4 DUP1 CALLDATASIZE SUB DUP2 ADD SWAP1 PUSH2 0x1E6 SWAP2 SWAP1 PUSH2 0xF82 JUMP JUMPDEST PUSH2 0x82C JUMP JUMPDEST PUSH1 0x40 MLOAD PUSH2 0x1F8 SWAP2 SWAP1 PUSH2 0x120B JUMP JUMPDEST PUSH1 0x40 MLOAD DUP1 SWAP2 SUB SWAP1 RETURN JUMPDEST PUSH2 0x209 PUSH2 0x984 JUMP JUMPDEST PUSH1 0x40 MLOAD PUSH2 0x216 SWAP2 SWAP1 PUSH2 0x120B JUMP JUMPDEST PUSH1 0x40 MLOAD DUP1 SWAP2 SUB SWAP1 RETURN JUMPDEST PUSH2 0x227 PUSH2 0x98A JUMP JUMPDEST PUSH1 0x40 MLOAD PUSH2 0x234 SWAP2 SWAP1 PUSH2 0x1123 JUMP JUMPDEST PUSH1 0x40 MLOAD DUP1 SWAP2 SUB SWAP1 RETURN JUMPDEST PUSH2 0x245 PUSH2 0x9B0 JUMP JUMPDEST PUSH1 0x40 MLOAD PUSH2 0x252 SWAP2 SWAP1 PUSH2 0x120B JUMP JUMPDEST PUSH1 0x40 MLOAD DUP1 SWAP2 SUB SWAP1 RETURN JUMPDEST PUSH2 0x263 PUSH2 0x9B6 JUMP JUMPDEST STOP JUMPDEST PUSH2 0x26D PUSH2 0xA63 JUMP JUMPDEST STOP JUMPDEST PUSH2 0x277 PUSH2 0xB10 JUMP JUMPDEST STOP JUMPDEST PUSH1 0x0 PUSH1 0x20 MSTORE DUP1 PUSH1 0x0 MSTORE PUSH1 0x40 PUSH1 0x0 KECCAK256 PUSH1 0x0 SWAP2 POP SWAP1 POP DUP1 SLOAD PUSH2 0x298 SWAP1 PUSH2 0x13A9 JUMP JUMPDEST DUP1 PUSH1 0x1F ADD PUSH1 0x20 DUP1 SWAP2 DIV MUL PUSH1 0x20 ADD PUSH1 0x40 MLOAD SWAP1 DUP2 ADD PUSH1 0x40 MSTORE DUP1 SWAP3 SWAP2 SWAP1 DUP2 DUP2 MSTORE PUSH1 0x20 ADD DUP3 DUP1 SLOAD PUSH2 0x2C4 SWAP1 PUSH2 0x13A9 JUMP JUMPDEST DUP1 ISZERO PUSH2 0x311 JUMPI DUP1 PUSH1 0x1F LT PUSH2 0x2E6 JUMPI PUSH2 0x100 DUP1 DUP4 SLOAD DIV MUL DUP4 MSTORE SWAP2 PUSH1 0x20 ADD SWAP2 PUSH2 0x311 JUMP JUMPDEST DUP3 ADD SWAP2 SWAP1 PUSH1 0x0 MSTORE PUSH1 0x20 PUSH1 0x0 KECCAK256 SWAP1 JUMPDEST DUP2 SLOAD DUP2 MSTORE SWAP1 PUSH1 0x1 ADD SWAP1 PUSH1 0x20 ADD DUP1 DUP4 GT PUSH2 0x2F4 JUMPI DUP3 SWAP1 SUB PUSH1 0x1F AND DUP3 ADD SWAP2 JUMPDEST POP POP POP POP POP DUP2 JUMP JUMPDEST PUSH1 0x0 PUSH1 0x5 PUSH1 0x0 SWAP1 SLOAD SWAP1 PUSH2 0x100 EXP SWAP1 DIV PUSH20 0xFFFFFFFFFFFFFFFFFFFFFFFFFFFFFFFFFFFFFFFF AND PUSH20 0xFFFFFFFFFFFFFFFFFFFFFFFFFFFFFFFFFFFFFFFF AND CALLER PUSH20 0xFFFFFFFFFFFFFFFFFFFFFFFFFFFFFFFFFFFFFFFF AND EQ PUSH2 0x3AB JUMPI PUSH1 0x40 MLOAD PUSH32 0x8C379A000000000000000000000000000000000000000000000000000000000 DUP2 MSTORE PUSH1 0x4 ADD PUSH2 0x3A2 SWAP1 PUSH2 0x11CB JUMP JUMPDEST PUSH1 0x40 MLOAD DUP1 SWAP2 SUB SWAP1 REVERT JUMPDEST PUSH1 0x2 PUSH1 0x0 DUP2 SLOAD DUP1 SWAP3 SWAP2 SWAP1 PUSH2 0x3BE SWAP1 PUSH2 0x140C JUMP JUMPDEST SWAP2 SWAP1 POP SSTORE POP DUP2 PUSH1 0x0 DUP1 PUSH1 0x2 SLOAD DUP2 MSTORE PUSH1 0x20 ADD SWAP1 DUP2 MSTORE PUSH1 0x20 ADD PUSH1 0x0 KECCAK256 SWAP1 DUP1 MLOAD SWAP1 PUSH1 0x20 ADD SWAP1 PUSH2 0x3EB SWAP3 SWAP2 SWAP1 PUSH2 0xD3F JUMP JUMPDEST POP PUSH1 0x2 SLOAD SWAP1 POP SWAP2 SWAP1 POP JUMP JUMPDEST PUSH1 0x2 SLOAD DUP2 JUMP JUMPDEST PUSH1 0x0 PUSH1 0x1 ISZERO ISZERO PUSH1 0x9 PUSH1 0x0 SWAP1 SLOAD SWAP1 PUSH2 0x100 EXP SWAP1 DIV PUSH1 0xFF AND ISZERO ISZERO EQ PUSH2 0x454 JUMPI PUSH1 0x40 MLOAD PUSH32 0x8C379A000000000000000000000000000000000000000000000000000000000 DUP2 MSTORE PUSH1 0x4 ADD PUSH2 0x44B SWAP1 PUSH2 0x11AB JUMP JUMPDEST PUSH1 0x40 MLOAD DUP1 SWAP2 SUB SWAP1 REVERT JUMPDEST PUSH1 0x0 ISZERO ISZERO PUSH1 0x9 PUSH1 0x1 SWAP1 SLOAD SWAP1 PUSH2 0x100 EXP SWAP1 DIV PUSH1 0xFF AND ISZERO ISZERO EQ PUSH2 0x4AA JUMPI PUSH1 0x40 MLOAD PUSH32 0x8C379A000000000000000000000000000000000000000000000000000000000 DUP2 MSTORE PUSH1 0x4 ADD PUSH2 0x4A1 SWAP1 PUSH2 0x11EB JUMP JUMPDEST PUSH1 0x40 MLOAD DUP1 SWAP2 SUB SWAP1 REVERT JUMPDEST PUSH1 0x0 SWAP1 POP PUSH1 0x0 PUSH1 0x1 PUSH1 0x0 CALLER PUSH20 0xFFFFFFFFFFFFFFFFFFFFFFFFFFFFFFFFFFFFFFFF AND PUSH20 0xFFFFFFFFFFFFFFFFFFFFFFFFFFFFFFFFFFFFFFFF AND DUP2 MSTORE PUSH1 0x20 ADD SWAP1 DUP2 MSTORE PUSH1 0x20 ADD PUSH1 0x0 KECCAK256 PUSH1 0x0 ADD DUP1 SLOAD PUSH2 0x4FD SWAP1 PUSH2 0x13A9 JUMP JUMPDEST SWAP1 POP EQ PUSH2 0x6B4 JUMPI PUSH1 0x1 ISZERO ISZERO PUSH1 0x1 PUSH1 0x0 CALLER PUSH20 0xFFFFFFFFFFFFFFFFFFFFFFFFFFFFFFFFFFFFFFFF AND PUSH20 0xFFFFFFFFFFFFFFFFFFFFFFFFFFFFFFFFFFFFFFFF AND DUP2 MSTORE PUSH1 0x20 ADD SWAP1 DUP2 MSTORE PUSH1 0x20 ADD PUSH1 0x0 KECCAK256 PUSH1 0x1 ADD PUSH1 0x0 SWAP1 SLOAD SWAP1 PUSH2 0x100 EXP SWAP1 DIV PUSH1 0xFF AND ISZERO ISZERO EQ ISZERO PUSH2 0x6B3 JUMPI PUSH1 0x0 DUP1 PUSH1 0x0 DUP5 DUP2 MSTORE PUSH1 0x20 ADD SWAP1 DUP2 MSTORE PUSH1 0x20 ADD PUSH1 0x0 KECCAK256 DUP1 SLOAD PUSH2 0x57F SWAP1 PUSH2 0x13A9 JUMP JUMPDEST SWAP1 POP EQ PUSH2 0x6B2 JUMPI PUSH1 0x1 SWAP1 POP PUSH1 0x1 DUP1 PUSH1 0x0 CALLER PUSH20 0xFFFFFFFFFFFFFFFFFFFFFFFFFFFFFFFFFFFFFFFF AND PUSH20 0xFFFFFFFFFFFFFFFFFFFFFFFFFFFFFFFFFFFFFFFF AND DUP2 MSTORE PUSH1 0x20 ADD SWAP1 DUP2 MSTORE PUSH1 0x20 ADD PUSH1 0x0 KECCAK256 PUSH1 0x1 ADD PUSH1 0x0 PUSH2 0x100 EXP DUP2 SLOAD DUP2 PUSH1 0xFF MUL NOT AND SWAP1 DUP4 ISZERO ISZERO MUL OR SWAP1 SSTORE POP PUSH2 0x5EC PUSH2 0xDC5 JUMP JUMPDEST CALLER DUP2 PUSH1 0x0 ADD SWAP1 PUSH20 0xFFFFFFFFFFFFFFFFFFFFFFFFFFFFFFFFFFFFFFFF AND SWAP1 DUP2 PUSH20 0xFFFFFFFFFFFFFFFFFFFFFFFFFFFFFFFFFFFFFFFF AND DUP2 MSTORE POP POP DUP3 DUP2 PUSH1 0x20 ADD DUP2 DUP2 MSTORE POP POP PUSH1 0x4 PUSH1 0x0 DUP2 SLOAD DUP1 SWAP3 SWAP2 SWAP1 PUSH2 0x641 SWAP1 PUSH2 0x140C JUMP JUMPDEST SWAP2 SWAP1 POP SSTORE POP DUP1 PUSH1 0x7 PUSH1 0x0 PUSH1 0x4 SLOAD DUP2 MSTORE PUSH1 0x20 ADD SWAP1 DUP2 MSTORE PUSH1 0x20 ADD PUSH1 0x0 KECCAK256 PUSH1 0x0 DUP3 ADD MLOAD DUP2 PUSH1 0x0 ADD PUSH1 0x0 PUSH2 0x100 EXP DUP2 SLOAD DUP2 PUSH20 0xFFFFFFFFFFFFFFFFFFFFFFFFFFFFFFFFFFFFFFFF MUL NOT AND SWAP1 DUP4 PUSH20 0xFFFFFFFFFFFFFFFFFFFFFFFFFFFFFFFFFFFFFFFF AND MUL OR SWAP1 SSTORE POP PUSH1 0x20 DUP3 ADD MLOAD DUP2 PUSH1 0x1 ADD SSTORE SWAP1 POP POP POP JUMPDEST JUMPDEST JUMPDEST PUSH1 0x1 PUSH1 0x2 PUSH1 0x3 SLOAD PUSH2 0x6C5 SWAP2 SWAP1 PUSH2 0x12EE JUMP JUMPDEST PUSH2 0x6CF SWAP2 SWAP1 PUSH2 0x1298 JUMP JUMPDEST PUSH1 0x4 SLOAD LT PUSH2 0x6E0 JUMPI PUSH2 0x6DF PUSH2 0xC09 JUMP JUMPDEST JUMPDEST SWAP2 SWAP1 POP JUMP JUMPDEST PUSH1 0x6 DUP1 SLOAD PUSH2 0x6F2 SWAP1 PUSH2 0x13A9 JUMP JUMPDEST DUP1 PUSH1 0x1F ADD PUSH1 0x20 DUP1 SWAP2 DIV MUL PUSH1 0x20 ADD PUSH1 0x40 MLOAD SWAP1 DUP2 ADD PUSH1 0x40 MSTORE DUP1 SWAP3 SWAP2 SWAP1 DUP2 DUP2 MSTORE PUSH1 0x20 ADD DUP3 DUP1 SLOAD PUSH2 0x71E SWAP1 PUSH2 0x13A9 JUMP JUMPDEST DUP1 ISZERO PUSH2 0x76B JUMPI DUP1 PUSH1 0x1F LT PUSH2 0x740 JUMPI PUSH2 0x100 DUP1 DUP4 SLOAD DIV MUL DUP4 MSTORE SWAP2 PUSH1 0x20 ADD SWAP2 PUSH2 0x76B JUMP JUMPDEST DUP3 ADD SWAP2 SWAP1 PUSH1 0x0 MSTORE PUSH1 0x20 PUSH1 0x0 KECCAK256 SWAP1 JUMPDEST DUP2 SLOAD DUP2 MSTORE SWAP1 PUSH1 0x1 ADD SWAP1 PUSH1 0x20 ADD DUP1 DUP4 GT PUSH2 0x74E JUMPI DUP3 SWAP1 SUB PUSH1 0x1F AND DUP3 ADD SWAP2 JUMPDEST POP POP POP POP POP DUP2 JUMP JUMPDEST PUSH1 0x1 PUSH1 0x20 MSTORE DUP1 PUSH1 0x0 MSTORE PUSH1 0x40 PUSH1 0x0 KECCAK256 PUSH1 0x0 SWAP2 POP SWAP1 POP DUP1 PUSH1 0x0 ADD DUP1 SLOAD PUSH2 0x796 SWAP1 PUSH2 0x13A9 JUMP JUMPDEST DUP1 PUSH1 0x1F ADD PUSH1 0x20 DUP1 SWAP2 DIV MUL PUSH1 0x20 ADD PUSH1 0x40 MLOAD SWAP1 DUP2 ADD PUSH1 0x40 MSTORE DUP1 SWAP3 SWAP2 SWAP1 DUP2 DUP2 MSTORE PUSH1 0x20 ADD DUP3 DUP1 SLOAD PUSH2 0x7C2 SWAP1 PUSH2 0x13A9 JUMP JUMPDEST DUP1 ISZERO PUSH2 0x80F JUMPI DUP1 PUSH1 0x1F LT PUSH2 0x7E4 JUMPI PUSH2 0x100 DUP1 DUP4 SLOAD DIV MUL DUP4 MSTORE SWAP2 PUSH1 0x20 ADD SWAP2 PUSH2 0x80F JUMP JUMPDEST DUP3 ADD SWAP2 SWAP1 PUSH1 0x0 MSTORE PUSH1 0x20 PUSH1 0x0 KECCAK256 SWAP1 JUMPDEST DUP2 SLOAD DUP2 MSTORE SWAP1 PUSH1 0x1 ADD SWAP1 PUSH1 0x20 ADD DUP1 DUP4 GT PUSH2 0x7F2 JUMPI DUP3 SWAP1 SUB PUSH1 0x1F AND DUP3 ADD SWAP2 JUMPDEST POP POP POP POP POP SWAP1 DUP1 PUSH1 0x1 ADD PUSH1 0x0 SWAP1 SLOAD SWAP1 PUSH2 0x100 EXP SWAP1 DIV PUSH1 0xFF AND SWAP1 POP DUP3 JUMP JUMPDEST PUSH1 0x0 PUSH1 0x5 PUSH1 0x0 SWAP1 SLOAD SWAP1 PUSH2 0x100 EXP SWAP1 DIV PUSH20 0xFFFFFFFFFFFFFFFFFFFFFFFFFFFFFFFFFFFFFFFF AND PUSH20 0xFFFFFFFFFFFFFFFFFFFFFFFFFFFFFFFFFFFFFFFF AND CALLER PUSH20 0xFFFFFFFFFFFFFFFFFFFFFFFFFFFFFFFFFFFFFFFF AND EQ PUSH2 0x8BE JUMPI PUSH1 0x40 MLOAD PUSH32 0x8C379A000000000000000000000000000000000000000000000000000000000 DUP2 MSTORE PUSH1 0x4 ADD PUSH2 0x8B5 SWAP1 PUSH2 0x11CB JUMP JUMPDEST PUSH1 0x40 MLOAD DUP1 SWAP2 SUB SWAP1 REVERT JUMPDEST PUSH2 0x8C6 PUSH2 0xDF5 JUMP JUMPDEST DUP3 DUP2 PUSH1 0x0 ADD DUP2 SWAP1 MSTORE POP PUSH1 0x0 DUP2 PUSH1 0x20 ADD SWAP1 ISZERO ISZERO SWAP1 DUP2 ISZERO ISZERO DUP2 MSTORE POP POP DUP1 PUSH1 0x1 PUSH1 0x0 DUP7 PUSH20 0xFFFFFFFFFFFFFFFFFFFFFFFFFFFFFFFFFFFFFFFF AND PUSH20 0xFFFFFFFFFFFFFFFFFFFFFFFFFFFFFFFFFFFFFFFF AND DUP2 MSTORE PUSH1 0x20 ADD SWAP1 DUP2 MSTORE PUSH1 0x20 ADD PUSH1 0x0 KECCAK256 PUSH1 0x0 DUP3 ADD MLOAD DUP2 PUSH1 0x0 ADD SWAP1 DUP1 MLOAD SWAP1 PUSH1 0x20 ADD SWAP1 PUSH2 0x93C SWAP3 SWAP2 SWAP1 PUSH2 0xD3F JUMP JUMPDEST POP PUSH1 0x20 DUP3 ADD MLOAD DUP2 PUSH1 0x1 ADD PUSH1 0x0 PUSH2 0x100 EXP DUP2 SLOAD DUP2 PUSH1 0xFF MUL NOT AND SWAP1 DUP4 ISZERO ISZERO MUL OR SWAP1 SSTORE POP SWAP1 POP POP PUSH1 0x3 PUSH1 0x0 DUP2 SLOAD DUP1 SWAP3 SWAP2 SWAP1 PUSH2 0x973 SWAP1 PUSH2 0x140C JUMP JUMPDEST SWAP2 SWAP1 POP SSTORE POP PUSH1 0x3 SLOAD SWAP2 POP POP SWAP3 SWAP2 POP POP JUMP JUMPDEST PUSH1 0x3 SLOAD DUP2 JUMP JUMPDEST PUSH1 0x5 PUSH1 0x0 SWAP1 SLOAD SWAP1 PUSH2 0x100 EXP SWAP1 DIV PUSH20 0xFFFFFFFFFFFFFFFFFFFFFFFFFFFFFFFFFFFFFFFF AND DUP2 JUMP JUMPDEST PUSH1 0x4 SLOAD DUP2 JUMP JUMPDEST PUSH1 0x5 PUSH1 0x0 SWAP1 SLOAD SWAP1 PUSH2 0x100 EXP SWAP1 DIV PUSH20 0xFFFFFFFFFFFFFFFFFFFFFFFFFFFFFFFFFFFFFFFF AND PUSH20 0xFFFFFFFFFFFFFFFFFFFFFFFFFFFFFFFFFFFFFFFF AND CALLER PUSH20 0xFFFFFFFFFFFFFFFFFFFFFFFFFFFFFFFFFFFFFFFF AND EQ PUSH2 0xA46 JUMPI PUSH1 0x40 MLOAD PUSH32 0x8C379A000000000000000000000000000000000000000000000000000000000 DUP2 MSTORE PUSH1 0x4 ADD PUSH2 0xA3D SWAP1 PUSH2 0x11CB JUMP JUMPDEST PUSH1 0x40 MLOAD DUP1 SWAP2 SUB SWAP1 REVERT JUMPDEST PUSH1 0x1 PUSH1 0x9 PUSH1 0x0 PUSH2 0x100 EXP DUP2 SLOAD DUP2 PUSH1 0xFF MUL NOT AND SWAP1 DUP4 ISZERO ISZERO MUL OR SWAP1 SSTORE POP JUMP JUMPDEST PUSH1 0x5 PUSH1 0x0 SWAP1 SLOAD SWAP1 PUSH2 0x100 EXP SWAP1 DIV PUSH20 0xFFFFFFFFFFFFFFFFFFFFFFFFFFFFFFFFFFFFFFFF AND PUSH20 0xFFFFFFFFFFFFFFFFFFFFFFFFFFFFFFFFFFFFFFFF AND CALLER PUSH20 0xFFFFFFFFFFFFFFFFFFFFFFFFFFFFFFFFFFFFFFFF AND EQ PUSH2 0xAF3 JUMPI PUSH1 0x40 MLOAD PUSH32 0x8C379A000000000000000000000000000000000000000000000000000000000 DUP2 MSTORE PUSH1 0x4 ADD PUSH2 0xAEA SWAP1 PUSH2 0x11CB JUMP JUMPDEST PUSH1 0x40 MLOAD DUP1 SWAP2 SUB SWAP1 REVERT JUMPDEST PUSH1 0x0 PUSH1 0x9 PUSH1 0x1 PUSH2 0x100 EXP DUP2 SLOAD DUP2 PUSH1 0xFF MUL NOT AND SWAP1 DUP4 ISZERO ISZERO MUL OR SWAP1 SSTORE POP JUMP JUMPDEST PUSH1 0x5 PUSH1 0x0 SWAP1 SLOAD SWAP1 PUSH2 0x100 EXP SWAP1 DIV PUSH20 0xFFFFFFFFFFFFFFFFFFFFFFFFFFFFFFFFFFFFFFFF AND PUSH20 0xFFFFFFFFFFFFFFFFFFFFFFFFFFFFFFFFFFFFFFFF AND CALLER PUSH20 0xFFFFFFFFFFFFFFFFFFFFFFFFFFFFFFFFFFFFFFFF AND EQ PUSH2 0xBA0 JUMPI PUSH1 0x40 MLOAD PUSH32 0x8C379A000000000000000000000000000000000000000000000000000000000 DUP2 MSTORE PUSH1 0x4 ADD PUSH2 0xB97 SWAP1 PUSH2 0x11CB JUMP JUMPDEST PUSH1 0x40 MLOAD DUP1 SWAP2 SUB SWAP1 REVERT JUMPDEST PUSH1 0x1 PUSH1 0x9 PUSH1 0x1 PUSH2 0x100 EXP DUP2 SLOAD DUP2 PUSH1 0xFF MUL NOT AND SWAP1 DUP4 ISZERO ISZERO MUL OR SWAP1 SSTORE POP PUSH1 0x40 MLOAD DUP1 PUSH1 0x40 ADD PUSH1 0x40 MSTORE DUP1 PUSH1 0x1D DUP2 MSTORE PUSH1 0x20 ADD PUSH32 0x4E6F2076656E7565202D206C756E63682069732063616E63656C6C6564000000 DUP2 MSTORE POP PUSH1 0x6 SWAP1 DUP1 MLOAD SWAP1 PUSH1 0x20 ADD SWAP1 PUSH2 0xC06 SWAP3 SWAP2 SWAP1 PUSH2 0xD3F JUMP JUMPDEST POP JUMP JUMPDEST PUSH1 0x0 DUP1 PUSH1 0x0 PUSH1 0x1 SWAP1 POP JUMPDEST PUSH1 0x4 SLOAD DUP2 GT PUSH2 0xCF3 JUMPI PUSH1 0x0 PUSH1 0x1 SWAP1 POP PUSH1 0x0 PUSH1 0x8 PUSH1 0x0 PUSH1 0x7 PUSH1 0x0 DUP7 DUP2 MSTORE PUSH1 0x20 ADD SWAP1 DUP2 MSTORE PUSH1 0x20 ADD PUSH1 0x0 KECCAK256 PUSH1 0x1 ADD SLOAD DUP2 MSTORE PUSH1 0x20 ADD SWAP1 DUP2 MSTORE PUSH1 0x20 ADD PUSH1 0x0 KECCAK256 SLOAD GT ISZERO PUSH2 0xC8C JUMPI PUSH1 0x8 PUSH1 0x0 PUSH1 0x7 PUSH1 0x0 DUP6 DUP2 MSTORE PUSH1 0x20 ADD SWAP1 DUP2 MSTORE PUSH1 0x20 ADD PUSH1 0x0 KECCAK256 PUSH1 0x1 ADD SLOAD DUP2 MSTORE PUSH1 0x20 ADD SWAP1 DUP2 MSTORE PUSH1 0x20 ADD PUSH1 0x0 KECCAK256 SLOAD DUP2 PUSH2 0xC89 SWAP2 SWAP1 PUSH2 0x1298 JUMP JUMPDEST SWAP1 POP JUMPDEST DUP1 PUSH1 0x8 PUSH1 0x0 PUSH1 0x7 PUSH1 0x0 DUP7 DUP2 MSTORE PUSH1 0x20 ADD SWAP1 DUP2 MSTORE PUSH1 0x20 ADD PUSH1 0x0 KECCAK256 PUSH1 0x1 ADD SLOAD DUP2 MSTORE PUSH1 0x20 ADD SWAP1 DUP2 MSTORE PUSH1 0x20 ADD PUSH1 0x0 KECCAK256 DUP2 SWAP1 SSTORE POP DUP4 DUP2 GT ISZERO PUSH2 0xCDF JUMPI DUP1 SWAP4 POP PUSH1 0x7 PUSH1 0x0 DUP4 DUP2 MSTORE PUSH1 0x20 ADD SWAP1 DUP2 MSTORE PUSH1 0x20 ADD PUSH1 0x0 KECCAK256 PUSH1 0x1 ADD SLOAD SWAP3 POP JUMPDEST POP DUP1 DUP1 PUSH2 0xCEB SWAP1 PUSH2 0x140C JUMP JUMPDEST SWAP2 POP POP PUSH2 0xC13 JUMP JUMPDEST POP PUSH1 0x0 DUP1 DUP3 DUP2 MSTORE PUSH1 0x20 ADD SWAP1 DUP2 MSTORE PUSH1 0x20 ADD PUSH1 0x0 KECCAK256 PUSH1 0x6 SWAP1 DUP1 SLOAD PUSH2 0xD14 SWAP1 PUSH2 0x13A9 JUMP JUMPDEST PUSH2 0xD1F SWAP3 SWAP2 SWAP1 PUSH2 0xE11 JUMP JUMPDEST POP PUSH1 0x0 PUSH1 0x9 PUSH1 0x0 PUSH2 0x100 EXP DUP2 SLOAD DUP2 PUSH1 0xFF MUL NOT AND SWAP1 DUP4 ISZERO ISZERO MUL OR SWAP1 SSTORE POP POP POP JUMP JUMPDEST DUP3 DUP1 SLOAD PUSH2 0xD4B SWAP1 PUSH2 0x13A9 JUMP JUMPDEST SWAP1 PUSH1 0x0 MSTORE PUSH1 0x20 PUSH1 0x0 KECCAK256 SWAP1 PUSH1 0x1F ADD PUSH1 0x20 SWAP1 DIV DUP2 ADD SWAP3 DUP3 PUSH2 0xD6D JUMPI PUSH1 0x0 DUP6 SSTORE PUSH2 0xDB4 JUMP JUMPDEST DUP3 PUSH1 0x1F LT PUSH2 0xD86 JUMPI DUP1 MLOAD PUSH1 0xFF NOT AND DUP4 DUP1 ADD OR DUP6 SSTORE PUSH2 0xDB4 JUMP JUMPDEST DUP3 DUP1 ADD PUSH1 0x1 ADD DUP6 SSTORE DUP3 ISZERO PUSH2 0xDB4 JUMPI SWAP2 DUP3 ADD JUMPDEST DUP3 DUP2 GT ISZERO PUSH2 0xDB3 JUMPI DUP3 MLOAD DUP3 SSTORE SWAP2 PUSH1 0x20 ADD SWAP2 SWAP1 PUSH1 0x1 ADD SWAP1 PUSH2 0xD98 JUMP JUMPDEST JUMPDEST POP SWAP1 POP PUSH2 0xDC1 SWAP2 SWAP1 PUSH2 0xE9E JUMP JUMPDEST POP SWAP1 JUMP JUMPDEST PUSH1 0x40 MLOAD DUP1 PUSH1 0x40 ADD PUSH1 0x40 MSTORE DUP1 PUSH1 0x0 PUSH20 0xFFFFFFFFFFFFFFFFFFFFFFFFFFFFFFFFFFFFFFFF AND DUP2 MSTORE PUSH1 0x20 ADD PUSH1 0x0 DUP2 MSTORE POP SWAP1 JUMP JUMPDEST PUSH1 0x40 MLOAD DUP1 PUSH1 0x40 ADD PUSH1 0x40 MSTORE DUP1 PUSH1 0x60 DUP2 MSTORE PUSH1 0x20 ADD PUSH1 0x0 ISZERO ISZERO DUP2 MSTORE POP SWAP1 JUMP JUMPDEST DUP3 DUP1 SLOAD PUSH2 0xE1D SWAP1 PUSH2 0x13A9 JUMP JUMPDEST SWAP1 PUSH1 0x0 MSTORE PUSH1 0x20 PUSH1 0x0 KECCAK256 SWAP1 PUSH1 0x1F ADD PUSH1 0x20 SWAP1 DIV DUP2 ADD SWAP3 DUP3 PUSH2 0xE3F JUMPI PUSH1 0x0 DUP6 SSTORE PUSH2 0xE8D JUMP JUMPDEST DUP3 PUSH1 0x1F LT PUSH2 0xE50 JUMPI DUP1 SLOAD DUP6 SSTORE PUSH2 0xE8D JUMP JUMPDEST DUP3 DUP1 ADD PUSH1 0x1 ADD DUP6 SSTORE DUP3 ISZERO PUSH2 0xE8D JUMPI PUSH1 0x0 MSTORE PUSH1 0x20 PUSH1 0x0 KECCAK256 SWAP2 PUSH1 0x1F ADD PUSH1 0x20 SWAP1 DIV DUP3 ADD JUMPDEST DUP3 DUP2 GT ISZERO PUSH2 0xE8C JUMPI DUP3 SLOAD DUP3 SSTORE SWAP2 PUSH1 0x1 ADD SWAP2 SWAP1 PUSH1 0x1 ADD SWAP1 PUSH2 0xE71 JUMP JUMPDEST JUMPDEST POP SWAP1 POP PUSH2 0xE9A SWAP2 SWAP1 PUSH2 0xE9E JUMP JUMPDEST POP SWAP1 JUMP JUMPDEST JUMPDEST DUP1 DUP3 GT ISZERO PUSH2 0xEB7 JUMPI PUSH1 0x0 DUP2 PUSH1 0x0 SWAP1 SSTORE POP PUSH1 0x1 ADD PUSH2 0xE9F JUMP JUMPDEST POP SWAP1 JUMP JUMPDEST PUSH1 0x0 PUSH2 0xECE PUSH2 0xEC9 DUP5 PUSH2 0x124B JUMP JUMPDEST PUSH2 0x1226 JUMP JUMPDEST SWAP1 POP DUP3 DUP2 MSTORE PUSH1 0x20 DUP2 ADD DUP5 DUP5 DUP5 ADD GT ISZERO PUSH2 0xEEA JUMPI PUSH2 0xEE9 PUSH2 0x1516 JUMP JUMPDEST JUMPDEST PUSH2 0xEF5 DUP5 DUP3 DUP6 PUSH2 0x1367 JUMP JUMPDEST POP SWAP4 SWAP3 POP POP POP JUMP JUMPDEST PUSH1 0x0 DUP2 CALLDATALOAD SWAP1 POP PUSH2 0xF0C DUP2 PUSH2 0x1623 JUMP JUMPDEST SWAP3 SWAP2 POP POP JUMP JUMPDEST PUSH1 0x0 DUP3 PUSH1 0x1F DUP4 ADD SLT PUSH2 0xF27 JUMPI PUSH2 0xF26 PUSH2 0x1511 JUMP JUMPDEST JUMPDEST DUP2 CALLDATALOAD PUSH2 0xF37 DUP5 DUP3 PUSH1 0x20 DUP7 ADD PUSH2 0xEBB JUMP JUMPDEST SWAP2 POP POP SWAP3 SWAP2 POP POP JUMP JUMPDEST PUSH1 0x0 DUP2 CALLDATALOAD SWAP1 POP PUSH2 0xF4F DUP2 PUSH2 0x163A JUMP JUMPDEST SWAP3 SWAP2 POP POP JUMP JUMPDEST PUSH1 0x0 PUSH1 0x20 DUP3 DUP5 SUB SLT ISZERO PUSH2 0xF6B JUMPI PUSH2 0xF6A PUSH2 0x1520 JUMP JUMPDEST JUMPDEST PUSH1 0x0 PUSH2 0xF79 DUP5 DUP3 DUP6 ADD PUSH2 0xEFD JUMP JUMPDEST SWAP2 POP POP SWAP3 SWAP2 POP POP JUMP JUMPDEST PUSH1 0x0 DUP1 PUSH1 0x40 DUP4 DUP6 SUB SLT ISZERO PUSH2 0xF99 JUMPI PUSH2 0xF98 PUSH2 0x1520 JUMP JUMPDEST JUMPDEST PUSH1 0x0 PUSH2 0xFA7 DUP6 DUP3 DUP7 ADD PUSH2 0xEFD JUMP JUMPDEST SWAP3 POP POP PUSH1 0x20 DUP4 ADD CALLDATALOAD PUSH8 0xFFFFFFFFFFFFFFFF DUP2 GT ISZERO PUSH2 0xFC8 JUMPI PUSH2 0xFC7 PUSH2 0x151B JUMP JUMPDEST JUMPDEST PUSH2 0xFD4 DUP6 DUP3 DUP7 ADD PUSH2 0xF12 JUMP JUMPDEST SWAP2 POP POP SWAP3 POP SWAP3 SWAP1 POP JUMP JUMPDEST PUSH1 0x0 PUSH1 0x20 DUP3 DUP5 SUB SLT ISZERO PUSH2 0xFF4 JUMPI PUSH2 0xFF3 PUSH2 0x1520 JUMP JUMPDEST JUMPDEST PUSH1 0x0 DUP3 ADD CALLDATALOAD PUSH8 0xFFFFFFFFFFFFFFFF DUP2 GT ISZERO PUSH2 0x1012 JUMPI PUSH2 0x1011 PUSH2 0x151B JUMP JUMPDEST JUMPDEST PUSH2 0x101E DUP5 DUP3 DUP6 ADD PUSH2 0xF12 JUMP JUMPDEST SWAP2 POP POP SWAP3 SWAP2 POP POP JUMP JUMPDEST PUSH1 0x0 PUSH1 0x20 DUP3 DUP5 SUB SLT ISZERO PUSH2 0x103D JUMPI PUSH2 0x103C PUSH2 0x1520 JUMP JUMPDEST JUMPDEST PUSH1 0x0 PUSH2 0x104B DUP5 DUP3 DUP6 ADD PUSH2 0xF40 JUMP JUMPDEST SWAP2 POP POP SWAP3 SWAP2 POP POP JUMP JUMPDEST PUSH2 0x105D DUP2 PUSH2 0x131F JUMP JUMPDEST DUP3 MSTORE POP POP JUMP JUMPDEST PUSH2 0x106C DUP2 PUSH2 0x1331 JUMP JUMPDEST DUP3 MSTORE POP POP JUMP JUMPDEST PUSH1 0x0 PUSH2 0x107D DUP3 PUSH2 0x127C JUMP JUMPDEST PUSH2 0x1087 DUP2 DUP6 PUSH2 0x1287 JUMP JUMPDEST SWAP4 POP PUSH2 0x1097 DUP2 DUP6 PUSH1 0x20 DUP7 ADD PUSH2 0x1376 JUMP JUMPDEST PUSH2 0x10A0 DUP2 PUSH2 0x1525 JUMP JUMPDEST DUP5 ADD SWAP2 POP POP SWAP3 SWAP2 POP POP JUMP JUMPDEST PUSH1 0x0 PUSH2 0x10B8 PUSH1 0x24 DUP4 PUSH2 0x1287 JUMP JUMPDEST SWAP2 POP PUSH2 0x10C3 DUP3 PUSH2 0x1536 JUMP JUMPDEST PUSH1 0x40 DUP3 ADD SWAP1 POP SWAP2 SWAP1 POP JUMP JUMPDEST PUSH1 0x0 PUSH2 0x10DB PUSH1 0x23 DUP4 PUSH2 0x1287 JUMP JUMPDEST SWAP2 POP PUSH2 0x10E6 DUP3 PUSH2 0x1585 JUMP JUMPDEST PUSH1 0x40 DUP3 ADD SWAP1 POP SWAP2 SWAP1 POP JUMP JUMPDEST PUSH1 0x0 PUSH2 0x10FE PUSH1 0x30 DUP4 PUSH2 0x1287 JUMP JUMPDEST SWAP2 POP PUSH2 0x1109 DUP3 PUSH2 0x15D4 JUMP JUMPDEST PUSH1 0x40 DUP3 ADD SWAP1 POP SWAP2 SWAP1 POP JUMP JUMPDEST PUSH2 0x111D DUP2 PUSH2 0x135D JUMP JUMPDEST DUP3 MSTORE POP POP JUMP JUMPDEST PUSH1 0x0 PUSH1 0x20 DUP3 ADD SWAP1 POP PUSH2 0x1138 PUSH1 0x0 DUP4 ADD DUP5 PUSH2 0x1054 JUMP JUMPDEST SWAP3 SWAP2 POP POP JUMP JUMPDEST PUSH1 0x0 PUSH1 0x20 DUP3 ADD SWAP1 POP PUSH2 0x1153 PUSH1 0x0 DUP4 ADD DUP5 PUSH2 0x1063 JUMP JUMPDEST SWAP3 SWAP2 POP POP JUMP JUMPDEST PUSH1 0x0 PUSH1 0x20 DUP3 ADD SWAP1 POP DUP2 DUP2 SUB PUSH1 0x0 DUP4 ADD MSTORE PUSH2 0x1173 DUP2 DUP5 PUSH2 0x1072 JUMP JUMPDEST SWAP1 POP SWAP3 SWAP2 POP POP JUMP JUMPDEST PUSH1 0x0 PUSH1 0x40 DUP3 ADD SWAP1 POP DUP2 DUP2 SUB PUSH1 0x0 DUP4 ADD MSTORE PUSH2 0x1195 DUP2 DUP6 PUSH2 0x1072 JUMP JUMPDEST SWAP1 POP PUSH2 0x11A4 PUSH1 0x20 DUP4 ADD DUP5 PUSH2 0x1063 JUMP JUMPDEST SWAP4 SWAP3 POP POP POP JUMP JUMPDEST PUSH1 0x0 PUSH1 0x20 DUP3 ADD SWAP1 POP DUP2 DUP2 SUB PUSH1 0x0 DUP4 ADD MSTORE PUSH2 0x11C4 DUP2 PUSH2 0x10AB JUMP JUMPDEST SWAP1 POP SWAP2 SWAP1 POP JUMP JUMPDEST PUSH1 0x0 PUSH1 0x20 DUP3 ADD SWAP1 POP DUP2 DUP2 SUB PUSH1 0x0 DUP4 ADD MSTORE PUSH2 0x11E4 DUP2 PUSH2 0x10CE JUMP JUMPDEST SWAP1 POP SWAP2 SWAP1 POP JUMP JUMPDEST PUSH1 0x0 PUSH1 0x20 DUP3 ADD SWAP1 POP DUP2 DUP2 SUB PUSH1 0x0 DUP4 ADD MSTORE PUSH2 0x1204 DUP2 PUSH2 0x10F1 JUMP JUMPDEST SWAP1 POP SWAP2 SWAP1 POP JUMP JUMPDEST PUSH1 0x0 PUSH1 0x20 DUP3 ADD SWAP1 POP PUSH2 0x1220 PUSH1 0x0 DUP4 ADD DUP5 PUSH2 0x1114 JUMP JUMPDEST SWAP3 SWAP2 POP POP JUMP JUMPDEST PUSH1 0x0 PUSH2 0x1230 PUSH2 0x1241 JUMP JUMPDEST SWAP1 POP PUSH2 0x123C DUP3 DUP3 PUSH2 0x13DB JUMP JUMPDEST SWAP2 SWAP1 POP JUMP JUMPDEST PUSH1 0x0 PUSH1 0x40 MLOAD SWAP1 POP SWAP1 JUMP JUMPDEST PUSH1 0x0 PUSH8 0xFFFFFFFFFFFFFFFF DUP3 GT ISZERO PUSH2 0x1266 JUMPI PUSH2 0x1265 PUSH2 0x14E2 JUMP JUMPDEST JUMPDEST PUSH2 0x126F DUP3 PUSH2 0x1525 JUMP JUMPDEST SWAP1 POP PUSH1 0x20 DUP2 ADD SWAP1 POP SWAP2 SWAP1 POP JUMP JUMPDEST PUSH1 0x0 DUP2 MLOAD SWAP1 POP SWAP2 SWAP1 POP JUMP JUMPDEST PUSH1 0x0 DUP3 DUP3 MSTORE PUSH1 0x20 DUP3 ADD SWAP1 POP SWAP3 SWAP2 POP POP JUMP JUMPDEST PUSH1 0x0 PUSH2 0x12A3 DUP3 PUSH2 0x135D JUMP JUMPDEST SWAP2 POP PUSH2 0x12AE DUP4 PUSH2 0x135D JUMP JUMPDEST SWAP3 POP DUP3 PUSH32 0xFFFFFFFFFFFFFFFFFFFFFFFFFFFFFFFFFFFFFFFFFFFFFFFFFFFFFFFFFFFFFFFF SUB DUP3 GT ISZERO PUSH2 0x12E3 JUMPI PUSH2 0x12E2 PUSH2 0x1455 JUMP JUMPDEST JUMPDEST DUP3 DUP3 ADD SWAP1 POP SWAP3 SWAP2 POP POP JUMP JUMPDEST PUSH1 0x0 PUSH2 0x12F9 DUP3 PUSH2 0x135D JUMP JUMPDEST SWAP2 POP PUSH2 0x1304 DUP4 PUSH2 0x135D JUMP JUMPDEST SWAP3 POP DUP3 PUSH2 0x1314 JUMPI PUSH2 0x1313 PUSH2 0x1484 JUMP JUMPDEST JUMPDEST DUP3 DUP3 DIV SWAP1 POP SWAP3 SWAP2 POP POP JUMP JUMPDEST PUSH1 0x0 PUSH2 0x132A DUP3 PUSH2 0x133D JUMP JUMPDEST SWAP1 POP SWAP2 SWAP1 POP JUMP JUMPDEST PUSH1 0x0 DUP2 ISZERO ISZERO SWAP1 POP SWAP2 SWAP1 POP JUMP JUMPDEST PUSH1 0x0 PUSH20 0xFFFFFFFFFFFFFFFFFFFFFFFFFFFFFFFFFFFFFFFF DUP3 AND SWAP1 POP SWAP2 SWAP1 POP JUMP JUMPDEST PUSH1 0x0 DUP2 SWAP1 POP SWAP2 SWAP1 POP JUMP JUMPDEST DUP3 DUP2 DUP4 CALLDATACOPY PUSH1 0x0 DUP4 DUP4 ADD MSTORE POP POP POP JUMP JUMPDEST PUSH1 0x0 JUMPDEST DUP4 DUP2 LT ISZERO PUSH2 0x1394 JUMPI DUP1 DUP3 ADD MLOAD DUP2 DUP5 ADD MSTORE PUSH1 0x20 DUP2 ADD SWAP1 POP PUSH2 0x1379 JUMP JUMPDEST DUP4 DUP2 GT ISZERO PUSH2 0x13A3 JUMPI PUSH1 0x0 DUP5 DUP5 ADD MSTORE JUMPDEST POP POP POP POP JUMP JUMPDEST PUSH1 0x0 PUSH1 0x2 DUP3 DIV SWAP1 POP PUSH1 0x1 DUP3 AND DUP1 PUSH2 0x13C1 JUMPI PUSH1 0x7F DUP3 AND SWAP2 POP JUMPDEST PUSH1 0x20 DUP3 LT DUP2 EQ ISZERO PUSH2 0x13D5 JUMPI PUSH2 0x13D4 PUSH2 0x14B3 JUMP JUMPDEST JUMPDEST POP SWAP2 SWAP1 POP JUMP JUMPDEST PUSH2 0x13E4 DUP3 PUSH2 0x1525 JUMP JUMPDEST DUP2 ADD DUP2 DUP2 LT PUSH8 0xFFFFFFFFFFFFFFFF DUP3 GT OR ISZERO PUSH2 0x1403 JUMPI PUSH2 0x1402 PUSH2 0x14E2 JUMP JUMPDEST JUMPDEST DUP1 PUSH1 0x40 MSTORE POP POP POP JUMP JUMPDEST PUSH1 0x0 PUSH2 0x1417 DUP3 PUSH2 0x135D JUMP JUMPDEST SWAP2 POP PUSH32 0xFFFFFFFFFFFFFFFFFFFFFFFFFFFFFFFFFFFFFFFFFFFFFFFFFFFFFFFFFFFFFFFF DUP3 EQ ISZERO PUSH2 0x144A JUMPI PUSH2 0x1449 PUSH2 0x1455 JUMP JUMPDEST JUMPDEST PUSH1 0x1 DUP3 ADD SWAP1 POP SWAP2 SWAP1 POP JUMP JUMPDEST PUSH32 0x4E487B7100000000000000000000000000000000000000000000000000000000 PUSH1 0x0 MSTORE PUSH1 0x11 PUSH1 0x4 MSTORE PUSH1 0x24 PUSH1 0x0 REVERT JUMPDEST PUSH32 0x4E487B7100000000000000000000000000000000000000000000000000000000 PUSH1 0x0 MSTORE PUSH1 0x12 PUSH1 0x4 MSTORE PUSH1 0x24 PUSH1 0x0 REVERT JUMPDEST PUSH32 0x4E487B7100000000000000000000000000000000000000000000000000000000 PUSH1 0x0 MSTORE PUSH1 0x22 PUSH1 0x4 MSTORE PUSH1 0x24 PUSH1 0x0 REVERT JUMPDEST PUSH32 0x4E487B7100000000000000000000000000000000000000000000000000000000 PUSH1 0x0 MSTORE PUSH1 0x41 PUSH1 0x4 MSTORE PUSH1 0x24 PUSH1 0x0 REVERT JUMPDEST PUSH1 0x0 DUP1 REVERT JUMPDEST PUSH1 0x0 DUP1 REVERT JUMPDEST PUSH1 0x0 DUP1 REVERT JUMPDEST PUSH1 0x0 DUP1 REVERT JUMPDEST PUSH1 0x0 PUSH1 0x1F NOT PUSH1 0x1F DUP4 ADD AND SWAP1 POP SWAP2 SWAP1 POP JUMP JUMPDEST PUSH32 0x43616E20766F7465206F6E6C79207768696C6520766F74696E67206973206F70 PUSH1 0x0 DUP3 ADD MSTORE PUSH32 0x656E202E00000000000000000000000000000000000000000000000000000000 PUSH1 0x20 DUP3 ADD MSTORE POP JUMP JUMPDEST PUSH32 0x43616E206F6E6C7920626520657865637574656420627920746865206D616E61 PUSH1 0x0 DUP3 ADD MSTORE PUSH32 0x6765720000000000000000000000000000000000000000000000000000000000 PUSH1 0x20 DUP3 ADD MSTORE POP JUMP JUMPDEST PUSH32 0x43616E6E6F7420657865637574652066756E6374696F6E207768696C65206C75 PUSH1 0x0 DUP3 ADD MSTORE PUSH32 0x6E63682069732063616E63656C6C656400000000000000000000000000000000 PUSH1 0x20 DUP3 ADD MSTORE POP JUMP JUMPDEST PUSH2 0x162C DUP2 PUSH2 0x131F JUMP JUMPDEST DUP2 EQ PUSH2 0x1637 JUMPI PUSH1 0x0 DUP1 REVERT JUMPDEST POP JUMP JUMPDEST PUSH2 0x1643 DUP2 PUSH2 0x135D JUMP JUMPDEST DUP2 EQ PUSH2 0x164E JUMPI PUSH1 0x0 DUP1 REVERT JUMPDEST POP JUMP INVALID LOG2 PUSH5 0x6970667358 0x22 SLT KECCAK256 0xB0 0xBA JUMPI PUSH28 0x5236389481F2A1045F817C1BFF787E51525C6F5B92B6FA681C06F6F7 PUSH5 0x736F6C6343 STOP ADDMOD SMOD STOP CALLER "
				},
				"gasEstimates": {
					"creation": {
						"codeDepositCost": "1153400",
						"executionCost": "infinite",
						"totalCost": "infinite"
					},
					"external": {
						"addFriend(address,string)": "infinite",
						"addVenue(string)": "infinite",
						"cancelLunch()": "infinite",
						"doVote(uint256)": "infinite",
						"friends(address)": "infinite",
						"manager()": "2581",
						"numFriends()": "2474",
						"numVenues()": "2474",
						"numVotes()": "2451",
						"openVoting()": "26625",
						"uncancelLunch()": "26697",
						"venues(uint256)": "infinite",
						"votedVenue()": "infinite"
					},
					"internal": {
						"finalResult()": "infinite"
					}
				},
				"methodIdentifiers": {
					"addFriend(address,string)": "3b9f708d",
					"addVenue(string)": "02ee93c8",
					"cancelLunch()": "e2393021",
					"doVote(uint256)": "124258c6",
					"friends(address)": "1ddabf7a",
					"manager()": "481c6a75",
					"numFriends()": "47098f36",
					"numVenues()": "0843d16d",
					"numVotes()": "a3bef4d7",
					"openVoting()": "affc0670",
					"uncancelLunch()": "d4ad644e",
					"venues(uint256)": "02daf12f",
					"votedVenue()": "1635b5d3"
				}
			},
			"storageLayout": {
				"storage": [
					{
						"astId": 16,
						"contract": "contracts/LunchVenue_updated.sol:LunchVenue",
						"label": "venues",
						"offset": 0,
						"slot": "0",
						"type": "t_mapping(t_uint256,t_string_storage)"
					},
					{
						"astId": 21,
						"contract": "contracts/LunchVenue_updated.sol:LunchVenue",
						"label": "friends",
						"offset": 0,
						"slot": "1",
						"type": "t_mapping(t_address,t_struct(Friend)7_storage)"
					},
					{
						"astId": 24,
						"contract": "contracts/LunchVenue_updated.sol:LunchVenue",
						"label": "numVenues",
						"offset": 0,
						"slot": "2",
						"type": "t_uint256"
					},
					{
						"astId": 27,
						"contract": "contracts/LunchVenue_updated.sol:LunchVenue",
						"label": "numFriends",
						"offset": 0,
						"slot": "3",
						"type": "t_uint256"
					},
					{
						"astId": 30,
						"contract": "contracts/LunchVenue_updated.sol:LunchVenue",
						"label": "numVotes",
						"offset": 0,
						"slot": "4",
						"type": "t_uint256"
					},
					{
						"astId": 32,
						"contract": "contracts/LunchVenue_updated.sol:LunchVenue",
						"label": "manager",
						"offset": 0,
						"slot": "5",
						"type": "t_address"
					},
					{
						"astId": 35,
						"contract": "contracts/LunchVenue_updated.sol:LunchVenue",
						"label": "votedVenue",
						"offset": 0,
						"slot": "6",
						"type": "t_string_storage"
					},
					{
						"astId": 40,
						"contract": "contracts/LunchVenue_updated.sol:LunchVenue",
						"label": "votes",
						"offset": 0,
						"slot": "7",
						"type": "t_mapping(t_uint256,t_struct(Vote)12_storage)"
					},
					{
						"astId": 44,
						"contract": "contracts/LunchVenue_updated.sol:LunchVenue",
						"label": "results",
						"offset": 0,
						"slot": "8",
						"type": "t_mapping(t_uint256,t_uint256)"
					},
					{
						"astId": 47,
						"contract": "contracts/LunchVenue_updated.sol:LunchVenue",
						"label": "voteOpen",
						"offset": 0,
						"slot": "9",
						"type": "t_bool"
					},
					{
						"astId": 50,
						"contract": "contracts/LunchVenue_updated.sol:LunchVenue",
						"label": "lunchCancelled",
						"offset": 1,
						"slot": "9",
						"type": "t_bool"
					}
				],
				"types": {
					"t_address": {
						"encoding": "inplace",
						"label": "address",
						"numberOfBytes": "20"
					},
					"t_bool": {
						"encoding": "inplace",
						"label": "bool",
						"numberOfBytes": "1"
					},
					"t_mapping(t_address,t_struct(Friend)7_storage)": {
						"encoding": "mapping",
						"key": "t_address",
						"label": "mapping(address => struct LunchVenue.Friend)",
						"numberOfBytes": "32",
						"value": "t_struct(Friend)7_storage"
					},
					"t_mapping(t_uint256,t_string_storage)": {
						"encoding": "mapping",
						"key": "t_uint256",
						"label": "mapping(uint256 => string)",
						"numberOfBytes": "32",
						"value": "t_string_storage"
					},
					"t_mapping(t_uint256,t_struct(Vote)12_storage)": {
						"encoding": "mapping",
						"key": "t_uint256",
						"label": "mapping(uint256 => struct LunchVenue.Vote)",
						"numberOfBytes": "32",
						"value": "t_struct(Vote)12_storage"
					},
					"t_mapping(t_uint256,t_uint256)": {
						"encoding": "mapping",
						"key": "t_uint256",
						"label": "mapping(uint256 => uint256)",
						"numberOfBytes": "32",
						"value": "t_uint256"
					},
					"t_string_storage": {
						"encoding": "bytes",
						"label": "string",
						"numberOfBytes": "32"
					},
					"t_struct(Friend)7_storage": {
						"encoding": "inplace",
						"label": "struct LunchVenue.Friend",
						"members": [
							{
								"astId": 4,
								"contract": "contracts/LunchVenue_updated.sol:LunchVenue",
								"label": "name",
								"offset": 0,
								"slot": "0",
								"type": "t_string_storage"
							},
							{
								"astId": 6,
								"contract": "contracts/LunchVenue_updated.sol:LunchVenue",
								"label": "voted",
								"offset": 0,
								"slot": "1",
								"type": "t_bool"
							}
						],
						"numberOfBytes": "64"
					},
					"t_struct(Vote)12_storage": {
						"encoding": "inplace",
						"label": "struct LunchVenue.Vote",
						"members": [
							{
								"astId": 9,
								"contract": "contracts/LunchVenue_updated.sol:LunchVenue",
								"label": "voterAddress",
								"offset": 0,
								"slot": "0",
								"type": "t_address"
							},
							{
								"astId": 11,
								"contract": "contracts/LunchVenue_updated.sol:LunchVenue",
								"label": "venue",
								"offset": 0,
								"slot": "1",
								"type": "t_uint256"
							}
						],
						"numberOfBytes": "64"
					},
					"t_uint256": {
						"encoding": "inplace",
						"label": "uint256",
						"numberOfBytes": "32"
					}
				}
			},
			"userdoc": {
				"kind": "user",
				"methods": {
					"addFriend(address,string)": {
						"notice": "Add a new friend who can vote on lunch venue"
					},
					"addVenue(string)": {
						"notice": "Add a new lunch venue"
					},
					"cancelLunch()": {
						"notice": "allow manager to cancel lunch whenever"
					},
					"doVote(uint256)": {
						"notice": "Vote for a lunch venue"
					},
					"openVoting()": {
						"notice": "allow manager to reopen voting"
					},
					"uncancelLunch()": {
						"notice": "allow manager to uncancel lunch whenever"
					}
				},
				"version": 1
			}
		}
	}
}