{
	"contracts/LunchVenue_updated.sol": {
		"LunchVenue": {
			"abi": [
				{
					"inputs": [],
					"stateMutability": "nonpayable",
					"type": "constructor"
				},
				{
					"inputs": [
						{
							"internalType": "address",
							"name": "friendAddress",
							"type": "address"
						},
						{
							"internalType": "string",
							"name": "name",
							"type": "string"
						}
					],
					"name": "addFriend",
					"outputs": [
						{
							"internalType": "uint256",
							"name": "",
							"type": "uint256"
						}
					],
					"stateMutability": "nonpayable",
					"type": "function"
				},
				{
					"inputs": [
						{
							"internalType": "string",
							"name": "name",
							"type": "string"
						}
					],
					"name": "addVenue",
					"outputs": [
						{
							"internalType": "uint256",
							"name": "",
							"type": "uint256"
						}
					],
					"stateMutability": "nonpayable",
					"type": "function"
				},
				{
					"inputs": [],
					"name": "cancelLunch",
					"outputs": [],
					"stateMutability": "nonpayable",
					"type": "function"
				},
				{
					"inputs": [
						{
							"internalType": "uint256",
							"name": "venue",
							"type": "uint256"
						}
					],
					"name": "doVote",
					"outputs": [
						{
							"internalType": "bool",
							"name": "validVote",
							"type": "bool"
						}
					],
					"stateMutability": "nonpayable",
					"type": "function"
				},
				{
					"inputs": [
						{
							"internalType": "address",
							"name": "",
							"type": "address"
						}
					],
					"name": "friends",
					"outputs": [
						{
							"internalType": "string",
							"name": "name",
							"type": "string"
						},
						{
							"internalType": "bool",
							"name": "voted",
							"type": "bool"
						}
					],
					"stateMutability": "view",
					"type": "function"
				},
				{
					"inputs": [],
					"name": "manager",
					"outputs": [
						{
							"internalType": "address",
							"name": "",
							"type": "address"
						}
					],
					"stateMutability": "view",
					"type": "function"
				},
				{
					"inputs": [],
					"name": "numFriends",
					"outputs": [
						{
							"internalType": "uint256",
							"name": "",
							"type": "uint256"
						}
					],
					"stateMutability": "view",
					"type": "function"
				},
				{
					"inputs": [],
					"name": "numVenues",
					"outputs": [
						{
							"internalType": "uint256",
							"name": "",
							"type": "uint256"
						}
					],
					"stateMutability": "view",
					"type": "function"
				},
				{
					"inputs": [],
					"name": "numVotes",
					"outputs": [
						{
							"internalType": "uint256",
							"name": "",
							"type": "uint256"
						}
					],
					"stateMutability": "view",
					"type": "function"
				},
				{
					"inputs": [],
					"name": "openVoting",
					"outputs": [],
					"stateMutability": "nonpayable",
					"type": "function"
				},
				{
					"inputs": [],
					"name": "startAddFriendsAndVenuesPhase",
					"outputs": [],
					"stateMutability": "nonpayable",
					"type": "function"
				},
				{
					"inputs": [],
					"name": "startVotingPhase",
					"outputs": [],
					"stateMutability": "nonpayable",
					"type": "function"
				},
				{
					"inputs": [],
					"name": "uncancelLunch",
					"outputs": [],
					"stateMutability": "nonpayable",
					"type": "function"
				},
				{
					"inputs": [
						{
							"internalType": "uint256",
							"name": "",
							"type": "uint256"
						}
					],
					"name": "venues",
					"outputs": [
						{
							"internalType": "string",
							"name": "",
							"type": "string"
						}
					],
					"stateMutability": "view",
					"type": "function"
				},
				{
					"inputs": [],
					"name": "votedVenue",
					"outputs": [
						{
							"internalType": "string",
							"name": "",
							"type": "string"
						}
					],
					"stateMutability": "view",
					"type": "function"
				}
			],
			"devdoc": {
				"kind": "dev",
				"methods": {
					"addFriend(address,string)": {
						"details": "To simplify the code duplication of friends is not checked",
						"params": {
							"friendAddress": "Friend ’s account address",
							"name": "Friend ’s name"
						},
						"returns": {
							"_0": "Number of friends added so far"
						}
					},
					"addVenue(string)": {
						"details": "To simplify the code duplication of venues is not checked",
						"params": {
							"name": "Name of the venue"
						},
						"returns": {
							"_0": "Number of lunch venues added so far"
						}
					},
					"doVote(uint256)": {
						"details": "To simplify the code multiple votes by a friend is not checked",
						"params": {
							"venue": "Venue number being voted"
						},
						"returns": {
							"validVote": "Is the vote valid ? A valid vote should be from a registered end and to a registered venue"
						}
					}
				},
				"title": "Contract to agree on the lunch venue",
				"version": 1
			},
			"evm": {
				"assembly": "    /* \"contracts/LunchVenue_updated.sol\":113:6062  contract LunchVenue {... */\n  mstore(0x40, 0x80)\n    /* \"contracts/LunchVenue_updated.sol\":491:492  0 */\n  0x00\n    /* \"contracts/LunchVenue_updated.sol\":467:492  uint public numVenues = 0 */\n  0x02\n  sstore\n    /* \"contracts/LunchVenue_updated.sol\":523:524  0 */\n  0x00\n    /* \"contracts/LunchVenue_updated.sol\":498:524  uint public numFriends = 0 */\n  0x03\n  sstore\n    /* \"contracts/LunchVenue_updated.sol\":553:554  0 */\n  0x00\n    /* \"contracts/LunchVenue_updated.sol\":530:554  uint public numVotes = 0 */\n  0x04\n  sstore\n    /* \"contracts/LunchVenue_updated.sol\":616:645  string public votedVenue = \"\" */\n  mload(0x40)\n  dup1\n  0x20\n  add\n  0x40\n  mstore\n  dup1\n  0x00\n  dup2\n  mstore\n  pop\n  0x06\n  swap1\n  dup1\n  mload\n  swap1\n  0x20\n  add\n  swap1\n  tag_1\n  swap3\n  swap2\n  swap1\n  tag_2\n  jump\t// in\ntag_1:\n  pop\n    /* \"contracts/LunchVenue_updated.sol\":877:882  false */\n  0x00\n    /* \"contracts/LunchVenue_updated.sol\":861:882  bool voteOpen = false */\n  0x09\n  exp(0x0100, 0x00)\n  dup2\n  sload\n  dup2\n  0xff\n  mul\n  not\n  and\n  swap1\n  dup4\n  iszero\n  iszero\n  mul\n  or\n  swap1\n  sstore\n  pop\n    /* \"contracts/LunchVenue_updated.sol\":931:936  false */\n  0x00\n    /* \"contracts/LunchVenue_updated.sol\":909:936  bool lunchCancelled = false */\n  0x09\n  exp(0x0100, 0x01)\n  dup2\n  sload\n  dup2\n  0xff\n  mul\n  not\n  and\n  swap1\n  dup4\n  iszero\n  iszero\n  mul\n  or\n  swap1\n  sstore\n  pop\n    /* \"contracts/LunchVenue_updated.sol\":970:975  false */\n  0x00\n    /* \"contracts/LunchVenue_updated.sol\":942:975  bool lockFriendsAndVenues = false */\n  0x09\n  exp(0x0100, 0x02)\n  dup2\n  sload\n  dup2\n  0xff\n  mul\n  not\n  and\n  swap1\n  dup4\n  iszero\n  iszero\n  mul\n  or\n  swap1\n  sstore\n  pop\n    /* \"contracts/LunchVenue_updated.sol\":1024:1112  constructor () {... */\n  callvalue\n  dup1\n  iszero\n  tag_3\n  jumpi\n  0x00\n  dup1\n  revert\ntag_3:\n  pop\n    /* \"contracts/LunchVenue_updated.sol\":1059:1069  msg.sender */\n  caller\n    /* \"contracts/LunchVenue_updated.sol\":1049:1056  manager */\n  0x05\n  0x00\n    /* \"contracts/LunchVenue_updated.sol\":1049:1069  manager = msg.sender */\n  0x0100\n  exp\n  dup2\n  sload\n  dup2\n  0xffffffffffffffffffffffffffffffffffffffff\n  mul\n  not\n  and\n  swap1\n  dup4\n  0xffffffffffffffffffffffffffffffffffffffff\n  and\n  mul\n  or\n  swap1\n  sstore\n  pop\n    /* \"contracts/LunchVenue_updated.sol\":113:6062  contract LunchVenue {... */\n  jump(tag_6)\ntag_2:\n  dup3\n  dup1\n  sload\n  tag_7\n  swap1\n  tag_8\n  jump\t// in\ntag_7:\n  swap1\n  0x00\n  mstore\n  keccak256(0x00, 0x20)\n  swap1\n  0x1f\n  add\n  0x20\n  swap1\n  div\n  dup2\n  add\n  swap3\n  dup3\n  tag_10\n  jumpi\n  0x00\n  dup6\n  sstore\n  jump(tag_9)\ntag_10:\n  dup3\n  0x1f\n  lt\n  tag_11\n  jumpi\n  dup1\n  mload\n  not(0xff)\n  and\n  dup4\n  dup1\n  add\n  or\n  dup6\n  sstore\n  jump(tag_9)\ntag_11:\n  dup3\n  dup1\n  add\n  0x01\n  add\n  dup6\n  sstore\n  dup3\n  iszero\n  tag_9\n  jumpi\n  swap2\n  dup3\n  add\ntag_12:\n  dup3\n  dup2\n  gt\n  iszero\n  tag_13\n  jumpi\n  dup3\n  mload\n  dup3\n  sstore\n  swap2\n  0x20\n  add\n  swap2\n  swap1\n  0x01\n  add\n  swap1\n  jump(tag_12)\ntag_13:\ntag_9:\n  pop\n  swap1\n  pop\n  tag_14\n  swap2\n  swap1\n  tag_15\n  jump\t// in\ntag_14:\n  pop\n  swap1\n  jump\t// out\ntag_15:\ntag_16:\n  dup1\n  dup3\n  gt\n  iszero\n  tag_17\n  jumpi\n  0x00\n  dup2\n  0x00\n  swap1\n  sstore\n  pop\n  0x01\n  add\n  jump(tag_16)\ntag_17:\n  pop\n  swap1\n  jump\t// out\n    /* \"#utility.yul\":7:327   */\ntag_8:\n    /* \"#utility.yul\":51:57   */\n  0x00\n    /* \"#utility.yul\":88:89   */\n  0x02\n    /* \"#utility.yul\":82:86   */\n  dup3\n    /* \"#utility.yul\":78:90   */\n  div\n    /* \"#utility.yul\":68:90   */\n  swap1\n  pop\n    /* \"#utility.yul\":135:136   */\n  0x01\n    /* \"#utility.yul\":129:133   */\n  dup3\n    /* \"#utility.yul\":125:137   */\n  and\n    /* \"#utility.yul\":156:174   */\n  dup1\n    /* \"#utility.yul\":146:227   */\n  tag_20\n  jumpi\n    /* \"#utility.yul\":212:216   */\n  0x7f\n    /* \"#utility.yul\":204:210   */\n  dup3\n    /* \"#utility.yul\":200:217   */\n  and\n    /* \"#utility.yul\":190:217   */\n  swap2\n  pop\n    /* \"#utility.yul\":146:227   */\ntag_20:\n    /* \"#utility.yul\":274:276   */\n  0x20\n    /* \"#utility.yul\":266:272   */\n  dup3\n    /* \"#utility.yul\":263:277   */\n  lt\n    /* \"#utility.yul\":243:261   */\n  dup2\n    /* \"#utility.yul\":240:278   */\n  eq\n    /* \"#utility.yul\":237:321   */\n  iszero\n  tag_21\n  jumpi\n    /* \"#utility.yul\":293:311   */\n  tag_22\n  tag_23\n  jump\t// in\ntag_22:\n    /* \"#utility.yul\":237:321   */\ntag_21:\n    /* \"#utility.yul\":58:327   */\n  pop\n    /* \"#utility.yul\":7:327   */\n  swap2\n  swap1\n  pop\n  jump\t// out\n    /* \"#utility.yul\":333:513   */\ntag_23:\n    /* \"#utility.yul\":381:458   */\n  0x4e487b7100000000000000000000000000000000000000000000000000000000\n    /* \"#utility.yul\":378:379   */\n  0x00\n    /* \"#utility.yul\":371:459   */\n  mstore\n    /* \"#utility.yul\":478:482   */\n  0x22\n    /* \"#utility.yul\":475:476   */\n  0x04\n    /* \"#utility.yul\":468:483   */\n  mstore\n    /* \"#utility.yul\":502:506   */\n  0x24\n    /* \"#utility.yul\":499:500   */\n  0x00\n    /* \"#utility.yul\":492:507   */\n  revert\n    /* \"contracts/LunchVenue_updated.sol\":113:6062  contract LunchVenue {... */\ntag_6:\n  dataSize(sub_0)\n  dup1\n  dataOffset(sub_0)\n  0x00\n  codecopy\n  0x00\n  return\nstop\n\nsub_0: assembly {\n        /* \"contracts/LunchVenue_updated.sol\":113:6062  contract LunchVenue {... */\n      mstore(0x40, 0x80)\n      callvalue\n      dup1\n      iszero\n      tag_1\n      jumpi\n      0x00\n      dup1\n      revert\n    tag_1:\n      pop\n      jumpi(tag_2, lt(calldatasize, 0x04))\n      shr(0xe0, calldataload(0x00))\n      dup1\n      0x3b9f708d\n      gt\n      tag_18\n      jumpi\n      dup1\n      0xaffc0670\n      gt\n      tag_19\n      jumpi\n      dup1\n      0xaffc0670\n      eq\n      tag_14\n      jumpi\n      dup1\n      0xcb43284e\n      eq\n      tag_15\n      jumpi\n      dup1\n      0xd4ad644e\n      eq\n      tag_16\n      jumpi\n      dup1\n      0xe2393021\n      eq\n      tag_17\n      jumpi\n      jump(tag_2)\n    tag_19:\n      dup1\n      0x3b9f708d\n      eq\n      tag_10\n      jumpi\n      dup1\n      0x47098f36\n      eq\n      tag_11\n      jumpi\n      dup1\n      0x481c6a75\n      eq\n      tag_12\n      jumpi\n      dup1\n      0xa3bef4d7\n      eq\n      tag_13\n      jumpi\n      jump(tag_2)\n    tag_18:\n      dup1\n      0x0f5f2eac\n      gt\n      tag_20\n      jumpi\n      dup1\n      0x0f5f2eac\n      eq\n      tag_6\n      jumpi\n      dup1\n      0x124258c6\n      eq\n      tag_7\n      jumpi\n      dup1\n      0x1635b5d3\n      eq\n      tag_8\n      jumpi\n      dup1\n      0x1ddabf7a\n      eq\n      tag_9\n      jumpi\n      jump(tag_2)\n    tag_20:\n      dup1\n      0x02daf12f\n      eq\n      tag_3\n      jumpi\n      dup1\n      0x02ee93c8\n      eq\n      tag_4\n      jumpi\n      dup1\n      0x0843d16d\n      eq\n      tag_5\n      jumpi\n    tag_2:\n      0x00\n      dup1\n      revert\n        /* \"contracts/LunchVenue_updated.sol\":291:331  mapping ( uint => string ) public venues */\n    tag_3:\n      tag_21\n      0x04\n      dup1\n      calldatasize\n      sub\n      dup2\n      add\n      swap1\n      tag_22\n      swap2\n      swap1\n      tag_23\n      jump\t// in\n    tag_22:\n      tag_24\n      jump\t// in\n    tag_21:\n      mload(0x40)\n      tag_25\n      swap2\n      swap1\n      tag_26\n      jump\t// in\n    tag_25:\n      mload(0x40)\n      dup1\n      swap2\n      sub\n      swap1\n      return\n        /* \"contracts/LunchVenue_updated.sol\":1317:1503  function addVenue(string memory name) public addFriendAndVenuePhase restricted  returns (uint){... */\n    tag_4:\n      tag_27\n      0x04\n      dup1\n      calldatasize\n      sub\n      dup2\n      add\n      swap1\n      tag_28\n      swap2\n      swap1\n      tag_29\n      jump\t// in\n    tag_28:\n      tag_30\n      jump\t// in\n    tag_27:\n      mload(0x40)\n      tag_31\n      swap2\n      swap1\n      tag_32\n      jump\t// in\n    tag_31:\n      mload(0x40)\n      dup1\n      swap2\n      sub\n      swap1\n      return\n        /* \"contracts/LunchVenue_updated.sol\":467:492  uint public numVenues = 0 */\n    tag_5:\n      tag_33\n      tag_34\n      jump\t// in\n    tag_33:\n      mload(0x40)\n      tag_35\n      swap2\n      swap1\n      tag_32\n      jump\t// in\n    tag_35:\n      mload(0x40)\n      dup1\n      swap2\n      sub\n      swap1\n      return\n        /* \"contracts/LunchVenue_updated.sol\":4805:4935  function startAddFriendsAndVenuesPhase() public restricted {... */\n    tag_6:\n      tag_36\n      tag_37\n      jump\t// in\n    tag_36:\n      stop\n        /* \"contracts/LunchVenue_updated.sol\":2378:3271  function doVote ( uint venue ) public votingOpen lunchNotCancelled returns ( bool validVote ){... */\n    tag_7:\n      tag_38\n      0x04\n      dup1\n      calldatasize\n      sub\n      dup2\n      add\n      swap1\n      tag_39\n      swap2\n      swap1\n      tag_23\n      jump\t// in\n    tag_39:\n      tag_40\n      jump\t// in\n    tag_38:\n      mload(0x40)\n      tag_41\n      swap2\n      swap1\n      tag_42\n      jump\t// in\n    tag_41:\n      mload(0x40)\n      dup1\n      swap2\n      sub\n      swap1\n      return\n        /* \"contracts/LunchVenue_updated.sol\":616:645  string public votedVenue = \"\" */\n    tag_8:\n      tag_43\n      tag_44\n      jump\t// in\n    tag_43:\n      mload(0x40)\n      tag_45\n      swap2\n      swap1\n      tag_26\n      jump\t// in\n    tag_45:\n      mload(0x40)\n      dup1\n      swap2\n      sub\n      swap1\n      return\n        /* \"contracts/LunchVenue_updated.sol\":376:420  mapping ( address => Friend ) public friends */\n    tag_9:\n      tag_46\n      0x04\n      dup1\n      calldatasize\n      sub\n      dup2\n      add\n      swap1\n      tag_47\n      swap2\n      swap1\n      tag_48\n      jump\t// in\n    tag_47:\n      tag_49\n      jump\t// in\n    tag_46:\n      mload(0x40)\n      tag_50\n      swap3\n      swap2\n      swap1\n      tag_51\n      jump\t// in\n    tag_50:\n      mload(0x40)\n      dup1\n      swap2\n      sub\n      swap1\n      return\n        /* \"contracts/LunchVenue_updated.sol\":1786:2094  function addFriend ( address friendAddress , string memory name ) public addFriendAndVenuePhase restricted... */\n    tag_10:\n      tag_52\n      0x04\n      dup1\n      calldatasize\n      sub\n      dup2\n      add\n      swap1\n      tag_53\n      swap2\n      swap1\n      tag_54\n      jump\t// in\n    tag_53:\n      tag_55\n      jump\t// in\n    tag_52:\n      mload(0x40)\n      tag_56\n      swap2\n      swap1\n      tag_32\n      jump\t// in\n    tag_56:\n      mload(0x40)\n      dup1\n      swap2\n      sub\n      swap1\n      return\n        /* \"contracts/LunchVenue_updated.sol\":498:524  uint public numFriends = 0 */\n    tag_11:\n      tag_57\n      tag_58\n      jump\t// in\n    tag_57:\n      mload(0x40)\n      tag_59\n      swap2\n      swap1\n      tag_32\n      jump\t// in\n    tag_59:\n      mload(0x40)\n      dup1\n      swap2\n      sub\n      swap1\n      return\n        /* \"contracts/LunchVenue_updated.sol\":560:582  address public manager */\n    tag_12:\n      tag_60\n      tag_61\n      jump\t// in\n    tag_60:\n      mload(0x40)\n      tag_62\n      swap2\n      swap1\n      tag_63\n      jump\t// in\n    tag_62:\n      mload(0x40)\n      dup1\n      swap2\n      sub\n      swap1\n      return\n        /* \"contracts/LunchVenue_updated.sol\":530:554  uint public numVotes = 0 */\n    tag_13:\n      tag_64\n      tag_65\n      jump\t// in\n    tag_64:\n      mload(0x40)\n      tag_66\n      swap2\n      swap1\n      tag_32\n      jump\t// in\n    tag_66:\n      mload(0x40)\n      dup1\n      swap2\n      sub\n      swap1\n      return\n        /* \"contracts/LunchVenue_updated.sol\":4158:4230  function openVoting() public restricted {... */\n    tag_14:\n      tag_67\n      tag_68\n      jump\t// in\n    tag_67:\n      stop\n        /* \"contracts/LunchVenue_updated.sol\":4633:4745  function startVotingPhase() public restricted {... */\n    tag_15:\n      tag_69\n      tag_70\n      jump\t// in\n    tag_69:\n      stop\n        /* \"contracts/LunchVenue_updated.sol\":4487:4569  function uncancelLunch() public restricted {... */\n    tag_16:\n      tag_71\n      tag_72\n      jump\t// in\n    tag_71:\n      stop\n        /* \"contracts/LunchVenue_updated.sol\":4291:4424  function cancelLunch() public restricted {... */\n    tag_17:\n      tag_73\n      tag_74\n      jump\t// in\n    tag_73:\n      stop\n        /* \"contracts/LunchVenue_updated.sol\":291:331  mapping ( uint => string ) public venues */\n    tag_24:\n      mstore(0x20, 0x00)\n      dup1\n      0x00\n      mstore\n      keccak256(0x00, 0x40)\n      0x00\n      swap2\n      pop\n      swap1\n      pop\n      dup1\n      sload\n      tag_75\n      swap1\n      tag_76\n      jump\t// in\n    tag_75:\n      dup1\n      0x1f\n      add\n      0x20\n      dup1\n      swap2\n      div\n      mul\n      0x20\n      add\n      mload(0x40)\n      swap1\n      dup2\n      add\n      0x40\n      mstore\n      dup1\n      swap3\n      swap2\n      swap1\n      dup2\n      dup2\n      mstore\n      0x20\n      add\n      dup3\n      dup1\n      sload\n      tag_77\n      swap1\n      tag_76\n      jump\t// in\n    tag_77:\n      dup1\n      iszero\n      tag_78\n      jumpi\n      dup1\n      0x1f\n      lt\n      tag_79\n      jumpi\n      0x0100\n      dup1\n      dup4\n      sload\n      div\n      mul\n      dup4\n      mstore\n      swap2\n      0x20\n      add\n      swap2\n      jump(tag_78)\n    tag_79:\n      dup3\n      add\n      swap2\n      swap1\n      0x00\n      mstore\n      keccak256(0x00, 0x20)\n      swap1\n    tag_80:\n      dup2\n      sload\n      dup2\n      mstore\n      swap1\n      0x01\n      add\n      swap1\n      0x20\n      add\n      dup1\n      dup4\n      gt\n      tag_80\n      jumpi\n      dup3\n      swap1\n      sub\n      0x1f\n      and\n      dup3\n      add\n      swap2\n    tag_78:\n      pop\n      pop\n      pop\n      pop\n      pop\n      dup2\n      jump\t// out\n        /* \"contracts/LunchVenue_updated.sol\":1317:1503  function addVenue(string memory name) public addFriendAndVenuePhase restricted  returns (uint){... */\n    tag_30:\n        /* \"contracts/LunchVenue_updated.sol\":1406:1410  uint */\n      0x00\n        /* \"contracts/LunchVenue_updated.sol\":5597:5602  false */\n      dup1\n        /* \"contracts/LunchVenue_updated.sol\":5573:5602  lockFriendsAndVenues == false */\n      iszero\n      iszero\n        /* \"contracts/LunchVenue_updated.sol\":5573:5593  lockFriendsAndVenues */\n      0x09\n      0x02\n      swap1\n      sload\n      swap1\n      0x0100\n      exp\n      swap1\n      div\n      0xff\n      and\n        /* \"contracts/LunchVenue_updated.sol\":5573:5602  lockFriendsAndVenues == false */\n      iszero\n      iszero\n      eq\n        /* \"contracts/LunchVenue_updated.sol\":5564:5662  require (lockFriendsAndVenues == false, \"Can only execute function in add friend and venue phase\") */\n      tag_82\n      jumpi\n      mload(0x40)\n      0x08c379a000000000000000000000000000000000000000000000000000000000\n      dup2\n      mstore\n      0x04\n      add\n      tag_83\n      swap1\n      tag_84\n      jump\t// in\n    tag_83:\n      mload(0x40)\n      dup1\n      swap2\n      sub\n      swap1\n      revert\n    tag_82:\n        /* \"contracts/LunchVenue_updated.sol\":5223:5230  manager */\n      0x05\n      0x00\n      swap1\n      sload\n      swap1\n      0x0100\n      exp\n      swap1\n      div\n      0xffffffffffffffffffffffffffffffffffffffff\n      and\n        /* \"contracts/LunchVenue_updated.sol\":5207:5230  msg . sender == manager */\n      0xffffffffffffffffffffffffffffffffffffffff\n      and\n        /* \"contracts/LunchVenue_updated.sol\":5207:5219  msg . sender */\n      caller\n        /* \"contracts/LunchVenue_updated.sol\":5207:5230  msg . sender == manager */\n      0xffffffffffffffffffffffffffffffffffffffff\n      and\n      eq\n        /* \"contracts/LunchVenue_updated.sol\":5197:5271  require ( msg . sender == manager , \"Can only be executed by the manager\") */\n      tag_86\n      jumpi\n      mload(0x40)\n      0x08c379a000000000000000000000000000000000000000000000000000000000\n      dup2\n      mstore\n      0x04\n      add\n      tag_87\n      swap1\n      tag_88\n      jump\t// in\n    tag_87:\n      mload(0x40)\n      dup1\n      swap2\n      sub\n      swap1\n      revert\n    tag_86:\n        /* \"contracts/LunchVenue_updated.sol\":1421:1430  numVenues */\n      0x02\n      0x00\n        /* \"contracts/LunchVenue_updated.sol\":1421:1433  numVenues ++ */\n      dup2\n      sload\n      dup1\n      swap3\n      swap2\n      swap1\n      tag_90\n      swap1\n      tag_91\n      jump\t// in\n    tag_90:\n      swap2\n      swap1\n      pop\n      sstore\n      pop\n        /* \"contracts/LunchVenue_updated.sol\":1464:1468  name */\n      dup2\n        /* \"contracts/LunchVenue_updated.sol\":1443:1449  venues */\n      0x00\n        /* \"contracts/LunchVenue_updated.sol\":1443:1461  venues [numVenues] */\n      dup1\n        /* \"contracts/LunchVenue_updated.sol\":1451:1460  numVenues */\n      sload(0x02)\n        /* \"contracts/LunchVenue_updated.sol\":1443:1461  venues [numVenues] */\n      dup2\n      mstore\n      0x20\n      add\n      swap1\n      dup2\n      mstore\n      0x20\n      add\n      0x00\n      keccak256\n        /* \"contracts/LunchVenue_updated.sol\":1443:1468  venues [numVenues] = name */\n      swap1\n      dup1\n      mload\n      swap1\n      0x20\n      add\n      swap1\n      tag_92\n      swap3\n      swap2\n      swap1\n      tag_93\n      jump\t// in\n    tag_92:\n      pop\n        /* \"contracts/LunchVenue_updated.sol\":1486:1495  numVenues */\n      sload(0x02)\n        /* \"contracts/LunchVenue_updated.sol\":1479:1495  return numVenues */\n      swap1\n      pop\n        /* \"contracts/LunchVenue_updated.sol\":1317:1503  function addVenue(string memory name) public addFriendAndVenuePhase restricted  returns (uint){... */\n      swap2\n      swap1\n      pop\n      jump\t// out\n        /* \"contracts/LunchVenue_updated.sol\":467:492  uint public numVenues = 0 */\n    tag_34:\n      sload(0x02)\n      dup2\n      jump\t// out\n        /* \"contracts/LunchVenue_updated.sol\":4805:4935  function startAddFriendsAndVenuesPhase() public restricted {... */\n    tag_37:\n        /* \"contracts/LunchVenue_updated.sol\":5223:5230  manager */\n      0x05\n      0x00\n      swap1\n      sload\n      swap1\n      0x0100\n      exp\n      swap1\n      div\n      0xffffffffffffffffffffffffffffffffffffffff\n      and\n        /* \"contracts/LunchVenue_updated.sol\":5207:5230  msg . sender == manager */\n      0xffffffffffffffffffffffffffffffffffffffff\n      and\n        /* \"contracts/LunchVenue_updated.sol\":5207:5219  msg . sender */\n      caller\n        /* \"contracts/LunchVenue_updated.sol\":5207:5230  msg . sender == manager */\n      0xffffffffffffffffffffffffffffffffffffffff\n      and\n      eq\n        /* \"contracts/LunchVenue_updated.sol\":5197:5271  require ( msg . sender == manager , \"Can only be executed by the manager\") */\n      tag_95\n      jumpi\n      mload(0x40)\n      0x08c379a000000000000000000000000000000000000000000000000000000000\n      dup2\n      mstore\n      0x04\n      add\n      tag_96\n      swap1\n      tag_88\n      jump\t// in\n    tag_96:\n      mload(0x40)\n      dup1\n      swap2\n      sub\n      swap1\n      revert\n    tag_95:\n        /* \"contracts/LunchVenue_updated.sol\":4897:4902  false */\n      0x00\n        /* \"contracts/LunchVenue_updated.sol\":4874:4894  lockFriendsAndVenues */\n      0x09\n      0x02\n        /* \"contracts/LunchVenue_updated.sol\":4874:4902  lockFriendsAndVenues = false */\n      0x0100\n      exp\n      dup2\n      sload\n      dup2\n      0xff\n      mul\n      not\n      and\n      swap1\n      dup4\n      iszero\n      iszero\n      mul\n      or\n      swap1\n      sstore\n      pop\n        /* \"contracts/LunchVenue_updated.sol\":4923:4928  false */\n      0x00\n        /* \"contracts/LunchVenue_updated.sol\":4912:4920  voteOpen */\n      0x09\n      0x00\n        /* \"contracts/LunchVenue_updated.sol\":4912:4928  voteOpen = false */\n      0x0100\n      exp\n      dup2\n      sload\n      dup2\n      0xff\n      mul\n      not\n      and\n      swap1\n      dup4\n      iszero\n      iszero\n      mul\n      or\n      swap1\n      sstore\n      pop\n        /* \"contracts/LunchVenue_updated.sol\":4805:4935  function startAddFriendsAndVenuesPhase() public restricted {... */\n      jump\t// out\n        /* \"contracts/LunchVenue_updated.sol\":2378:3271  function doVote ( uint venue ) public votingOpen lunchNotCancelled returns ( bool validVote ){... */\n    tag_40:\n        /* \"contracts/LunchVenue_updated.sol\":2455:2469  bool validVote */\n      0x00\n        /* \"contracts/LunchVenue_updated.sol\":5398:5402  true */\n      0x01\n        /* \"contracts/LunchVenue_updated.sol\":5386:5402  voteOpen == true */\n      iszero\n      iszero\n        /* \"contracts/LunchVenue_updated.sol\":5386:5394  voteOpen */\n      0x09\n      0x00\n      swap1\n      sload\n      swap1\n      0x0100\n      exp\n      swap1\n      div\n      0xff\n      and\n        /* \"contracts/LunchVenue_updated.sol\":5386:5402  voteOpen == true */\n      iszero\n      iszero\n      eq\n        /* \"contracts/LunchVenue_updated.sol\":5376:5444  require ( voteOpen == true , \"Can vote only while voting is open .\") */\n      tag_99\n      jumpi\n      mload(0x40)\n      0x08c379a000000000000000000000000000000000000000000000000000000000\n      dup2\n      mstore\n      0x04\n      add\n      tag_100\n      swap1\n      tag_101\n      jump\t// in\n    tag_100:\n      mload(0x40)\n      dup1\n      swap2\n      sub\n      swap1\n      revert\n    tag_99:\n        /* \"contracts/LunchVenue_updated.sol\":5045:5050  false */\n      0x00\n        /* \"contracts/LunchVenue_updated.sol\":5027:5050  lunchCancelled == false */\n      iszero\n      iszero\n        /* \"contracts/LunchVenue_updated.sol\":5027:5041  lunchCancelled */\n      0x09\n      0x01\n      swap1\n      sload\n      swap1\n      0x0100\n      exp\n      swap1\n      div\n      0xff\n      and\n        /* \"contracts/LunchVenue_updated.sol\":5027:5050  lunchCancelled == false */\n      iszero\n      iszero\n      eq\n        /* \"contracts/LunchVenue_updated.sol\":5017:5104  require ( lunchCancelled == false , \"Cannot execute function while lunch is cancelled\") */\n      tag_103\n      jumpi\n      mload(0x40)\n      0x08c379a000000000000000000000000000000000000000000000000000000000\n      dup2\n      mstore\n      0x04\n      add\n      tag_104\n      swap1\n      tag_105\n      jump\t// in\n    tag_104:\n      mload(0x40)\n      dup1\n      swap2\n      sub\n      swap1\n      revert\n    tag_103:\n        /* \"contracts/LunchVenue_updated.sol\":2493:2498  false */\n      0x00\n        /* \"contracts/LunchVenue_updated.sol\":2481:2498  validVote = false */\n      swap1\n      pop\n        /* \"contracts/LunchVenue_updated.sol\":2589:2590  0 */\n      0x00\n        /* \"contracts/LunchVenue_updated.sol\":2545:2552  friends */\n      0x01\n        /* \"contracts/LunchVenue_updated.sol\":2545:2569  friends [ msg . sender ] */\n      0x00\n        /* \"contracts/LunchVenue_updated.sol\":2555:2567  msg . sender */\n      caller\n        /* \"contracts/LunchVenue_updated.sol\":2545:2569  friends [ msg . sender ] */\n      0xffffffffffffffffffffffffffffffffffffffff\n      and\n      0xffffffffffffffffffffffffffffffffffffffff\n      and\n      dup2\n      mstore\n      0x20\n      add\n      swap1\n      dup2\n      mstore\n      0x20\n      add\n      0x00\n      keccak256\n        /* \"contracts/LunchVenue_updated.sol\":2545:2575  friends [ msg . sender ]. name */\n      0x00\n      add\n        /* \"contracts/LunchVenue_updated.sol\":2537:2585  bytes ( friends [ msg . sender ]. name ). length */\n      dup1\n      sload\n      tag_107\n      swap1\n      tag_76\n      jump\t// in\n    tag_107:\n      swap1\n      pop\n        /* \"contracts/LunchVenue_updated.sol\":2537:2590  bytes ( friends [ msg . sender ]. name ). length != 0 */\n      eq\n        /* \"contracts/LunchVenue_updated.sol\":2532:3132  if ( bytes ( friends [ msg . sender ]. name ). length != 0) { // Does friend exist ?... */\n      tag_108\n      jumpi\n        /* \"contracts/LunchVenue_updated.sol\":2662:2667  false */\n      0x00\n        /* \"contracts/LunchVenue_updated.sol\":2633:2667  friends[msg.sender].voted == false */\n      iszero\n      iszero\n        /* \"contracts/LunchVenue_updated.sol\":2633:2640  friends */\n      0x01\n        /* \"contracts/LunchVenue_updated.sol\":2633:2652  friends[msg.sender] */\n      0x00\n        /* \"contracts/LunchVenue_updated.sol\":2641:2651  msg.sender */\n      caller\n        /* \"contracts/LunchVenue_updated.sol\":2633:2652  friends[msg.sender] */\n      0xffffffffffffffffffffffffffffffffffffffff\n      and\n      0xffffffffffffffffffffffffffffffffffffffff\n      and\n      dup2\n      mstore\n      0x20\n      add\n      swap1\n      dup2\n      mstore\n      0x20\n      add\n      0x00\n      keccak256\n        /* \"contracts/LunchVenue_updated.sol\":2633:2658  friends[msg.sender].voted */\n      0x01\n      add\n      0x00\n      swap1\n      sload\n      swap1\n      0x0100\n      exp\n      swap1\n      div\n      0xff\n      and\n        /* \"contracts/LunchVenue_updated.sol\":2633:2667  friends[msg.sender].voted == false */\n      iszero\n      iszero\n      eq\n        /* \"contracts/LunchVenue_updated.sol\":2629:3122  if (friends[msg.sender].voted == false) {  // Has friend already voted ?... */\n      iszero\n      tag_109\n      jumpi\n        /* \"contracts/LunchVenue_updated.sol\":2761:2762  0 */\n      0x00\n        /* \"contracts/LunchVenue_updated.sol\":2731:2737  venues */\n      dup1\n        /* \"contracts/LunchVenue_updated.sol\":2731:2747  venues [ venue ] */\n      0x00\n        /* \"contracts/LunchVenue_updated.sol\":2740:2745  venue */\n      dup5\n        /* \"contracts/LunchVenue_updated.sol\":2731:2747  venues [ venue ] */\n      dup2\n      mstore\n      0x20\n      add\n      swap1\n      dup2\n      mstore\n      0x20\n      add\n      0x00\n      keccak256\n        /* \"contracts/LunchVenue_updated.sol\":2723:2757  bytes ( venues [ venue ]) . length */\n      dup1\n      sload\n      tag_110\n      swap1\n      tag_76\n      jump\t// in\n    tag_110:\n      swap1\n      pop\n        /* \"contracts/LunchVenue_updated.sol\":2723:2762  bytes ( venues [ venue ]) . length != 0 */\n      eq\n        /* \"contracts/LunchVenue_updated.sol\":2718:3108  if ( bytes ( venues [ venue ]) . length != 0) { // Does venue exist ?... */\n      tag_111\n      jumpi\n        /* \"contracts/LunchVenue_updated.sol\":2820:2824  true */\n      0x01\n        /* \"contracts/LunchVenue_updated.sol\":2808:2824  validVote = true */\n      swap1\n      pop\n        /* \"contracts/LunchVenue_updated.sol\":2880:2884  true */\n      0x01\n        /* \"contracts/LunchVenue_updated.sol\":2847:2854  friends */\n      dup1\n        /* \"contracts/LunchVenue_updated.sol\":2847:2870  friends [msg . sender ] */\n      0x00\n        /* \"contracts/LunchVenue_updated.sol\":2856:2868  msg . sender */\n      caller\n        /* \"contracts/LunchVenue_updated.sol\":2847:2870  friends [msg . sender ] */\n      0xffffffffffffffffffffffffffffffffffffffff\n      and\n      0xffffffffffffffffffffffffffffffffffffffff\n      and\n      dup2\n      mstore\n      0x20\n      add\n      swap1\n      dup2\n      mstore\n      0x20\n      add\n      0x00\n      keccak256\n        /* \"contracts/LunchVenue_updated.sol\":2847:2877  friends [msg . sender ]. voted */\n      0x01\n      add\n      0x00\n        /* \"contracts/LunchVenue_updated.sol\":2847:2884  friends [msg . sender ]. voted = true */\n      0x0100\n      exp\n      dup2\n      sload\n      dup2\n      0xff\n      mul\n      not\n      and\n      swap1\n      dup4\n      iszero\n      iszero\n      mul\n      or\n      swap1\n      sstore\n      pop\n        /* \"contracts/LunchVenue_updated.sol\":2907:2920  Vote memory v */\n      tag_112\n      tag_113\n      jump\t// in\n    tag_112:\n        /* \"contracts/LunchVenue_updated.sol\":2960:2972  msg . sender */\n      caller\n        /* \"contracts/LunchVenue_updated.sol\":2942:2943  v */\n      dup2\n        /* \"contracts/LunchVenue_updated.sol\":2942:2957  v. voterAddress */\n      0x00\n      add\n        /* \"contracts/LunchVenue_updated.sol\":2942:2972  v. voterAddress = msg . sender */\n      swap1\n      0xffffffffffffffffffffffffffffffffffffffff\n      and\n      swap1\n      dup2\n      0xffffffffffffffffffffffffffffffffffffffff\n      and\n      dup2\n      mstore\n      pop\n      pop\n        /* \"contracts/LunchVenue_updated.sol\":3006:3011  venue */\n      dup3\n        /* \"contracts/LunchVenue_updated.sol\":2995:2996  v */\n      dup2\n        /* \"contracts/LunchVenue_updated.sol\":2995:3003  v. venue */\n      0x20\n      add\n        /* \"contracts/LunchVenue_updated.sol\":2995:3011  v. venue = venue */\n      dup2\n      dup2\n      mstore\n      pop\n      pop\n        /* \"contracts/LunchVenue_updated.sol\":3034:3042  numVotes */\n      0x04\n      0x00\n        /* \"contracts/LunchVenue_updated.sol\":3034:3045  numVotes ++ */\n      dup2\n      sload\n      dup1\n      swap3\n      swap2\n      swap1\n      tag_114\n      swap1\n      tag_91\n      jump\t// in\n    tag_114:\n      swap2\n      swap1\n      pop\n      sstore\n      pop\n        /* \"contracts/LunchVenue_updated.sol\":3088:3089  v */\n      dup1\n        /* \"contracts/LunchVenue_updated.sol\":3067:3072  votes */\n      0x07\n        /* \"contracts/LunchVenue_updated.sol\":3067:3085  votes [ numVotes ] */\n      0x00\n        /* \"contracts/LunchVenue_updated.sol\":3075:3083  numVotes */\n      sload(0x04)\n        /* \"contracts/LunchVenue_updated.sol\":3067:3085  votes [ numVotes ] */\n      dup2\n      mstore\n      0x20\n      add\n      swap1\n      dup2\n      mstore\n      0x20\n      add\n      0x00\n      keccak256\n        /* \"contracts/LunchVenue_updated.sol\":3067:3089  votes [ numVotes ] = v */\n      0x00\n      dup3\n      add\n      mload\n      dup2\n      0x00\n      add\n      exp(0x0100, 0x00)\n      dup2\n      sload\n      dup2\n      0xffffffffffffffffffffffffffffffffffffffff\n      mul\n      not\n      and\n      swap1\n      dup4\n      0xffffffffffffffffffffffffffffffffffffffff\n      and\n      mul\n      or\n      swap1\n      sstore\n      pop\n      0x20\n      dup3\n      add\n      mload\n      dup2\n      0x01\n      add\n      sstore\n      swap1\n      pop\n      pop\n        /* \"contracts/LunchVenue_updated.sol\":2764:3108  { // Does venue exist ?... */\n      pop\n        /* \"contracts/LunchVenue_updated.sol\":2718:3108  if ( bytes ( venues [ venue ]) . length != 0) { // Does venue exist ?... */\n    tag_111:\n        /* \"contracts/LunchVenue_updated.sol\":2629:3122  if (friends[msg.sender].voted == false) {  // Has friend already voted ?... */\n    tag_109:\n        /* \"contracts/LunchVenue_updated.sol\":2532:3132  if ( bytes ( friends [ msg . sender ]. name ). length != 0) { // Does friend exist ?... */\n    tag_108:\n        /* \"contracts/LunchVenue_updated.sol\":3174:3175  1 */\n      0x01\n        /* \"contracts/LunchVenue_updated.sol\":3170:3171  2 */\n      0x02\n        /* \"contracts/LunchVenue_updated.sol\":3158:3168  numFriends */\n      sload(0x03)\n        /* \"contracts/LunchVenue_updated.sol\":3158:3171  numFriends /2 */\n      tag_115\n      swap2\n      swap1\n      tag_116\n      jump\t// in\n    tag_115:\n        /* \"contracts/LunchVenue_updated.sol\":3158:3175  numFriends /2 + 1 */\n      tag_117\n      swap2\n      swap1\n      tag_118\n      jump\t// in\n    tag_117:\n        /* \"contracts/LunchVenue_updated.sol\":3146:3154  numVotes */\n      sload(0x04)\n        /* \"contracts/LunchVenue_updated.sol\":3146:3175  numVotes >= numFriends /2 + 1 */\n      lt\n        /* \"contracts/LunchVenue_updated.sol\":3141:3234  if ( numVotes >= numFriends /2 + 1) { // Quorum is met... */\n      tag_119\n      jumpi\n        /* \"contracts/LunchVenue_updated.sol\":3208:3222  finalResult () */\n      tag_120\n        /* \"contracts/LunchVenue_updated.sol\":3208:3219  finalResult */\n      tag_121\n        /* \"contracts/LunchVenue_updated.sol\":3208:3222  finalResult () */\n      jump\t// in\n    tag_120:\n        /* \"contracts/LunchVenue_updated.sol\":3141:3234  if ( numVotes >= numFriends /2 + 1) { // Quorum is met... */\n    tag_119:\n        /* \"contracts/LunchVenue_updated.sol\":2378:3271  function doVote ( uint venue ) public votingOpen lunchNotCancelled returns ( bool validVote ){... */\n      swap2\n      swap1\n      pop\n      jump\t// out\n        /* \"contracts/LunchVenue_updated.sol\":616:645  string public votedVenue = \"\" */\n    tag_44:\n      0x06\n      dup1\n      sload\n      tag_122\n      swap1\n      tag_76\n      jump\t// in\n    tag_122:\n      dup1\n      0x1f\n      add\n      0x20\n      dup1\n      swap2\n      div\n      mul\n      0x20\n      add\n      mload(0x40)\n      swap1\n      dup2\n      add\n      0x40\n      mstore\n      dup1\n      swap3\n      swap2\n      swap1\n      dup2\n      dup2\n      mstore\n      0x20\n      add\n      dup3\n      dup1\n      sload\n      tag_123\n      swap1\n      tag_76\n      jump\t// in\n    tag_123:\n      dup1\n      iszero\n      tag_124\n      jumpi\n      dup1\n      0x1f\n      lt\n      tag_125\n      jumpi\n      0x0100\n      dup1\n      dup4\n      sload\n      div\n      mul\n      dup4\n      mstore\n      swap2\n      0x20\n      add\n      swap2\n      jump(tag_124)\n    tag_125:\n      dup3\n      add\n      swap2\n      swap1\n      0x00\n      mstore\n      keccak256(0x00, 0x20)\n      swap1\n    tag_126:\n      dup2\n      sload\n      dup2\n      mstore\n      swap1\n      0x01\n      add\n      swap1\n      0x20\n      add\n      dup1\n      dup4\n      gt\n      tag_126\n      jumpi\n      dup3\n      swap1\n      sub\n      0x1f\n      and\n      dup3\n      add\n      swap2\n    tag_124:\n      pop\n      pop\n      pop\n      pop\n      pop\n      dup2\n      jump\t// out\n        /* \"contracts/LunchVenue_updated.sol\":376:420  mapping ( address => Friend ) public friends */\n    tag_49:\n      mstore(0x20, 0x01)\n      dup1\n      0x00\n      mstore\n      keccak256(0x00, 0x40)\n      0x00\n      swap2\n      pop\n      swap1\n      pop\n      dup1\n      0x00\n      add\n      dup1\n      sload\n      tag_127\n      swap1\n      tag_76\n      jump\t// in\n    tag_127:\n      dup1\n      0x1f\n      add\n      0x20\n      dup1\n      swap2\n      div\n      mul\n      0x20\n      add\n      mload(0x40)\n      swap1\n      dup2\n      add\n      0x40\n      mstore\n      dup1\n      swap3\n      swap2\n      swap1\n      dup2\n      dup2\n      mstore\n      0x20\n      add\n      dup3\n      dup1\n      sload\n      tag_128\n      swap1\n      tag_76\n      jump\t// in\n    tag_128:\n      dup1\n      iszero\n      tag_129\n      jumpi\n      dup1\n      0x1f\n      lt\n      tag_130\n      jumpi\n      0x0100\n      dup1\n      dup4\n      sload\n      div\n      mul\n      dup4\n      mstore\n      swap2\n      0x20\n      add\n      swap2\n      jump(tag_129)\n    tag_130:\n      dup3\n      add\n      swap2\n      swap1\n      0x00\n      mstore\n      keccak256(0x00, 0x20)\n      swap1\n    tag_131:\n      dup2\n      sload\n      dup2\n      mstore\n      swap1\n      0x01\n      add\n      swap1\n      0x20\n      add\n      dup1\n      dup4\n      gt\n      tag_131\n      jumpi\n      dup3\n      swap1\n      sub\n      0x1f\n      and\n      dup3\n      add\n      swap2\n    tag_129:\n      pop\n      pop\n      pop\n      pop\n      pop\n      swap1\n      dup1\n      0x01\n      add\n      0x00\n      swap1\n      sload\n      swap1\n      0x0100\n      exp\n      swap1\n      div\n      0xff\n      and\n      swap1\n      pop\n      dup3\n      jump\t// out\n        /* \"contracts/LunchVenue_updated.sol\":1786:2094  function addFriend ( address friendAddress , string memory name ) public addFriendAndVenuePhase restricted... */\n    tag_55:\n        /* \"contracts/LunchVenue_updated.sol\":1911:1915  uint */\n      0x00\n        /* \"contracts/LunchVenue_updated.sol\":5597:5602  false */\n      dup1\n        /* \"contracts/LunchVenue_updated.sol\":5573:5602  lockFriendsAndVenues == false */\n      iszero\n      iszero\n        /* \"contracts/LunchVenue_updated.sol\":5573:5593  lockFriendsAndVenues */\n      0x09\n      0x02\n      swap1\n      sload\n      swap1\n      0x0100\n      exp\n      swap1\n      div\n      0xff\n      and\n        /* \"contracts/LunchVenue_updated.sol\":5573:5602  lockFriendsAndVenues == false */\n      iszero\n      iszero\n      eq\n        /* \"contracts/LunchVenue_updated.sol\":5564:5662  require (lockFriendsAndVenues == false, \"Can only execute function in add friend and venue phase\") */\n      tag_133\n      jumpi\n      mload(0x40)\n      0x08c379a000000000000000000000000000000000000000000000000000000000\n      dup2\n      mstore\n      0x04\n      add\n      tag_134\n      swap1\n      tag_84\n      jump\t// in\n    tag_134:\n      mload(0x40)\n      dup1\n      swap2\n      sub\n      swap1\n      revert\n    tag_133:\n        /* \"contracts/LunchVenue_updated.sol\":5223:5230  manager */\n      0x05\n      0x00\n      swap1\n      sload\n      swap1\n      0x0100\n      exp\n      swap1\n      div\n      0xffffffffffffffffffffffffffffffffffffffff\n      and\n        /* \"contracts/LunchVenue_updated.sol\":5207:5230  msg . sender == manager */\n      0xffffffffffffffffffffffffffffffffffffffff\n      and\n        /* \"contracts/LunchVenue_updated.sol\":5207:5219  msg . sender */\n      caller\n        /* \"contracts/LunchVenue_updated.sol\":5207:5230  msg . sender == manager */\n      0xffffffffffffffffffffffffffffffffffffffff\n      and\n      eq\n        /* \"contracts/LunchVenue_updated.sol\":5197:5271  require ( msg . sender == manager , \"Can only be executed by the manager\") */\n      tag_136\n      jumpi\n      mload(0x40)\n      0x08c379a000000000000000000000000000000000000000000000000000000000\n      dup2\n      mstore\n      0x04\n      add\n      tag_137\n      swap1\n      tag_88\n      jump\t// in\n    tag_137:\n      mload(0x40)\n      dup1\n      swap2\n      sub\n      swap1\n      revert\n    tag_136:\n        /* \"contracts/LunchVenue_updated.sol\":1927:1942  Friend memory f */\n      tag_139\n      tag_140\n      jump\t// in\n    tag_139:\n        /* \"contracts/LunchVenue_updated.sol\":1962:1966  name */\n      dup3\n        /* \"contracts/LunchVenue_updated.sol\":1952:1953  f */\n      dup2\n        /* \"contracts/LunchVenue_updated.sol\":1952:1959  f. name */\n      0x00\n      add\n        /* \"contracts/LunchVenue_updated.sol\":1952:1966  f. name = name */\n      dup2\n      swap1\n      mstore\n      pop\n        /* \"contracts/LunchVenue_updated.sol\":1988:1993  false */\n      0x00\n        /* \"contracts/LunchVenue_updated.sol\":1977:1978  f */\n      dup2\n        /* \"contracts/LunchVenue_updated.sol\":1977:1985  f. voted */\n      0x20\n      add\n        /* \"contracts/LunchVenue_updated.sol\":1977:1993  f. voted = false */\n      swap1\n      iszero\n      iszero\n      swap1\n      dup2\n      iszero\n      iszero\n      dup2\n      mstore\n      pop\n      pop\n        /* \"contracts/LunchVenue_updated.sol\":2032:2033  f */\n      dup1\n        /* \"contracts/LunchVenue_updated.sol\":2004:2011  friends */\n      0x01\n        /* \"contracts/LunchVenue_updated.sol\":2004:2029  friends [ friendAddress ] */\n      0x00\n        /* \"contracts/LunchVenue_updated.sol\":2014:2027  friendAddress */\n      dup7\n        /* \"contracts/LunchVenue_updated.sol\":2004:2029  friends [ friendAddress ] */\n      0xffffffffffffffffffffffffffffffffffffffff\n      and\n      0xffffffffffffffffffffffffffffffffffffffff\n      and\n      dup2\n      mstore\n      0x20\n      add\n      swap1\n      dup2\n      mstore\n      0x20\n      add\n      0x00\n      keccak256\n        /* \"contracts/LunchVenue_updated.sol\":2004:2033  friends [ friendAddress ] = f */\n      0x00\n      dup3\n      add\n      mload\n      dup2\n      0x00\n      add\n      swap1\n      dup1\n      mload\n      swap1\n      0x20\n      add\n      swap1\n      tag_141\n      swap3\n      swap2\n      swap1\n      tag_93\n      jump\t// in\n    tag_141:\n      pop\n      0x20\n      dup3\n      add\n      mload\n      dup2\n      0x01\n      add\n      exp(0x0100, 0x00)\n      dup2\n      sload\n      dup2\n      0xff\n      mul\n      not\n      and\n      swap1\n      dup4\n      iszero\n      iszero\n      mul\n      or\n      swap1\n      sstore\n      pop\n      swap1\n      pop\n      pop\n        /* \"contracts/LunchVenue_updated.sol\":2044:2054  numFriends */\n      0x03\n      0x00\n        /* \"contracts/LunchVenue_updated.sol\":2044:2056  numFriends++ */\n      dup2\n      sload\n      dup1\n      swap3\n      swap2\n      swap1\n      tag_142\n      swap1\n      tag_91\n      jump\t// in\n    tag_142:\n      swap2\n      swap1\n      pop\n      sstore\n      pop\n        /* \"contracts/LunchVenue_updated.sol\":2073:2083  numFriends */\n      sload(0x03)\n        /* \"contracts/LunchVenue_updated.sol\":2066:2083  return numFriends */\n      swap2\n      pop\n      pop\n        /* \"contracts/LunchVenue_updated.sol\":1786:2094  function addFriend ( address friendAddress , string memory name ) public addFriendAndVenuePhase restricted... */\n      swap3\n      swap2\n      pop\n      pop\n      jump\t// out\n        /* \"contracts/LunchVenue_updated.sol\":498:524  uint public numFriends = 0 */\n    tag_58:\n      sload(0x03)\n      dup2\n      jump\t// out\n        /* \"contracts/LunchVenue_updated.sol\":560:582  address public manager */\n    tag_61:\n      0x05\n      0x00\n      swap1\n      sload\n      swap1\n      0x0100\n      exp\n      swap1\n      div\n      0xffffffffffffffffffffffffffffffffffffffff\n      and\n      dup2\n      jump\t// out\n        /* \"contracts/LunchVenue_updated.sol\":530:554  uint public numVotes = 0 */\n    tag_65:\n      sload(0x04)\n      dup2\n      jump\t// out\n        /* \"contracts/LunchVenue_updated.sol\":4158:4230  function openVoting() public restricted {... */\n    tag_68:\n        /* \"contracts/LunchVenue_updated.sol\":5223:5230  manager */\n      0x05\n      0x00\n      swap1\n      sload\n      swap1\n      0x0100\n      exp\n      swap1\n      div\n      0xffffffffffffffffffffffffffffffffffffffff\n      and\n        /* \"contracts/LunchVenue_updated.sol\":5207:5230  msg . sender == manager */\n      0xffffffffffffffffffffffffffffffffffffffff\n      and\n        /* \"contracts/LunchVenue_updated.sol\":5207:5219  msg . sender */\n      caller\n        /* \"contracts/LunchVenue_updated.sol\":5207:5230  msg . sender == manager */\n      0xffffffffffffffffffffffffffffffffffffffff\n      and\n      eq\n        /* \"contracts/LunchVenue_updated.sol\":5197:5271  require ( msg . sender == manager , \"Can only be executed by the manager\") */\n      tag_144\n      jumpi\n      mload(0x40)\n      0x08c379a000000000000000000000000000000000000000000000000000000000\n      dup2\n      mstore\n      0x04\n      add\n      tag_145\n      swap1\n      tag_88\n      jump\t// in\n    tag_145:\n      mload(0x40)\n      dup1\n      swap2\n      sub\n      swap1\n      revert\n    tag_144:\n        /* \"contracts/LunchVenue_updated.sol\":4219:4223  true */\n      0x01\n        /* \"contracts/LunchVenue_updated.sol\":4208:4216  voteOpen */\n      0x09\n      0x00\n        /* \"contracts/LunchVenue_updated.sol\":4208:4223  voteOpen = true */\n      0x0100\n      exp\n      dup2\n      sload\n      dup2\n      0xff\n      mul\n      not\n      and\n      swap1\n      dup4\n      iszero\n      iszero\n      mul\n      or\n      swap1\n      sstore\n      pop\n        /* \"contracts/LunchVenue_updated.sol\":4158:4230  function openVoting() public restricted {... */\n      jump\t// out\n        /* \"contracts/LunchVenue_updated.sol\":4633:4745  function startVotingPhase() public restricted {... */\n    tag_70:\n        /* \"contracts/LunchVenue_updated.sol\":5223:5230  manager */\n      0x05\n      0x00\n      swap1\n      sload\n      swap1\n      0x0100\n      exp\n      swap1\n      div\n      0xffffffffffffffffffffffffffffffffffffffff\n      and\n        /* \"contracts/LunchVenue_updated.sol\":5207:5230  msg . sender == manager */\n      0xffffffffffffffffffffffffffffffffffffffff\n      and\n        /* \"contracts/LunchVenue_updated.sol\":5207:5219  msg . sender */\n      caller\n        /* \"contracts/LunchVenue_updated.sol\":5207:5230  msg . sender == manager */\n      0xffffffffffffffffffffffffffffffffffffffff\n      and\n      eq\n        /* \"contracts/LunchVenue_updated.sol\":5197:5271  require ( msg . sender == manager , \"Can only be executed by the manager\") */\n      tag_148\n      jumpi\n      mload(0x40)\n      0x08c379a000000000000000000000000000000000000000000000000000000000\n      dup2\n      mstore\n      0x04\n      add\n      tag_149\n      swap1\n      tag_88\n      jump\t// in\n    tag_149:\n      mload(0x40)\n      dup1\n      swap2\n      sub\n      swap1\n      revert\n    tag_148:\n        /* \"contracts/LunchVenue_updated.sol\":4712:4716  true */\n      0x01\n        /* \"contracts/LunchVenue_updated.sol\":4689:4709  lockFriendsAndVenues */\n      0x09\n      0x02\n        /* \"contracts/LunchVenue_updated.sol\":4689:4716  lockFriendsAndVenues = true */\n      0x0100\n      exp\n      dup2\n      sload\n      dup2\n      0xff\n      mul\n      not\n      and\n      swap1\n      dup4\n      iszero\n      iszero\n      mul\n      or\n      swap1\n      sstore\n      pop\n        /* \"contracts/LunchVenue_updated.sol\":4726:4738  openVoting() */\n      tag_151\n        /* \"contracts/LunchVenue_updated.sol\":4726:4736  openVoting */\n      tag_68\n        /* \"contracts/LunchVenue_updated.sol\":4726:4738  openVoting() */\n      jump\t// in\n    tag_151:\n        /* \"contracts/LunchVenue_updated.sol\":4633:4745  function startVotingPhase() public restricted {... */\n      jump\t// out\n        /* \"contracts/LunchVenue_updated.sol\":4487:4569  function uncancelLunch() public restricted {... */\n    tag_72:\n        /* \"contracts/LunchVenue_updated.sol\":5223:5230  manager */\n      0x05\n      0x00\n      swap1\n      sload\n      swap1\n      0x0100\n      exp\n      swap1\n      div\n      0xffffffffffffffffffffffffffffffffffffffff\n      and\n        /* \"contracts/LunchVenue_updated.sol\":5207:5230  msg . sender == manager */\n      0xffffffffffffffffffffffffffffffffffffffff\n      and\n        /* \"contracts/LunchVenue_updated.sol\":5207:5219  msg . sender */\n      caller\n        /* \"contracts/LunchVenue_updated.sol\":5207:5230  msg . sender == manager */\n      0xffffffffffffffffffffffffffffffffffffffff\n      and\n      eq\n        /* \"contracts/LunchVenue_updated.sol\":5197:5271  require ( msg . sender == manager , \"Can only be executed by the manager\") */\n      tag_153\n      jumpi\n      mload(0x40)\n      0x08c379a000000000000000000000000000000000000000000000000000000000\n      dup2\n      mstore\n      0x04\n      add\n      tag_154\n      swap1\n      tag_88\n      jump\t// in\n    tag_154:\n      mload(0x40)\n      dup1\n      swap2\n      sub\n      swap1\n      revert\n    tag_153:\n        /* \"contracts/LunchVenue_updated.sol\":4557:4562  false */\n      0x00\n        /* \"contracts/LunchVenue_updated.sol\":4540:4554  lunchCancelled */\n      0x09\n      0x01\n        /* \"contracts/LunchVenue_updated.sol\":4540:4562  lunchCancelled = false */\n      0x0100\n      exp\n      dup2\n      sload\n      dup2\n      0xff\n      mul\n      not\n      and\n      swap1\n      dup4\n      iszero\n      iszero\n      mul\n      or\n      swap1\n      sstore\n      pop\n        /* \"contracts/LunchVenue_updated.sol\":4487:4569  function uncancelLunch() public restricted {... */\n      jump\t// out\n        /* \"contracts/LunchVenue_updated.sol\":4291:4424  function cancelLunch() public restricted {... */\n    tag_74:\n        /* \"contracts/LunchVenue_updated.sol\":5223:5230  manager */\n      0x05\n      0x00\n      swap1\n      sload\n      swap1\n      0x0100\n      exp\n      swap1\n      div\n      0xffffffffffffffffffffffffffffffffffffffff\n      and\n        /* \"contracts/LunchVenue_updated.sol\":5207:5230  msg . sender == manager */\n      0xffffffffffffffffffffffffffffffffffffffff\n      and\n        /* \"contracts/LunchVenue_updated.sol\":5207:5219  msg . sender */\n      caller\n        /* \"contracts/LunchVenue_updated.sol\":5207:5230  msg . sender == manager */\n      0xffffffffffffffffffffffffffffffffffffffff\n      and\n      eq\n        /* \"contracts/LunchVenue_updated.sol\":5197:5271  require ( msg . sender == manager , \"Can only be executed by the manager\") */\n      tag_157\n      jumpi\n      mload(0x40)\n      0x08c379a000000000000000000000000000000000000000000000000000000000\n      dup2\n      mstore\n      0x04\n      add\n      tag_158\n      swap1\n      tag_88\n      jump\t// in\n    tag_158:\n      mload(0x40)\n      dup1\n      swap2\n      sub\n      swap1\n      revert\n    tag_157:\n        /* \"contracts/LunchVenue_updated.sol\":4359:4363  true */\n      0x01\n        /* \"contracts/LunchVenue_updated.sol\":4342:4356  lunchCancelled */\n      0x09\n      0x01\n        /* \"contracts/LunchVenue_updated.sol\":4342:4363  lunchCancelled = true */\n      0x0100\n      exp\n      dup2\n      sload\n      dup2\n      0xff\n      mul\n      not\n      and\n      swap1\n      dup4\n      iszero\n      iszero\n      mul\n      or\n      swap1\n      sstore\n      pop\n        /* \"contracts/LunchVenue_updated.sol\":4373:4417  votedVenue = 'No venue - lunch is cancelled' */\n      mload(0x40)\n      dup1\n      0x40\n      add\n      0x40\n      mstore\n      dup1\n      0x1d\n      dup2\n      mstore\n      0x20\n      add\n      0x4e6f2076656e7565202d206c756e63682069732063616e63656c6c6564000000\n      dup2\n      mstore\n      pop\n        /* \"contracts/LunchVenue_updated.sol\":4373:4383  votedVenue */\n      0x06\n        /* \"contracts/LunchVenue_updated.sol\":4373:4417  votedVenue = 'No venue - lunch is cancelled' */\n      swap1\n      dup1\n      mload\n      swap1\n      0x20\n      add\n      swap1\n      tag_160\n      swap3\n      swap2\n      swap1\n      tag_93\n      jump\t// in\n    tag_160:\n      pop\n        /* \"contracts/LunchVenue_updated.sol\":4291:4424  function cancelLunch() public restricted {... */\n      jump\t// out\n        /* \"contracts/LunchVenue_updated.sol\":3407:4107  function finalResult () private {... */\n    tag_121:\n        /* \"contracts/LunchVenue_updated.sol\":3449:3466  uint highestVotes */\n      0x00\n        /* \"contracts/LunchVenue_updated.sol\":3480:3497  uint highestVenue */\n      dup1\n        /* \"contracts/LunchVenue_updated.sol\":3517:3523  uint i */\n      0x00\n        /* \"contracts/LunchVenue_updated.sol\":3526:3527  1 */\n      0x01\n        /* \"contracts/LunchVenue_updated.sol\":3517:3527  uint i = 1 */\n      swap1\n      pop\n        /* \"contracts/LunchVenue_updated.sol\":3511:3982  for ( uint i = 1; i <= numVotes ; i++) { // For each vote... */\n    tag_162:\n        /* \"contracts/LunchVenue_updated.sol\":3534:3542  numVotes */\n      sload(0x04)\n        /* \"contracts/LunchVenue_updated.sol\":3529:3530  i */\n      dup2\n        /* \"contracts/LunchVenue_updated.sol\":3529:3542  i <= numVotes */\n      gt\n        /* \"contracts/LunchVenue_updated.sol\":3511:3982  for ( uint i = 1; i <= numVotes ; i++) { // For each vote... */\n      tag_163\n      jumpi\n        /* \"contracts/LunchVenue_updated.sol\":3581:3595  uint voteCount */\n      0x00\n        /* \"contracts/LunchVenue_updated.sol\":3598:3599  1 */\n      0x01\n        /* \"contracts/LunchVenue_updated.sol\":3581:3599  uint voteCount = 1 */\n      swap1\n      pop\n        /* \"contracts/LunchVenue_updated.sol\":3648:3649  0 */\n      0x00\n        /* \"contracts/LunchVenue_updated.sol\":3617:3624  results */\n      0x08\n        /* \"contracts/LunchVenue_updated.sol\":3617:3645  results [ votes [i]. venue ] */\n      0x00\n        /* \"contracts/LunchVenue_updated.sol\":3627:3632  votes */\n      0x07\n        /* \"contracts/LunchVenue_updated.sol\":3627:3636  votes [i] */\n      0x00\n        /* \"contracts/LunchVenue_updated.sol\":3634:3635  i */\n      dup7\n        /* \"contracts/LunchVenue_updated.sol\":3627:3636  votes [i] */\n      dup2\n      mstore\n      0x20\n      add\n      swap1\n      dup2\n      mstore\n      0x20\n      add\n      0x00\n      keccak256\n        /* \"contracts/LunchVenue_updated.sol\":3627:3643  votes [i]. venue */\n      0x01\n      add\n      sload\n        /* \"contracts/LunchVenue_updated.sol\":3617:3645  results [ votes [i]. venue ] */\n      dup2\n      mstore\n      0x20\n      add\n      swap1\n      dup2\n      mstore\n      0x20\n      add\n      0x00\n      keccak256\n      sload\n        /* \"contracts/LunchVenue_updated.sol\":3617:3649  results [ votes [i]. venue ] > 0 */\n      gt\n        /* \"contracts/LunchVenue_updated.sol\":3613:3751  if( results [ votes [i]. venue ] > 0) { // Already start counting... */\n      iszero\n      tag_165\n      jumpi\n        /* \"contracts/LunchVenue_updated.sol\":3708:3715  results */\n      0x08\n        /* \"contracts/LunchVenue_updated.sol\":3708:3736  results [ votes [i]. venue ] */\n      0x00\n        /* \"contracts/LunchVenue_updated.sol\":3718:3723  votes */\n      0x07\n        /* \"contracts/LunchVenue_updated.sol\":3718:3727  votes [i] */\n      0x00\n        /* \"contracts/LunchVenue_updated.sol\":3725:3726  i */\n      dup6\n        /* \"contracts/LunchVenue_updated.sol\":3718:3727  votes [i] */\n      dup2\n      mstore\n      0x20\n      add\n      swap1\n      dup2\n      mstore\n      0x20\n      add\n      0x00\n      keccak256\n        /* \"contracts/LunchVenue_updated.sol\":3718:3734  votes [i]. venue */\n      0x01\n      add\n      sload\n        /* \"contracts/LunchVenue_updated.sol\":3708:3736  results [ votes [i]. venue ] */\n      dup2\n      mstore\n      0x20\n      add\n      swap1\n      dup2\n      mstore\n      0x20\n      add\n      0x00\n      keccak256\n      sload\n        /* \"contracts/LunchVenue_updated.sol\":3695:3736  voteCount += results [ votes [i]. venue ] */\n      dup2\n      tag_166\n      swap2\n      swap1\n      tag_118\n      jump\t// in\n    tag_166:\n      swap1\n      pop\n        /* \"contracts/LunchVenue_updated.sol\":3613:3751  if( results [ votes [i]. venue ] > 0) { // Already start counting... */\n    tag_165:\n        /* \"contracts/LunchVenue_updated.sol\":3795:3804  voteCount */\n      dup1\n        /* \"contracts/LunchVenue_updated.sol\":3764:3771  results */\n      0x08\n        /* \"contracts/LunchVenue_updated.sol\":3764:3792  results [ votes [i]. venue ] */\n      0x00\n        /* \"contracts/LunchVenue_updated.sol\":3774:3779  votes */\n      0x07\n        /* \"contracts/LunchVenue_updated.sol\":3774:3783  votes [i] */\n      0x00\n        /* \"contracts/LunchVenue_updated.sol\":3781:3782  i */\n      dup7\n        /* \"contracts/LunchVenue_updated.sol\":3774:3783  votes [i] */\n      dup2\n      mstore\n      0x20\n      add\n      swap1\n      dup2\n      mstore\n      0x20\n      add\n      0x00\n      keccak256\n        /* \"contracts/LunchVenue_updated.sol\":3774:3790  votes [i]. venue */\n      0x01\n      add\n      sload\n        /* \"contracts/LunchVenue_updated.sol\":3764:3792  results [ votes [i]. venue ] */\n      dup2\n      mstore\n      0x20\n      add\n      swap1\n      dup2\n      mstore\n      0x20\n      add\n      0x00\n      keccak256\n        /* \"contracts/LunchVenue_updated.sol\":3764:3804  results [ votes [i]. venue ] = voteCount */\n      dup2\n      swap1\n      sstore\n      pop\n        /* \"contracts/LunchVenue_updated.sol\":3836:3848  highestVotes */\n      dup4\n        /* \"contracts/LunchVenue_updated.sol\":3824:3833  voteCount */\n      dup2\n        /* \"contracts/LunchVenue_updated.sol\":3824:3848  voteCount > highestVotes */\n      gt\n        /* \"contracts/LunchVenue_updated.sol\":3819:3972  if ( voteCount > highestVotes ){ // New winner... */\n      iszero\n      tag_167\n      jumpi\n        /* \"contracts/LunchVenue_updated.sol\":3897:3906  voteCount */\n      dup1\n        /* \"contracts/LunchVenue_updated.sol\":3882:3906  highestVotes = voteCount */\n      swap4\n      pop\n        /* \"contracts/LunchVenue_updated.sol\":3940:3945  votes */\n      0x07\n        /* \"contracts/LunchVenue_updated.sol\":3940:3949  votes [i] */\n      0x00\n        /* \"contracts/LunchVenue_updated.sol\":3947:3948  i */\n      dup4\n        /* \"contracts/LunchVenue_updated.sol\":3940:3949  votes [i] */\n      dup2\n      mstore\n      0x20\n      add\n      swap1\n      dup2\n      mstore\n      0x20\n      add\n      0x00\n      keccak256\n        /* \"contracts/LunchVenue_updated.sol\":3940:3956  votes [i]. venue */\n      0x01\n      add\n      sload\n        /* \"contracts/LunchVenue_updated.sol\":3925:3956  highestVenue = votes [i]. venue */\n      swap3\n      pop\n        /* \"contracts/LunchVenue_updated.sol\":3819:3972  if ( voteCount > highestVotes ){ // New winner... */\n    tag_167:\n        /* \"contracts/LunchVenue_updated.sol\":3550:3982  { // For each vote... */\n      pop\n        /* \"contracts/LunchVenue_updated.sol\":3545:3548  i++ */\n      dup1\n      dup1\n      tag_168\n      swap1\n      tag_91\n      jump\t// in\n    tag_168:\n      swap2\n      pop\n      pop\n        /* \"contracts/LunchVenue_updated.sol\":3511:3982  for ( uint i = 1; i <= numVotes ; i++) { // For each vote... */\n      jump(tag_162)\n    tag_163:\n      pop\n        /* \"contracts/LunchVenue_updated.sol\":4004:4010  venues */\n      0x00\n        /* \"contracts/LunchVenue_updated.sol\":4004:4027  venues [ highestVenue ] */\n      dup1\n        /* \"contracts/LunchVenue_updated.sol\":4013:4025  highestVenue */\n      dup3\n        /* \"contracts/LunchVenue_updated.sol\":4004:4027  venues [ highestVenue ] */\n      dup2\n      mstore\n      0x20\n      add\n      swap1\n      dup2\n      mstore\n      0x20\n      add\n      0x00\n      keccak256\n        /* \"contracts/LunchVenue_updated.sol\":3991:4001  votedVenue */\n      0x06\n        /* \"contracts/LunchVenue_updated.sol\":3991:4027  votedVenue = venues [ highestVenue ] */\n      swap1\n      dup1\n      sload\n      tag_169\n      swap1\n      tag_76\n      jump\t// in\n    tag_169:\n      tag_170\n      swap3\n      swap2\n      swap1\n      tag_171\n      jump\t// in\n    tag_170:\n      pop\n        /* \"contracts/LunchVenue_updated.sol\":4070:4075  false */\n      0x00\n        /* \"contracts/LunchVenue_updated.sol\":4059:4067  voteOpen */\n      0x09\n      0x00\n        /* \"contracts/LunchVenue_updated.sol\":4059:4075  voteOpen = false */\n      0x0100\n      exp\n      dup2\n      sload\n      dup2\n      0xff\n      mul\n      not\n      and\n      swap1\n      dup4\n      iszero\n      iszero\n      mul\n      or\n      swap1\n      sstore\n      pop\n        /* \"contracts/LunchVenue_updated.sol\":3439:4107  {... */\n      pop\n      pop\n        /* \"contracts/LunchVenue_updated.sol\":3407:4107  function finalResult () private {... */\n      jump\t// out\n    tag_93:\n      dup3\n      dup1\n      sload\n      tag_172\n      swap1\n      tag_76\n      jump\t// in\n    tag_172:\n      swap1\n      0x00\n      mstore\n      keccak256(0x00, 0x20)\n      swap1\n      0x1f\n      add\n      0x20\n      swap1\n      div\n      dup2\n      add\n      swap3\n      dup3\n      tag_174\n      jumpi\n      0x00\n      dup6\n      sstore\n      jump(tag_173)\n    tag_174:\n      dup3\n      0x1f\n      lt\n      tag_175\n      jumpi\n      dup1\n      mload\n      not(0xff)\n      and\n      dup4\n      dup1\n      add\n      or\n      dup6\n      sstore\n      jump(tag_173)\n    tag_175:\n      dup3\n      dup1\n      add\n      0x01\n      add\n      dup6\n      sstore\n      dup3\n      iszero\n      tag_173\n      jumpi\n      swap2\n      dup3\n      add\n    tag_176:\n      dup3\n      dup2\n      gt\n      iszero\n      tag_177\n      jumpi\n      dup3\n      mload\n      dup3\n      sstore\n      swap2\n      0x20\n      add\n      swap2\n      swap1\n      0x01\n      add\n      swap1\n      jump(tag_176)\n    tag_177:\n    tag_173:\n      pop\n      swap1\n      pop\n      tag_178\n      swap2\n      swap1\n      tag_179\n      jump\t// in\n    tag_178:\n      pop\n      swap1\n      jump\t// out\n    tag_113:\n      mload(0x40)\n      dup1\n      0x40\n      add\n      0x40\n      mstore\n      dup1\n      and(0xffffffffffffffffffffffffffffffffffffffff, 0x00)\n      dup2\n      mstore\n      0x20\n      add\n      0x00\n      dup2\n      mstore\n      pop\n      swap1\n      jump\t// out\n    tag_140:\n      mload(0x40)\n      dup1\n      0x40\n      add\n      0x40\n      mstore\n      dup1\n      0x60\n      dup2\n      mstore\n      0x20\n      add\n      iszero(iszero(0x00))\n      dup2\n      mstore\n      pop\n      swap1\n      jump\t// out\n    tag_171:\n      dup3\n      dup1\n      sload\n      tag_180\n      swap1\n      tag_76\n      jump\t// in\n    tag_180:\n      swap1\n      0x00\n      mstore\n      keccak256(0x00, 0x20)\n      swap1\n      0x1f\n      add\n      0x20\n      swap1\n      div\n      dup2\n      add\n      swap3\n      dup3\n      tag_182\n      jumpi\n      0x00\n      dup6\n      sstore\n      jump(tag_181)\n    tag_182:\n      dup3\n      0x1f\n      lt\n      tag_183\n      jumpi\n      dup1\n      sload\n      dup6\n      sstore\n      jump(tag_181)\n    tag_183:\n      dup3\n      dup1\n      add\n      0x01\n      add\n      dup6\n      sstore\n      dup3\n      iszero\n      tag_181\n      jumpi\n      0x00\n      mstore\n      keccak256(0x00, 0x20)\n      swap2\n      0x1f\n      add\n      0x20\n      swap1\n      div\n      dup3\n      add\n    tag_184:\n      dup3\n      dup2\n      gt\n      iszero\n      tag_185\n      jumpi\n      dup3\n      sload\n      dup3\n      sstore\n      swap2\n      0x01\n      add\n      swap2\n      swap1\n      0x01\n      add\n      swap1\n      jump(tag_184)\n    tag_185:\n    tag_181:\n      pop\n      swap1\n      pop\n      tag_186\n      swap2\n      swap1\n      tag_179\n      jump\t// in\n    tag_186:\n      pop\n      swap1\n      jump\t// out\n    tag_179:\n    tag_187:\n      dup1\n      dup3\n      gt\n      iszero\n      tag_188\n      jumpi\n      0x00\n      dup2\n      0x00\n      swap1\n      sstore\n      pop\n      0x01\n      add\n      jump(tag_187)\n    tag_188:\n      pop\n      swap1\n      jump\t// out\n        /* \"#utility.yul\":7:419   */\n    tag_190:\n        /* \"#utility.yul\":85:90   */\n      0x00\n        /* \"#utility.yul\":110:176   */\n      tag_192\n        /* \"#utility.yul\":126:175   */\n      tag_193\n        /* \"#utility.yul\":168:174   */\n      dup5\n        /* \"#utility.yul\":126:175   */\n      tag_194\n      jump\t// in\n    tag_193:\n        /* \"#utility.yul\":110:176   */\n      tag_195\n      jump\t// in\n    tag_192:\n        /* \"#utility.yul\":101:176   */\n      swap1\n      pop\n        /* \"#utility.yul\":199:205   */\n      dup3\n        /* \"#utility.yul\":192:197   */\n      dup2\n        /* \"#utility.yul\":185:206   */\n      mstore\n        /* \"#utility.yul\":237:241   */\n      0x20\n        /* \"#utility.yul\":230:235   */\n      dup2\n        /* \"#utility.yul\":226:242   */\n      add\n        /* \"#utility.yul\":275:278   */\n      dup5\n        /* \"#utility.yul\":266:272   */\n      dup5\n        /* \"#utility.yul\":261:264   */\n      dup5\n        /* \"#utility.yul\":257:273   */\n      add\n        /* \"#utility.yul\":254:279   */\n      gt\n        /* \"#utility.yul\":251:363   */\n      iszero\n      tag_196\n      jumpi\n        /* \"#utility.yul\":282:361   */\n      tag_197\n      tag_198\n      jump\t// in\n    tag_197:\n        /* \"#utility.yul\":251:363   */\n    tag_196:\n        /* \"#utility.yul\":372:413   */\n      tag_199\n        /* \"#utility.yul\":406:412   */\n      dup5\n        /* \"#utility.yul\":401:404   */\n      dup3\n        /* \"#utility.yul\":396:399   */\n      dup6\n        /* \"#utility.yul\":372:413   */\n      tag_200\n      jump\t// in\n    tag_199:\n        /* \"#utility.yul\":91:419   */\n      pop\n        /* \"#utility.yul\":7:419   */\n      swap4\n      swap3\n      pop\n      pop\n      pop\n      jump\t// out\n        /* \"#utility.yul\":425:564   */\n    tag_201:\n        /* \"#utility.yul\":471:476   */\n      0x00\n        /* \"#utility.yul\":509:515   */\n      dup2\n        /* \"#utility.yul\":496:516   */\n      calldataload\n        /* \"#utility.yul\":487:516   */\n      swap1\n      pop\n        /* \"#utility.yul\":525:558   */\n      tag_203\n        /* \"#utility.yul\":552:557   */\n      dup2\n        /* \"#utility.yul\":525:558   */\n      tag_204\n      jump\t// in\n    tag_203:\n        /* \"#utility.yul\":425:564   */\n      swap3\n      swap2\n      pop\n      pop\n      jump\t// out\n        /* \"#utility.yul\":584:924   */\n    tag_205:\n        /* \"#utility.yul\":640:645   */\n      0x00\n        /* \"#utility.yul\":689:692   */\n      dup3\n        /* \"#utility.yul\":682:686   */\n      0x1f\n        /* \"#utility.yul\":674:680   */\n      dup4\n        /* \"#utility.yul\":670:687   */\n      add\n        /* \"#utility.yul\":666:693   */\n      slt\n        /* \"#utility.yul\":656:778   */\n      tag_207\n      jumpi\n        /* \"#utility.yul\":697:776   */\n      tag_208\n      tag_209\n      jump\t// in\n    tag_208:\n        /* \"#utility.yul\":656:778   */\n    tag_207:\n        /* \"#utility.yul\":814:820   */\n      dup2\n        /* \"#utility.yul\":801:821   */\n      calldataload\n        /* \"#utility.yul\":839:918   */\n      tag_210\n        /* \"#utility.yul\":914:917   */\n      dup5\n        /* \"#utility.yul\":906:912   */\n      dup3\n        /* \"#utility.yul\":899:903   */\n      0x20\n        /* \"#utility.yul\":891:897   */\n      dup7\n        /* \"#utility.yul\":887:904   */\n      add\n        /* \"#utility.yul\":839:918   */\n      tag_190\n      jump\t// in\n    tag_210:\n        /* \"#utility.yul\":830:918   */\n      swap2\n      pop\n        /* \"#utility.yul\":646:924   */\n      pop\n        /* \"#utility.yul\":584:924   */\n      swap3\n      swap2\n      pop\n      pop\n      jump\t// out\n        /* \"#utility.yul\":930:1069   */\n    tag_211:\n        /* \"#utility.yul\":976:981   */\n      0x00\n        /* \"#utility.yul\":1014:1020   */\n      dup2\n        /* \"#utility.yul\":1001:1021   */\n      calldataload\n        /* \"#utility.yul\":992:1021   */\n      swap1\n      pop\n        /* \"#utility.yul\":1030:1063   */\n      tag_213\n        /* \"#utility.yul\":1057:1062   */\n      dup2\n        /* \"#utility.yul\":1030:1063   */\n      tag_214\n      jump\t// in\n    tag_213:\n        /* \"#utility.yul\":930:1069   */\n      swap3\n      swap2\n      pop\n      pop\n      jump\t// out\n        /* \"#utility.yul\":1075:1404   */\n    tag_48:\n        /* \"#utility.yul\":1134:1140   */\n      0x00\n        /* \"#utility.yul\":1183:1185   */\n      0x20\n        /* \"#utility.yul\":1171:1180   */\n      dup3\n        /* \"#utility.yul\":1162:1169   */\n      dup5\n        /* \"#utility.yul\":1158:1181   */\n      sub\n        /* \"#utility.yul\":1154:1186   */\n      slt\n        /* \"#utility.yul\":1151:1270   */\n      iszero\n      tag_216\n      jumpi\n        /* \"#utility.yul\":1189:1268   */\n      tag_217\n      tag_218\n      jump\t// in\n    tag_217:\n        /* \"#utility.yul\":1151:1270   */\n    tag_216:\n        /* \"#utility.yul\":1309:1310   */\n      0x00\n        /* \"#utility.yul\":1334:1387   */\n      tag_219\n        /* \"#utility.yul\":1379:1386   */\n      dup5\n        /* \"#utility.yul\":1370:1376   */\n      dup3\n        /* \"#utility.yul\":1359:1368   */\n      dup6\n        /* \"#utility.yul\":1355:1377   */\n      add\n        /* \"#utility.yul\":1334:1387   */\n      tag_201\n      jump\t// in\n    tag_219:\n        /* \"#utility.yul\":1324:1387   */\n      swap2\n      pop\n        /* \"#utility.yul\":1280:1397   */\n      pop\n        /* \"#utility.yul\":1075:1404   */\n      swap3\n      swap2\n      pop\n      pop\n      jump\t// out\n        /* \"#utility.yul\":1410:2064   */\n    tag_54:\n        /* \"#utility.yul\":1488:1494   */\n      0x00\n        /* \"#utility.yul\":1496:1502   */\n      dup1\n        /* \"#utility.yul\":1545:1547   */\n      0x40\n        /* \"#utility.yul\":1533:1542   */\n      dup4\n        /* \"#utility.yul\":1524:1531   */\n      dup6\n        /* \"#utility.yul\":1520:1543   */\n      sub\n        /* \"#utility.yul\":1516:1548   */\n      slt\n        /* \"#utility.yul\":1513:1632   */\n      iszero\n      tag_221\n      jumpi\n        /* \"#utility.yul\":1551:1630   */\n      tag_222\n      tag_218\n      jump\t// in\n    tag_222:\n        /* \"#utility.yul\":1513:1632   */\n    tag_221:\n        /* \"#utility.yul\":1671:1672   */\n      0x00\n        /* \"#utility.yul\":1696:1749   */\n      tag_223\n        /* \"#utility.yul\":1741:1748   */\n      dup6\n        /* \"#utility.yul\":1732:1738   */\n      dup3\n        /* \"#utility.yul\":1721:1730   */\n      dup7\n        /* \"#utility.yul\":1717:1739   */\n      add\n        /* \"#utility.yul\":1696:1749   */\n      tag_201\n      jump\t// in\n    tag_223:\n        /* \"#utility.yul\":1686:1749   */\n      swap3\n      pop\n        /* \"#utility.yul\":1642:1759   */\n      pop\n        /* \"#utility.yul\":1826:1828   */\n      0x20\n        /* \"#utility.yul\":1815:1824   */\n      dup4\n        /* \"#utility.yul\":1811:1829   */\n      add\n        /* \"#utility.yul\":1798:1830   */\n      calldataload\n        /* \"#utility.yul\":1857:1875   */\n      0xffffffffffffffff\n        /* \"#utility.yul\":1849:1855   */\n      dup2\n        /* \"#utility.yul\":1846:1876   */\n      gt\n        /* \"#utility.yul\":1843:1960   */\n      iszero\n      tag_224\n      jumpi\n        /* \"#utility.yul\":1879:1958   */\n      tag_225\n      tag_226\n      jump\t// in\n    tag_225:\n        /* \"#utility.yul\":1843:1960   */\n    tag_224:\n        /* \"#utility.yul\":1984:2047   */\n      tag_227\n        /* \"#utility.yul\":2039:2046   */\n      dup6\n        /* \"#utility.yul\":2030:2036   */\n      dup3\n        /* \"#utility.yul\":2019:2028   */\n      dup7\n        /* \"#utility.yul\":2015:2037   */\n      add\n        /* \"#utility.yul\":1984:2047   */\n      tag_205\n      jump\t// in\n    tag_227:\n        /* \"#utility.yul\":1974:2047   */\n      swap2\n      pop\n        /* \"#utility.yul\":1769:2057   */\n      pop\n        /* \"#utility.yul\":1410:2064   */\n      swap3\n      pop\n      swap3\n      swap1\n      pop\n      jump\t// out\n        /* \"#utility.yul\":2070:2579   */\n    tag_29:\n        /* \"#utility.yul\":2139:2145   */\n      0x00\n        /* \"#utility.yul\":2188:2190   */\n      0x20\n        /* \"#utility.yul\":2176:2185   */\n      dup3\n        /* \"#utility.yul\":2167:2174   */\n      dup5\n        /* \"#utility.yul\":2163:2186   */\n      sub\n        /* \"#utility.yul\":2159:2191   */\n      slt\n        /* \"#utility.yul\":2156:2275   */\n      iszero\n      tag_229\n      jumpi\n        /* \"#utility.yul\":2194:2273   */\n      tag_230\n      tag_218\n      jump\t// in\n    tag_230:\n        /* \"#utility.yul\":2156:2275   */\n    tag_229:\n        /* \"#utility.yul\":2342:2343   */\n      0x00\n        /* \"#utility.yul\":2331:2340   */\n      dup3\n        /* \"#utility.yul\":2327:2344   */\n      add\n        /* \"#utility.yul\":2314:2345   */\n      calldataload\n        /* \"#utility.yul\":2372:2390   */\n      0xffffffffffffffff\n        /* \"#utility.yul\":2364:2370   */\n      dup2\n        /* \"#utility.yul\":2361:2391   */\n      gt\n        /* \"#utility.yul\":2358:2475   */\n      iszero\n      tag_231\n      jumpi\n        /* \"#utility.yul\":2394:2473   */\n      tag_232\n      tag_226\n      jump\t// in\n    tag_232:\n        /* \"#utility.yul\":2358:2475   */\n    tag_231:\n        /* \"#utility.yul\":2499:2562   */\n      tag_233\n        /* \"#utility.yul\":2554:2561   */\n      dup5\n        /* \"#utility.yul\":2545:2551   */\n      dup3\n        /* \"#utility.yul\":2534:2543   */\n      dup6\n        /* \"#utility.yul\":2530:2552   */\n      add\n        /* \"#utility.yul\":2499:2562   */\n      tag_205\n      jump\t// in\n    tag_233:\n        /* \"#utility.yul\":2489:2562   */\n      swap2\n      pop\n        /* \"#utility.yul\":2285:2572   */\n      pop\n        /* \"#utility.yul\":2070:2579   */\n      swap3\n      swap2\n      pop\n      pop\n      jump\t// out\n        /* \"#utility.yul\":2585:2914   */\n    tag_23:\n        /* \"#utility.yul\":2644:2650   */\n      0x00\n        /* \"#utility.yul\":2693:2695   */\n      0x20\n        /* \"#utility.yul\":2681:2690   */\n      dup3\n        /* \"#utility.yul\":2672:2679   */\n      dup5\n        /* \"#utility.yul\":2668:2691   */\n      sub\n        /* \"#utility.yul\":2664:2696   */\n      slt\n        /* \"#utility.yul\":2661:2780   */\n      iszero\n      tag_235\n      jumpi\n        /* \"#utility.yul\":2699:2778   */\n      tag_236\n      tag_218\n      jump\t// in\n    tag_236:\n        /* \"#utility.yul\":2661:2780   */\n    tag_235:\n        /* \"#utility.yul\":2819:2820   */\n      0x00\n        /* \"#utility.yul\":2844:2897   */\n      tag_237\n        /* \"#utility.yul\":2889:2896   */\n      dup5\n        /* \"#utility.yul\":2880:2886   */\n      dup3\n        /* \"#utility.yul\":2869:2878   */\n      dup6\n        /* \"#utility.yul\":2865:2887   */\n      add\n        /* \"#utility.yul\":2844:2897   */\n      tag_211\n      jump\t// in\n    tag_237:\n        /* \"#utility.yul\":2834:2897   */\n      swap2\n      pop\n        /* \"#utility.yul\":2790:2907   */\n      pop\n        /* \"#utility.yul\":2585:2914   */\n      swap3\n      swap2\n      pop\n      pop\n      jump\t// out\n        /* \"#utility.yul\":2920:3038   */\n    tag_238:\n        /* \"#utility.yul\":3007:3031   */\n      tag_240\n        /* \"#utility.yul\":3025:3030   */\n      dup2\n        /* \"#utility.yul\":3007:3031   */\n      tag_241\n      jump\t// in\n    tag_240:\n        /* \"#utility.yul\":3002:3005   */\n      dup3\n        /* \"#utility.yul\":2995:3032   */\n      mstore\n        /* \"#utility.yul\":2920:3038   */\n      pop\n      pop\n      jump\t// out\n        /* \"#utility.yul\":3044:3153   */\n    tag_242:\n        /* \"#utility.yul\":3125:3146   */\n      tag_244\n        /* \"#utility.yul\":3140:3145   */\n      dup2\n        /* \"#utility.yul\":3125:3146   */\n      tag_245\n      jump\t// in\n    tag_244:\n        /* \"#utility.yul\":3120:3123   */\n      dup3\n        /* \"#utility.yul\":3113:3147   */\n      mstore\n        /* \"#utility.yul\":3044:3153   */\n      pop\n      pop\n      jump\t// out\n        /* \"#utility.yul\":3159:3523   */\n    tag_246:\n        /* \"#utility.yul\":3247:3250   */\n      0x00\n        /* \"#utility.yul\":3275:3314   */\n      tag_248\n        /* \"#utility.yul\":3308:3313   */\n      dup3\n        /* \"#utility.yul\":3275:3314   */\n      tag_249\n      jump\t// in\n    tag_248:\n        /* \"#utility.yul\":3330:3401   */\n      tag_250\n        /* \"#utility.yul\":3394:3400   */\n      dup2\n        /* \"#utility.yul\":3389:3392   */\n      dup6\n        /* \"#utility.yul\":3330:3401   */\n      tag_251\n      jump\t// in\n    tag_250:\n        /* \"#utility.yul\":3323:3401   */\n      swap4\n      pop\n        /* \"#utility.yul\":3410:3462   */\n      tag_252\n        /* \"#utility.yul\":3455:3461   */\n      dup2\n        /* \"#utility.yul\":3450:3453   */\n      dup6\n        /* \"#utility.yul\":3443:3447   */\n      0x20\n        /* \"#utility.yul\":3436:3441   */\n      dup7\n        /* \"#utility.yul\":3432:3448   */\n      add\n        /* \"#utility.yul\":3410:3462   */\n      tag_253\n      jump\t// in\n    tag_252:\n        /* \"#utility.yul\":3487:3516   */\n      tag_254\n        /* \"#utility.yul\":3509:3515   */\n      dup2\n        /* \"#utility.yul\":3487:3516   */\n      tag_255\n      jump\t// in\n    tag_254:\n        /* \"#utility.yul\":3482:3485   */\n      dup5\n        /* \"#utility.yul\":3478:3517   */\n      add\n        /* \"#utility.yul\":3471:3517   */\n      swap2\n      pop\n        /* \"#utility.yul\":3251:3523   */\n      pop\n        /* \"#utility.yul\":3159:3523   */\n      swap3\n      swap2\n      pop\n      pop\n      jump\t// out\n        /* \"#utility.yul\":3529:3895   */\n    tag_256:\n        /* \"#utility.yul\":3671:3674   */\n      0x00\n        /* \"#utility.yul\":3692:3759   */\n      tag_258\n        /* \"#utility.yul\":3756:3758   */\n      0x24\n        /* \"#utility.yul\":3751:3754   */\n      dup4\n        /* \"#utility.yul\":3692:3759   */\n      tag_251\n      jump\t// in\n    tag_258:\n        /* \"#utility.yul\":3685:3759   */\n      swap2\n      pop\n        /* \"#utility.yul\":3768:3861   */\n      tag_259\n        /* \"#utility.yul\":3857:3860   */\n      dup3\n        /* \"#utility.yul\":3768:3861   */\n      tag_260\n      jump\t// in\n    tag_259:\n        /* \"#utility.yul\":3886:3888   */\n      0x40\n        /* \"#utility.yul\":3881:3884   */\n      dup3\n        /* \"#utility.yul\":3877:3889   */\n      add\n        /* \"#utility.yul\":3870:3889   */\n      swap1\n      pop\n        /* \"#utility.yul\":3529:3895   */\n      swap2\n      swap1\n      pop\n      jump\t// out\n        /* \"#utility.yul\":3901:4267   */\n    tag_261:\n        /* \"#utility.yul\":4043:4046   */\n      0x00\n        /* \"#utility.yul\":4064:4131   */\n      tag_263\n        /* \"#utility.yul\":4128:4130   */\n      0x37\n        /* \"#utility.yul\":4123:4126   */\n      dup4\n        /* \"#utility.yul\":4064:4131   */\n      tag_251\n      jump\t// in\n    tag_263:\n        /* \"#utility.yul\":4057:4131   */\n      swap2\n      pop\n        /* \"#utility.yul\":4140:4233   */\n      tag_264\n        /* \"#utility.yul\":4229:4232   */\n      dup3\n        /* \"#utility.yul\":4140:4233   */\n      tag_265\n      jump\t// in\n    tag_264:\n        /* \"#utility.yul\":4258:4260   */\n      0x40\n        /* \"#utility.yul\":4253:4256   */\n      dup3\n        /* \"#utility.yul\":4249:4261   */\n      add\n        /* \"#utility.yul\":4242:4261   */\n      swap1\n      pop\n        /* \"#utility.yul\":3901:4267   */\n      swap2\n      swap1\n      pop\n      jump\t// out\n        /* \"#utility.yul\":4273:4639   */\n    tag_266:\n        /* \"#utility.yul\":4415:4418   */\n      0x00\n        /* \"#utility.yul\":4436:4503   */\n      tag_268\n        /* \"#utility.yul\":4500:4502   */\n      0x23\n        /* \"#utility.yul\":4495:4498   */\n      dup4\n        /* \"#utility.yul\":4436:4503   */\n      tag_251\n      jump\t// in\n    tag_268:\n        /* \"#utility.yul\":4429:4503   */\n      swap2\n      pop\n        /* \"#utility.yul\":4512:4605   */\n      tag_269\n        /* \"#utility.yul\":4601:4604   */\n      dup3\n        /* \"#utility.yul\":4512:4605   */\n      tag_270\n      jump\t// in\n    tag_269:\n        /* \"#utility.yul\":4630:4632   */\n      0x40\n        /* \"#utility.yul\":4625:4628   */\n      dup3\n        /* \"#utility.yul\":4621:4633   */\n      add\n        /* \"#utility.yul\":4614:4633   */\n      swap1\n      pop\n        /* \"#utility.yul\":4273:4639   */\n      swap2\n      swap1\n      pop\n      jump\t// out\n        /* \"#utility.yul\":4645:5011   */\n    tag_271:\n        /* \"#utility.yul\":4787:4790   */\n      0x00\n        /* \"#utility.yul\":4808:4875   */\n      tag_273\n        /* \"#utility.yul\":4872:4874   */\n      0x30\n        /* \"#utility.yul\":4867:4870   */\n      dup4\n        /* \"#utility.yul\":4808:4875   */\n      tag_251\n      jump\t// in\n    tag_273:\n        /* \"#utility.yul\":4801:4875   */\n      swap2\n      pop\n        /* \"#utility.yul\":4884:4977   */\n      tag_274\n        /* \"#utility.yul\":4973:4976   */\n      dup3\n        /* \"#utility.yul\":4884:4977   */\n      tag_275\n      jump\t// in\n    tag_274:\n        /* \"#utility.yul\":5002:5004   */\n      0x40\n        /* \"#utility.yul\":4997:5000   */\n      dup3\n        /* \"#utility.yul\":4993:5005   */\n      add\n        /* \"#utility.yul\":4986:5005   */\n      swap1\n      pop\n        /* \"#utility.yul\":4645:5011   */\n      swap2\n      swap1\n      pop\n      jump\t// out\n        /* \"#utility.yul\":5017:5135   */\n    tag_276:\n        /* \"#utility.yul\":5104:5128   */\n      tag_278\n        /* \"#utility.yul\":5122:5127   */\n      dup2\n        /* \"#utility.yul\":5104:5128   */\n      tag_279\n      jump\t// in\n    tag_278:\n        /* \"#utility.yul\":5099:5102   */\n      dup3\n        /* \"#utility.yul\":5092:5129   */\n      mstore\n        /* \"#utility.yul\":5017:5135   */\n      pop\n      pop\n      jump\t// out\n        /* \"#utility.yul\":5141:5363   */\n    tag_63:\n        /* \"#utility.yul\":5234:5238   */\n      0x00\n        /* \"#utility.yul\":5272:5274   */\n      0x20\n        /* \"#utility.yul\":5261:5270   */\n      dup3\n        /* \"#utility.yul\":5257:5275   */\n      add\n        /* \"#utility.yul\":5249:5275   */\n      swap1\n      pop\n        /* \"#utility.yul\":5285:5356   */\n      tag_281\n        /* \"#utility.yul\":5353:5354   */\n      0x00\n        /* \"#utility.yul\":5342:5351   */\n      dup4\n        /* \"#utility.yul\":5338:5355   */\n      add\n        /* \"#utility.yul\":5329:5335   */\n      dup5\n        /* \"#utility.yul\":5285:5356   */\n      tag_238\n      jump\t// in\n    tag_281:\n        /* \"#utility.yul\":5141:5363   */\n      swap3\n      swap2\n      pop\n      pop\n      jump\t// out\n        /* \"#utility.yul\":5369:5579   */\n    tag_42:\n        /* \"#utility.yul\":5456:5460   */\n      0x00\n        /* \"#utility.yul\":5494:5496   */\n      0x20\n        /* \"#utility.yul\":5483:5492   */\n      dup3\n        /* \"#utility.yul\":5479:5497   */\n      add\n        /* \"#utility.yul\":5471:5497   */\n      swap1\n      pop\n        /* \"#utility.yul\":5507:5572   */\n      tag_283\n        /* \"#utility.yul\":5569:5570   */\n      0x00\n        /* \"#utility.yul\":5558:5567   */\n      dup4\n        /* \"#utility.yul\":5554:5571   */\n      add\n        /* \"#utility.yul\":5545:5551   */\n      dup5\n        /* \"#utility.yul\":5507:5572   */\n      tag_242\n      jump\t// in\n    tag_283:\n        /* \"#utility.yul\":5369:5579   */\n      swap3\n      swap2\n      pop\n      pop\n      jump\t// out\n        /* \"#utility.yul\":5585:5898   */\n    tag_26:\n        /* \"#utility.yul\":5698:5702   */\n      0x00\n        /* \"#utility.yul\":5736:5738   */\n      0x20\n        /* \"#utility.yul\":5725:5734   */\n      dup3\n        /* \"#utility.yul\":5721:5739   */\n      add\n        /* \"#utility.yul\":5713:5739   */\n      swap1\n      pop\n        /* \"#utility.yul\":5785:5794   */\n      dup2\n        /* \"#utility.yul\":5779:5783   */\n      dup2\n        /* \"#utility.yul\":5775:5795   */\n      sub\n        /* \"#utility.yul\":5771:5772   */\n      0x00\n        /* \"#utility.yul\":5760:5769   */\n      dup4\n        /* \"#utility.yul\":5756:5773   */\n      add\n        /* \"#utility.yul\":5749:5796   */\n      mstore\n        /* \"#utility.yul\":5813:5891   */\n      tag_285\n        /* \"#utility.yul\":5886:5890   */\n      dup2\n        /* \"#utility.yul\":5877:5883   */\n      dup5\n        /* \"#utility.yul\":5813:5891   */\n      tag_246\n      jump\t// in\n    tag_285:\n        /* \"#utility.yul\":5805:5891   */\n      swap1\n      pop\n        /* \"#utility.yul\":5585:5898   */\n      swap3\n      swap2\n      pop\n      pop\n      jump\t// out\n        /* \"#utility.yul\":5904:6315   */\n    tag_51:\n        /* \"#utility.yul\":6039:6043   */\n      0x00\n        /* \"#utility.yul\":6077:6079   */\n      0x40\n        /* \"#utility.yul\":6066:6075   */\n      dup3\n        /* \"#utility.yul\":6062:6080   */\n      add\n        /* \"#utility.yul\":6054:6080   */\n      swap1\n      pop\n        /* \"#utility.yul\":6126:6135   */\n      dup2\n        /* \"#utility.yul\":6120:6124   */\n      dup2\n        /* \"#utility.yul\":6116:6136   */\n      sub\n        /* \"#utility.yul\":6112:6113   */\n      0x00\n        /* \"#utility.yul\":6101:6110   */\n      dup4\n        /* \"#utility.yul\":6097:6114   */\n      add\n        /* \"#utility.yul\":6090:6137   */\n      mstore\n        /* \"#utility.yul\":6154:6232   */\n      tag_287\n        /* \"#utility.yul\":6227:6231   */\n      dup2\n        /* \"#utility.yul\":6218:6224   */\n      dup6\n        /* \"#utility.yul\":6154:6232   */\n      tag_246\n      jump\t// in\n    tag_287:\n        /* \"#utility.yul\":6146:6232   */\n      swap1\n      pop\n        /* \"#utility.yul\":6242:6308   */\n      tag_288\n        /* \"#utility.yul\":6304:6306   */\n      0x20\n        /* \"#utility.yul\":6293:6302   */\n      dup4\n        /* \"#utility.yul\":6289:6307   */\n      add\n        /* \"#utility.yul\":6280:6286   */\n      dup5\n        /* \"#utility.yul\":6242:6308   */\n      tag_242\n      jump\t// in\n    tag_288:\n        /* \"#utility.yul\":5904:6315   */\n      swap4\n      swap3\n      pop\n      pop\n      pop\n      jump\t// out\n        /* \"#utility.yul\":6321:6740   */\n    tag_101:\n        /* \"#utility.yul\":6487:6491   */\n      0x00\n        /* \"#utility.yul\":6525:6527   */\n      0x20\n        /* \"#utility.yul\":6514:6523   */\n      dup3\n        /* \"#utility.yul\":6510:6528   */\n      add\n        /* \"#utility.yul\":6502:6528   */\n      swap1\n      pop\n        /* \"#utility.yul\":6574:6583   */\n      dup2\n        /* \"#utility.yul\":6568:6572   */\n      dup2\n        /* \"#utility.yul\":6564:6584   */\n      sub\n        /* \"#utility.yul\":6560:6561   */\n      0x00\n        /* \"#utility.yul\":6549:6558   */\n      dup4\n        /* \"#utility.yul\":6545:6562   */\n      add\n        /* \"#utility.yul\":6538:6585   */\n      mstore\n        /* \"#utility.yul\":6602:6733   */\n      tag_290\n        /* \"#utility.yul\":6728:6732   */\n      dup2\n        /* \"#utility.yul\":6602:6733   */\n      tag_256\n      jump\t// in\n    tag_290:\n        /* \"#utility.yul\":6594:6733   */\n      swap1\n      pop\n        /* \"#utility.yul\":6321:6740   */\n      swap2\n      swap1\n      pop\n      jump\t// out\n        /* \"#utility.yul\":6746:7165   */\n    tag_84:\n        /* \"#utility.yul\":6912:6916   */\n      0x00\n        /* \"#utility.yul\":6950:6952   */\n      0x20\n        /* \"#utility.yul\":6939:6948   */\n      dup3\n        /* \"#utility.yul\":6935:6953   */\n      add\n        /* \"#utility.yul\":6927:6953   */\n      swap1\n      pop\n        /* \"#utility.yul\":6999:7008   */\n      dup2\n        /* \"#utility.yul\":6993:6997   */\n      dup2\n        /* \"#utility.yul\":6989:7009   */\n      sub\n        /* \"#utility.yul\":6985:6986   */\n      0x00\n        /* \"#utility.yul\":6974:6983   */\n      dup4\n        /* \"#utility.yul\":6970:6987   */\n      add\n        /* \"#utility.yul\":6963:7010   */\n      mstore\n        /* \"#utility.yul\":7027:7158   */\n      tag_292\n        /* \"#utility.yul\":7153:7157   */\n      dup2\n        /* \"#utility.yul\":7027:7158   */\n      tag_261\n      jump\t// in\n    tag_292:\n        /* \"#utility.yul\":7019:7158   */\n      swap1\n      pop\n        /* \"#utility.yul\":6746:7165   */\n      swap2\n      swap1\n      pop\n      jump\t// out\n        /* \"#utility.yul\":7171:7590   */\n    tag_88:\n        /* \"#utility.yul\":7337:7341   */\n      0x00\n        /* \"#utility.yul\":7375:7377   */\n      0x20\n        /* \"#utility.yul\":7364:7373   */\n      dup3\n        /* \"#utility.yul\":7360:7378   */\n      add\n        /* \"#utility.yul\":7352:7378   */\n      swap1\n      pop\n        /* \"#utility.yul\":7424:7433   */\n      dup2\n        /* \"#utility.yul\":7418:7422   */\n      dup2\n        /* \"#utility.yul\":7414:7434   */\n      sub\n        /* \"#utility.yul\":7410:7411   */\n      0x00\n        /* \"#utility.yul\":7399:7408   */\n      dup4\n        /* \"#utility.yul\":7395:7412   */\n      add\n        /* \"#utility.yul\":7388:7435   */\n      mstore\n        /* \"#utility.yul\":7452:7583   */\n      tag_294\n        /* \"#utility.yul\":7578:7582   */\n      dup2\n        /* \"#utility.yul\":7452:7583   */\n      tag_266\n      jump\t// in\n    tag_294:\n        /* \"#utility.yul\":7444:7583   */\n      swap1\n      pop\n        /* \"#utility.yul\":7171:7590   */\n      swap2\n      swap1\n      pop\n      jump\t// out\n        /* \"#utility.yul\":7596:8015   */\n    tag_105:\n        /* \"#utility.yul\":7762:7766   */\n      0x00\n        /* \"#utility.yul\":7800:7802   */\n      0x20\n        /* \"#utility.yul\":7789:7798   */\n      dup3\n        /* \"#utility.yul\":7785:7803   */\n      add\n        /* \"#utility.yul\":7777:7803   */\n      swap1\n      pop\n        /* \"#utility.yul\":7849:7858   */\n      dup2\n        /* \"#utility.yul\":7843:7847   */\n      dup2\n        /* \"#utility.yul\":7839:7859   */\n      sub\n        /* \"#utility.yul\":7835:7836   */\n      0x00\n        /* \"#utility.yul\":7824:7833   */\n      dup4\n        /* \"#utility.yul\":7820:7837   */\n      add\n        /* \"#utility.yul\":7813:7860   */\n      mstore\n        /* \"#utility.yul\":7877:8008   */\n      tag_296\n        /* \"#utility.yul\":8003:8007   */\n      dup2\n        /* \"#utility.yul\":7877:8008   */\n      tag_271\n      jump\t// in\n    tag_296:\n        /* \"#utility.yul\":7869:8008   */\n      swap1\n      pop\n        /* \"#utility.yul\":7596:8015   */\n      swap2\n      swap1\n      pop\n      jump\t// out\n        /* \"#utility.yul\":8021:8243   */\n    tag_32:\n        /* \"#utility.yul\":8114:8118   */\n      0x00\n        /* \"#utility.yul\":8152:8154   */\n      0x20\n        /* \"#utility.yul\":8141:8150   */\n      dup3\n        /* \"#utility.yul\":8137:8155   */\n      add\n        /* \"#utility.yul\":8129:8155   */\n      swap1\n      pop\n        /* \"#utility.yul\":8165:8236   */\n      tag_298\n        /* \"#utility.yul\":8233:8234   */\n      0x00\n        /* \"#utility.yul\":8222:8231   */\n      dup4\n        /* \"#utility.yul\":8218:8235   */\n      add\n        /* \"#utility.yul\":8209:8215   */\n      dup5\n        /* \"#utility.yul\":8165:8236   */\n      tag_276\n      jump\t// in\n    tag_298:\n        /* \"#utility.yul\":8021:8243   */\n      swap3\n      swap2\n      pop\n      pop\n      jump\t// out\n        /* \"#utility.yul\":8249:8378   */\n    tag_195:\n        /* \"#utility.yul\":8283:8289   */\n      0x00\n        /* \"#utility.yul\":8310:8330   */\n      tag_300\n      tag_301\n      jump\t// in\n    tag_300:\n        /* \"#utility.yul\":8300:8330   */\n      swap1\n      pop\n        /* \"#utility.yul\":8339:8372   */\n      tag_302\n        /* \"#utility.yul\":8367:8371   */\n      dup3\n        /* \"#utility.yul\":8359:8365   */\n      dup3\n        /* \"#utility.yul\":8339:8372   */\n      tag_303\n      jump\t// in\n    tag_302:\n        /* \"#utility.yul\":8249:8378   */\n      swap2\n      swap1\n      pop\n      jump\t// out\n        /* \"#utility.yul\":8384:8459   */\n    tag_301:\n        /* \"#utility.yul\":8417:8423   */\n      0x00\n        /* \"#utility.yul\":8450:8452   */\n      0x40\n        /* \"#utility.yul\":8444:8453   */\n      mload\n        /* \"#utility.yul\":8434:8453   */\n      swap1\n      pop\n        /* \"#utility.yul\":8384:8459   */\n      swap1\n      jump\t// out\n        /* \"#utility.yul\":8465:8773   */\n    tag_194:\n        /* \"#utility.yul\":8527:8531   */\n      0x00\n        /* \"#utility.yul\":8617:8635   */\n      0xffffffffffffffff\n        /* \"#utility.yul\":8609:8615   */\n      dup3\n        /* \"#utility.yul\":8606:8636   */\n      gt\n        /* \"#utility.yul\":8603:8659   */\n      iszero\n      tag_306\n      jumpi\n        /* \"#utility.yul\":8639:8657   */\n      tag_307\n      tag_308\n      jump\t// in\n    tag_307:\n        /* \"#utility.yul\":8603:8659   */\n    tag_306:\n        /* \"#utility.yul\":8677:8706   */\n      tag_309\n        /* \"#utility.yul\":8699:8705   */\n      dup3\n        /* \"#utility.yul\":8677:8706   */\n      tag_255\n      jump\t// in\n    tag_309:\n        /* \"#utility.yul\":8669:8706   */\n      swap1\n      pop\n        /* \"#utility.yul\":8761:8765   */\n      0x20\n        /* \"#utility.yul\":8755:8759   */\n      dup2\n        /* \"#utility.yul\":8751:8766   */\n      add\n        /* \"#utility.yul\":8743:8766   */\n      swap1\n      pop\n        /* \"#utility.yul\":8465:8773   */\n      swap2\n      swap1\n      pop\n      jump\t// out\n        /* \"#utility.yul\":8779:8878   */\n    tag_249:\n        /* \"#utility.yul\":8831:8837   */\n      0x00\n        /* \"#utility.yul\":8865:8870   */\n      dup2\n        /* \"#utility.yul\":8859:8871   */\n      mload\n        /* \"#utility.yul\":8849:8871   */\n      swap1\n      pop\n        /* \"#utility.yul\":8779:8878   */\n      swap2\n      swap1\n      pop\n      jump\t// out\n        /* \"#utility.yul\":8884:9053   */\n    tag_251:\n        /* \"#utility.yul\":8968:8979   */\n      0x00\n        /* \"#utility.yul\":9002:9008   */\n      dup3\n        /* \"#utility.yul\":8997:9000   */\n      dup3\n        /* \"#utility.yul\":8990:9009   */\n      mstore\n        /* \"#utility.yul\":9042:9046   */\n      0x20\n        /* \"#utility.yul\":9037:9040   */\n      dup3\n        /* \"#utility.yul\":9033:9047   */\n      add\n        /* \"#utility.yul\":9018:9047   */\n      swap1\n      pop\n        /* \"#utility.yul\":8884:9053   */\n      swap3\n      swap2\n      pop\n      pop\n      jump\t// out\n        /* \"#utility.yul\":9059:9364   */\n    tag_118:\n        /* \"#utility.yul\":9099:9102   */\n      0x00\n        /* \"#utility.yul\":9118:9138   */\n      tag_313\n        /* \"#utility.yul\":9136:9137   */\n      dup3\n        /* \"#utility.yul\":9118:9138   */\n      tag_279\n      jump\t// in\n    tag_313:\n        /* \"#utility.yul\":9113:9138   */\n      swap2\n      pop\n        /* \"#utility.yul\":9152:9172   */\n      tag_314\n        /* \"#utility.yul\":9170:9171   */\n      dup4\n        /* \"#utility.yul\":9152:9172   */\n      tag_279\n      jump\t// in\n    tag_314:\n        /* \"#utility.yul\":9147:9172   */\n      swap3\n      pop\n        /* \"#utility.yul\":9306:9307   */\n      dup3\n        /* \"#utility.yul\":9238:9304   */\n      0xffffffffffffffffffffffffffffffffffffffffffffffffffffffffffffffff\n        /* \"#utility.yul\":9234:9308   */\n      sub\n        /* \"#utility.yul\":9231:9232   */\n      dup3\n        /* \"#utility.yul\":9228:9309   */\n      gt\n        /* \"#utility.yul\":9225:9332   */\n      iszero\n      tag_315\n      jumpi\n        /* \"#utility.yul\":9312:9330   */\n      tag_316\n      tag_317\n      jump\t// in\n    tag_316:\n        /* \"#utility.yul\":9225:9332   */\n    tag_315:\n        /* \"#utility.yul\":9356:9357   */\n      dup3\n        /* \"#utility.yul\":9353:9354   */\n      dup3\n        /* \"#utility.yul\":9349:9358   */\n      add\n        /* \"#utility.yul\":9342:9358   */\n      swap1\n      pop\n        /* \"#utility.yul\":9059:9364   */\n      swap3\n      swap2\n      pop\n      pop\n      jump\t// out\n        /* \"#utility.yul\":9370:9555   */\n    tag_116:\n        /* \"#utility.yul\":9410:9411   */\n      0x00\n        /* \"#utility.yul\":9427:9447   */\n      tag_319\n        /* \"#utility.yul\":9445:9446   */\n      dup3\n        /* \"#utility.yul\":9427:9447   */\n      tag_279\n      jump\t// in\n    tag_319:\n        /* \"#utility.yul\":9422:9447   */\n      swap2\n      pop\n        /* \"#utility.yul\":9461:9481   */\n      tag_320\n        /* \"#utility.yul\":9479:9480   */\n      dup4\n        /* \"#utility.yul\":9461:9481   */\n      tag_279\n      jump\t// in\n    tag_320:\n        /* \"#utility.yul\":9456:9481   */\n      swap3\n      pop\n        /* \"#utility.yul\":9500:9501   */\n      dup3\n        /* \"#utility.yul\":9490:9525   */\n      tag_321\n      jumpi\n        /* \"#utility.yul\":9505:9523   */\n      tag_322\n      tag_323\n      jump\t// in\n    tag_322:\n        /* \"#utility.yul\":9490:9525   */\n    tag_321:\n        /* \"#utility.yul\":9547:9548   */\n      dup3\n        /* \"#utility.yul\":9544:9545   */\n      dup3\n        /* \"#utility.yul\":9540:9549   */\n      div\n        /* \"#utility.yul\":9535:9549   */\n      swap1\n      pop\n        /* \"#utility.yul\":9370:9555   */\n      swap3\n      swap2\n      pop\n      pop\n      jump\t// out\n        /* \"#utility.yul\":9561:9657   */\n    tag_241:\n        /* \"#utility.yul\":9598:9605   */\n      0x00\n        /* \"#utility.yul\":9627:9651   */\n      tag_325\n        /* \"#utility.yul\":9645:9650   */\n      dup3\n        /* \"#utility.yul\":9627:9651   */\n      tag_326\n      jump\t// in\n    tag_325:\n        /* \"#utility.yul\":9616:9651   */\n      swap1\n      pop\n        /* \"#utility.yul\":9561:9657   */\n      swap2\n      swap1\n      pop\n      jump\t// out\n        /* \"#utility.yul\":9663:9753   */\n    tag_245:\n        /* \"#utility.yul\":9697:9704   */\n      0x00\n        /* \"#utility.yul\":9740:9745   */\n      dup2\n        /* \"#utility.yul\":9733:9746   */\n      iszero\n        /* \"#utility.yul\":9726:9747   */\n      iszero\n        /* \"#utility.yul\":9715:9747   */\n      swap1\n      pop\n        /* \"#utility.yul\":9663:9753   */\n      swap2\n      swap1\n      pop\n      jump\t// out\n        /* \"#utility.yul\":9759:9885   */\n    tag_326:\n        /* \"#utility.yul\":9796:9803   */\n      0x00\n        /* \"#utility.yul\":9836:9878   */\n      0xffffffffffffffffffffffffffffffffffffffff\n        /* \"#utility.yul\":9829:9834   */\n      dup3\n        /* \"#utility.yul\":9825:9879   */\n      and\n        /* \"#utility.yul\":9814:9879   */\n      swap1\n      pop\n        /* \"#utility.yul\":9759:9885   */\n      swap2\n      swap1\n      pop\n      jump\t// out\n        /* \"#utility.yul\":9891:9968   */\n    tag_279:\n        /* \"#utility.yul\":9928:9935   */\n      0x00\n        /* \"#utility.yul\":9957:9962   */\n      dup2\n        /* \"#utility.yul\":9946:9962   */\n      swap1\n      pop\n        /* \"#utility.yul\":9891:9968   */\n      swap2\n      swap1\n      pop\n      jump\t// out\n        /* \"#utility.yul\":9974:10128   */\n    tag_200:\n        /* \"#utility.yul\":10058:10064   */\n      dup3\n        /* \"#utility.yul\":10053:10056   */\n      dup2\n        /* \"#utility.yul\":10048:10051   */\n      dup4\n        /* \"#utility.yul\":10035:10065   */\n      calldatacopy\n        /* \"#utility.yul\":10120:10121   */\n      0x00\n        /* \"#utility.yul\":10111:10117   */\n      dup4\n        /* \"#utility.yul\":10106:10109   */\n      dup4\n        /* \"#utility.yul\":10102:10118   */\n      add\n        /* \"#utility.yul\":10095:10122   */\n      mstore\n        /* \"#utility.yul\":9974:10128   */\n      pop\n      pop\n      pop\n      jump\t// out\n        /* \"#utility.yul\":10134:10441   */\n    tag_253:\n        /* \"#utility.yul\":10202:10203   */\n      0x00\n        /* \"#utility.yul\":10212:10325   */\n    tag_332:\n        /* \"#utility.yul\":10226:10232   */\n      dup4\n        /* \"#utility.yul\":10223:10224   */\n      dup2\n        /* \"#utility.yul\":10220:10233   */\n      lt\n        /* \"#utility.yul\":10212:10325   */\n      iszero\n      tag_334\n      jumpi\n        /* \"#utility.yul\":10311:10312   */\n      dup1\n        /* \"#utility.yul\":10306:10309   */\n      dup3\n        /* \"#utility.yul\":10302:10313   */\n      add\n        /* \"#utility.yul\":10296:10314   */\n      mload\n        /* \"#utility.yul\":10292:10293   */\n      dup2\n        /* \"#utility.yul\":10287:10290   */\n      dup5\n        /* \"#utility.yul\":10283:10294   */\n      add\n        /* \"#utility.yul\":10276:10315   */\n      mstore\n        /* \"#utility.yul\":10248:10250   */\n      0x20\n        /* \"#utility.yul\":10245:10246   */\n      dup2\n        /* \"#utility.yul\":10241:10251   */\n      add\n        /* \"#utility.yul\":10236:10251   */\n      swap1\n      pop\n        /* \"#utility.yul\":10212:10325   */\n      jump(tag_332)\n    tag_334:\n        /* \"#utility.yul\":10343:10349   */\n      dup4\n        /* \"#utility.yul\":10340:10341   */\n      dup2\n        /* \"#utility.yul\":10337:10350   */\n      gt\n        /* \"#utility.yul\":10334:10435   */\n      iszero\n      tag_335\n      jumpi\n        /* \"#utility.yul\":10423:10424   */\n      0x00\n        /* \"#utility.yul\":10414:10420   */\n      dup5\n        /* \"#utility.yul\":10409:10412   */\n      dup5\n        /* \"#utility.yul\":10405:10421   */\n      add\n        /* \"#utility.yul\":10398:10425   */\n      mstore\n        /* \"#utility.yul\":10334:10435   */\n    tag_335:\n        /* \"#utility.yul\":10183:10441   */\n      pop\n        /* \"#utility.yul\":10134:10441   */\n      pop\n      pop\n      pop\n      jump\t// out\n        /* \"#utility.yul\":10447:10767   */\n    tag_76:\n        /* \"#utility.yul\":10491:10497   */\n      0x00\n        /* \"#utility.yul\":10528:10529   */\n      0x02\n        /* \"#utility.yul\":10522:10526   */\n      dup3\n        /* \"#utility.yul\":10518:10530   */\n      div\n        /* \"#utility.yul\":10508:10530   */\n      swap1\n      pop\n        /* \"#utility.yul\":10575:10576   */\n      0x01\n        /* \"#utility.yul\":10569:10573   */\n      dup3\n        /* \"#utility.yul\":10565:10577   */\n      and\n        /* \"#utility.yul\":10596:10614   */\n      dup1\n        /* \"#utility.yul\":10586:10667   */\n      tag_337\n      jumpi\n        /* \"#utility.yul\":10652:10656   */\n      0x7f\n        /* \"#utility.yul\":10644:10650   */\n      dup3\n        /* \"#utility.yul\":10640:10657   */\n      and\n        /* \"#utility.yul\":10630:10657   */\n      swap2\n      pop\n        /* \"#utility.yul\":10586:10667   */\n    tag_337:\n        /* \"#utility.yul\":10714:10716   */\n      0x20\n        /* \"#utility.yul\":10706:10712   */\n      dup3\n        /* \"#utility.yul\":10703:10717   */\n      lt\n        /* \"#utility.yul\":10683:10701   */\n      dup2\n        /* \"#utility.yul\":10680:10718   */\n      eq\n        /* \"#utility.yul\":10677:10761   */\n      iszero\n      tag_338\n      jumpi\n        /* \"#utility.yul\":10733:10751   */\n      tag_339\n      tag_340\n      jump\t// in\n    tag_339:\n        /* \"#utility.yul\":10677:10761   */\n    tag_338:\n        /* \"#utility.yul\":10498:10767   */\n      pop\n        /* \"#utility.yul\":10447:10767   */\n      swap2\n      swap1\n      pop\n      jump\t// out\n        /* \"#utility.yul\":10773:11054   */\n    tag_303:\n        /* \"#utility.yul\":10856:10883   */\n      tag_342\n        /* \"#utility.yul\":10878:10882   */\n      dup3\n        /* \"#utility.yul\":10856:10883   */\n      tag_255\n      jump\t// in\n    tag_342:\n        /* \"#utility.yul\":10848:10854   */\n      dup2\n        /* \"#utility.yul\":10844:10884   */\n      add\n        /* \"#utility.yul\":10986:10992   */\n      dup2\n        /* \"#utility.yul\":10974:10984   */\n      dup2\n        /* \"#utility.yul\":10971:10993   */\n      lt\n        /* \"#utility.yul\":10950:10968   */\n      0xffffffffffffffff\n        /* \"#utility.yul\":10938:10948   */\n      dup3\n        /* \"#utility.yul\":10935:10969   */\n      gt\n        /* \"#utility.yul\":10932:10994   */\n      or\n        /* \"#utility.yul\":10929:11017   */\n      iszero\n      tag_343\n      jumpi\n        /* \"#utility.yul\":10997:11015   */\n      tag_344\n      tag_308\n      jump\t// in\n    tag_344:\n        /* \"#utility.yul\":10929:11017   */\n    tag_343:\n        /* \"#utility.yul\":11037:11047   */\n      dup1\n        /* \"#utility.yul\":11033:11035   */\n      0x40\n        /* \"#utility.yul\":11026:11048   */\n      mstore\n        /* \"#utility.yul\":10816:11054   */\n      pop\n        /* \"#utility.yul\":10773:11054   */\n      pop\n      pop\n      jump\t// out\n        /* \"#utility.yul\":11060:11293   */\n    tag_91:\n        /* \"#utility.yul\":11099:11102   */\n      0x00\n        /* \"#utility.yul\":11122:11146   */\n      tag_346\n        /* \"#utility.yul\":11140:11145   */\n      dup3\n        /* \"#utility.yul\":11122:11146   */\n      tag_279\n      jump\t// in\n    tag_346:\n        /* \"#utility.yul\":11113:11146   */\n      swap2\n      pop\n        /* \"#utility.yul\":11168:11234   */\n      0xffffffffffffffffffffffffffffffffffffffffffffffffffffffffffffffff\n        /* \"#utility.yul\":11161:11166   */\n      dup3\n        /* \"#utility.yul\":11158:11235   */\n      eq\n        /* \"#utility.yul\":11155:11258   */\n      iszero\n      tag_347\n      jumpi\n        /* \"#utility.yul\":11238:11256   */\n      tag_348\n      tag_317\n      jump\t// in\n    tag_348:\n        /* \"#utility.yul\":11155:11258   */\n    tag_347:\n        /* \"#utility.yul\":11285:11286   */\n      0x01\n        /* \"#utility.yul\":11278:11283   */\n      dup3\n        /* \"#utility.yul\":11274:11287   */\n      add\n        /* \"#utility.yul\":11267:11287   */\n      swap1\n      pop\n        /* \"#utility.yul\":11060:11293   */\n      swap2\n      swap1\n      pop\n      jump\t// out\n        /* \"#utility.yul\":11299:11479   */\n    tag_317:\n        /* \"#utility.yul\":11347:11424   */\n      0x4e487b7100000000000000000000000000000000000000000000000000000000\n        /* \"#utility.yul\":11344:11345   */\n      0x00\n        /* \"#utility.yul\":11337:11425   */\n      mstore\n        /* \"#utility.yul\":11444:11448   */\n      0x11\n        /* \"#utility.yul\":11441:11442   */\n      0x04\n        /* \"#utility.yul\":11434:11449   */\n      mstore\n        /* \"#utility.yul\":11468:11472   */\n      0x24\n        /* \"#utility.yul\":11465:11466   */\n      0x00\n        /* \"#utility.yul\":11458:11473   */\n      revert\n        /* \"#utility.yul\":11485:11665   */\n    tag_323:\n        /* \"#utility.yul\":11533:11610   */\n      0x4e487b7100000000000000000000000000000000000000000000000000000000\n        /* \"#utility.yul\":11530:11531   */\n      0x00\n        /* \"#utility.yul\":11523:11611   */\n      mstore\n        /* \"#utility.yul\":11630:11634   */\n      0x12\n        /* \"#utility.yul\":11627:11628   */\n      0x04\n        /* \"#utility.yul\":11620:11635   */\n      mstore\n        /* \"#utility.yul\":11654:11658   */\n      0x24\n        /* \"#utility.yul\":11651:11652   */\n      0x00\n        /* \"#utility.yul\":11644:11659   */\n      revert\n        /* \"#utility.yul\":11671:11851   */\n    tag_340:\n        /* \"#utility.yul\":11719:11796   */\n      0x4e487b7100000000000000000000000000000000000000000000000000000000\n        /* \"#utility.yul\":11716:11717   */\n      0x00\n        /* \"#utility.yul\":11709:11797   */\n      mstore\n        /* \"#utility.yul\":11816:11820   */\n      0x22\n        /* \"#utility.yul\":11813:11814   */\n      0x04\n        /* \"#utility.yul\":11806:11821   */\n      mstore\n        /* \"#utility.yul\":11840:11844   */\n      0x24\n        /* \"#utility.yul\":11837:11838   */\n      0x00\n        /* \"#utility.yul\":11830:11845   */\n      revert\n        /* \"#utility.yul\":11857:12037   */\n    tag_308:\n        /* \"#utility.yul\":11905:11982   */\n      0x4e487b7100000000000000000000000000000000000000000000000000000000\n        /* \"#utility.yul\":11902:11903   */\n      0x00\n        /* \"#utility.yul\":11895:11983   */\n      mstore\n        /* \"#utility.yul\":12002:12006   */\n      0x41\n        /* \"#utility.yul\":11999:12000   */\n      0x04\n        /* \"#utility.yul\":11992:12007   */\n      mstore\n        /* \"#utility.yul\":12026:12030   */\n      0x24\n        /* \"#utility.yul\":12023:12024   */\n      0x00\n        /* \"#utility.yul\":12016:12031   */\n      revert\n        /* \"#utility.yul\":12043:12160   */\n    tag_209:\n        /* \"#utility.yul\":12152:12153   */\n      0x00\n        /* \"#utility.yul\":12149:12150   */\n      dup1\n        /* \"#utility.yul\":12142:12154   */\n      revert\n        /* \"#utility.yul\":12166:12283   */\n    tag_198:\n        /* \"#utility.yul\":12275:12276   */\n      0x00\n        /* \"#utility.yul\":12272:12273   */\n      dup1\n        /* \"#utility.yul\":12265:12277   */\n      revert\n        /* \"#utility.yul\":12289:12406   */\n    tag_226:\n        /* \"#utility.yul\":12398:12399   */\n      0x00\n        /* \"#utility.yul\":12395:12396   */\n      dup1\n        /* \"#utility.yul\":12388:12400   */\n      revert\n        /* \"#utility.yul\":12412:12529   */\n    tag_218:\n        /* \"#utility.yul\":12521:12522   */\n      0x00\n        /* \"#utility.yul\":12518:12519   */\n      dup1\n        /* \"#utility.yul\":12511:12523   */\n      revert\n        /* \"#utility.yul\":12535:12637   */\n    tag_255:\n        /* \"#utility.yul\":12576:12582   */\n      0x00\n        /* \"#utility.yul\":12627:12629   */\n      0x1f\n        /* \"#utility.yul\":12623:12630   */\n      not\n        /* \"#utility.yul\":12618:12620   */\n      0x1f\n        /* \"#utility.yul\":12611:12616   */\n      dup4\n        /* \"#utility.yul\":12607:12621   */\n      add\n        /* \"#utility.yul\":12603:12631   */\n      and\n        /* \"#utility.yul\":12593:12631   */\n      swap1\n      pop\n        /* \"#utility.yul\":12535:12637   */\n      swap2\n      swap1\n      pop\n      jump\t// out\n        /* \"#utility.yul\":12643:12866   */\n    tag_260:\n        /* \"#utility.yul\":12783:12817   */\n      0x43616e20766f7465206f6e6c79207768696c6520766f74696e67206973206f70\n        /* \"#utility.yul\":12779:12780   */\n      0x00\n        /* \"#utility.yul\":12771:12777   */\n      dup3\n        /* \"#utility.yul\":12767:12781   */\n      add\n        /* \"#utility.yul\":12760:12818   */\n      mstore\n        /* \"#utility.yul\":12852:12858   */\n      0x656e202e00000000000000000000000000000000000000000000000000000000\n        /* \"#utility.yul\":12847:12849   */\n      0x20\n        /* \"#utility.yul\":12839:12845   */\n      dup3\n        /* \"#utility.yul\":12835:12850   */\n      add\n        /* \"#utility.yul\":12828:12859   */\n      mstore\n        /* \"#utility.yul\":12643:12866   */\n      pop\n      jump\t// out\n        /* \"#utility.yul\":12872:13114   */\n    tag_265:\n        /* \"#utility.yul\":13012:13046   */\n      0x43616e206f6e6c7920657865637574652066756e6374696f6e20696e20616464\n        /* \"#utility.yul\":13008:13009   */\n      0x00\n        /* \"#utility.yul\":13000:13006   */\n      dup3\n        /* \"#utility.yul\":12996:13010   */\n      add\n        /* \"#utility.yul\":12989:13047   */\n      mstore\n        /* \"#utility.yul\":13081:13106   */\n      0x20667269656e6420616e642076656e7565207068617365000000000000000000\n        /* \"#utility.yul\":13076:13078   */\n      0x20\n        /* \"#utility.yul\":13068:13074   */\n      dup3\n        /* \"#utility.yul\":13064:13079   */\n      add\n        /* \"#utility.yul\":13057:13107   */\n      mstore\n        /* \"#utility.yul\":12872:13114   */\n      pop\n      jump\t// out\n        /* \"#utility.yul\":13120:13342   */\n    tag_270:\n        /* \"#utility.yul\":13260:13294   */\n      0x43616e206f6e6c7920626520657865637574656420627920746865206d616e61\n        /* \"#utility.yul\":13256:13257   */\n      0x00\n        /* \"#utility.yul\":13248:13254   */\n      dup3\n        /* \"#utility.yul\":13244:13258   */\n      add\n        /* \"#utility.yul\":13237:13295   */\n      mstore\n        /* \"#utility.yul\":13329:13334   */\n      0x6765720000000000000000000000000000000000000000000000000000000000\n        /* \"#utility.yul\":13324:13326   */\n      0x20\n        /* \"#utility.yul\":13316:13322   */\n      dup3\n        /* \"#utility.yul\":13312:13327   */\n      add\n        /* \"#utility.yul\":13305:13335   */\n      mstore\n        /* \"#utility.yul\":13120:13342   */\n      pop\n      jump\t// out\n        /* \"#utility.yul\":13348:13583   */\n    tag_275:\n        /* \"#utility.yul\":13488:13522   */\n      0x43616e6e6f7420657865637574652066756e6374696f6e207768696c65206c75\n        /* \"#utility.yul\":13484:13485   */\n      0x00\n        /* \"#utility.yul\":13476:13482   */\n      dup3\n        /* \"#utility.yul\":13472:13486   */\n      add\n        /* \"#utility.yul\":13465:13523   */\n      mstore\n        /* \"#utility.yul\":13557:13575   */\n      0x6e63682069732063616e63656c6c656400000000000000000000000000000000\n        /* \"#utility.yul\":13552:13554   */\n      0x20\n        /* \"#utility.yul\":13544:13550   */\n      dup3\n        /* \"#utility.yul\":13540:13555   */\n      add\n        /* \"#utility.yul\":13533:13576   */\n      mstore\n        /* \"#utility.yul\":13348:13583   */\n      pop\n      jump\t// out\n        /* \"#utility.yul\":13589:13711   */\n    tag_204:\n        /* \"#utility.yul\":13662:13686   */\n      tag_363\n        /* \"#utility.yul\":13680:13685   */\n      dup2\n        /* \"#utility.yul\":13662:13686   */\n      tag_241\n      jump\t// in\n    tag_363:\n        /* \"#utility.yul\":13655:13660   */\n      dup2\n        /* \"#utility.yul\":13652:13687   */\n      eq\n        /* \"#utility.yul\":13642:13705   */\n      tag_364\n      jumpi\n        /* \"#utility.yul\":13701:13702   */\n      0x00\n        /* \"#utility.yul\":13698:13699   */\n      dup1\n        /* \"#utility.yul\":13691:13703   */\n      revert\n        /* \"#utility.yul\":13642:13705   */\n    tag_364:\n        /* \"#utility.yul\":13589:13711   */\n      pop\n      jump\t// out\n        /* \"#utility.yul\":13717:13839   */\n    tag_214:\n        /* \"#utility.yul\":13790:13814   */\n      tag_366\n        /* \"#utility.yul\":13808:13813   */\n      dup2\n        /* \"#utility.yul\":13790:13814   */\n      tag_279\n      jump\t// in\n    tag_366:\n        /* \"#utility.yul\":13783:13788   */\n      dup2\n        /* \"#utility.yul\":13780:13815   */\n      eq\n        /* \"#utility.yul\":13770:13833   */\n      tag_367\n      jumpi\n        /* \"#utility.yul\":13829:13830   */\n      0x00\n        /* \"#utility.yul\":13826:13827   */\n      dup1\n        /* \"#utility.yul\":13819:13831   */\n      revert\n        /* \"#utility.yul\":13770:13833   */\n    tag_367:\n        /* \"#utility.yul\":13717:13839   */\n      pop\n      jump\t// out\n\n    auxdata: 0xa2646970667358221220323a469808543b6716e5f90cd2397ea90e855334c28d52147698077537c9086564736f6c63430008070033\n}\n",
				"bytecode": {
					"linkReferences": {},
					"object": "608060405260006002556000600355600060045560405180602001604052806000815250600690805190602001906200003a929190620000e1565b506000600960006101000a81548160ff0219169083151502179055506000600960016101000a81548160ff0219169083151502179055506000600960026101000a81548160ff0219169083151502179055503480156200009957600080fd5b5033600560006101000a81548173ffffffffffffffffffffffffffffffffffffffff021916908373ffffffffffffffffffffffffffffffffffffffff160217905550620001f6565b828054620000ef9062000191565b90600052602060002090601f0160209004810192826200011357600085556200015f565b82601f106200012e57805160ff19168380011785556200015f565b828001600101855582156200015f579182015b828111156200015e57825182559160200191906001019062000141565b5b5090506200016e919062000172565b5090565b5b808211156200018d57600081600090555060010162000173565b5090565b60006002820490506001821680620001aa57607f821691505b60208210811415620001c157620001c0620001c7565b5b50919050565b7f4e487b7100000000000000000000000000000000000000000000000000000000600052602260045260246000fd5b61197a80620002066000396000f3fe608060405234801561001057600080fd5b50600436106100f55760003560e01c80633b9f708d11610097578063affc067011610066578063affc06701461028b578063cb43284e14610295578063d4ad644e1461029f578063e2393021146102a9576100f5565b80633b9f708d1461020157806347098f3614610231578063481c6a751461024f578063a3bef4d71461026d576100f5565b80630f5f2eac116100d35780630f5f2eac14610178578063124258c6146101825780631635b5d3146101b25780631ddabf7a146101d0576100f5565b806302daf12f146100fa57806302ee93c81461012a5780630843d16d1461015a575b600080fd5b610114600480360381019061010f9190611288565b6102b3565b60405161012191906113dd565b60405180910390f35b610144600480360381019061013f919061123f565b610353565b60405161015191906114af565b60405180910390f35b610162610485565b60405161016f91906114af565b60405180910390f35b61018061048b565b005b61019c60048036038101906101979190611288565b610553565b6040516101a991906113c2565b60405180910390f35b6101ba61083c565b6040516101c791906113dd565b60405180910390f35b6101ea60048036038101906101e591906111b6565b6108ca565b6040516101f89291906113ff565b60405180910390f35b61021b600480360381019061021691906111e3565b610983565b60405161022891906114af565b60405180910390f35b610239610b30565b60405161024691906114af565b60405180910390f35b610257610b36565b60405161026491906113a7565b60405180910390f35b610275610b5c565b60405161028291906114af565b60405180910390f35b610293610b62565b005b61029d610c0f565b005b6102a7610cc4565b005b6102b1610d71565b005b600060205280600052604060002060009150905080546102d29061164d565b80601f01602080910402602001604051908101604052809291908181526020018280546102fe9061164d565b801561034b5780601f106103205761010080835404028352916020019161034b565b820191906000526020600020905b81548152906001019060200180831161032e57829003601f168201915b505050505081565b6000801515600960029054906101000a900460ff161515146103aa576040517f08c379a00000000000000000000000000000000000000000000000000000000081526004016103a19061144f565b60405180910390fd5b600560009054906101000a900473ffffffffffffffffffffffffffffffffffffffff1673ffffffffffffffffffffffffffffffffffffffff163373ffffffffffffffffffffffffffffffffffffffff161461043a576040517f08c379a00000000000000000000000000000000000000000000000000000000081526004016104319061146f565b60405180910390fd5b6002600081548092919061044d906116b0565b9190505550816000806002548152602001908152602001600020908051906020019061047a929190610fa0565b506002549050919050565b60025481565b600560009054906101000a900473ffffffffffffffffffffffffffffffffffffffff1673ffffffffffffffffffffffffffffffffffffffff163373ffffffffffffffffffffffffffffffffffffffff161461051b576040517f08c379a00000000000000000000000000000000000000000000000000000000081526004016105129061146f565b60405180910390fd5b6000600960026101000a81548160ff0219169083151502179055506000600960006101000a81548160ff021916908315150217905550565b600060011515600960009054906101000a900460ff161515146105ab576040517f08c379a00000000000000000000000000000000000000000000000000000000081526004016105a29061142f565b60405180910390fd5b60001515600960019054906101000a900460ff16151514610601576040517f08c379a00000000000000000000000000000000000000000000000000000000081526004016105f89061148f565b60405180910390fd5b600090506000600160003373ffffffffffffffffffffffffffffffffffffffff1673ffffffffffffffffffffffffffffffffffffffff16815260200190815260200160002060000180546106549061164d565b90501461080b5760001515600160003373ffffffffffffffffffffffffffffffffffffffff1673ffffffffffffffffffffffffffffffffffffffff16815260200190815260200160002060010160009054906101000a900460ff161515141561080a57600080600084815260200190815260200160002080546106d69061164d565b905014610809576001905060018060003373ffffffffffffffffffffffffffffffffffffffff1673ffffffffffffffffffffffffffffffffffffffff16815260200190815260200160002060010160006101000a81548160ff021916908315150217905550610743611026565b33816000019073ffffffffffffffffffffffffffffffffffffffff16908173ffffffffffffffffffffffffffffffffffffffff16815250508281602001818152505060046000815480929190610798906116b0565b91905055508060076000600454815260200190815260200160002060008201518160000160006101000a81548173ffffffffffffffffffffffffffffffffffffffff021916908373ffffffffffffffffffffffffffffffffffffffff16021790555060208201518160010155905050505b5b5b6001600260035461081c9190611592565b610826919061153c565b6004541061083757610836610e6a565b5b919050565b600680546108499061164d565b80601f01602080910402602001604051908101604052809291908181526020018280546108759061164d565b80156108c25780601f10610897576101008083540402835291602001916108c2565b820191906000526020600020905b8154815290600101906020018083116108a557829003601f168201915b505050505081565b60016020528060005260406000206000915090508060000180546108ed9061164d565b80601f01602080910402602001604051908101604052809291908181526020018280546109199061164d565b80156109665780601f1061093b57610100808354040283529160200191610966565b820191906000526020600020905b81548152906001019060200180831161094957829003601f168201915b5050505050908060010160009054906101000a900460ff16905082565b6000801515600960029054906101000a900460ff161515146109da576040517f08c379a00000000000000000000000000000000000000000000000000000000081526004016109d19061144f565b60405180910390fd5b600560009054906101000a900473ffffffffffffffffffffffffffffffffffffffff1673ffffffffffffffffffffffffffffffffffffffff163373ffffffffffffffffffffffffffffffffffffffff1614610a6a576040517f08c379a0000000000000000000000000000000000000000000000000000000008152600401610a619061146f565b60405180910390fd5b610a72611056565b828160000181905250600081602001901515908115158152505080600160008673ffffffffffffffffffffffffffffffffffffffff1673ffffffffffffffffffffffffffffffffffffffff1681526020019081526020016000206000820151816000019080519060200190610ae8929190610fa0565b5060208201518160010160006101000a81548160ff02191690831515021790555090505060036000815480929190610b1f906116b0565b919050555060035491505092915050565b60035481565b600560009054906101000a900473ffffffffffffffffffffffffffffffffffffffff1681565b60045481565b600560009054906101000a900473ffffffffffffffffffffffffffffffffffffffff1673ffffffffffffffffffffffffffffffffffffffff163373ffffffffffffffffffffffffffffffffffffffff1614610bf2576040517f08c379a0000000000000000000000000000000000000000000000000000000008152600401610be99061146f565b60405180910390fd5b6001600960006101000a81548160ff021916908315150217905550565b600560009054906101000a900473ffffffffffffffffffffffffffffffffffffffff1673ffffffffffffffffffffffffffffffffffffffff163373ffffffffffffffffffffffffffffffffffffffff1614610c9f576040517f08c379a0000000000000000000000000000000000000000000000000000000008152600401610c969061146f565b60405180910390fd5b6001600960026101000a81548160ff021916908315150217905550610cc2610b62565b565b600560009054906101000a900473ffffffffffffffffffffffffffffffffffffffff1673ffffffffffffffffffffffffffffffffffffffff163373ffffffffffffffffffffffffffffffffffffffff1614610d54576040517f08c379a0000000000000000000000000000000000000000000000000000000008152600401610d4b9061146f565b60405180910390fd5b6000600960016101000a81548160ff021916908315150217905550565b600560009054906101000a900473ffffffffffffffffffffffffffffffffffffffff1673ffffffffffffffffffffffffffffffffffffffff163373ffffffffffffffffffffffffffffffffffffffff1614610e01576040517f08c379a0000000000000000000000000000000000000000000000000000000008152600401610df89061146f565b60405180910390fd5b6001600960016101000a81548160ff0219169083151502179055506040518060400160405280601d81526020017f4e6f2076656e7565202d206c756e63682069732063616e63656c6c656400000081525060069080519060200190610e67929190610fa0565b50565b6000806000600190505b6004548111610f545760006001905060006008600060076000868152602001908152602001600020600101548152602001908152602001600020541115610eed5760086000600760008581526020019081526020016000206001015481526020019081526020016000205481610eea919061153c565b90505b8060086000600760008681526020019081526020016000206001015481526020019081526020016000208190555083811115610f4057809350600760008381526020019081526020016000206001015492505b508080610f4c906116b0565b915050610e74565b506000808281526020019081526020016000206006908054610f759061164d565b610f80929190611072565b506000600960006101000a81548160ff0219169083151502179055505050565b828054610fac9061164d565b90600052602060002090601f016020900481019282610fce5760008555611015565b82601f10610fe757805160ff1916838001178555611015565b82800160010185558215611015579182015b82811115611014578251825591602001919060010190610ff9565b5b50905061102291906110ff565b5090565b6040518060400160405280600073ffffffffffffffffffffffffffffffffffffffff168152602001600081525090565b6040518060400160405280606081526020016000151581525090565b82805461107e9061164d565b90600052602060002090601f0160209004810192826110a057600085556110ee565b82601f106110b157805485556110ee565b828001600101855582156110ee57600052602060002091601f016020900482015b828111156110ed5782548255916001019190600101906110d2565b5b5090506110fb91906110ff565b5090565b5b80821115611118576000816000905550600101611100565b5090565b600061112f61112a846114ef565b6114ca565b90508281526020810184848401111561114b5761114a6117ba565b5b61115684828561160b565b509392505050565b60008135905061116d81611916565b92915050565b600082601f830112611188576111876117b5565b5b813561119884826020860161111c565b91505092915050565b6000813590506111b08161192d565b92915050565b6000602082840312156111cc576111cb6117c4565b5b60006111da8482850161115e565b91505092915050565b600080604083850312156111fa576111f96117c4565b5b60006112088582860161115e565b925050602083013567ffffffffffffffff811115611229576112286117bf565b5b61123585828601611173565b9150509250929050565b600060208284031215611255576112546117c4565b5b600082013567ffffffffffffffff811115611273576112726117bf565b5b61127f84828501611173565b91505092915050565b60006020828403121561129e5761129d6117c4565b5b60006112ac848285016111a1565b91505092915050565b6112be816115c3565b82525050565b6112cd816115d5565b82525050565b60006112de82611520565b6112e8818561152b565b93506112f881856020860161161a565b611301816117c9565b840191505092915050565b600061131960248361152b565b9150611324826117da565b604082019050919050565b600061133c60378361152b565b915061134782611829565b604082019050919050565b600061135f60238361152b565b915061136a82611878565b604082019050919050565b600061138260308361152b565b915061138d826118c7565b604082019050919050565b6113a181611601565b82525050565b60006020820190506113bc60008301846112b5565b92915050565b60006020820190506113d760008301846112c4565b92915050565b600060208201905081810360008301526113f781846112d3565b905092915050565b6000604082019050818103600083015261141981856112d3565b905061142860208301846112c4565b9392505050565b600060208201905081810360008301526114488161130c565b9050919050565b600060208201905081810360008301526114688161132f565b9050919050565b6000602082019050818103600083015261148881611352565b9050919050565b600060208201905081810360008301526114a881611375565b9050919050565b60006020820190506114c46000830184611398565b92915050565b60006114d46114e5565b90506114e0828261167f565b919050565b6000604051905090565b600067ffffffffffffffff82111561150a57611509611786565b5b611513826117c9565b9050602081019050919050565b600081519050919050565b600082825260208201905092915050565b600061154782611601565b915061155283611601565b9250827fffffffffffffffffffffffffffffffffffffffffffffffffffffffffffffffff03821115611587576115866116f9565b5b828201905092915050565b600061159d82611601565b91506115a883611601565b9250826115b8576115b7611728565b5b828204905092915050565b60006115ce826115e1565b9050919050565b60008115159050919050565b600073ffffffffffffffffffffffffffffffffffffffff82169050919050565b6000819050919050565b82818337600083830152505050565b60005b8381101561163857808201518184015260208101905061161d565b83811115611647576000848401525b50505050565b6000600282049050600182168061166557607f821691505b6020821081141561167957611678611757565b5b50919050565b611688826117c9565b810181811067ffffffffffffffff821117156116a7576116a6611786565b5b80604052505050565b60006116bb82611601565b91507fffffffffffffffffffffffffffffffffffffffffffffffffffffffffffffffff8214156116ee576116ed6116f9565b5b600182019050919050565b7f4e487b7100000000000000000000000000000000000000000000000000000000600052601160045260246000fd5b7f4e487b7100000000000000000000000000000000000000000000000000000000600052601260045260246000fd5b7f4e487b7100000000000000000000000000000000000000000000000000000000600052602260045260246000fd5b7f4e487b7100000000000000000000000000000000000000000000000000000000600052604160045260246000fd5b600080fd5b600080fd5b600080fd5b600080fd5b6000601f19601f8301169050919050565b7f43616e20766f7465206f6e6c79207768696c6520766f74696e67206973206f7060008201527f656e202e00000000000000000000000000000000000000000000000000000000602082015250565b7f43616e206f6e6c7920657865637574652066756e6374696f6e20696e2061646460008201527f20667269656e6420616e642076656e7565207068617365000000000000000000602082015250565b7f43616e206f6e6c7920626520657865637574656420627920746865206d616e6160008201527f6765720000000000000000000000000000000000000000000000000000000000602082015250565b7f43616e6e6f7420657865637574652066756e6374696f6e207768696c65206c7560008201527f6e63682069732063616e63656c6c656400000000000000000000000000000000602082015250565b61191f816115c3565b811461192a57600080fd5b50565b61193681611601565b811461194157600080fd5b5056fea2646970667358221220323a469808543b6716e5f90cd2397ea90e855334c28d52147698077537c9086564736f6c63430008070033",
					"opcodes": "PUSH1 0x80 PUSH1 0x40 MSTORE PUSH1 0x0 PUSH1 0x2 SSTORE PUSH1 0x0 PUSH1 0x3 SSTORE PUSH1 0x0 PUSH1 0x4 SSTORE PUSH1 0x40 MLOAD DUP1 PUSH1 0x20 ADD PUSH1 0x40 MSTORE DUP1 PUSH1 0x0 DUP2 MSTORE POP PUSH1 0x6 SWAP1 DUP1 MLOAD SWAP1 PUSH1 0x20 ADD SWAP1 PUSH3 0x3A SWAP3 SWAP2 SWAP1 PUSH3 0xE1 JUMP JUMPDEST POP PUSH1 0x0 PUSH1 0x9 PUSH1 0x0 PUSH2 0x100 EXP DUP2 SLOAD DUP2 PUSH1 0xFF MUL NOT AND SWAP1 DUP4 ISZERO ISZERO MUL OR SWAP1 SSTORE POP PUSH1 0x0 PUSH1 0x9 PUSH1 0x1 PUSH2 0x100 EXP DUP2 SLOAD DUP2 PUSH1 0xFF MUL NOT AND SWAP1 DUP4 ISZERO ISZERO MUL OR SWAP1 SSTORE POP PUSH1 0x0 PUSH1 0x9 PUSH1 0x2 PUSH2 0x100 EXP DUP2 SLOAD DUP2 PUSH1 0xFF MUL NOT AND SWAP1 DUP4 ISZERO ISZERO MUL OR SWAP1 SSTORE POP CALLVALUE DUP1 ISZERO PUSH3 0x99 JUMPI PUSH1 0x0 DUP1 REVERT JUMPDEST POP CALLER PUSH1 0x5 PUSH1 0x0 PUSH2 0x100 EXP DUP2 SLOAD DUP2 PUSH20 0xFFFFFFFFFFFFFFFFFFFFFFFFFFFFFFFFFFFFFFFF MUL NOT AND SWAP1 DUP4 PUSH20 0xFFFFFFFFFFFFFFFFFFFFFFFFFFFFFFFFFFFFFFFF AND MUL OR SWAP1 SSTORE POP PUSH3 0x1F6 JUMP JUMPDEST DUP3 DUP1 SLOAD PUSH3 0xEF SWAP1 PUSH3 0x191 JUMP JUMPDEST SWAP1 PUSH1 0x0 MSTORE PUSH1 0x20 PUSH1 0x0 KECCAK256 SWAP1 PUSH1 0x1F ADD PUSH1 0x20 SWAP1 DIV DUP2 ADD SWAP3 DUP3 PUSH3 0x113 JUMPI PUSH1 0x0 DUP6 SSTORE PUSH3 0x15F JUMP JUMPDEST DUP3 PUSH1 0x1F LT PUSH3 0x12E JUMPI DUP1 MLOAD PUSH1 0xFF NOT AND DUP4 DUP1 ADD OR DUP6 SSTORE PUSH3 0x15F JUMP JUMPDEST DUP3 DUP1 ADD PUSH1 0x1 ADD DUP6 SSTORE DUP3 ISZERO PUSH3 0x15F JUMPI SWAP2 DUP3 ADD JUMPDEST DUP3 DUP2 GT ISZERO PUSH3 0x15E JUMPI DUP3 MLOAD DUP3 SSTORE SWAP2 PUSH1 0x20 ADD SWAP2 SWAP1 PUSH1 0x1 ADD SWAP1 PUSH3 0x141 JUMP JUMPDEST JUMPDEST POP SWAP1 POP PUSH3 0x16E SWAP2 SWAP1 PUSH3 0x172 JUMP JUMPDEST POP SWAP1 JUMP JUMPDEST JUMPDEST DUP1 DUP3 GT ISZERO PUSH3 0x18D JUMPI PUSH1 0x0 DUP2 PUSH1 0x0 SWAP1 SSTORE POP PUSH1 0x1 ADD PUSH3 0x173 JUMP JUMPDEST POP SWAP1 JUMP JUMPDEST PUSH1 0x0 PUSH1 0x2 DUP3 DIV SWAP1 POP PUSH1 0x1 DUP3 AND DUP1 PUSH3 0x1AA JUMPI PUSH1 0x7F DUP3 AND SWAP2 POP JUMPDEST PUSH1 0x20 DUP3 LT DUP2 EQ ISZERO PUSH3 0x1C1 JUMPI PUSH3 0x1C0 PUSH3 0x1C7 JUMP JUMPDEST JUMPDEST POP SWAP2 SWAP1 POP JUMP JUMPDEST PUSH32 0x4E487B7100000000000000000000000000000000000000000000000000000000 PUSH1 0x0 MSTORE PUSH1 0x22 PUSH1 0x4 MSTORE PUSH1 0x24 PUSH1 0x0 REVERT JUMPDEST PUSH2 0x197A DUP1 PUSH3 0x206 PUSH1 0x0 CODECOPY PUSH1 0x0 RETURN INVALID PUSH1 0x80 PUSH1 0x40 MSTORE CALLVALUE DUP1 ISZERO PUSH2 0x10 JUMPI PUSH1 0x0 DUP1 REVERT JUMPDEST POP PUSH1 0x4 CALLDATASIZE LT PUSH2 0xF5 JUMPI PUSH1 0x0 CALLDATALOAD PUSH1 0xE0 SHR DUP1 PUSH4 0x3B9F708D GT PUSH2 0x97 JUMPI DUP1 PUSH4 0xAFFC0670 GT PUSH2 0x66 JUMPI DUP1 PUSH4 0xAFFC0670 EQ PUSH2 0x28B JUMPI DUP1 PUSH4 0xCB43284E EQ PUSH2 0x295 JUMPI DUP1 PUSH4 0xD4AD644E EQ PUSH2 0x29F JUMPI DUP1 PUSH4 0xE2393021 EQ PUSH2 0x2A9 JUMPI PUSH2 0xF5 JUMP JUMPDEST DUP1 PUSH4 0x3B9F708D EQ PUSH2 0x201 JUMPI DUP1 PUSH4 0x47098F36 EQ PUSH2 0x231 JUMPI DUP1 PUSH4 0x481C6A75 EQ PUSH2 0x24F JUMPI DUP1 PUSH4 0xA3BEF4D7 EQ PUSH2 0x26D JUMPI PUSH2 0xF5 JUMP JUMPDEST DUP1 PUSH4 0xF5F2EAC GT PUSH2 0xD3 JUMPI DUP1 PUSH4 0xF5F2EAC EQ PUSH2 0x178 JUMPI DUP1 PUSH4 0x124258C6 EQ PUSH2 0x182 JUMPI DUP1 PUSH4 0x1635B5D3 EQ PUSH2 0x1B2 JUMPI DUP1 PUSH4 0x1DDABF7A EQ PUSH2 0x1D0 JUMPI PUSH2 0xF5 JUMP JUMPDEST DUP1 PUSH4 0x2DAF12F EQ PUSH2 0xFA JUMPI DUP1 PUSH4 0x2EE93C8 EQ PUSH2 0x12A JUMPI DUP1 PUSH4 0x843D16D EQ PUSH2 0x15A JUMPI JUMPDEST PUSH1 0x0 DUP1 REVERT JUMPDEST PUSH2 0x114 PUSH1 0x4 DUP1 CALLDATASIZE SUB DUP2 ADD SWAP1 PUSH2 0x10F SWAP2 SWAP1 PUSH2 0x1288 JUMP JUMPDEST PUSH2 0x2B3 JUMP JUMPDEST PUSH1 0x40 MLOAD PUSH2 0x121 SWAP2 SWAP1 PUSH2 0x13DD JUMP JUMPDEST PUSH1 0x40 MLOAD DUP1 SWAP2 SUB SWAP1 RETURN JUMPDEST PUSH2 0x144 PUSH1 0x4 DUP1 CALLDATASIZE SUB DUP2 ADD SWAP1 PUSH2 0x13F SWAP2 SWAP1 PUSH2 0x123F JUMP JUMPDEST PUSH2 0x353 JUMP JUMPDEST PUSH1 0x40 MLOAD PUSH2 0x151 SWAP2 SWAP1 PUSH2 0x14AF JUMP JUMPDEST PUSH1 0x40 MLOAD DUP1 SWAP2 SUB SWAP1 RETURN JUMPDEST PUSH2 0x162 PUSH2 0x485 JUMP JUMPDEST PUSH1 0x40 MLOAD PUSH2 0x16F SWAP2 SWAP1 PUSH2 0x14AF JUMP JUMPDEST PUSH1 0x40 MLOAD DUP1 SWAP2 SUB SWAP1 RETURN JUMPDEST PUSH2 0x180 PUSH2 0x48B JUMP JUMPDEST STOP JUMPDEST PUSH2 0x19C PUSH1 0x4 DUP1 CALLDATASIZE SUB DUP2 ADD SWAP1 PUSH2 0x197 SWAP2 SWAP1 PUSH2 0x1288 JUMP JUMPDEST PUSH2 0x553 JUMP JUMPDEST PUSH1 0x40 MLOAD PUSH2 0x1A9 SWAP2 SWAP1 PUSH2 0x13C2 JUMP JUMPDEST PUSH1 0x40 MLOAD DUP1 SWAP2 SUB SWAP1 RETURN JUMPDEST PUSH2 0x1BA PUSH2 0x83C JUMP JUMPDEST PUSH1 0x40 MLOAD PUSH2 0x1C7 SWAP2 SWAP1 PUSH2 0x13DD JUMP JUMPDEST PUSH1 0x40 MLOAD DUP1 SWAP2 SUB SWAP1 RETURN JUMPDEST PUSH2 0x1EA PUSH1 0x4 DUP1 CALLDATASIZE SUB DUP2 ADD SWAP1 PUSH2 0x1E5 SWAP2 SWAP1 PUSH2 0x11B6 JUMP JUMPDEST PUSH2 0x8CA JUMP JUMPDEST PUSH1 0x40 MLOAD PUSH2 0x1F8 SWAP3 SWAP2 SWAP1 PUSH2 0x13FF JUMP JUMPDEST PUSH1 0x40 MLOAD DUP1 SWAP2 SUB SWAP1 RETURN JUMPDEST PUSH2 0x21B PUSH1 0x4 DUP1 CALLDATASIZE SUB DUP2 ADD SWAP1 PUSH2 0x216 SWAP2 SWAP1 PUSH2 0x11E3 JUMP JUMPDEST PUSH2 0x983 JUMP JUMPDEST PUSH1 0x40 MLOAD PUSH2 0x228 SWAP2 SWAP1 PUSH2 0x14AF JUMP JUMPDEST PUSH1 0x40 MLOAD DUP1 SWAP2 SUB SWAP1 RETURN JUMPDEST PUSH2 0x239 PUSH2 0xB30 JUMP JUMPDEST PUSH1 0x40 MLOAD PUSH2 0x246 SWAP2 SWAP1 PUSH2 0x14AF JUMP JUMPDEST PUSH1 0x40 MLOAD DUP1 SWAP2 SUB SWAP1 RETURN JUMPDEST PUSH2 0x257 PUSH2 0xB36 JUMP JUMPDEST PUSH1 0x40 MLOAD PUSH2 0x264 SWAP2 SWAP1 PUSH2 0x13A7 JUMP JUMPDEST PUSH1 0x40 MLOAD DUP1 SWAP2 SUB SWAP1 RETURN JUMPDEST PUSH2 0x275 PUSH2 0xB5C JUMP JUMPDEST PUSH1 0x40 MLOAD PUSH2 0x282 SWAP2 SWAP1 PUSH2 0x14AF JUMP JUMPDEST PUSH1 0x40 MLOAD DUP1 SWAP2 SUB SWAP1 RETURN JUMPDEST PUSH2 0x293 PUSH2 0xB62 JUMP JUMPDEST STOP JUMPDEST PUSH2 0x29D PUSH2 0xC0F JUMP JUMPDEST STOP JUMPDEST PUSH2 0x2A7 PUSH2 0xCC4 JUMP JUMPDEST STOP JUMPDEST PUSH2 0x2B1 PUSH2 0xD71 JUMP JUMPDEST STOP JUMPDEST PUSH1 0x0 PUSH1 0x20 MSTORE DUP1 PUSH1 0x0 MSTORE PUSH1 0x40 PUSH1 0x0 KECCAK256 PUSH1 0x0 SWAP2 POP SWAP1 POP DUP1 SLOAD PUSH2 0x2D2 SWAP1 PUSH2 0x164D JUMP JUMPDEST DUP1 PUSH1 0x1F ADD PUSH1 0x20 DUP1 SWAP2 DIV MUL PUSH1 0x20 ADD PUSH1 0x40 MLOAD SWAP1 DUP2 ADD PUSH1 0x40 MSTORE DUP1 SWAP3 SWAP2 SWAP1 DUP2 DUP2 MSTORE PUSH1 0x20 ADD DUP3 DUP1 SLOAD PUSH2 0x2FE SWAP1 PUSH2 0x164D JUMP JUMPDEST DUP1 ISZERO PUSH2 0x34B JUMPI DUP1 PUSH1 0x1F LT PUSH2 0x320 JUMPI PUSH2 0x100 DUP1 DUP4 SLOAD DIV MUL DUP4 MSTORE SWAP2 PUSH1 0x20 ADD SWAP2 PUSH2 0x34B JUMP JUMPDEST DUP3 ADD SWAP2 SWAP1 PUSH1 0x0 MSTORE PUSH1 0x20 PUSH1 0x0 KECCAK256 SWAP1 JUMPDEST DUP2 SLOAD DUP2 MSTORE SWAP1 PUSH1 0x1 ADD SWAP1 PUSH1 0x20 ADD DUP1 DUP4 GT PUSH2 0x32E JUMPI DUP3 SWAP1 SUB PUSH1 0x1F AND DUP3 ADD SWAP2 JUMPDEST POP POP POP POP POP DUP2 JUMP JUMPDEST PUSH1 0x0 DUP1 ISZERO ISZERO PUSH1 0x9 PUSH1 0x2 SWAP1 SLOAD SWAP1 PUSH2 0x100 EXP SWAP1 DIV PUSH1 0xFF AND ISZERO ISZERO EQ PUSH2 0x3AA JUMPI PUSH1 0x40 MLOAD PUSH32 0x8C379A000000000000000000000000000000000000000000000000000000000 DUP2 MSTORE PUSH1 0x4 ADD PUSH2 0x3A1 SWAP1 PUSH2 0x144F JUMP JUMPDEST PUSH1 0x40 MLOAD DUP1 SWAP2 SUB SWAP1 REVERT JUMPDEST PUSH1 0x5 PUSH1 0x0 SWAP1 SLOAD SWAP1 PUSH2 0x100 EXP SWAP1 DIV PUSH20 0xFFFFFFFFFFFFFFFFFFFFFFFFFFFFFFFFFFFFFFFF AND PUSH20 0xFFFFFFFFFFFFFFFFFFFFFFFFFFFFFFFFFFFFFFFF AND CALLER PUSH20 0xFFFFFFFFFFFFFFFFFFFFFFFFFFFFFFFFFFFFFFFF AND EQ PUSH2 0x43A JUMPI PUSH1 0x40 MLOAD PUSH32 0x8C379A000000000000000000000000000000000000000000000000000000000 DUP2 MSTORE PUSH1 0x4 ADD PUSH2 0x431 SWAP1 PUSH2 0x146F JUMP JUMPDEST PUSH1 0x40 MLOAD DUP1 SWAP2 SUB SWAP1 REVERT JUMPDEST PUSH1 0x2 PUSH1 0x0 DUP2 SLOAD DUP1 SWAP3 SWAP2 SWAP1 PUSH2 0x44D SWAP1 PUSH2 0x16B0 JUMP JUMPDEST SWAP2 SWAP1 POP SSTORE POP DUP2 PUSH1 0x0 DUP1 PUSH1 0x2 SLOAD DUP2 MSTORE PUSH1 0x20 ADD SWAP1 DUP2 MSTORE PUSH1 0x20 ADD PUSH1 0x0 KECCAK256 SWAP1 DUP1 MLOAD SWAP1 PUSH1 0x20 ADD SWAP1 PUSH2 0x47A SWAP3 SWAP2 SWAP1 PUSH2 0xFA0 JUMP JUMPDEST POP PUSH1 0x2 SLOAD SWAP1 POP SWAP2 SWAP1 POP JUMP JUMPDEST PUSH1 0x2 SLOAD DUP2 JUMP JUMPDEST PUSH1 0x5 PUSH1 0x0 SWAP1 SLOAD SWAP1 PUSH2 0x100 EXP SWAP1 DIV PUSH20 0xFFFFFFFFFFFFFFFFFFFFFFFFFFFFFFFFFFFFFFFF AND PUSH20 0xFFFFFFFFFFFFFFFFFFFFFFFFFFFFFFFFFFFFFFFF AND CALLER PUSH20 0xFFFFFFFFFFFFFFFFFFFFFFFFFFFFFFFFFFFFFFFF AND EQ PUSH2 0x51B JUMPI PUSH1 0x40 MLOAD PUSH32 0x8C379A000000000000000000000000000000000000000000000000000000000 DUP2 MSTORE PUSH1 0x4 ADD PUSH2 0x512 SWAP1 PUSH2 0x146F JUMP JUMPDEST PUSH1 0x40 MLOAD DUP1 SWAP2 SUB SWAP1 REVERT JUMPDEST PUSH1 0x0 PUSH1 0x9 PUSH1 0x2 PUSH2 0x100 EXP DUP2 SLOAD DUP2 PUSH1 0xFF MUL NOT AND SWAP1 DUP4 ISZERO ISZERO MUL OR SWAP1 SSTORE POP PUSH1 0x0 PUSH1 0x9 PUSH1 0x0 PUSH2 0x100 EXP DUP2 SLOAD DUP2 PUSH1 0xFF MUL NOT AND SWAP1 DUP4 ISZERO ISZERO MUL OR SWAP1 SSTORE POP JUMP JUMPDEST PUSH1 0x0 PUSH1 0x1 ISZERO ISZERO PUSH1 0x9 PUSH1 0x0 SWAP1 SLOAD SWAP1 PUSH2 0x100 EXP SWAP1 DIV PUSH1 0xFF AND ISZERO ISZERO EQ PUSH2 0x5AB JUMPI PUSH1 0x40 MLOAD PUSH32 0x8C379A000000000000000000000000000000000000000000000000000000000 DUP2 MSTORE PUSH1 0x4 ADD PUSH2 0x5A2 SWAP1 PUSH2 0x142F JUMP JUMPDEST PUSH1 0x40 MLOAD DUP1 SWAP2 SUB SWAP1 REVERT JUMPDEST PUSH1 0x0 ISZERO ISZERO PUSH1 0x9 PUSH1 0x1 SWAP1 SLOAD SWAP1 PUSH2 0x100 EXP SWAP1 DIV PUSH1 0xFF AND ISZERO ISZERO EQ PUSH2 0x601 JUMPI PUSH1 0x40 MLOAD PUSH32 0x8C379A000000000000000000000000000000000000000000000000000000000 DUP2 MSTORE PUSH1 0x4 ADD PUSH2 0x5F8 SWAP1 PUSH2 0x148F JUMP JUMPDEST PUSH1 0x40 MLOAD DUP1 SWAP2 SUB SWAP1 REVERT JUMPDEST PUSH1 0x0 SWAP1 POP PUSH1 0x0 PUSH1 0x1 PUSH1 0x0 CALLER PUSH20 0xFFFFFFFFFFFFFFFFFFFFFFFFFFFFFFFFFFFFFFFF AND PUSH20 0xFFFFFFFFFFFFFFFFFFFFFFFFFFFFFFFFFFFFFFFF AND DUP2 MSTORE PUSH1 0x20 ADD SWAP1 DUP2 MSTORE PUSH1 0x20 ADD PUSH1 0x0 KECCAK256 PUSH1 0x0 ADD DUP1 SLOAD PUSH2 0x654 SWAP1 PUSH2 0x164D JUMP JUMPDEST SWAP1 POP EQ PUSH2 0x80B JUMPI PUSH1 0x0 ISZERO ISZERO PUSH1 0x1 PUSH1 0x0 CALLER PUSH20 0xFFFFFFFFFFFFFFFFFFFFFFFFFFFFFFFFFFFFFFFF AND PUSH20 0xFFFFFFFFFFFFFFFFFFFFFFFFFFFFFFFFFFFFFFFF AND DUP2 MSTORE PUSH1 0x20 ADD SWAP1 DUP2 MSTORE PUSH1 0x20 ADD PUSH1 0x0 KECCAK256 PUSH1 0x1 ADD PUSH1 0x0 SWAP1 SLOAD SWAP1 PUSH2 0x100 EXP SWAP1 DIV PUSH1 0xFF AND ISZERO ISZERO EQ ISZERO PUSH2 0x80A JUMPI PUSH1 0x0 DUP1 PUSH1 0x0 DUP5 DUP2 MSTORE PUSH1 0x20 ADD SWAP1 DUP2 MSTORE PUSH1 0x20 ADD PUSH1 0x0 KECCAK256 DUP1 SLOAD PUSH2 0x6D6 SWAP1 PUSH2 0x164D JUMP JUMPDEST SWAP1 POP EQ PUSH2 0x809 JUMPI PUSH1 0x1 SWAP1 POP PUSH1 0x1 DUP1 PUSH1 0x0 CALLER PUSH20 0xFFFFFFFFFFFFFFFFFFFFFFFFFFFFFFFFFFFFFFFF AND PUSH20 0xFFFFFFFFFFFFFFFFFFFFFFFFFFFFFFFFFFFFFFFF AND DUP2 MSTORE PUSH1 0x20 ADD SWAP1 DUP2 MSTORE PUSH1 0x20 ADD PUSH1 0x0 KECCAK256 PUSH1 0x1 ADD PUSH1 0x0 PUSH2 0x100 EXP DUP2 SLOAD DUP2 PUSH1 0xFF MUL NOT AND SWAP1 DUP4 ISZERO ISZERO MUL OR SWAP1 SSTORE POP PUSH2 0x743 PUSH2 0x1026 JUMP JUMPDEST CALLER DUP2 PUSH1 0x0 ADD SWAP1 PUSH20 0xFFFFFFFFFFFFFFFFFFFFFFFFFFFFFFFFFFFFFFFF AND SWAP1 DUP2 PUSH20 0xFFFFFFFFFFFFFFFFFFFFFFFFFFFFFFFFFFFFFFFF AND DUP2 MSTORE POP POP DUP3 DUP2 PUSH1 0x20 ADD DUP2 DUP2 MSTORE POP POP PUSH1 0x4 PUSH1 0x0 DUP2 SLOAD DUP1 SWAP3 SWAP2 SWAP1 PUSH2 0x798 SWAP1 PUSH2 0x16B0 JUMP JUMPDEST SWAP2 SWAP1 POP SSTORE POP DUP1 PUSH1 0x7 PUSH1 0x0 PUSH1 0x4 SLOAD DUP2 MSTORE PUSH1 0x20 ADD SWAP1 DUP2 MSTORE PUSH1 0x20 ADD PUSH1 0x0 KECCAK256 PUSH1 0x0 DUP3 ADD MLOAD DUP2 PUSH1 0x0 ADD PUSH1 0x0 PUSH2 0x100 EXP DUP2 SLOAD DUP2 PUSH20 0xFFFFFFFFFFFFFFFFFFFFFFFFFFFFFFFFFFFFFFFF MUL NOT AND SWAP1 DUP4 PUSH20 0xFFFFFFFFFFFFFFFFFFFFFFFFFFFFFFFFFFFFFFFF AND MUL OR SWAP1 SSTORE POP PUSH1 0x20 DUP3 ADD MLOAD DUP2 PUSH1 0x1 ADD SSTORE SWAP1 POP POP POP JUMPDEST JUMPDEST JUMPDEST PUSH1 0x1 PUSH1 0x2 PUSH1 0x3 SLOAD PUSH2 0x81C SWAP2 SWAP1 PUSH2 0x1592 JUMP JUMPDEST PUSH2 0x826 SWAP2 SWAP1 PUSH2 0x153C JUMP JUMPDEST PUSH1 0x4 SLOAD LT PUSH2 0x837 JUMPI PUSH2 0x836 PUSH2 0xE6A JUMP JUMPDEST JUMPDEST SWAP2 SWAP1 POP JUMP JUMPDEST PUSH1 0x6 DUP1 SLOAD PUSH2 0x849 SWAP1 PUSH2 0x164D JUMP JUMPDEST DUP1 PUSH1 0x1F ADD PUSH1 0x20 DUP1 SWAP2 DIV MUL PUSH1 0x20 ADD PUSH1 0x40 MLOAD SWAP1 DUP2 ADD PUSH1 0x40 MSTORE DUP1 SWAP3 SWAP2 SWAP1 DUP2 DUP2 MSTORE PUSH1 0x20 ADD DUP3 DUP1 SLOAD PUSH2 0x875 SWAP1 PUSH2 0x164D JUMP JUMPDEST DUP1 ISZERO PUSH2 0x8C2 JUMPI DUP1 PUSH1 0x1F LT PUSH2 0x897 JUMPI PUSH2 0x100 DUP1 DUP4 SLOAD DIV MUL DUP4 MSTORE SWAP2 PUSH1 0x20 ADD SWAP2 PUSH2 0x8C2 JUMP JUMPDEST DUP3 ADD SWAP2 SWAP1 PUSH1 0x0 MSTORE PUSH1 0x20 PUSH1 0x0 KECCAK256 SWAP1 JUMPDEST DUP2 SLOAD DUP2 MSTORE SWAP1 PUSH1 0x1 ADD SWAP1 PUSH1 0x20 ADD DUP1 DUP4 GT PUSH2 0x8A5 JUMPI DUP3 SWAP1 SUB PUSH1 0x1F AND DUP3 ADD SWAP2 JUMPDEST POP POP POP POP POP DUP2 JUMP JUMPDEST PUSH1 0x1 PUSH1 0x20 MSTORE DUP1 PUSH1 0x0 MSTORE PUSH1 0x40 PUSH1 0x0 KECCAK256 PUSH1 0x0 SWAP2 POP SWAP1 POP DUP1 PUSH1 0x0 ADD DUP1 SLOAD PUSH2 0x8ED SWAP1 PUSH2 0x164D JUMP JUMPDEST DUP1 PUSH1 0x1F ADD PUSH1 0x20 DUP1 SWAP2 DIV MUL PUSH1 0x20 ADD PUSH1 0x40 MLOAD SWAP1 DUP2 ADD PUSH1 0x40 MSTORE DUP1 SWAP3 SWAP2 SWAP1 DUP2 DUP2 MSTORE PUSH1 0x20 ADD DUP3 DUP1 SLOAD PUSH2 0x919 SWAP1 PUSH2 0x164D JUMP JUMPDEST DUP1 ISZERO PUSH2 0x966 JUMPI DUP1 PUSH1 0x1F LT PUSH2 0x93B JUMPI PUSH2 0x100 DUP1 DUP4 SLOAD DIV MUL DUP4 MSTORE SWAP2 PUSH1 0x20 ADD SWAP2 PUSH2 0x966 JUMP JUMPDEST DUP3 ADD SWAP2 SWAP1 PUSH1 0x0 MSTORE PUSH1 0x20 PUSH1 0x0 KECCAK256 SWAP1 JUMPDEST DUP2 SLOAD DUP2 MSTORE SWAP1 PUSH1 0x1 ADD SWAP1 PUSH1 0x20 ADD DUP1 DUP4 GT PUSH2 0x949 JUMPI DUP3 SWAP1 SUB PUSH1 0x1F AND DUP3 ADD SWAP2 JUMPDEST POP POP POP POP POP SWAP1 DUP1 PUSH1 0x1 ADD PUSH1 0x0 SWAP1 SLOAD SWAP1 PUSH2 0x100 EXP SWAP1 DIV PUSH1 0xFF AND SWAP1 POP DUP3 JUMP JUMPDEST PUSH1 0x0 DUP1 ISZERO ISZERO PUSH1 0x9 PUSH1 0x2 SWAP1 SLOAD SWAP1 PUSH2 0x100 EXP SWAP1 DIV PUSH1 0xFF AND ISZERO ISZERO EQ PUSH2 0x9DA JUMPI PUSH1 0x40 MLOAD PUSH32 0x8C379A000000000000000000000000000000000000000000000000000000000 DUP2 MSTORE PUSH1 0x4 ADD PUSH2 0x9D1 SWAP1 PUSH2 0x144F JUMP JUMPDEST PUSH1 0x40 MLOAD DUP1 SWAP2 SUB SWAP1 REVERT JUMPDEST PUSH1 0x5 PUSH1 0x0 SWAP1 SLOAD SWAP1 PUSH2 0x100 EXP SWAP1 DIV PUSH20 0xFFFFFFFFFFFFFFFFFFFFFFFFFFFFFFFFFFFFFFFF AND PUSH20 0xFFFFFFFFFFFFFFFFFFFFFFFFFFFFFFFFFFFFFFFF AND CALLER PUSH20 0xFFFFFFFFFFFFFFFFFFFFFFFFFFFFFFFFFFFFFFFF AND EQ PUSH2 0xA6A JUMPI PUSH1 0x40 MLOAD PUSH32 0x8C379A000000000000000000000000000000000000000000000000000000000 DUP2 MSTORE PUSH1 0x4 ADD PUSH2 0xA61 SWAP1 PUSH2 0x146F JUMP JUMPDEST PUSH1 0x40 MLOAD DUP1 SWAP2 SUB SWAP1 REVERT JUMPDEST PUSH2 0xA72 PUSH2 0x1056 JUMP JUMPDEST DUP3 DUP2 PUSH1 0x0 ADD DUP2 SWAP1 MSTORE POP PUSH1 0x0 DUP2 PUSH1 0x20 ADD SWAP1 ISZERO ISZERO SWAP1 DUP2 ISZERO ISZERO DUP2 MSTORE POP POP DUP1 PUSH1 0x1 PUSH1 0x0 DUP7 PUSH20 0xFFFFFFFFFFFFFFFFFFFFFFFFFFFFFFFFFFFFFFFF AND PUSH20 0xFFFFFFFFFFFFFFFFFFFFFFFFFFFFFFFFFFFFFFFF AND DUP2 MSTORE PUSH1 0x20 ADD SWAP1 DUP2 MSTORE PUSH1 0x20 ADD PUSH1 0x0 KECCAK256 PUSH1 0x0 DUP3 ADD MLOAD DUP2 PUSH1 0x0 ADD SWAP1 DUP1 MLOAD SWAP1 PUSH1 0x20 ADD SWAP1 PUSH2 0xAE8 SWAP3 SWAP2 SWAP1 PUSH2 0xFA0 JUMP JUMPDEST POP PUSH1 0x20 DUP3 ADD MLOAD DUP2 PUSH1 0x1 ADD PUSH1 0x0 PUSH2 0x100 EXP DUP2 SLOAD DUP2 PUSH1 0xFF MUL NOT AND SWAP1 DUP4 ISZERO ISZERO MUL OR SWAP1 SSTORE POP SWAP1 POP POP PUSH1 0x3 PUSH1 0x0 DUP2 SLOAD DUP1 SWAP3 SWAP2 SWAP1 PUSH2 0xB1F SWAP1 PUSH2 0x16B0 JUMP JUMPDEST SWAP2 SWAP1 POP SSTORE POP PUSH1 0x3 SLOAD SWAP2 POP POP SWAP3 SWAP2 POP POP JUMP JUMPDEST PUSH1 0x3 SLOAD DUP2 JUMP JUMPDEST PUSH1 0x5 PUSH1 0x0 SWAP1 SLOAD SWAP1 PUSH2 0x100 EXP SWAP1 DIV PUSH20 0xFFFFFFFFFFFFFFFFFFFFFFFFFFFFFFFFFFFFFFFF AND DUP2 JUMP JUMPDEST PUSH1 0x4 SLOAD DUP2 JUMP JUMPDEST PUSH1 0x5 PUSH1 0x0 SWAP1 SLOAD SWAP1 PUSH2 0x100 EXP SWAP1 DIV PUSH20 0xFFFFFFFFFFFFFFFFFFFFFFFFFFFFFFFFFFFFFFFF AND PUSH20 0xFFFFFFFFFFFFFFFFFFFFFFFFFFFFFFFFFFFFFFFF AND CALLER PUSH20 0xFFFFFFFFFFFFFFFFFFFFFFFFFFFFFFFFFFFFFFFF AND EQ PUSH2 0xBF2 JUMPI PUSH1 0x40 MLOAD PUSH32 0x8C379A000000000000000000000000000000000000000000000000000000000 DUP2 MSTORE PUSH1 0x4 ADD PUSH2 0xBE9 SWAP1 PUSH2 0x146F JUMP JUMPDEST PUSH1 0x40 MLOAD DUP1 SWAP2 SUB SWAP1 REVERT JUMPDEST PUSH1 0x1 PUSH1 0x9 PUSH1 0x0 PUSH2 0x100 EXP DUP2 SLOAD DUP2 PUSH1 0xFF MUL NOT AND SWAP1 DUP4 ISZERO ISZERO MUL OR SWAP1 SSTORE POP JUMP JUMPDEST PUSH1 0x5 PUSH1 0x0 SWAP1 SLOAD SWAP1 PUSH2 0x100 EXP SWAP1 DIV PUSH20 0xFFFFFFFFFFFFFFFFFFFFFFFFFFFFFFFFFFFFFFFF AND PUSH20 0xFFFFFFFFFFFFFFFFFFFFFFFFFFFFFFFFFFFFFFFF AND CALLER PUSH20 0xFFFFFFFFFFFFFFFFFFFFFFFFFFFFFFFFFFFFFFFF AND EQ PUSH2 0xC9F JUMPI PUSH1 0x40 MLOAD PUSH32 0x8C379A000000000000000000000000000000000000000000000000000000000 DUP2 MSTORE PUSH1 0x4 ADD PUSH2 0xC96 SWAP1 PUSH2 0x146F JUMP JUMPDEST PUSH1 0x40 MLOAD DUP1 SWAP2 SUB SWAP1 REVERT JUMPDEST PUSH1 0x1 PUSH1 0x9 PUSH1 0x2 PUSH2 0x100 EXP DUP2 SLOAD DUP2 PUSH1 0xFF MUL NOT AND SWAP1 DUP4 ISZERO ISZERO MUL OR SWAP1 SSTORE POP PUSH2 0xCC2 PUSH2 0xB62 JUMP JUMPDEST JUMP JUMPDEST PUSH1 0x5 PUSH1 0x0 SWAP1 SLOAD SWAP1 PUSH2 0x100 EXP SWAP1 DIV PUSH20 0xFFFFFFFFFFFFFFFFFFFFFFFFFFFFFFFFFFFFFFFF AND PUSH20 0xFFFFFFFFFFFFFFFFFFFFFFFFFFFFFFFFFFFFFFFF AND CALLER PUSH20 0xFFFFFFFFFFFFFFFFFFFFFFFFFFFFFFFFFFFFFFFF AND EQ PUSH2 0xD54 JUMPI PUSH1 0x40 MLOAD PUSH32 0x8C379A000000000000000000000000000000000000000000000000000000000 DUP2 MSTORE PUSH1 0x4 ADD PUSH2 0xD4B SWAP1 PUSH2 0x146F JUMP JUMPDEST PUSH1 0x40 MLOAD DUP1 SWAP2 SUB SWAP1 REVERT JUMPDEST PUSH1 0x0 PUSH1 0x9 PUSH1 0x1 PUSH2 0x100 EXP DUP2 SLOAD DUP2 PUSH1 0xFF MUL NOT AND SWAP1 DUP4 ISZERO ISZERO MUL OR SWAP1 SSTORE POP JUMP JUMPDEST PUSH1 0x5 PUSH1 0x0 SWAP1 SLOAD SWAP1 PUSH2 0x100 EXP SWAP1 DIV PUSH20 0xFFFFFFFFFFFFFFFFFFFFFFFFFFFFFFFFFFFFFFFF AND PUSH20 0xFFFFFFFFFFFFFFFFFFFFFFFFFFFFFFFFFFFFFFFF AND CALLER PUSH20 0xFFFFFFFFFFFFFFFFFFFFFFFFFFFFFFFFFFFFFFFF AND EQ PUSH2 0xE01 JUMPI PUSH1 0x40 MLOAD PUSH32 0x8C379A000000000000000000000000000000000000000000000000000000000 DUP2 MSTORE PUSH1 0x4 ADD PUSH2 0xDF8 SWAP1 PUSH2 0x146F JUMP JUMPDEST PUSH1 0x40 MLOAD DUP1 SWAP2 SUB SWAP1 REVERT JUMPDEST PUSH1 0x1 PUSH1 0x9 PUSH1 0x1 PUSH2 0x100 EXP DUP2 SLOAD DUP2 PUSH1 0xFF MUL NOT AND SWAP1 DUP4 ISZERO ISZERO MUL OR SWAP1 SSTORE POP PUSH1 0x40 MLOAD DUP1 PUSH1 0x40 ADD PUSH1 0x40 MSTORE DUP1 PUSH1 0x1D DUP2 MSTORE PUSH1 0x20 ADD PUSH32 0x4E6F2076656E7565202D206C756E63682069732063616E63656C6C6564000000 DUP2 MSTORE POP PUSH1 0x6 SWAP1 DUP1 MLOAD SWAP1 PUSH1 0x20 ADD SWAP1 PUSH2 0xE67 SWAP3 SWAP2 SWAP1 PUSH2 0xFA0 JUMP JUMPDEST POP JUMP JUMPDEST PUSH1 0x0 DUP1 PUSH1 0x0 PUSH1 0x1 SWAP1 POP JUMPDEST PUSH1 0x4 SLOAD DUP2 GT PUSH2 0xF54 JUMPI PUSH1 0x0 PUSH1 0x1 SWAP1 POP PUSH1 0x0 PUSH1 0x8 PUSH1 0x0 PUSH1 0x7 PUSH1 0x0 DUP7 DUP2 MSTORE PUSH1 0x20 ADD SWAP1 DUP2 MSTORE PUSH1 0x20 ADD PUSH1 0x0 KECCAK256 PUSH1 0x1 ADD SLOAD DUP2 MSTORE PUSH1 0x20 ADD SWAP1 DUP2 MSTORE PUSH1 0x20 ADD PUSH1 0x0 KECCAK256 SLOAD GT ISZERO PUSH2 0xEED JUMPI PUSH1 0x8 PUSH1 0x0 PUSH1 0x7 PUSH1 0x0 DUP6 DUP2 MSTORE PUSH1 0x20 ADD SWAP1 DUP2 MSTORE PUSH1 0x20 ADD PUSH1 0x0 KECCAK256 PUSH1 0x1 ADD SLOAD DUP2 MSTORE PUSH1 0x20 ADD SWAP1 DUP2 MSTORE PUSH1 0x20 ADD PUSH1 0x0 KECCAK256 SLOAD DUP2 PUSH2 0xEEA SWAP2 SWAP1 PUSH2 0x153C JUMP JUMPDEST SWAP1 POP JUMPDEST DUP1 PUSH1 0x8 PUSH1 0x0 PUSH1 0x7 PUSH1 0x0 DUP7 DUP2 MSTORE PUSH1 0x20 ADD SWAP1 DUP2 MSTORE PUSH1 0x20 ADD PUSH1 0x0 KECCAK256 PUSH1 0x1 ADD SLOAD DUP2 MSTORE PUSH1 0x20 ADD SWAP1 DUP2 MSTORE PUSH1 0x20 ADD PUSH1 0x0 KECCAK256 DUP2 SWAP1 SSTORE POP DUP4 DUP2 GT ISZERO PUSH2 0xF40 JUMPI DUP1 SWAP4 POP PUSH1 0x7 PUSH1 0x0 DUP4 DUP2 MSTORE PUSH1 0x20 ADD SWAP1 DUP2 MSTORE PUSH1 0x20 ADD PUSH1 0x0 KECCAK256 PUSH1 0x1 ADD SLOAD SWAP3 POP JUMPDEST POP DUP1 DUP1 PUSH2 0xF4C SWAP1 PUSH2 0x16B0 JUMP JUMPDEST SWAP2 POP POP PUSH2 0xE74 JUMP JUMPDEST POP PUSH1 0x0 DUP1 DUP3 DUP2 MSTORE PUSH1 0x20 ADD SWAP1 DUP2 MSTORE PUSH1 0x20 ADD PUSH1 0x0 KECCAK256 PUSH1 0x6 SWAP1 DUP1 SLOAD PUSH2 0xF75 SWAP1 PUSH2 0x164D JUMP JUMPDEST PUSH2 0xF80 SWAP3 SWAP2 SWAP1 PUSH2 0x1072 JUMP JUMPDEST POP PUSH1 0x0 PUSH1 0x9 PUSH1 0x0 PUSH2 0x100 EXP DUP2 SLOAD DUP2 PUSH1 0xFF MUL NOT AND SWAP1 DUP4 ISZERO ISZERO MUL OR SWAP1 SSTORE POP POP POP JUMP JUMPDEST DUP3 DUP1 SLOAD PUSH2 0xFAC SWAP1 PUSH2 0x164D JUMP JUMPDEST SWAP1 PUSH1 0x0 MSTORE PUSH1 0x20 PUSH1 0x0 KECCAK256 SWAP1 PUSH1 0x1F ADD PUSH1 0x20 SWAP1 DIV DUP2 ADD SWAP3 DUP3 PUSH2 0xFCE JUMPI PUSH1 0x0 DUP6 SSTORE PUSH2 0x1015 JUMP JUMPDEST DUP3 PUSH1 0x1F LT PUSH2 0xFE7 JUMPI DUP1 MLOAD PUSH1 0xFF NOT AND DUP4 DUP1 ADD OR DUP6 SSTORE PUSH2 0x1015 JUMP JUMPDEST DUP3 DUP1 ADD PUSH1 0x1 ADD DUP6 SSTORE DUP3 ISZERO PUSH2 0x1015 JUMPI SWAP2 DUP3 ADD JUMPDEST DUP3 DUP2 GT ISZERO PUSH2 0x1014 JUMPI DUP3 MLOAD DUP3 SSTORE SWAP2 PUSH1 0x20 ADD SWAP2 SWAP1 PUSH1 0x1 ADD SWAP1 PUSH2 0xFF9 JUMP JUMPDEST JUMPDEST POP SWAP1 POP PUSH2 0x1022 SWAP2 SWAP1 PUSH2 0x10FF JUMP JUMPDEST POP SWAP1 JUMP JUMPDEST PUSH1 0x40 MLOAD DUP1 PUSH1 0x40 ADD PUSH1 0x40 MSTORE DUP1 PUSH1 0x0 PUSH20 0xFFFFFFFFFFFFFFFFFFFFFFFFFFFFFFFFFFFFFFFF AND DUP2 MSTORE PUSH1 0x20 ADD PUSH1 0x0 DUP2 MSTORE POP SWAP1 JUMP JUMPDEST PUSH1 0x40 MLOAD DUP1 PUSH1 0x40 ADD PUSH1 0x40 MSTORE DUP1 PUSH1 0x60 DUP2 MSTORE PUSH1 0x20 ADD PUSH1 0x0 ISZERO ISZERO DUP2 MSTORE POP SWAP1 JUMP JUMPDEST DUP3 DUP1 SLOAD PUSH2 0x107E SWAP1 PUSH2 0x164D JUMP JUMPDEST SWAP1 PUSH1 0x0 MSTORE PUSH1 0x20 PUSH1 0x0 KECCAK256 SWAP1 PUSH1 0x1F ADD PUSH1 0x20 SWAP1 DIV DUP2 ADD SWAP3 DUP3 PUSH2 0x10A0 JUMPI PUSH1 0x0 DUP6 SSTORE PUSH2 0x10EE JUMP JUMPDEST DUP3 PUSH1 0x1F LT PUSH2 0x10B1 JUMPI DUP1 SLOAD DUP6 SSTORE PUSH2 0x10EE JUMP JUMPDEST DUP3 DUP1 ADD PUSH1 0x1 ADD DUP6 SSTORE DUP3 ISZERO PUSH2 0x10EE JUMPI PUSH1 0x0 MSTORE PUSH1 0x20 PUSH1 0x0 KECCAK256 SWAP2 PUSH1 0x1F ADD PUSH1 0x20 SWAP1 DIV DUP3 ADD JUMPDEST DUP3 DUP2 GT ISZERO PUSH2 0x10ED JUMPI DUP3 SLOAD DUP3 SSTORE SWAP2 PUSH1 0x1 ADD SWAP2 SWAP1 PUSH1 0x1 ADD SWAP1 PUSH2 0x10D2 JUMP JUMPDEST JUMPDEST POP SWAP1 POP PUSH2 0x10FB SWAP2 SWAP1 PUSH2 0x10FF JUMP JUMPDEST POP SWAP1 JUMP JUMPDEST JUMPDEST DUP1 DUP3 GT ISZERO PUSH2 0x1118 JUMPI PUSH1 0x0 DUP2 PUSH1 0x0 SWAP1 SSTORE POP PUSH1 0x1 ADD PUSH2 0x1100 JUMP JUMPDEST POP SWAP1 JUMP JUMPDEST PUSH1 0x0 PUSH2 0x112F PUSH2 0x112A DUP5 PUSH2 0x14EF JUMP JUMPDEST PUSH2 0x14CA JUMP JUMPDEST SWAP1 POP DUP3 DUP2 MSTORE PUSH1 0x20 DUP2 ADD DUP5 DUP5 DUP5 ADD GT ISZERO PUSH2 0x114B JUMPI PUSH2 0x114A PUSH2 0x17BA JUMP JUMPDEST JUMPDEST PUSH2 0x1156 DUP5 DUP3 DUP6 PUSH2 0x160B JUMP JUMPDEST POP SWAP4 SWAP3 POP POP POP JUMP JUMPDEST PUSH1 0x0 DUP2 CALLDATALOAD SWAP1 POP PUSH2 0x116D DUP2 PUSH2 0x1916 JUMP JUMPDEST SWAP3 SWAP2 POP POP JUMP JUMPDEST PUSH1 0x0 DUP3 PUSH1 0x1F DUP4 ADD SLT PUSH2 0x1188 JUMPI PUSH2 0x1187 PUSH2 0x17B5 JUMP JUMPDEST JUMPDEST DUP2 CALLDATALOAD PUSH2 0x1198 DUP5 DUP3 PUSH1 0x20 DUP7 ADD PUSH2 0x111C JUMP JUMPDEST SWAP2 POP POP SWAP3 SWAP2 POP POP JUMP JUMPDEST PUSH1 0x0 DUP2 CALLDATALOAD SWAP1 POP PUSH2 0x11B0 DUP2 PUSH2 0x192D JUMP JUMPDEST SWAP3 SWAP2 POP POP JUMP JUMPDEST PUSH1 0x0 PUSH1 0x20 DUP3 DUP5 SUB SLT ISZERO PUSH2 0x11CC JUMPI PUSH2 0x11CB PUSH2 0x17C4 JUMP JUMPDEST JUMPDEST PUSH1 0x0 PUSH2 0x11DA DUP5 DUP3 DUP6 ADD PUSH2 0x115E JUMP JUMPDEST SWAP2 POP POP SWAP3 SWAP2 POP POP JUMP JUMPDEST PUSH1 0x0 DUP1 PUSH1 0x40 DUP4 DUP6 SUB SLT ISZERO PUSH2 0x11FA JUMPI PUSH2 0x11F9 PUSH2 0x17C4 JUMP JUMPDEST JUMPDEST PUSH1 0x0 PUSH2 0x1208 DUP6 DUP3 DUP7 ADD PUSH2 0x115E JUMP JUMPDEST SWAP3 POP POP PUSH1 0x20 DUP4 ADD CALLDATALOAD PUSH8 0xFFFFFFFFFFFFFFFF DUP2 GT ISZERO PUSH2 0x1229 JUMPI PUSH2 0x1228 PUSH2 0x17BF JUMP JUMPDEST JUMPDEST PUSH2 0x1235 DUP6 DUP3 DUP7 ADD PUSH2 0x1173 JUMP JUMPDEST SWAP2 POP POP SWAP3 POP SWAP3 SWAP1 POP JUMP JUMPDEST PUSH1 0x0 PUSH1 0x20 DUP3 DUP5 SUB SLT ISZERO PUSH2 0x1255 JUMPI PUSH2 0x1254 PUSH2 0x17C4 JUMP JUMPDEST JUMPDEST PUSH1 0x0 DUP3 ADD CALLDATALOAD PUSH8 0xFFFFFFFFFFFFFFFF DUP2 GT ISZERO PUSH2 0x1273 JUMPI PUSH2 0x1272 PUSH2 0x17BF JUMP JUMPDEST JUMPDEST PUSH2 0x127F DUP5 DUP3 DUP6 ADD PUSH2 0x1173 JUMP JUMPDEST SWAP2 POP POP SWAP3 SWAP2 POP POP JUMP JUMPDEST PUSH1 0x0 PUSH1 0x20 DUP3 DUP5 SUB SLT ISZERO PUSH2 0x129E JUMPI PUSH2 0x129D PUSH2 0x17C4 JUMP JUMPDEST JUMPDEST PUSH1 0x0 PUSH2 0x12AC DUP5 DUP3 DUP6 ADD PUSH2 0x11A1 JUMP JUMPDEST SWAP2 POP POP SWAP3 SWAP2 POP POP JUMP JUMPDEST PUSH2 0x12BE DUP2 PUSH2 0x15C3 JUMP JUMPDEST DUP3 MSTORE POP POP JUMP JUMPDEST PUSH2 0x12CD DUP2 PUSH2 0x15D5 JUMP JUMPDEST DUP3 MSTORE POP POP JUMP JUMPDEST PUSH1 0x0 PUSH2 0x12DE DUP3 PUSH2 0x1520 JUMP JUMPDEST PUSH2 0x12E8 DUP2 DUP6 PUSH2 0x152B JUMP JUMPDEST SWAP4 POP PUSH2 0x12F8 DUP2 DUP6 PUSH1 0x20 DUP7 ADD PUSH2 0x161A JUMP JUMPDEST PUSH2 0x1301 DUP2 PUSH2 0x17C9 JUMP JUMPDEST DUP5 ADD SWAP2 POP POP SWAP3 SWAP2 POP POP JUMP JUMPDEST PUSH1 0x0 PUSH2 0x1319 PUSH1 0x24 DUP4 PUSH2 0x152B JUMP JUMPDEST SWAP2 POP PUSH2 0x1324 DUP3 PUSH2 0x17DA JUMP JUMPDEST PUSH1 0x40 DUP3 ADD SWAP1 POP SWAP2 SWAP1 POP JUMP JUMPDEST PUSH1 0x0 PUSH2 0x133C PUSH1 0x37 DUP4 PUSH2 0x152B JUMP JUMPDEST SWAP2 POP PUSH2 0x1347 DUP3 PUSH2 0x1829 JUMP JUMPDEST PUSH1 0x40 DUP3 ADD SWAP1 POP SWAP2 SWAP1 POP JUMP JUMPDEST PUSH1 0x0 PUSH2 0x135F PUSH1 0x23 DUP4 PUSH2 0x152B JUMP JUMPDEST SWAP2 POP PUSH2 0x136A DUP3 PUSH2 0x1878 JUMP JUMPDEST PUSH1 0x40 DUP3 ADD SWAP1 POP SWAP2 SWAP1 POP JUMP JUMPDEST PUSH1 0x0 PUSH2 0x1382 PUSH1 0x30 DUP4 PUSH2 0x152B JUMP JUMPDEST SWAP2 POP PUSH2 0x138D DUP3 PUSH2 0x18C7 JUMP JUMPDEST PUSH1 0x40 DUP3 ADD SWAP1 POP SWAP2 SWAP1 POP JUMP JUMPDEST PUSH2 0x13A1 DUP2 PUSH2 0x1601 JUMP JUMPDEST DUP3 MSTORE POP POP JUMP JUMPDEST PUSH1 0x0 PUSH1 0x20 DUP3 ADD SWAP1 POP PUSH2 0x13BC PUSH1 0x0 DUP4 ADD DUP5 PUSH2 0x12B5 JUMP JUMPDEST SWAP3 SWAP2 POP POP JUMP JUMPDEST PUSH1 0x0 PUSH1 0x20 DUP3 ADD SWAP1 POP PUSH2 0x13D7 PUSH1 0x0 DUP4 ADD DUP5 PUSH2 0x12C4 JUMP JUMPDEST SWAP3 SWAP2 POP POP JUMP JUMPDEST PUSH1 0x0 PUSH1 0x20 DUP3 ADD SWAP1 POP DUP2 DUP2 SUB PUSH1 0x0 DUP4 ADD MSTORE PUSH2 0x13F7 DUP2 DUP5 PUSH2 0x12D3 JUMP JUMPDEST SWAP1 POP SWAP3 SWAP2 POP POP JUMP JUMPDEST PUSH1 0x0 PUSH1 0x40 DUP3 ADD SWAP1 POP DUP2 DUP2 SUB PUSH1 0x0 DUP4 ADD MSTORE PUSH2 0x1419 DUP2 DUP6 PUSH2 0x12D3 JUMP JUMPDEST SWAP1 POP PUSH2 0x1428 PUSH1 0x20 DUP4 ADD DUP5 PUSH2 0x12C4 JUMP JUMPDEST SWAP4 SWAP3 POP POP POP JUMP JUMPDEST PUSH1 0x0 PUSH1 0x20 DUP3 ADD SWAP1 POP DUP2 DUP2 SUB PUSH1 0x0 DUP4 ADD MSTORE PUSH2 0x1448 DUP2 PUSH2 0x130C JUMP JUMPDEST SWAP1 POP SWAP2 SWAP1 POP JUMP JUMPDEST PUSH1 0x0 PUSH1 0x20 DUP3 ADD SWAP1 POP DUP2 DUP2 SUB PUSH1 0x0 DUP4 ADD MSTORE PUSH2 0x1468 DUP2 PUSH2 0x132F JUMP JUMPDEST SWAP1 POP SWAP2 SWAP1 POP JUMP JUMPDEST PUSH1 0x0 PUSH1 0x20 DUP3 ADD SWAP1 POP DUP2 DUP2 SUB PUSH1 0x0 DUP4 ADD MSTORE PUSH2 0x1488 DUP2 PUSH2 0x1352 JUMP JUMPDEST SWAP1 POP SWAP2 SWAP1 POP JUMP JUMPDEST PUSH1 0x0 PUSH1 0x20 DUP3 ADD SWAP1 POP DUP2 DUP2 SUB PUSH1 0x0 DUP4 ADD MSTORE PUSH2 0x14A8 DUP2 PUSH2 0x1375 JUMP JUMPDEST SWAP1 POP SWAP2 SWAP1 POP JUMP JUMPDEST PUSH1 0x0 PUSH1 0x20 DUP3 ADD SWAP1 POP PUSH2 0x14C4 PUSH1 0x0 DUP4 ADD DUP5 PUSH2 0x1398 JUMP JUMPDEST SWAP3 SWAP2 POP POP JUMP JUMPDEST PUSH1 0x0 PUSH2 0x14D4 PUSH2 0x14E5 JUMP JUMPDEST SWAP1 POP PUSH2 0x14E0 DUP3 DUP3 PUSH2 0x167F JUMP JUMPDEST SWAP2 SWAP1 POP JUMP JUMPDEST PUSH1 0x0 PUSH1 0x40 MLOAD SWAP1 POP SWAP1 JUMP JUMPDEST PUSH1 0x0 PUSH8 0xFFFFFFFFFFFFFFFF DUP3 GT ISZERO PUSH2 0x150A JUMPI PUSH2 0x1509 PUSH2 0x1786 JUMP JUMPDEST JUMPDEST PUSH2 0x1513 DUP3 PUSH2 0x17C9 JUMP JUMPDEST SWAP1 POP PUSH1 0x20 DUP2 ADD SWAP1 POP SWAP2 SWAP1 POP JUMP JUMPDEST PUSH1 0x0 DUP2 MLOAD SWAP1 POP SWAP2 SWAP1 POP JUMP JUMPDEST PUSH1 0x0 DUP3 DUP3 MSTORE PUSH1 0x20 DUP3 ADD SWAP1 POP SWAP3 SWAP2 POP POP JUMP JUMPDEST PUSH1 0x0 PUSH2 0x1547 DUP3 PUSH2 0x1601 JUMP JUMPDEST SWAP2 POP PUSH2 0x1552 DUP4 PUSH2 0x1601 JUMP JUMPDEST SWAP3 POP DUP3 PUSH32 0xFFFFFFFFFFFFFFFFFFFFFFFFFFFFFFFFFFFFFFFFFFFFFFFFFFFFFFFFFFFFFFFF SUB DUP3 GT ISZERO PUSH2 0x1587 JUMPI PUSH2 0x1586 PUSH2 0x16F9 JUMP JUMPDEST JUMPDEST DUP3 DUP3 ADD SWAP1 POP SWAP3 SWAP2 POP POP JUMP JUMPDEST PUSH1 0x0 PUSH2 0x159D DUP3 PUSH2 0x1601 JUMP JUMPDEST SWAP2 POP PUSH2 0x15A8 DUP4 PUSH2 0x1601 JUMP JUMPDEST SWAP3 POP DUP3 PUSH2 0x15B8 JUMPI PUSH2 0x15B7 PUSH2 0x1728 JUMP JUMPDEST JUMPDEST DUP3 DUP3 DIV SWAP1 POP SWAP3 SWAP2 POP POP JUMP JUMPDEST PUSH1 0x0 PUSH2 0x15CE DUP3 PUSH2 0x15E1 JUMP JUMPDEST SWAP1 POP SWAP2 SWAP1 POP JUMP JUMPDEST PUSH1 0x0 DUP2 ISZERO ISZERO SWAP1 POP SWAP2 SWAP1 POP JUMP JUMPDEST PUSH1 0x0 PUSH20 0xFFFFFFFFFFFFFFFFFFFFFFFFFFFFFFFFFFFFFFFF DUP3 AND SWAP1 POP SWAP2 SWAP1 POP JUMP JUMPDEST PUSH1 0x0 DUP2 SWAP1 POP SWAP2 SWAP1 POP JUMP JUMPDEST DUP3 DUP2 DUP4 CALLDATACOPY PUSH1 0x0 DUP4 DUP4 ADD MSTORE POP POP POP JUMP JUMPDEST PUSH1 0x0 JUMPDEST DUP4 DUP2 LT ISZERO PUSH2 0x1638 JUMPI DUP1 DUP3 ADD MLOAD DUP2 DUP5 ADD MSTORE PUSH1 0x20 DUP2 ADD SWAP1 POP PUSH2 0x161D JUMP JUMPDEST DUP4 DUP2 GT ISZERO PUSH2 0x1647 JUMPI PUSH1 0x0 DUP5 DUP5 ADD MSTORE JUMPDEST POP POP POP POP JUMP JUMPDEST PUSH1 0x0 PUSH1 0x2 DUP3 DIV SWAP1 POP PUSH1 0x1 DUP3 AND DUP1 PUSH2 0x1665 JUMPI PUSH1 0x7F DUP3 AND SWAP2 POP JUMPDEST PUSH1 0x20 DUP3 LT DUP2 EQ ISZERO PUSH2 0x1679 JUMPI PUSH2 0x1678 PUSH2 0x1757 JUMP JUMPDEST JUMPDEST POP SWAP2 SWAP1 POP JUMP JUMPDEST PUSH2 0x1688 DUP3 PUSH2 0x17C9 JUMP JUMPDEST DUP2 ADD DUP2 DUP2 LT PUSH8 0xFFFFFFFFFFFFFFFF DUP3 GT OR ISZERO PUSH2 0x16A7 JUMPI PUSH2 0x16A6 PUSH2 0x1786 JUMP JUMPDEST JUMPDEST DUP1 PUSH1 0x40 MSTORE POP POP POP JUMP JUMPDEST PUSH1 0x0 PUSH2 0x16BB DUP3 PUSH2 0x1601 JUMP JUMPDEST SWAP2 POP PUSH32 0xFFFFFFFFFFFFFFFFFFFFFFFFFFFFFFFFFFFFFFFFFFFFFFFFFFFFFFFFFFFFFFFF DUP3 EQ ISZERO PUSH2 0x16EE JUMPI PUSH2 0x16ED PUSH2 0x16F9 JUMP JUMPDEST JUMPDEST PUSH1 0x1 DUP3 ADD SWAP1 POP SWAP2 SWAP1 POP JUMP JUMPDEST PUSH32 0x4E487B7100000000000000000000000000000000000000000000000000000000 PUSH1 0x0 MSTORE PUSH1 0x11 PUSH1 0x4 MSTORE PUSH1 0x24 PUSH1 0x0 REVERT JUMPDEST PUSH32 0x4E487B7100000000000000000000000000000000000000000000000000000000 PUSH1 0x0 MSTORE PUSH1 0x12 PUSH1 0x4 MSTORE PUSH1 0x24 PUSH1 0x0 REVERT JUMPDEST PUSH32 0x4E487B7100000000000000000000000000000000000000000000000000000000 PUSH1 0x0 MSTORE PUSH1 0x22 PUSH1 0x4 MSTORE PUSH1 0x24 PUSH1 0x0 REVERT JUMPDEST PUSH32 0x4E487B7100000000000000000000000000000000000000000000000000000000 PUSH1 0x0 MSTORE PUSH1 0x41 PUSH1 0x4 MSTORE PUSH1 0x24 PUSH1 0x0 REVERT JUMPDEST PUSH1 0x0 DUP1 REVERT JUMPDEST PUSH1 0x0 DUP1 REVERT JUMPDEST PUSH1 0x0 DUP1 REVERT JUMPDEST PUSH1 0x0 DUP1 REVERT JUMPDEST PUSH1 0x0 PUSH1 0x1F NOT PUSH1 0x1F DUP4 ADD AND SWAP1 POP SWAP2 SWAP1 POP JUMP JUMPDEST PUSH32 0x43616E20766F7465206F6E6C79207768696C6520766F74696E67206973206F70 PUSH1 0x0 DUP3 ADD MSTORE PUSH32 0x656E202E00000000000000000000000000000000000000000000000000000000 PUSH1 0x20 DUP3 ADD MSTORE POP JUMP JUMPDEST PUSH32 0x43616E206F6E6C7920657865637574652066756E6374696F6E20696E20616464 PUSH1 0x0 DUP3 ADD MSTORE PUSH32 0x20667269656E6420616E642076656E7565207068617365000000000000000000 PUSH1 0x20 DUP3 ADD MSTORE POP JUMP JUMPDEST PUSH32 0x43616E206F6E6C7920626520657865637574656420627920746865206D616E61 PUSH1 0x0 DUP3 ADD MSTORE PUSH32 0x6765720000000000000000000000000000000000000000000000000000000000 PUSH1 0x20 DUP3 ADD MSTORE POP JUMP JUMPDEST PUSH32 0x43616E6E6F7420657865637574652066756E6374696F6E207768696C65206C75 PUSH1 0x0 DUP3 ADD MSTORE PUSH32 0x6E63682069732063616E63656C6C656400000000000000000000000000000000 PUSH1 0x20 DUP3 ADD MSTORE POP JUMP JUMPDEST PUSH2 0x191F DUP2 PUSH2 0x15C3 JUMP JUMPDEST DUP2 EQ PUSH2 0x192A JUMPI PUSH1 0x0 DUP1 REVERT JUMPDEST POP JUMP JUMPDEST PUSH2 0x1936 DUP2 PUSH2 0x1601 JUMP JUMPDEST DUP2 EQ PUSH2 0x1941 JUMPI PUSH1 0x0 DUP1 REVERT JUMPDEST POP JUMP INVALID LOG2 PUSH5 0x6970667358 0x22 SLT KECCAK256 ORIGIN GASPRICE CHAINID SWAP9 ADDMOD SLOAD EXTCODESIZE PUSH8 0x16E5F90CD2397EA9 0xE DUP6 MSTORE8 CALLVALUE 0xC2 DUP14 MSTORE EQ PUSH23 0x98077537C9086564736F6C634300080700330000000000 "
				},
				"gasEstimates": {
					"creation": {
						"codeDepositCost": "1304400",
						"executionCost": "infinite",
						"totalCost": "infinite"
					},
					"external": {
						"addFriend(address,string)": "infinite",
						"addVenue(string)": "infinite",
						"cancelLunch()": "infinite",
						"doVote(uint256)": "infinite",
						"friends(address)": "infinite",
						"manager()": "2581",
						"numFriends()": "2474",
						"numVenues()": "2497",
						"numVotes()": "2518",
						"openVoting()": "26603",
						"startAddFriendsAndVenuesPhase()": "50921",
						"startVotingPhase()": "53136",
						"uncancelLunch()": "26697",
						"venues(uint256)": "infinite",
						"votedVenue()": "infinite"
					},
					"internal": {
						"finalResult()": "infinite"
					}
				},
				"methodIdentifiers": {
					"addFriend(address,string)": "3b9f708d",
					"addVenue(string)": "02ee93c8",
					"cancelLunch()": "e2393021",
					"doVote(uint256)": "124258c6",
					"friends(address)": "1ddabf7a",
					"manager()": "481c6a75",
					"numFriends()": "47098f36",
					"numVenues()": "0843d16d",
					"numVotes()": "a3bef4d7",
					"openVoting()": "affc0670",
					"startAddFriendsAndVenuesPhase()": "0f5f2eac",
					"startVotingPhase()": "cb43284e",
					"uncancelLunch()": "d4ad644e",
					"venues(uint256)": "02daf12f",
					"votedVenue()": "1635b5d3"
				}
			},
			"storageLayout": {
				"storage": [
					{
						"astId": 16,
						"contract": "contracts/LunchVenue_updated.sol:LunchVenue",
						"label": "venues",
						"offset": 0,
						"slot": "0",
						"type": "t_mapping(t_uint256,t_string_storage)"
					},
					{
						"astId": 21,
						"contract": "contracts/LunchVenue_updated.sol:LunchVenue",
						"label": "friends",
						"offset": 0,
						"slot": "1",
						"type": "t_mapping(t_address,t_struct(Friend)7_storage)"
					},
					{
						"astId": 24,
						"contract": "contracts/LunchVenue_updated.sol:LunchVenue",
						"label": "numVenues",
						"offset": 0,
						"slot": "2",
						"type": "t_uint256"
					},
					{
						"astId": 27,
						"contract": "contracts/LunchVenue_updated.sol:LunchVenue",
						"label": "numFriends",
						"offset": 0,
						"slot": "3",
						"type": "t_uint256"
					},
					{
						"astId": 30,
						"contract": "contracts/LunchVenue_updated.sol:LunchVenue",
						"label": "numVotes",
						"offset": 0,
						"slot": "4",
						"type": "t_uint256"
					},
					{
						"astId": 32,
						"contract": "contracts/LunchVenue_updated.sol:LunchVenue",
						"label": "manager",
						"offset": 0,
						"slot": "5",
						"type": "t_address"
					},
					{
						"astId": 35,
						"contract": "contracts/LunchVenue_updated.sol:LunchVenue",
						"label": "votedVenue",
						"offset": 0,
						"slot": "6",
						"type": "t_string_storage"
					},
					{
						"astId": 40,
						"contract": "contracts/LunchVenue_updated.sol:LunchVenue",
						"label": "votes",
						"offset": 0,
						"slot": "7",
						"type": "t_mapping(t_uint256,t_struct(Vote)12_storage)"
					},
					{
						"astId": 44,
						"contract": "contracts/LunchVenue_updated.sol:LunchVenue",
						"label": "results",
						"offset": 0,
						"slot": "8",
						"type": "t_mapping(t_uint256,t_uint256)"
					},
					{
						"astId": 47,
						"contract": "contracts/LunchVenue_updated.sol:LunchVenue",
						"label": "voteOpen",
						"offset": 0,
						"slot": "9",
						"type": "t_bool"
					},
					{
						"astId": 50,
						"contract": "contracts/LunchVenue_updated.sol:LunchVenue",
						"label": "lunchCancelled",
						"offset": 1,
						"slot": "9",
						"type": "t_bool"
					},
					{
						"astId": 53,
						"contract": "contracts/LunchVenue_updated.sol:LunchVenue",
						"label": "lockFriendsAndVenues",
						"offset": 2,
						"slot": "9",
						"type": "t_bool"
					}
				],
				"types": {
					"t_address": {
						"encoding": "inplace",
						"label": "address",
						"numberOfBytes": "20"
					},
					"t_bool": {
						"encoding": "inplace",
						"label": "bool",
						"numberOfBytes": "1"
					},
					"t_mapping(t_address,t_struct(Friend)7_storage)": {
						"encoding": "mapping",
						"key": "t_address",
						"label": "mapping(address => struct LunchVenue.Friend)",
						"numberOfBytes": "32",
						"value": "t_struct(Friend)7_storage"
					},
					"t_mapping(t_uint256,t_string_storage)": {
						"encoding": "mapping",
						"key": "t_uint256",
						"label": "mapping(uint256 => string)",
						"numberOfBytes": "32",
						"value": "t_string_storage"
					},
					"t_mapping(t_uint256,t_struct(Vote)12_storage)": {
						"encoding": "mapping",
						"key": "t_uint256",
						"label": "mapping(uint256 => struct LunchVenue.Vote)",
						"numberOfBytes": "32",
						"value": "t_struct(Vote)12_storage"
					},
					"t_mapping(t_uint256,t_uint256)": {
						"encoding": "mapping",
						"key": "t_uint256",
						"label": "mapping(uint256 => uint256)",
						"numberOfBytes": "32",
						"value": "t_uint256"
					},
					"t_string_storage": {
						"encoding": "bytes",
						"label": "string",
						"numberOfBytes": "32"
					},
					"t_struct(Friend)7_storage": {
						"encoding": "inplace",
						"label": "struct LunchVenue.Friend",
						"members": [
							{
								"astId": 4,
								"contract": "contracts/LunchVenue_updated.sol:LunchVenue",
								"label": "name",
								"offset": 0,
								"slot": "0",
								"type": "t_string_storage"
							},
							{
								"astId": 6,
								"contract": "contracts/LunchVenue_updated.sol:LunchVenue",
								"label": "voted",
								"offset": 0,
								"slot": "1",
								"type": "t_bool"
							}
						],
						"numberOfBytes": "64"
					},
					"t_struct(Vote)12_storage": {
						"encoding": "inplace",
						"label": "struct LunchVenue.Vote",
						"members": [
							{
								"astId": 9,
								"contract": "contracts/LunchVenue_updated.sol:LunchVenue",
								"label": "voterAddress",
								"offset": 0,
								"slot": "0",
								"type": "t_address"
							},
							{
								"astId": 11,
								"contract": "contracts/LunchVenue_updated.sol:LunchVenue",
								"label": "venue",
								"offset": 0,
								"slot": "1",
								"type": "t_uint256"
							}
						],
						"numberOfBytes": "64"
					},
					"t_uint256": {
						"encoding": "inplace",
						"label": "uint256",
						"numberOfBytes": "32"
					}
				}
			},
			"userdoc": {
				"kind": "user",
				"methods": {
					"addFriend(address,string)": {
						"notice": "Add a new friend who can vote on lunch venue"
					},
					"addVenue(string)": {
						"notice": "Add a new lunch venue"
					},
					"cancelLunch()": {
						"notice": "allow manager to cancel lunch whenever"
					},
					"doVote(uint256)": {
						"notice": "Vote for a lunch venue"
					},
					"openVoting()": {
						"notice": "allow manager to open voting"
					},
					"startAddFriendsAndVenuesPhase()": {
						"notice": "allow manager to initialise the votes"
					},
					"startVotingPhase()": {
						"notice": "allow manager to go into the voting phase"
					},
					"uncancelLunch()": {
						"notice": "allow manager to uncancel lunch whenever"
					}
				},
				"version": 1
			}
		}
	}
}