{
	"contracts/LunchVenue1.sol": {
		"LunchVenue": {
			"abi": [
				{
					"inputs": [],
					"stateMutability": "nonpayable",
					"type": "constructor"
				},
				{
					"inputs": [
						{
							"internalType": "address",
							"name": "friendAddress",
							"type": "address"
						},
						{
							"internalType": "string",
							"name": "name",
							"type": "string"
						}
					],
					"name": "addFriend",
					"outputs": [
						{
							"internalType": "uint256",
							"name": "",
							"type": "uint256"
						}
					],
					"stateMutability": "nonpayable",
					"type": "function"
				},
				{
					"inputs": [
						{
							"internalType": "string",
							"name": "name",
							"type": "string"
						}
					],
					"name": "addVenue",
					"outputs": [
						{
							"internalType": "uint256",
							"name": "",
							"type": "uint256"
						}
					],
					"stateMutability": "nonpayable",
					"type": "function"
				},
				{
					"inputs": [
						{
							"internalType": "uint256",
							"name": "venue",
							"type": "uint256"
						}
					],
					"name": "doVote",
					"outputs": [
						{
							"internalType": "bool",
							"name": "validVote",
							"type": "bool"
						}
					],
					"stateMutability": "nonpayable",
					"type": "function"
				},
				{
					"inputs": [
						{
							"internalType": "address",
							"name": "",
							"type": "address"
						}
					],
					"name": "friends",
					"outputs": [
						{
							"internalType": "string",
							"name": "name",
							"type": "string"
						},
						{
							"internalType": "bool",
							"name": "voted",
							"type": "bool"
						}
					],
					"stateMutability": "view",
					"type": "function"
				},
				{
					"inputs": [],
					"name": "manager",
					"outputs": [
						{
							"internalType": "address",
							"name": "",
							"type": "address"
						}
					],
					"stateMutability": "view",
					"type": "function"
				},
				{
					"inputs": [],
					"name": "numFriends",
					"outputs": [
						{
							"internalType": "uint256",
							"name": "",
							"type": "uint256"
						}
					],
					"stateMutability": "view",
					"type": "function"
				},
				{
					"inputs": [],
					"name": "numVenues",
					"outputs": [
						{
							"internalType": "uint256",
							"name": "",
							"type": "uint256"
						}
					],
					"stateMutability": "view",
					"type": "function"
				},
				{
					"inputs": [],
					"name": "numVotes",
					"outputs": [
						{
							"internalType": "uint256",
							"name": "",
							"type": "uint256"
						}
					],
					"stateMutability": "view",
					"type": "function"
				},
				{
					"inputs": [
						{
							"internalType": "uint256",
							"name": "",
							"type": "uint256"
						}
					],
					"name": "venues",
					"outputs": [
						{
							"internalType": "string",
							"name": "",
							"type": "string"
						}
					],
					"stateMutability": "view",
					"type": "function"
				},
				{
					"inputs": [],
					"name": "votedVenue",
					"outputs": [
						{
							"internalType": "string",
							"name": "",
							"type": "string"
						}
					],
					"stateMutability": "view",
					"type": "function"
				}
			],
			"devdoc": {
				"kind": "dev",
				"methods": {
					"addFriend(address,string)": {
						"details": "To simplify the code duplication of friends is not checked",
						"params": {
							"friendAddress": "Friend ’s account address",
							"name": "Friend ’s name"
						},
						"returns": {
							"_0": "Number of friends added so far"
						}
					},
					"addVenue(string)": {
						"details": "To simplify the code duplication of venues is not checked",
						"params": {
							"name": "Name of the venue"
						},
						"returns": {
							"_0": "Number of lunch venues added so far"
						}
					},
					"doVote(uint256)": {
						"details": "To simplify the code multiple votes by a friend is not checked",
						"params": {
							"venue": "Venue number being voted"
						},
						"returns": {
							"validVote": "Is the vote valid ? A valid vote should be from a registered end and to a registered venue"
						}
					}
				},
				"title": "Contract to agree on the lunch venue",
				"version": 1
			},
			"evm": {
				"assembly": "    /* \"contracts/LunchVenue1.sol\":113:4171  contract LunchVenue {... */\n  mstore(0x40, 0x80)\n    /* \"contracts/LunchVenue1.sol\":487:488  0 */\n  0x00\n    /* \"contracts/LunchVenue1.sol\":463:488  uint public numVenues = 0 */\n  0x02\n  sstore\n    /* \"contracts/LunchVenue1.sol\":519:520  0 */\n  0x00\n    /* \"contracts/LunchVenue1.sol\":494:520  uint public numFriends = 0 */\n  0x03\n  sstore\n    /* \"contracts/LunchVenue1.sol\":549:550  0 */\n  0x00\n    /* \"contracts/LunchVenue1.sol\":526:550  uint public numVotes = 0 */\n  0x04\n  sstore\n    /* \"contracts/LunchVenue1.sol\":612:641  string public votedVenue = \"\" */\n  mload(0x40)\n  dup1\n  0x20\n  add\n  0x40\n  mstore\n  dup1\n  0x00\n  dup2\n  mstore\n  pop\n  0x06\n  swap1\n  dup1\n  mload\n  swap1\n  0x20\n  add\n  swap1\n  tag_1\n  swap3\n  swap2\n  swap1\n  tag_2\n  jump\t// in\ntag_1:\n  pop\n    /* \"contracts/LunchVenue1.sol\":873:877  true */\n  0x01\n    /* \"contracts/LunchVenue1.sol\":857:877  bool voteOpen = true */\n  0x09\n  exp(0x0100, 0x00)\n  dup2\n  sload\n  dup2\n  0xff\n  mul\n  not\n  and\n  swap1\n  dup4\n  iszero\n  iszero\n  mul\n  or\n  swap1\n  sstore\n  pop\n    /* \"contracts/LunchVenue1.sol\":945:1033  constructor () {... */\n  callvalue\n  dup1\n  iszero\n  tag_3\n  jumpi\n  0x00\n  dup1\n  revert\ntag_3:\n  pop\n    /* \"contracts/LunchVenue1.sol\":980:990  msg.sender */\n  caller\n    /* \"contracts/LunchVenue1.sol\":970:977  manager */\n  0x05\n  0x00\n    /* \"contracts/LunchVenue1.sol\":970:990  manager = msg.sender */\n  0x0100\n  exp\n  dup2\n  sload\n  dup2\n  0xffffffffffffffffffffffffffffffffffffffff\n  mul\n  not\n  and\n  swap1\n  dup4\n  0xffffffffffffffffffffffffffffffffffffffff\n  and\n  mul\n  or\n  swap1\n  sstore\n  pop\n    /* \"contracts/LunchVenue1.sol\":113:4171  contract LunchVenue {... */\n  jump(tag_6)\ntag_2:\n  dup3\n  dup1\n  sload\n  tag_7\n  swap1\n  tag_8\n  jump\t// in\ntag_7:\n  swap1\n  0x00\n  mstore\n  keccak256(0x00, 0x20)\n  swap1\n  0x1f\n  add\n  0x20\n  swap1\n  div\n  dup2\n  add\n  swap3\n  dup3\n  tag_10\n  jumpi\n  0x00\n  dup6\n  sstore\n  jump(tag_9)\ntag_10:\n  dup3\n  0x1f\n  lt\n  tag_11\n  jumpi\n  dup1\n  mload\n  not(0xff)\n  and\n  dup4\n  dup1\n  add\n  or\n  dup6\n  sstore\n  jump(tag_9)\ntag_11:\n  dup3\n  dup1\n  add\n  0x01\n  add\n  dup6\n  sstore\n  dup3\n  iszero\n  tag_9\n  jumpi\n  swap2\n  dup3\n  add\ntag_12:\n  dup3\n  dup2\n  gt\n  iszero\n  tag_13\n  jumpi\n  dup3\n  mload\n  dup3\n  sstore\n  swap2\n  0x20\n  add\n  swap2\n  swap1\n  0x01\n  add\n  swap1\n  jump(tag_12)\ntag_13:\ntag_9:\n  pop\n  swap1\n  pop\n  tag_14\n  swap2\n  swap1\n  tag_15\n  jump\t// in\ntag_14:\n  pop\n  swap1\n  jump\t// out\ntag_15:\ntag_16:\n  dup1\n  dup3\n  gt\n  iszero\n  tag_17\n  jumpi\n  0x00\n  dup2\n  0x00\n  swap1\n  sstore\n  pop\n  0x01\n  add\n  jump(tag_16)\ntag_17:\n  pop\n  swap1\n  jump\t// out\n    /* \"#utility.yul\":7:327   */\ntag_8:\n    /* \"#utility.yul\":51:57   */\n  0x00\n    /* \"#utility.yul\":88:89   */\n  0x02\n    /* \"#utility.yul\":82:86   */\n  dup3\n    /* \"#utility.yul\":78:90   */\n  div\n    /* \"#utility.yul\":68:90   */\n  swap1\n  pop\n    /* \"#utility.yul\":135:136   */\n  0x01\n    /* \"#utility.yul\":129:133   */\n  dup3\n    /* \"#utility.yul\":125:137   */\n  and\n    /* \"#utility.yul\":156:174   */\n  dup1\n    /* \"#utility.yul\":146:227   */\n  tag_20\n  jumpi\n    /* \"#utility.yul\":212:216   */\n  0x7f\n    /* \"#utility.yul\":204:210   */\n  dup3\n    /* \"#utility.yul\":200:217   */\n  and\n    /* \"#utility.yul\":190:217   */\n  swap2\n  pop\n    /* \"#utility.yul\":146:227   */\ntag_20:\n    /* \"#utility.yul\":274:276   */\n  0x20\n    /* \"#utility.yul\":266:272   */\n  dup3\n    /* \"#utility.yul\":263:277   */\n  lt\n    /* \"#utility.yul\":243:261   */\n  dup2\n    /* \"#utility.yul\":240:278   */\n  eq\n    /* \"#utility.yul\":237:321   */\n  iszero\n  tag_21\n  jumpi\n    /* \"#utility.yul\":293:311   */\n  tag_22\n  tag_23\n  jump\t// in\ntag_22:\n    /* \"#utility.yul\":237:321   */\ntag_21:\n    /* \"#utility.yul\":58:327   */\n  pop\n    /* \"#utility.yul\":7:327   */\n  swap2\n  swap1\n  pop\n  jump\t// out\n    /* \"#utility.yul\":333:513   */\ntag_23:\n    /* \"#utility.yul\":381:458   */\n  0x4e487b7100000000000000000000000000000000000000000000000000000000\n    /* \"#utility.yul\":378:379   */\n  0x00\n    /* \"#utility.yul\":371:459   */\n  mstore\n    /* \"#utility.yul\":478:482   */\n  0x22\n    /* \"#utility.yul\":475:476   */\n  0x04\n    /* \"#utility.yul\":468:483   */\n  mstore\n    /* \"#utility.yul\":502:506   */\n  0x24\n    /* \"#utility.yul\":499:500   */\n  0x00\n    /* \"#utility.yul\":492:507   */\n  revert\n    /* \"contracts/LunchVenue1.sol\":113:4171  contract LunchVenue {... */\ntag_6:\n  dataSize(sub_0)\n  dup1\n  dataOffset(sub_0)\n  0x00\n  codecopy\n  0x00\n  return\nstop\n\nsub_0: assembly {\n        /* \"contracts/LunchVenue1.sol\":113:4171  contract LunchVenue {... */\n      mstore(0x40, 0x80)\n      callvalue\n      dup1\n      iszero\n      tag_1\n      jumpi\n      0x00\n      dup1\n      revert\n    tag_1:\n      pop\n      jumpi(tag_2, lt(calldatasize, 0x04))\n      shr(0xe0, calldataload(0x00))\n      dup1\n      0x1ddabf7a\n      gt\n      tag_13\n      jumpi\n      dup1\n      0x1ddabf7a\n      eq\n      tag_8\n      jumpi\n      dup1\n      0x3b9f708d\n      eq\n      tag_9\n      jumpi\n      dup1\n      0x47098f36\n      eq\n      tag_10\n      jumpi\n      dup1\n      0x481c6a75\n      eq\n      tag_11\n      jumpi\n      dup1\n      0xa3bef4d7\n      eq\n      tag_12\n      jumpi\n      jump(tag_2)\n    tag_13:\n      dup1\n      0x02daf12f\n      eq\n      tag_3\n      jumpi\n      dup1\n      0x02ee93c8\n      eq\n      tag_4\n      jumpi\n      dup1\n      0x0843d16d\n      eq\n      tag_5\n      jumpi\n      dup1\n      0x124258c6\n      eq\n      tag_6\n      jumpi\n      dup1\n      0x1635b5d3\n      eq\n      tag_7\n      jumpi\n    tag_2:\n      0x00\n      dup1\n      revert\n        /* \"contracts/LunchVenue1.sol\":287:327  mapping ( uint => string ) public venues */\n    tag_3:\n      tag_14\n      0x04\n      dup1\n      calldatasize\n      sub\n      dup2\n      add\n      swap1\n      tag_15\n      swap2\n      swap1\n      tag_16\n      jump\t// in\n    tag_15:\n      tag_17\n      jump\t// in\n    tag_14:\n      mload(0x40)\n      tag_18\n      swap2\n      swap1\n      tag_19\n      jump\t// in\n    tag_18:\n      mload(0x40)\n      dup1\n      swap2\n      sub\n      swap1\n      return\n        /* \"contracts/LunchVenue1.sol\":1238:1400  function addVenue(string memory name) public restricted returns (uint){... */\n    tag_4:\n      tag_20\n      0x04\n      dup1\n      calldatasize\n      sub\n      dup2\n      add\n      swap1\n      tag_21\n      swap2\n      swap1\n      tag_22\n      jump\t// in\n    tag_21:\n      tag_23\n      jump\t// in\n    tag_20:\n      mload(0x40)\n      tag_24\n      swap2\n      swap1\n      tag_25\n      jump\t// in\n    tag_24:\n      mload(0x40)\n      dup1\n      swap2\n      sub\n      swap1\n      return\n        /* \"contracts/LunchVenue1.sol\":463:488  uint public numVenues = 0 */\n    tag_5:\n      tag_26\n      tag_27\n      jump\t// in\n    tag_26:\n      mload(0x40)\n      tag_28\n      swap2\n      swap1\n      tag_25\n      jump\t// in\n    tag_28:\n      mload(0x40)\n      dup1\n      swap2\n      sub\n      swap1\n      return\n        /* \"contracts/LunchVenue1.sol\":2252:2992  function doVote ( uint venue ) public votingOpen returns ( bool validVote ){... */\n    tag_6:\n      tag_29\n      0x04\n      dup1\n      calldatasize\n      sub\n      dup2\n      add\n      swap1\n      tag_30\n      swap2\n      swap1\n      tag_16\n      jump\t// in\n    tag_30:\n      tag_31\n      jump\t// in\n    tag_29:\n      mload(0x40)\n      tag_32\n      swap2\n      swap1\n      tag_33\n      jump\t// in\n    tag_32:\n      mload(0x40)\n      dup1\n      swap2\n      sub\n      swap1\n      return\n        /* \"contracts/LunchVenue1.sol\":612:641  string public votedVenue = \"\" */\n    tag_7:\n      tag_34\n      tag_35\n      jump\t// in\n    tag_34:\n      mload(0x40)\n      tag_36\n      swap2\n      swap1\n      tag_19\n      jump\t// in\n    tag_36:\n      mload(0x40)\n      dup1\n      swap2\n      sub\n      swap1\n      return\n        /* \"contracts/LunchVenue1.sol\":372:416  mapping ( address => Friend ) public friends */\n    tag_8:\n      tag_37\n      0x04\n      dup1\n      calldatasize\n      sub\n      dup2\n      add\n      swap1\n      tag_38\n      swap2\n      swap1\n      tag_39\n      jump\t// in\n    tag_38:\n      tag_40\n      jump\t// in\n    tag_37:\n      mload(0x40)\n      tag_41\n      swap3\n      swap2\n      swap1\n      tag_42\n      jump\t// in\n    tag_41:\n      mload(0x40)\n      dup1\n      swap2\n      sub\n      swap1\n      return\n        /* \"contracts/LunchVenue1.sol\":1683:1968  function addFriend ( address friendAddress , string memory name ) public restricted... */\n    tag_9:\n      tag_43\n      0x04\n      dup1\n      calldatasize\n      sub\n      dup2\n      add\n      swap1\n      tag_44\n      swap2\n      swap1\n      tag_45\n      jump\t// in\n    tag_44:\n      tag_46\n      jump\t// in\n    tag_43:\n      mload(0x40)\n      tag_47\n      swap2\n      swap1\n      tag_25\n      jump\t// in\n    tag_47:\n      mload(0x40)\n      dup1\n      swap2\n      sub\n      swap1\n      return\n        /* \"contracts/LunchVenue1.sol\":494:520  uint public numFriends = 0 */\n    tag_10:\n      tag_48\n      tag_49\n      jump\t// in\n    tag_48:\n      mload(0x40)\n      tag_50\n      swap2\n      swap1\n      tag_25\n      jump\t// in\n    tag_50:\n      mload(0x40)\n      dup1\n      swap2\n      sub\n      swap1\n      return\n        /* \"contracts/LunchVenue1.sol\":556:578  address public manager */\n    tag_11:\n      tag_51\n      tag_52\n      jump\t// in\n    tag_51:\n      mload(0x40)\n      tag_53\n      swap2\n      swap1\n      tag_54\n      jump\t// in\n    tag_53:\n      mload(0x40)\n      dup1\n      swap2\n      sub\n      swap1\n      return\n        /* \"contracts/LunchVenue1.sol\":526:550  uint public numVotes = 0 */\n    tag_12:\n      tag_55\n      tag_56\n      jump\t// in\n    tag_55:\n      mload(0x40)\n      tag_57\n      swap2\n      swap1\n      tag_25\n      jump\t// in\n    tag_57:\n      mload(0x40)\n      dup1\n      swap2\n      sub\n      swap1\n      return\n        /* \"contracts/LunchVenue1.sol\":287:327  mapping ( uint => string ) public venues */\n    tag_17:\n      mstore(0x20, 0x00)\n      dup1\n      0x00\n      mstore\n      keccak256(0x00, 0x40)\n      0x00\n      swap2\n      pop\n      swap1\n      pop\n      dup1\n      sload\n      tag_58\n      swap1\n      tag_59\n      jump\t// in\n    tag_58:\n      dup1\n      0x1f\n      add\n      0x20\n      dup1\n      swap2\n      div\n      mul\n      0x20\n      add\n      mload(0x40)\n      swap1\n      dup2\n      add\n      0x40\n      mstore\n      dup1\n      swap3\n      swap2\n      swap1\n      dup2\n      dup2\n      mstore\n      0x20\n      add\n      dup3\n      dup1\n      sload\n      tag_60\n      swap1\n      tag_59\n      jump\t// in\n    tag_60:\n      dup1\n      iszero\n      tag_61\n      jumpi\n      dup1\n      0x1f\n      lt\n      tag_62\n      jumpi\n      0x0100\n      dup1\n      dup4\n      sload\n      div\n      mul\n      dup4\n      mstore\n      swap2\n      0x20\n      add\n      swap2\n      jump(tag_61)\n    tag_62:\n      dup3\n      add\n      swap2\n      swap1\n      0x00\n      mstore\n      keccak256(0x00, 0x20)\n      swap1\n    tag_63:\n      dup2\n      sload\n      dup2\n      mstore\n      swap1\n      0x01\n      add\n      swap1\n      0x20\n      add\n      dup1\n      dup4\n      gt\n      tag_63\n      jumpi\n      dup3\n      swap1\n      sub\n      0x1f\n      and\n      dup3\n      add\n      swap2\n    tag_61:\n      pop\n      pop\n      pop\n      pop\n      pop\n      dup2\n      jump\t// out\n        /* \"contracts/LunchVenue1.sol\":1238:1400  function addVenue(string memory name) public restricted returns (uint){... */\n    tag_23:\n        /* \"contracts/LunchVenue1.sol\":1303:1307  uint */\n      0x00\n        /* \"contracts/LunchVenue1.sol\":3929:3936  manager */\n      0x05\n      0x00\n      swap1\n      sload\n      swap1\n      0x0100\n      exp\n      swap1\n      div\n      0xffffffffffffffffffffffffffffffffffffffff\n      and\n        /* \"contracts/LunchVenue1.sol\":3913:3936  msg . sender == manager */\n      0xffffffffffffffffffffffffffffffffffffffff\n      and\n        /* \"contracts/LunchVenue1.sol\":3913:3925  msg . sender */\n      caller\n        /* \"contracts/LunchVenue1.sol\":3913:3936  msg . sender == manager */\n      0xffffffffffffffffffffffffffffffffffffffff\n      and\n      eq\n        /* \"contracts/LunchVenue1.sol\":3903:3977  require ( msg . sender == manager , \"Can only be executed by the manager\") */\n      tag_65\n      jumpi\n      mload(0x40)\n      0x08c379a000000000000000000000000000000000000000000000000000000000\n      dup2\n      mstore\n      0x04\n      add\n      tag_66\n      swap1\n      tag_67\n      jump\t// in\n    tag_66:\n      mload(0x40)\n      dup1\n      swap2\n      sub\n      swap1\n      revert\n    tag_65:\n        /* \"contracts/LunchVenue1.sol\":1318:1327  numVenues */\n      0x02\n      0x00\n        /* \"contracts/LunchVenue1.sol\":1318:1330  numVenues ++ */\n      dup2\n      sload\n      dup1\n      swap3\n      swap2\n      swap1\n      tag_69\n      swap1\n      tag_70\n      jump\t// in\n    tag_69:\n      swap2\n      swap1\n      pop\n      sstore\n      pop\n        /* \"contracts/LunchVenue1.sol\":1361:1365  name */\n      dup2\n        /* \"contracts/LunchVenue1.sol\":1340:1346  venues */\n      0x00\n        /* \"contracts/LunchVenue1.sol\":1340:1358  venues [numVenues] */\n      dup1\n        /* \"contracts/LunchVenue1.sol\":1348:1357  numVenues */\n      sload(0x02)\n        /* \"contracts/LunchVenue1.sol\":1340:1358  venues [numVenues] */\n      dup2\n      mstore\n      0x20\n      add\n      swap1\n      dup2\n      mstore\n      0x20\n      add\n      0x00\n      keccak256\n        /* \"contracts/LunchVenue1.sol\":1340:1365  venues [numVenues] = name */\n      swap1\n      dup1\n      mload\n      swap1\n      0x20\n      add\n      swap1\n      tag_71\n      swap3\n      swap2\n      swap1\n      tag_72\n      jump\t// in\n    tag_71:\n      pop\n        /* \"contracts/LunchVenue1.sol\":1383:1392  numVenues */\n      sload(0x02)\n        /* \"contracts/LunchVenue1.sol\":1376:1392  return numVenues */\n      swap1\n      pop\n        /* \"contracts/LunchVenue1.sol\":1238:1400  function addVenue(string memory name) public restricted returns (uint){... */\n      swap2\n      swap1\n      pop\n      jump\t// out\n        /* \"contracts/LunchVenue1.sol\":463:488  uint public numVenues = 0 */\n    tag_27:\n      sload(0x02)\n      dup2\n      jump\t// out\n        /* \"contracts/LunchVenue1.sol\":2252:2992  function doVote ( uint venue ) public votingOpen returns ( bool validVote ){... */\n    tag_31:\n        /* \"contracts/LunchVenue1.sol\":2311:2325  bool validVote */\n      0x00\n        /* \"contracts/LunchVenue1.sol\":4104:4108  true */\n      0x01\n        /* \"contracts/LunchVenue1.sol\":4092:4108  voteOpen == true */\n      iszero\n      iszero\n        /* \"contracts/LunchVenue1.sol\":4092:4100  voteOpen */\n      0x09\n      0x00\n      swap1\n      sload\n      swap1\n      0x0100\n      exp\n      swap1\n      div\n      0xff\n      and\n        /* \"contracts/LunchVenue1.sol\":4092:4108  voteOpen == true */\n      iszero\n      iszero\n      eq\n        /* \"contracts/LunchVenue1.sol\":4082:4150  require ( voteOpen == true , \"Can vote only while voting is open .\") */\n      tag_74\n      jumpi\n      mload(0x40)\n      0x08c379a000000000000000000000000000000000000000000000000000000000\n      dup2\n      mstore\n      0x04\n      add\n      tag_75\n      swap1\n      tag_76\n      jump\t// in\n    tag_75:\n      mload(0x40)\n      dup1\n      swap2\n      sub\n      swap1\n      revert\n    tag_74:\n        /* \"contracts/LunchVenue1.sol\":2349:2354  false */\n      0x00\n        /* \"contracts/LunchVenue1.sol\":2337:2354  validVote = false */\n      swap1\n      pop\n        /* \"contracts/LunchVenue1.sol\":2445:2446  0 */\n      0x00\n        /* \"contracts/LunchVenue1.sol\":2401:2408  friends */\n      0x01\n        /* \"contracts/LunchVenue1.sol\":2401:2425  friends [ msg . sender ] */\n      0x00\n        /* \"contracts/LunchVenue1.sol\":2411:2423  msg . sender */\n      caller\n        /* \"contracts/LunchVenue1.sol\":2401:2425  friends [ msg . sender ] */\n      0xffffffffffffffffffffffffffffffffffffffff\n      and\n      0xffffffffffffffffffffffffffffffffffffffff\n      and\n      dup2\n      mstore\n      0x20\n      add\n      swap1\n      dup2\n      mstore\n      0x20\n      add\n      0x00\n      keccak256\n        /* \"contracts/LunchVenue1.sol\":2401:2431  friends [ msg . sender ]. name */\n      0x00\n      add\n        /* \"contracts/LunchVenue1.sol\":2393:2441  bytes ( friends [ msg . sender ]. name ). length */\n      dup1\n      sload\n      tag_78\n      swap1\n      tag_59\n      jump\t// in\n    tag_78:\n      swap1\n      pop\n        /* \"contracts/LunchVenue1.sol\":2393:2446  bytes ( friends [ msg . sender ]. name ). length != 0 */\n      eq\n        /* \"contracts/LunchVenue1.sol\":2388:2853  if ( bytes ( friends [ msg . sender ]. name ). length != 0) { // Does friend exist ?... */\n      tag_79\n      jumpi\n        /* \"contracts/LunchVenue1.sol\":2528:2529  0 */\n      0x00\n        /* \"contracts/LunchVenue1.sol\":2498:2504  venues */\n      dup1\n        /* \"contracts/LunchVenue1.sol\":2498:2514  venues [ venue ] */\n      0x00\n        /* \"contracts/LunchVenue1.sol\":2507:2512  venue */\n      dup5\n        /* \"contracts/LunchVenue1.sol\":2498:2514  venues [ venue ] */\n      dup2\n      mstore\n      0x20\n      add\n      swap1\n      dup2\n      mstore\n      0x20\n      add\n      0x00\n      keccak256\n        /* \"contracts/LunchVenue1.sol\":2490:2524  bytes ( venues [ venue ]) . length */\n      dup1\n      sload\n      tag_80\n      swap1\n      tag_59\n      jump\t// in\n    tag_80:\n      swap1\n      pop\n        /* \"contracts/LunchVenue1.sol\":2490:2529  bytes ( venues [ venue ]) . length != 0 */\n      eq\n        /* \"contracts/LunchVenue1.sol\":2485:2843  if ( bytes ( venues [ venue ]) . length != 0) { // Does venue exist ?... */\n      tag_81\n      jumpi\n        /* \"contracts/LunchVenue1.sol\":2583:2587  true */\n      0x01\n        /* \"contracts/LunchVenue1.sol\":2571:2587  validVote = true */\n      swap1\n      pop\n        /* \"contracts/LunchVenue1.sol\":2639:2643  true */\n      0x01\n        /* \"contracts/LunchVenue1.sol\":2606:2613  friends */\n      dup1\n        /* \"contracts/LunchVenue1.sol\":2606:2629  friends [msg . sender ] */\n      0x00\n        /* \"contracts/LunchVenue1.sol\":2615:2627  msg . sender */\n      caller\n        /* \"contracts/LunchVenue1.sol\":2606:2629  friends [msg . sender ] */\n      0xffffffffffffffffffffffffffffffffffffffff\n      and\n      0xffffffffffffffffffffffffffffffffffffffff\n      and\n      dup2\n      mstore\n      0x20\n      add\n      swap1\n      dup2\n      mstore\n      0x20\n      add\n      0x00\n      keccak256\n        /* \"contracts/LunchVenue1.sol\":2606:2636  friends [msg . sender ]. voted */\n      0x01\n      add\n      0x00\n        /* \"contracts/LunchVenue1.sol\":2606:2643  friends [msg . sender ]. voted = true */\n      0x0100\n      exp\n      dup2\n      sload\n      dup2\n      0xff\n      mul\n      not\n      and\n      swap1\n      dup4\n      iszero\n      iszero\n      mul\n      or\n      swap1\n      sstore\n      pop\n        /* \"contracts/LunchVenue1.sol\":2662:2675  Vote memory v */\n      tag_82\n      tag_83\n      jump\t// in\n    tag_82:\n        /* \"contracts/LunchVenue1.sol\":2711:2723  msg . sender */\n      caller\n        /* \"contracts/LunchVenue1.sol\":2693:2694  v */\n      dup2\n        /* \"contracts/LunchVenue1.sol\":2693:2708  v. voterAddress */\n      0x00\n      add\n        /* \"contracts/LunchVenue1.sol\":2693:2723  v. voterAddress = msg . sender */\n      swap1\n      0xffffffffffffffffffffffffffffffffffffffff\n      and\n      swap1\n      dup2\n      0xffffffffffffffffffffffffffffffffffffffff\n      and\n      dup2\n      mstore\n      pop\n      pop\n        /* \"contracts/LunchVenue1.sol\":2753:2758  venue */\n      dup3\n        /* \"contracts/LunchVenue1.sol\":2742:2743  v */\n      dup2\n        /* \"contracts/LunchVenue1.sol\":2742:2750  v. venue */\n      0x20\n      add\n        /* \"contracts/LunchVenue1.sol\":2742:2758  v. venue = venue */\n      dup2\n      dup2\n      mstore\n      pop\n      pop\n        /* \"contracts/LunchVenue1.sol\":2777:2785  numVotes */\n      0x04\n      0x00\n        /* \"contracts/LunchVenue1.sol\":2777:2788  numVotes ++ */\n      dup2\n      sload\n      dup1\n      swap3\n      swap2\n      swap1\n      tag_84\n      swap1\n      tag_70\n      jump\t// in\n    tag_84:\n      swap2\n      swap1\n      pop\n      sstore\n      pop\n        /* \"contracts/LunchVenue1.sol\":2827:2828  v */\n      dup1\n        /* \"contracts/LunchVenue1.sol\":2806:2811  votes */\n      0x07\n        /* \"contracts/LunchVenue1.sol\":2806:2824  votes [ numVotes ] */\n      0x00\n        /* \"contracts/LunchVenue1.sol\":2814:2822  numVotes */\n      sload(0x04)\n        /* \"contracts/LunchVenue1.sol\":2806:2824  votes [ numVotes ] */\n      dup2\n      mstore\n      0x20\n      add\n      swap1\n      dup2\n      mstore\n      0x20\n      add\n      0x00\n      keccak256\n        /* \"contracts/LunchVenue1.sol\":2806:2828  votes [ numVotes ] = v */\n      0x00\n      dup3\n      add\n      mload\n      dup2\n      0x00\n      add\n      exp(0x0100, 0x00)\n      dup2\n      sload\n      dup2\n      0xffffffffffffffffffffffffffffffffffffffff\n      mul\n      not\n      and\n      swap1\n      dup4\n      0xffffffffffffffffffffffffffffffffffffffff\n      and\n      mul\n      or\n      swap1\n      sstore\n      pop\n      0x20\n      dup3\n      add\n      mload\n      dup2\n      0x01\n      add\n      sstore\n      swap1\n      pop\n      pop\n        /* \"contracts/LunchVenue1.sol\":2531:2843  { // Does venue exist ?... */\n      pop\n        /* \"contracts/LunchVenue1.sol\":2485:2843  if ( bytes ( venues [ venue ]) . length != 0) { // Does venue exist ?... */\n    tag_81:\n        /* \"contracts/LunchVenue1.sol\":2388:2853  if ( bytes ( friends [ msg . sender ]. name ). length != 0) { // Does friend exist ?... */\n    tag_79:\n        /* \"contracts/LunchVenue1.sol\":2895:2896  1 */\n      0x01\n        /* \"contracts/LunchVenue1.sol\":2891:2892  2 */\n      0x02\n        /* \"contracts/LunchVenue1.sol\":2879:2889  numFriends */\n      sload(0x03)\n        /* \"contracts/LunchVenue1.sol\":2879:2892  numFriends /2 */\n      tag_85\n      swap2\n      swap1\n      tag_86\n      jump\t// in\n    tag_85:\n        /* \"contracts/LunchVenue1.sol\":2879:2896  numFriends /2 + 1 */\n      tag_87\n      swap2\n      swap1\n      tag_88\n      jump\t// in\n    tag_87:\n        /* \"contracts/LunchVenue1.sol\":2867:2875  numVotes */\n      sload(0x04)\n        /* \"contracts/LunchVenue1.sol\":2867:2896  numVotes >= numFriends /2 + 1 */\n      lt\n        /* \"contracts/LunchVenue1.sol\":2862:2955  if ( numVotes >= numFriends /2 + 1) { // Quorum is met... */\n      tag_89\n      jumpi\n        /* \"contracts/LunchVenue1.sol\":2929:2943  finalResult () */\n      tag_90\n        /* \"contracts/LunchVenue1.sol\":2929:2940  finalResult */\n      tag_91\n        /* \"contracts/LunchVenue1.sol\":2929:2943  finalResult () */\n      jump\t// in\n    tag_90:\n        /* \"contracts/LunchVenue1.sol\":2862:2955  if ( numVotes >= numFriends /2 + 1) { // Quorum is met... */\n    tag_89:\n        /* \"contracts/LunchVenue1.sol\":2252:2992  function doVote ( uint venue ) public votingOpen returns ( bool validVote ){... */\n      swap2\n      swap1\n      pop\n      jump\t// out\n        /* \"contracts/LunchVenue1.sol\":612:641  string public votedVenue = \"\" */\n    tag_35:\n      0x06\n      dup1\n      sload\n      tag_92\n      swap1\n      tag_59\n      jump\t// in\n    tag_92:\n      dup1\n      0x1f\n      add\n      0x20\n      dup1\n      swap2\n      div\n      mul\n      0x20\n      add\n      mload(0x40)\n      swap1\n      dup2\n      add\n      0x40\n      mstore\n      dup1\n      swap3\n      swap2\n      swap1\n      dup2\n      dup2\n      mstore\n      0x20\n      add\n      dup3\n      dup1\n      sload\n      tag_93\n      swap1\n      tag_59\n      jump\t// in\n    tag_93:\n      dup1\n      iszero\n      tag_94\n      jumpi\n      dup1\n      0x1f\n      lt\n      tag_95\n      jumpi\n      0x0100\n      dup1\n      dup4\n      sload\n      div\n      mul\n      dup4\n      mstore\n      swap2\n      0x20\n      add\n      swap2\n      jump(tag_94)\n    tag_95:\n      dup3\n      add\n      swap2\n      swap1\n      0x00\n      mstore\n      keccak256(0x00, 0x20)\n      swap1\n    tag_96:\n      dup2\n      sload\n      dup2\n      mstore\n      swap1\n      0x01\n      add\n      swap1\n      0x20\n      add\n      dup1\n      dup4\n      gt\n      tag_96\n      jumpi\n      dup3\n      swap1\n      sub\n      0x1f\n      and\n      dup3\n      add\n      swap2\n    tag_94:\n      pop\n      pop\n      pop\n      pop\n      pop\n      dup2\n      jump\t// out\n        /* \"contracts/LunchVenue1.sol\":372:416  mapping ( address => Friend ) public friends */\n    tag_40:\n      mstore(0x20, 0x01)\n      dup1\n      0x00\n      mstore\n      keccak256(0x00, 0x40)\n      0x00\n      swap2\n      pop\n      swap1\n      pop\n      dup1\n      0x00\n      add\n      dup1\n      sload\n      tag_97\n      swap1\n      tag_59\n      jump\t// in\n    tag_97:\n      dup1\n      0x1f\n      add\n      0x20\n      dup1\n      swap2\n      div\n      mul\n      0x20\n      add\n      mload(0x40)\n      swap1\n      dup2\n      add\n      0x40\n      mstore\n      dup1\n      swap3\n      swap2\n      swap1\n      dup2\n      dup2\n      mstore\n      0x20\n      add\n      dup3\n      dup1\n      sload\n      tag_98\n      swap1\n      tag_59\n      jump\t// in\n    tag_98:\n      dup1\n      iszero\n      tag_99\n      jumpi\n      dup1\n      0x1f\n      lt\n      tag_100\n      jumpi\n      0x0100\n      dup1\n      dup4\n      sload\n      div\n      mul\n      dup4\n      mstore\n      swap2\n      0x20\n      add\n      swap2\n      jump(tag_99)\n    tag_100:\n      dup3\n      add\n      swap2\n      swap1\n      0x00\n      mstore\n      keccak256(0x00, 0x20)\n      swap1\n    tag_101:\n      dup2\n      sload\n      dup2\n      mstore\n      swap1\n      0x01\n      add\n      swap1\n      0x20\n      add\n      dup1\n      dup4\n      gt\n      tag_101\n      jumpi\n      dup3\n      swap1\n      sub\n      0x1f\n      and\n      dup3\n      add\n      swap2\n    tag_99:\n      pop\n      pop\n      pop\n      pop\n      pop\n      swap1\n      dup1\n      0x01\n      add\n      0x00\n      swap1\n      sload\n      swap1\n      0x0100\n      exp\n      swap1\n      div\n      0xff\n      and\n      swap1\n      pop\n      dup3\n      jump\t// out\n        /* \"contracts/LunchVenue1.sol\":1683:1968  function addFriend ( address friendAddress , string memory name ) public restricted... */\n    tag_46:\n        /* \"contracts/LunchVenue1.sol\":1785:1789  uint */\n      0x00\n        /* \"contracts/LunchVenue1.sol\":3929:3936  manager */\n      0x05\n      0x00\n      swap1\n      sload\n      swap1\n      0x0100\n      exp\n      swap1\n      div\n      0xffffffffffffffffffffffffffffffffffffffff\n      and\n        /* \"contracts/LunchVenue1.sol\":3913:3936  msg . sender == manager */\n      0xffffffffffffffffffffffffffffffffffffffff\n      and\n        /* \"contracts/LunchVenue1.sol\":3913:3925  msg . sender */\n      caller\n        /* \"contracts/LunchVenue1.sol\":3913:3936  msg . sender == manager */\n      0xffffffffffffffffffffffffffffffffffffffff\n      and\n      eq\n        /* \"contracts/LunchVenue1.sol\":3903:3977  require ( msg . sender == manager , \"Can only be executed by the manager\") */\n      tag_103\n      jumpi\n      mload(0x40)\n      0x08c379a000000000000000000000000000000000000000000000000000000000\n      dup2\n      mstore\n      0x04\n      add\n      tag_104\n      swap1\n      tag_67\n      jump\t// in\n    tag_104:\n      mload(0x40)\n      dup1\n      swap2\n      sub\n      swap1\n      revert\n    tag_103:\n        /* \"contracts/LunchVenue1.sol\":1801:1816  Friend memory f */\n      tag_106\n      tag_107\n      jump\t// in\n    tag_106:\n        /* \"contracts/LunchVenue1.sol\":1836:1840  name */\n      dup3\n        /* \"contracts/LunchVenue1.sol\":1826:1827  f */\n      dup2\n        /* \"contracts/LunchVenue1.sol\":1826:1833  f. name */\n      0x00\n      add\n        /* \"contracts/LunchVenue1.sol\":1826:1840  f. name = name */\n      dup2\n      swap1\n      mstore\n      pop\n        /* \"contracts/LunchVenue1.sol\":1862:1867  false */\n      0x00\n        /* \"contracts/LunchVenue1.sol\":1851:1852  f */\n      dup2\n        /* \"contracts/LunchVenue1.sol\":1851:1859  f. voted */\n      0x20\n      add\n        /* \"contracts/LunchVenue1.sol\":1851:1867  f. voted = false */\n      swap1\n      iszero\n      iszero\n      swap1\n      dup2\n      iszero\n      iszero\n      dup2\n      mstore\n      pop\n      pop\n        /* \"contracts/LunchVenue1.sol\":1906:1907  f */\n      dup1\n        /* \"contracts/LunchVenue1.sol\":1878:1885  friends */\n      0x01\n        /* \"contracts/LunchVenue1.sol\":1878:1903  friends [ friendAddress ] */\n      0x00\n        /* \"contracts/LunchVenue1.sol\":1888:1901  friendAddress */\n      dup7\n        /* \"contracts/LunchVenue1.sol\":1878:1903  friends [ friendAddress ] */\n      0xffffffffffffffffffffffffffffffffffffffff\n      and\n      0xffffffffffffffffffffffffffffffffffffffff\n      and\n      dup2\n      mstore\n      0x20\n      add\n      swap1\n      dup2\n      mstore\n      0x20\n      add\n      0x00\n      keccak256\n        /* \"contracts/LunchVenue1.sol\":1878:1907  friends [ friendAddress ] = f */\n      0x00\n      dup3\n      add\n      mload\n      dup2\n      0x00\n      add\n      swap1\n      dup1\n      mload\n      swap1\n      0x20\n      add\n      swap1\n      tag_108\n      swap3\n      swap2\n      swap1\n      tag_72\n      jump\t// in\n    tag_108:\n      pop\n      0x20\n      dup3\n      add\n      mload\n      dup2\n      0x01\n      add\n      exp(0x0100, 0x00)\n      dup2\n      sload\n      dup2\n      0xff\n      mul\n      not\n      and\n      swap1\n      dup4\n      iszero\n      iszero\n      mul\n      or\n      swap1\n      sstore\n      pop\n      swap1\n      pop\n      pop\n        /* \"contracts/LunchVenue1.sol\":1918:1928  numFriends */\n      0x03\n      0x00\n        /* \"contracts/LunchVenue1.sol\":1918:1930  numFriends++ */\n      dup2\n      sload\n      dup1\n      swap3\n      swap2\n      swap1\n      tag_109\n      swap1\n      tag_70\n      jump\t// in\n    tag_109:\n      swap2\n      swap1\n      pop\n      sstore\n      pop\n        /* \"contracts/LunchVenue1.sol\":1947:1957  numFriends */\n      sload(0x03)\n        /* \"contracts/LunchVenue1.sol\":1940:1957  return numFriends */\n      swap2\n      pop\n      pop\n        /* \"contracts/LunchVenue1.sol\":1683:1968  function addFriend ( address friendAddress , string memory name ) public restricted... */\n      swap3\n      swap2\n      pop\n      pop\n      jump\t// out\n        /* \"contracts/LunchVenue1.sol\":494:520  uint public numFriends = 0 */\n    tag_49:\n      sload(0x03)\n      dup2\n      jump\t// out\n        /* \"contracts/LunchVenue1.sol\":556:578  address public manager */\n    tag_52:\n      0x05\n      0x00\n      swap1\n      sload\n      swap1\n      0x0100\n      exp\n      swap1\n      div\n      0xffffffffffffffffffffffffffffffffffffffff\n      and\n      dup2\n      jump\t// out\n        /* \"contracts/LunchVenue1.sol\":526:550  uint public numVotes = 0 */\n    tag_56:\n      sload(0x04)\n      dup2\n      jump\t// out\n        /* \"contracts/LunchVenue1.sol\":3128:3828  function finalResult () private {... */\n    tag_91:\n        /* \"contracts/LunchVenue1.sol\":3170:3187  uint highestVotes */\n      0x00\n        /* \"contracts/LunchVenue1.sol\":3201:3218  uint highestVenue */\n      dup1\n        /* \"contracts/LunchVenue1.sol\":3238:3244  uint i */\n      0x00\n        /* \"contracts/LunchVenue1.sol\":3247:3248  1 */\n      0x01\n        /* \"contracts/LunchVenue1.sol\":3238:3248  uint i = 1 */\n      swap1\n      pop\n        /* \"contracts/LunchVenue1.sol\":3232:3703  for ( uint i = 1; i <= numVotes ; i++) { // For each vote... */\n    tag_111:\n        /* \"contracts/LunchVenue1.sol\":3255:3263  numVotes */\n      sload(0x04)\n        /* \"contracts/LunchVenue1.sol\":3250:3251  i */\n      dup2\n        /* \"contracts/LunchVenue1.sol\":3250:3263  i <= numVotes */\n      gt\n        /* \"contracts/LunchVenue1.sol\":3232:3703  for ( uint i = 1; i <= numVotes ; i++) { // For each vote... */\n      tag_112\n      jumpi\n        /* \"contracts/LunchVenue1.sol\":3302:3316  uint voteCount */\n      0x00\n        /* \"contracts/LunchVenue1.sol\":3319:3320  1 */\n      0x01\n        /* \"contracts/LunchVenue1.sol\":3302:3320  uint voteCount = 1 */\n      swap1\n      pop\n        /* \"contracts/LunchVenue1.sol\":3369:3370  0 */\n      0x00\n        /* \"contracts/LunchVenue1.sol\":3338:3345  results */\n      0x08\n        /* \"contracts/LunchVenue1.sol\":3338:3366  results [ votes [i]. venue ] */\n      0x00\n        /* \"contracts/LunchVenue1.sol\":3348:3353  votes */\n      0x07\n        /* \"contracts/LunchVenue1.sol\":3348:3357  votes [i] */\n      0x00\n        /* \"contracts/LunchVenue1.sol\":3355:3356  i */\n      dup7\n        /* \"contracts/LunchVenue1.sol\":3348:3357  votes [i] */\n      dup2\n      mstore\n      0x20\n      add\n      swap1\n      dup2\n      mstore\n      0x20\n      add\n      0x00\n      keccak256\n        /* \"contracts/LunchVenue1.sol\":3348:3364  votes [i]. venue */\n      0x01\n      add\n      sload\n        /* \"contracts/LunchVenue1.sol\":3338:3366  results [ votes [i]. venue ] */\n      dup2\n      mstore\n      0x20\n      add\n      swap1\n      dup2\n      mstore\n      0x20\n      add\n      0x00\n      keccak256\n      sload\n        /* \"contracts/LunchVenue1.sol\":3338:3370  results [ votes [i]. venue ] > 0 */\n      gt\n        /* \"contracts/LunchVenue1.sol\":3334:3472  if( results [ votes [i]. venue ] > 0) { // Already start counting... */\n      iszero\n      tag_114\n      jumpi\n        /* \"contracts/LunchVenue1.sol\":3429:3436  results */\n      0x08\n        /* \"contracts/LunchVenue1.sol\":3429:3457  results [ votes [i]. venue ] */\n      0x00\n        /* \"contracts/LunchVenue1.sol\":3439:3444  votes */\n      0x07\n        /* \"contracts/LunchVenue1.sol\":3439:3448  votes [i] */\n      0x00\n        /* \"contracts/LunchVenue1.sol\":3446:3447  i */\n      dup6\n        /* \"contracts/LunchVenue1.sol\":3439:3448  votes [i] */\n      dup2\n      mstore\n      0x20\n      add\n      swap1\n      dup2\n      mstore\n      0x20\n      add\n      0x00\n      keccak256\n        /* \"contracts/LunchVenue1.sol\":3439:3455  votes [i]. venue */\n      0x01\n      add\n      sload\n        /* \"contracts/LunchVenue1.sol\":3429:3457  results [ votes [i]. venue ] */\n      dup2\n      mstore\n      0x20\n      add\n      swap1\n      dup2\n      mstore\n      0x20\n      add\n      0x00\n      keccak256\n      sload\n        /* \"contracts/LunchVenue1.sol\":3416:3457  voteCount += results [ votes [i]. venue ] */\n      dup2\n      tag_115\n      swap2\n      swap1\n      tag_88\n      jump\t// in\n    tag_115:\n      swap1\n      pop\n        /* \"contracts/LunchVenue1.sol\":3334:3472  if( results [ votes [i]. venue ] > 0) { // Already start counting... */\n    tag_114:\n        /* \"contracts/LunchVenue1.sol\":3516:3525  voteCount */\n      dup1\n        /* \"contracts/LunchVenue1.sol\":3485:3492  results */\n      0x08\n        /* \"contracts/LunchVenue1.sol\":3485:3513  results [ votes [i]. venue ] */\n      0x00\n        /* \"contracts/LunchVenue1.sol\":3495:3500  votes */\n      0x07\n        /* \"contracts/LunchVenue1.sol\":3495:3504  votes [i] */\n      0x00\n        /* \"contracts/LunchVenue1.sol\":3502:3503  i */\n      dup7\n        /* \"contracts/LunchVenue1.sol\":3495:3504  votes [i] */\n      dup2\n      mstore\n      0x20\n      add\n      swap1\n      dup2\n      mstore\n      0x20\n      add\n      0x00\n      keccak256\n        /* \"contracts/LunchVenue1.sol\":3495:3511  votes [i]. venue */\n      0x01\n      add\n      sload\n        /* \"contracts/LunchVenue1.sol\":3485:3513  results [ votes [i]. venue ] */\n      dup2\n      mstore\n      0x20\n      add\n      swap1\n      dup2\n      mstore\n      0x20\n      add\n      0x00\n      keccak256\n        /* \"contracts/LunchVenue1.sol\":3485:3525  results [ votes [i]. venue ] = voteCount */\n      dup2\n      swap1\n      sstore\n      pop\n        /* \"contracts/LunchVenue1.sol\":3557:3569  highestVotes */\n      dup4\n        /* \"contracts/LunchVenue1.sol\":3545:3554  voteCount */\n      dup2\n        /* \"contracts/LunchVenue1.sol\":3545:3569  voteCount > highestVotes */\n      gt\n        /* \"contracts/LunchVenue1.sol\":3540:3693  if ( voteCount > highestVotes ){ // New winner... */\n      iszero\n      tag_116\n      jumpi\n        /* \"contracts/LunchVenue1.sol\":3618:3627  voteCount */\n      dup1\n        /* \"contracts/LunchVenue1.sol\":3603:3627  highestVotes = voteCount */\n      swap4\n      pop\n        /* \"contracts/LunchVenue1.sol\":3661:3666  votes */\n      0x07\n        /* \"contracts/LunchVenue1.sol\":3661:3670  votes [i] */\n      0x00\n        /* \"contracts/LunchVenue1.sol\":3668:3669  i */\n      dup4\n        /* \"contracts/LunchVenue1.sol\":3661:3670  votes [i] */\n      dup2\n      mstore\n      0x20\n      add\n      swap1\n      dup2\n      mstore\n      0x20\n      add\n      0x00\n      keccak256\n        /* \"contracts/LunchVenue1.sol\":3661:3677  votes [i]. venue */\n      0x01\n      add\n      sload\n        /* \"contracts/LunchVenue1.sol\":3646:3677  highestVenue = votes [i]. venue */\n      swap3\n      pop\n        /* \"contracts/LunchVenue1.sol\":3540:3693  if ( voteCount > highestVotes ){ // New winner... */\n    tag_116:\n        /* \"contracts/LunchVenue1.sol\":3271:3703  { // For each vote... */\n      pop\n        /* \"contracts/LunchVenue1.sol\":3266:3269  i++ */\n      dup1\n      dup1\n      tag_117\n      swap1\n      tag_70\n      jump\t// in\n    tag_117:\n      swap2\n      pop\n      pop\n        /* \"contracts/LunchVenue1.sol\":3232:3703  for ( uint i = 1; i <= numVotes ; i++) { // For each vote... */\n      jump(tag_111)\n    tag_112:\n      pop\n        /* \"contracts/LunchVenue1.sol\":3725:3731  venues */\n      0x00\n        /* \"contracts/LunchVenue1.sol\":3725:3748  venues [ highestVenue ] */\n      dup1\n        /* \"contracts/LunchVenue1.sol\":3734:3746  highestVenue */\n      dup3\n        /* \"contracts/LunchVenue1.sol\":3725:3748  venues [ highestVenue ] */\n      dup2\n      mstore\n      0x20\n      add\n      swap1\n      dup2\n      mstore\n      0x20\n      add\n      0x00\n      keccak256\n        /* \"contracts/LunchVenue1.sol\":3712:3722  votedVenue */\n      0x06\n        /* \"contracts/LunchVenue1.sol\":3712:3748  votedVenue = venues [ highestVenue ] */\n      swap1\n      dup1\n      sload\n      tag_118\n      swap1\n      tag_59\n      jump\t// in\n    tag_118:\n      tag_119\n      swap3\n      swap2\n      swap1\n      tag_120\n      jump\t// in\n    tag_119:\n      pop\n        /* \"contracts/LunchVenue1.sol\":3791:3796  false */\n      0x00\n        /* \"contracts/LunchVenue1.sol\":3780:3788  voteOpen */\n      0x09\n      0x00\n        /* \"contracts/LunchVenue1.sol\":3780:3796  voteOpen = false */\n      0x0100\n      exp\n      dup2\n      sload\n      dup2\n      0xff\n      mul\n      not\n      and\n      swap1\n      dup4\n      iszero\n      iszero\n      mul\n      or\n      swap1\n      sstore\n      pop\n        /* \"contracts/LunchVenue1.sol\":3160:3828  {... */\n      pop\n      pop\n        /* \"contracts/LunchVenue1.sol\":3128:3828  function finalResult () private {... */\n      jump\t// out\n    tag_72:\n      dup3\n      dup1\n      sload\n      tag_121\n      swap1\n      tag_59\n      jump\t// in\n    tag_121:\n      swap1\n      0x00\n      mstore\n      keccak256(0x00, 0x20)\n      swap1\n      0x1f\n      add\n      0x20\n      swap1\n      div\n      dup2\n      add\n      swap3\n      dup3\n      tag_123\n      jumpi\n      0x00\n      dup6\n      sstore\n      jump(tag_122)\n    tag_123:\n      dup3\n      0x1f\n      lt\n      tag_124\n      jumpi\n      dup1\n      mload\n      not(0xff)\n      and\n      dup4\n      dup1\n      add\n      or\n      dup6\n      sstore\n      jump(tag_122)\n    tag_124:\n      dup3\n      dup1\n      add\n      0x01\n      add\n      dup6\n      sstore\n      dup3\n      iszero\n      tag_122\n      jumpi\n      swap2\n      dup3\n      add\n    tag_125:\n      dup3\n      dup2\n      gt\n      iszero\n      tag_126\n      jumpi\n      dup3\n      mload\n      dup3\n      sstore\n      swap2\n      0x20\n      add\n      swap2\n      swap1\n      0x01\n      add\n      swap1\n      jump(tag_125)\n    tag_126:\n    tag_122:\n      pop\n      swap1\n      pop\n      tag_127\n      swap2\n      swap1\n      tag_128\n      jump\t// in\n    tag_127:\n      pop\n      swap1\n      jump\t// out\n    tag_83:\n      mload(0x40)\n      dup1\n      0x40\n      add\n      0x40\n      mstore\n      dup1\n      and(0xffffffffffffffffffffffffffffffffffffffff, 0x00)\n      dup2\n      mstore\n      0x20\n      add\n      0x00\n      dup2\n      mstore\n      pop\n      swap1\n      jump\t// out\n    tag_107:\n      mload(0x40)\n      dup1\n      0x40\n      add\n      0x40\n      mstore\n      dup1\n      0x60\n      dup2\n      mstore\n      0x20\n      add\n      iszero(iszero(0x00))\n      dup2\n      mstore\n      pop\n      swap1\n      jump\t// out\n    tag_120:\n      dup3\n      dup1\n      sload\n      tag_129\n      swap1\n      tag_59\n      jump\t// in\n    tag_129:\n      swap1\n      0x00\n      mstore\n      keccak256(0x00, 0x20)\n      swap1\n      0x1f\n      add\n      0x20\n      swap1\n      div\n      dup2\n      add\n      swap3\n      dup3\n      tag_131\n      jumpi\n      0x00\n      dup6\n      sstore\n      jump(tag_130)\n    tag_131:\n      dup3\n      0x1f\n      lt\n      tag_132\n      jumpi\n      dup1\n      sload\n      dup6\n      sstore\n      jump(tag_130)\n    tag_132:\n      dup3\n      dup1\n      add\n      0x01\n      add\n      dup6\n      sstore\n      dup3\n      iszero\n      tag_130\n      jumpi\n      0x00\n      mstore\n      keccak256(0x00, 0x20)\n      swap2\n      0x1f\n      add\n      0x20\n      swap1\n      div\n      dup3\n      add\n    tag_133:\n      dup3\n      dup2\n      gt\n      iszero\n      tag_134\n      jumpi\n      dup3\n      sload\n      dup3\n      sstore\n      swap2\n      0x01\n      add\n      swap2\n      swap1\n      0x01\n      add\n      swap1\n      jump(tag_133)\n    tag_134:\n    tag_130:\n      pop\n      swap1\n      pop\n      tag_135\n      swap2\n      swap1\n      tag_128\n      jump\t// in\n    tag_135:\n      pop\n      swap1\n      jump\t// out\n    tag_128:\n    tag_136:\n      dup1\n      dup3\n      gt\n      iszero\n      tag_137\n      jumpi\n      0x00\n      dup2\n      0x00\n      swap1\n      sstore\n      pop\n      0x01\n      add\n      jump(tag_136)\n    tag_137:\n      pop\n      swap1\n      jump\t// out\n        /* \"#utility.yul\":7:419   */\n    tag_139:\n        /* \"#utility.yul\":85:90   */\n      0x00\n        /* \"#utility.yul\":110:176   */\n      tag_141\n        /* \"#utility.yul\":126:175   */\n      tag_142\n        /* \"#utility.yul\":168:174   */\n      dup5\n        /* \"#utility.yul\":126:175   */\n      tag_143\n      jump\t// in\n    tag_142:\n        /* \"#utility.yul\":110:176   */\n      tag_144\n      jump\t// in\n    tag_141:\n        /* \"#utility.yul\":101:176   */\n      swap1\n      pop\n        /* \"#utility.yul\":199:205   */\n      dup3\n        /* \"#utility.yul\":192:197   */\n      dup2\n        /* \"#utility.yul\":185:206   */\n      mstore\n        /* \"#utility.yul\":237:241   */\n      0x20\n        /* \"#utility.yul\":230:235   */\n      dup2\n        /* \"#utility.yul\":226:242   */\n      add\n        /* \"#utility.yul\":275:278   */\n      dup5\n        /* \"#utility.yul\":266:272   */\n      dup5\n        /* \"#utility.yul\":261:264   */\n      dup5\n        /* \"#utility.yul\":257:273   */\n      add\n        /* \"#utility.yul\":254:279   */\n      gt\n        /* \"#utility.yul\":251:363   */\n      iszero\n      tag_145\n      jumpi\n        /* \"#utility.yul\":282:361   */\n      tag_146\n      tag_147\n      jump\t// in\n    tag_146:\n        /* \"#utility.yul\":251:363   */\n    tag_145:\n        /* \"#utility.yul\":372:413   */\n      tag_148\n        /* \"#utility.yul\":406:412   */\n      dup5\n        /* \"#utility.yul\":401:404   */\n      dup3\n        /* \"#utility.yul\":396:399   */\n      dup6\n        /* \"#utility.yul\":372:413   */\n      tag_149\n      jump\t// in\n    tag_148:\n        /* \"#utility.yul\":91:419   */\n      pop\n        /* \"#utility.yul\":7:419   */\n      swap4\n      swap3\n      pop\n      pop\n      pop\n      jump\t// out\n        /* \"#utility.yul\":425:564   */\n    tag_150:\n        /* \"#utility.yul\":471:476   */\n      0x00\n        /* \"#utility.yul\":509:515   */\n      dup2\n        /* \"#utility.yul\":496:516   */\n      calldataload\n        /* \"#utility.yul\":487:516   */\n      swap1\n      pop\n        /* \"#utility.yul\":525:558   */\n      tag_152\n        /* \"#utility.yul\":552:557   */\n      dup2\n        /* \"#utility.yul\":525:558   */\n      tag_153\n      jump\t// in\n    tag_152:\n        /* \"#utility.yul\":425:564   */\n      swap3\n      swap2\n      pop\n      pop\n      jump\t// out\n        /* \"#utility.yul\":584:924   */\n    tag_154:\n        /* \"#utility.yul\":640:645   */\n      0x00\n        /* \"#utility.yul\":689:692   */\n      dup3\n        /* \"#utility.yul\":682:686   */\n      0x1f\n        /* \"#utility.yul\":674:680   */\n      dup4\n        /* \"#utility.yul\":670:687   */\n      add\n        /* \"#utility.yul\":666:693   */\n      slt\n        /* \"#utility.yul\":656:778   */\n      tag_156\n      jumpi\n        /* \"#utility.yul\":697:776   */\n      tag_157\n      tag_158\n      jump\t// in\n    tag_157:\n        /* \"#utility.yul\":656:778   */\n    tag_156:\n        /* \"#utility.yul\":814:820   */\n      dup2\n        /* \"#utility.yul\":801:821   */\n      calldataload\n        /* \"#utility.yul\":839:918   */\n      tag_159\n        /* \"#utility.yul\":914:917   */\n      dup5\n        /* \"#utility.yul\":906:912   */\n      dup3\n        /* \"#utility.yul\":899:903   */\n      0x20\n        /* \"#utility.yul\":891:897   */\n      dup7\n        /* \"#utility.yul\":887:904   */\n      add\n        /* \"#utility.yul\":839:918   */\n      tag_139\n      jump\t// in\n    tag_159:\n        /* \"#utility.yul\":830:918   */\n      swap2\n      pop\n        /* \"#utility.yul\":646:924   */\n      pop\n        /* \"#utility.yul\":584:924   */\n      swap3\n      swap2\n      pop\n      pop\n      jump\t// out\n        /* \"#utility.yul\":930:1069   */\n    tag_160:\n        /* \"#utility.yul\":976:981   */\n      0x00\n        /* \"#utility.yul\":1014:1020   */\n      dup2\n        /* \"#utility.yul\":1001:1021   */\n      calldataload\n        /* \"#utility.yul\":992:1021   */\n      swap1\n      pop\n        /* \"#utility.yul\":1030:1063   */\n      tag_162\n        /* \"#utility.yul\":1057:1062   */\n      dup2\n        /* \"#utility.yul\":1030:1063   */\n      tag_163\n      jump\t// in\n    tag_162:\n        /* \"#utility.yul\":930:1069   */\n      swap3\n      swap2\n      pop\n      pop\n      jump\t// out\n        /* \"#utility.yul\":1075:1404   */\n    tag_39:\n        /* \"#utility.yul\":1134:1140   */\n      0x00\n        /* \"#utility.yul\":1183:1185   */\n      0x20\n        /* \"#utility.yul\":1171:1180   */\n      dup3\n        /* \"#utility.yul\":1162:1169   */\n      dup5\n        /* \"#utility.yul\":1158:1181   */\n      sub\n        /* \"#utility.yul\":1154:1186   */\n      slt\n        /* \"#utility.yul\":1151:1270   */\n      iszero\n      tag_165\n      jumpi\n        /* \"#utility.yul\":1189:1268   */\n      tag_166\n      tag_167\n      jump\t// in\n    tag_166:\n        /* \"#utility.yul\":1151:1270   */\n    tag_165:\n        /* \"#utility.yul\":1309:1310   */\n      0x00\n        /* \"#utility.yul\":1334:1387   */\n      tag_168\n        /* \"#utility.yul\":1379:1386   */\n      dup5\n        /* \"#utility.yul\":1370:1376   */\n      dup3\n        /* \"#utility.yul\":1359:1368   */\n      dup6\n        /* \"#utility.yul\":1355:1377   */\n      add\n        /* \"#utility.yul\":1334:1387   */\n      tag_150\n      jump\t// in\n    tag_168:\n        /* \"#utility.yul\":1324:1387   */\n      swap2\n      pop\n        /* \"#utility.yul\":1280:1397   */\n      pop\n        /* \"#utility.yul\":1075:1404   */\n      swap3\n      swap2\n      pop\n      pop\n      jump\t// out\n        /* \"#utility.yul\":1410:2064   */\n    tag_45:\n        /* \"#utility.yul\":1488:1494   */\n      0x00\n        /* \"#utility.yul\":1496:1502   */\n      dup1\n        /* \"#utility.yul\":1545:1547   */\n      0x40\n        /* \"#utility.yul\":1533:1542   */\n      dup4\n        /* \"#utility.yul\":1524:1531   */\n      dup6\n        /* \"#utility.yul\":1520:1543   */\n      sub\n        /* \"#utility.yul\":1516:1548   */\n      slt\n        /* \"#utility.yul\":1513:1632   */\n      iszero\n      tag_170\n      jumpi\n        /* \"#utility.yul\":1551:1630   */\n      tag_171\n      tag_167\n      jump\t// in\n    tag_171:\n        /* \"#utility.yul\":1513:1632   */\n    tag_170:\n        /* \"#utility.yul\":1671:1672   */\n      0x00\n        /* \"#utility.yul\":1696:1749   */\n      tag_172\n        /* \"#utility.yul\":1741:1748   */\n      dup6\n        /* \"#utility.yul\":1732:1738   */\n      dup3\n        /* \"#utility.yul\":1721:1730   */\n      dup7\n        /* \"#utility.yul\":1717:1739   */\n      add\n        /* \"#utility.yul\":1696:1749   */\n      tag_150\n      jump\t// in\n    tag_172:\n        /* \"#utility.yul\":1686:1749   */\n      swap3\n      pop\n        /* \"#utility.yul\":1642:1759   */\n      pop\n        /* \"#utility.yul\":1826:1828   */\n      0x20\n        /* \"#utility.yul\":1815:1824   */\n      dup4\n        /* \"#utility.yul\":1811:1829   */\n      add\n        /* \"#utility.yul\":1798:1830   */\n      calldataload\n        /* \"#utility.yul\":1857:1875   */\n      0xffffffffffffffff\n        /* \"#utility.yul\":1849:1855   */\n      dup2\n        /* \"#utility.yul\":1846:1876   */\n      gt\n        /* \"#utility.yul\":1843:1960   */\n      iszero\n      tag_173\n      jumpi\n        /* \"#utility.yul\":1879:1958   */\n      tag_174\n      tag_175\n      jump\t// in\n    tag_174:\n        /* \"#utility.yul\":1843:1960   */\n    tag_173:\n        /* \"#utility.yul\":1984:2047   */\n      tag_176\n        /* \"#utility.yul\":2039:2046   */\n      dup6\n        /* \"#utility.yul\":2030:2036   */\n      dup3\n        /* \"#utility.yul\":2019:2028   */\n      dup7\n        /* \"#utility.yul\":2015:2037   */\n      add\n        /* \"#utility.yul\":1984:2047   */\n      tag_154\n      jump\t// in\n    tag_176:\n        /* \"#utility.yul\":1974:2047   */\n      swap2\n      pop\n        /* \"#utility.yul\":1769:2057   */\n      pop\n        /* \"#utility.yul\":1410:2064   */\n      swap3\n      pop\n      swap3\n      swap1\n      pop\n      jump\t// out\n        /* \"#utility.yul\":2070:2579   */\n    tag_22:\n        /* \"#utility.yul\":2139:2145   */\n      0x00\n        /* \"#utility.yul\":2188:2190   */\n      0x20\n        /* \"#utility.yul\":2176:2185   */\n      dup3\n        /* \"#utility.yul\":2167:2174   */\n      dup5\n        /* \"#utility.yul\":2163:2186   */\n      sub\n        /* \"#utility.yul\":2159:2191   */\n      slt\n        /* \"#utility.yul\":2156:2275   */\n      iszero\n      tag_178\n      jumpi\n        /* \"#utility.yul\":2194:2273   */\n      tag_179\n      tag_167\n      jump\t// in\n    tag_179:\n        /* \"#utility.yul\":2156:2275   */\n    tag_178:\n        /* \"#utility.yul\":2342:2343   */\n      0x00\n        /* \"#utility.yul\":2331:2340   */\n      dup3\n        /* \"#utility.yul\":2327:2344   */\n      add\n        /* \"#utility.yul\":2314:2345   */\n      calldataload\n        /* \"#utility.yul\":2372:2390   */\n      0xffffffffffffffff\n        /* \"#utility.yul\":2364:2370   */\n      dup2\n        /* \"#utility.yul\":2361:2391   */\n      gt\n        /* \"#utility.yul\":2358:2475   */\n      iszero\n      tag_180\n      jumpi\n        /* \"#utility.yul\":2394:2473   */\n      tag_181\n      tag_175\n      jump\t// in\n    tag_181:\n        /* \"#utility.yul\":2358:2475   */\n    tag_180:\n        /* \"#utility.yul\":2499:2562   */\n      tag_182\n        /* \"#utility.yul\":2554:2561   */\n      dup5\n        /* \"#utility.yul\":2545:2551   */\n      dup3\n        /* \"#utility.yul\":2534:2543   */\n      dup6\n        /* \"#utility.yul\":2530:2552   */\n      add\n        /* \"#utility.yul\":2499:2562   */\n      tag_154\n      jump\t// in\n    tag_182:\n        /* \"#utility.yul\":2489:2562   */\n      swap2\n      pop\n        /* \"#utility.yul\":2285:2572   */\n      pop\n        /* \"#utility.yul\":2070:2579   */\n      swap3\n      swap2\n      pop\n      pop\n      jump\t// out\n        /* \"#utility.yul\":2585:2914   */\n    tag_16:\n        /* \"#utility.yul\":2644:2650   */\n      0x00\n        /* \"#utility.yul\":2693:2695   */\n      0x20\n        /* \"#utility.yul\":2681:2690   */\n      dup3\n        /* \"#utility.yul\":2672:2679   */\n      dup5\n        /* \"#utility.yul\":2668:2691   */\n      sub\n        /* \"#utility.yul\":2664:2696   */\n      slt\n        /* \"#utility.yul\":2661:2780   */\n      iszero\n      tag_184\n      jumpi\n        /* \"#utility.yul\":2699:2778   */\n      tag_185\n      tag_167\n      jump\t// in\n    tag_185:\n        /* \"#utility.yul\":2661:2780   */\n    tag_184:\n        /* \"#utility.yul\":2819:2820   */\n      0x00\n        /* \"#utility.yul\":2844:2897   */\n      tag_186\n        /* \"#utility.yul\":2889:2896   */\n      dup5\n        /* \"#utility.yul\":2880:2886   */\n      dup3\n        /* \"#utility.yul\":2869:2878   */\n      dup6\n        /* \"#utility.yul\":2865:2887   */\n      add\n        /* \"#utility.yul\":2844:2897   */\n      tag_160\n      jump\t// in\n    tag_186:\n        /* \"#utility.yul\":2834:2897   */\n      swap2\n      pop\n        /* \"#utility.yul\":2790:2907   */\n      pop\n        /* \"#utility.yul\":2585:2914   */\n      swap3\n      swap2\n      pop\n      pop\n      jump\t// out\n        /* \"#utility.yul\":2920:3038   */\n    tag_187:\n        /* \"#utility.yul\":3007:3031   */\n      tag_189\n        /* \"#utility.yul\":3025:3030   */\n      dup2\n        /* \"#utility.yul\":3007:3031   */\n      tag_190\n      jump\t// in\n    tag_189:\n        /* \"#utility.yul\":3002:3005   */\n      dup3\n        /* \"#utility.yul\":2995:3032   */\n      mstore\n        /* \"#utility.yul\":2920:3038   */\n      pop\n      pop\n      jump\t// out\n        /* \"#utility.yul\":3044:3153   */\n    tag_191:\n        /* \"#utility.yul\":3125:3146   */\n      tag_193\n        /* \"#utility.yul\":3140:3145   */\n      dup2\n        /* \"#utility.yul\":3125:3146   */\n      tag_194\n      jump\t// in\n    tag_193:\n        /* \"#utility.yul\":3120:3123   */\n      dup3\n        /* \"#utility.yul\":3113:3147   */\n      mstore\n        /* \"#utility.yul\":3044:3153   */\n      pop\n      pop\n      jump\t// out\n        /* \"#utility.yul\":3159:3523   */\n    tag_195:\n        /* \"#utility.yul\":3247:3250   */\n      0x00\n        /* \"#utility.yul\":3275:3314   */\n      tag_197\n        /* \"#utility.yul\":3308:3313   */\n      dup3\n        /* \"#utility.yul\":3275:3314   */\n      tag_198\n      jump\t// in\n    tag_197:\n        /* \"#utility.yul\":3330:3401   */\n      tag_199\n        /* \"#utility.yul\":3394:3400   */\n      dup2\n        /* \"#utility.yul\":3389:3392   */\n      dup6\n        /* \"#utility.yul\":3330:3401   */\n      tag_200\n      jump\t// in\n    tag_199:\n        /* \"#utility.yul\":3323:3401   */\n      swap4\n      pop\n        /* \"#utility.yul\":3410:3462   */\n      tag_201\n        /* \"#utility.yul\":3455:3461   */\n      dup2\n        /* \"#utility.yul\":3450:3453   */\n      dup6\n        /* \"#utility.yul\":3443:3447   */\n      0x20\n        /* \"#utility.yul\":3436:3441   */\n      dup7\n        /* \"#utility.yul\":3432:3448   */\n      add\n        /* \"#utility.yul\":3410:3462   */\n      tag_202\n      jump\t// in\n    tag_201:\n        /* \"#utility.yul\":3487:3516   */\n      tag_203\n        /* \"#utility.yul\":3509:3515   */\n      dup2\n        /* \"#utility.yul\":3487:3516   */\n      tag_204\n      jump\t// in\n    tag_203:\n        /* \"#utility.yul\":3482:3485   */\n      dup5\n        /* \"#utility.yul\":3478:3517   */\n      add\n        /* \"#utility.yul\":3471:3517   */\n      swap2\n      pop\n        /* \"#utility.yul\":3251:3523   */\n      pop\n        /* \"#utility.yul\":3159:3523   */\n      swap3\n      swap2\n      pop\n      pop\n      jump\t// out\n        /* \"#utility.yul\":3529:3895   */\n    tag_205:\n        /* \"#utility.yul\":3671:3674   */\n      0x00\n        /* \"#utility.yul\":3692:3759   */\n      tag_207\n        /* \"#utility.yul\":3756:3758   */\n      0x24\n        /* \"#utility.yul\":3751:3754   */\n      dup4\n        /* \"#utility.yul\":3692:3759   */\n      tag_200\n      jump\t// in\n    tag_207:\n        /* \"#utility.yul\":3685:3759   */\n      swap2\n      pop\n        /* \"#utility.yul\":3768:3861   */\n      tag_208\n        /* \"#utility.yul\":3857:3860   */\n      dup3\n        /* \"#utility.yul\":3768:3861   */\n      tag_209\n      jump\t// in\n    tag_208:\n        /* \"#utility.yul\":3886:3888   */\n      0x40\n        /* \"#utility.yul\":3881:3884   */\n      dup3\n        /* \"#utility.yul\":3877:3889   */\n      add\n        /* \"#utility.yul\":3870:3889   */\n      swap1\n      pop\n        /* \"#utility.yul\":3529:3895   */\n      swap2\n      swap1\n      pop\n      jump\t// out\n        /* \"#utility.yul\":3901:4267   */\n    tag_210:\n        /* \"#utility.yul\":4043:4046   */\n      0x00\n        /* \"#utility.yul\":4064:4131   */\n      tag_212\n        /* \"#utility.yul\":4128:4130   */\n      0x23\n        /* \"#utility.yul\":4123:4126   */\n      dup4\n        /* \"#utility.yul\":4064:4131   */\n      tag_200\n      jump\t// in\n    tag_212:\n        /* \"#utility.yul\":4057:4131   */\n      swap2\n      pop\n        /* \"#utility.yul\":4140:4233   */\n      tag_213\n        /* \"#utility.yul\":4229:4232   */\n      dup3\n        /* \"#utility.yul\":4140:4233   */\n      tag_214\n      jump\t// in\n    tag_213:\n        /* \"#utility.yul\":4258:4260   */\n      0x40\n        /* \"#utility.yul\":4253:4256   */\n      dup3\n        /* \"#utility.yul\":4249:4261   */\n      add\n        /* \"#utility.yul\":4242:4261   */\n      swap1\n      pop\n        /* \"#utility.yul\":3901:4267   */\n      swap2\n      swap1\n      pop\n      jump\t// out\n        /* \"#utility.yul\":4273:4391   */\n    tag_215:\n        /* \"#utility.yul\":4360:4384   */\n      tag_217\n        /* \"#utility.yul\":4378:4383   */\n      dup2\n        /* \"#utility.yul\":4360:4384   */\n      tag_218\n      jump\t// in\n    tag_217:\n        /* \"#utility.yul\":4355:4358   */\n      dup3\n        /* \"#utility.yul\":4348:4385   */\n      mstore\n        /* \"#utility.yul\":4273:4391   */\n      pop\n      pop\n      jump\t// out\n        /* \"#utility.yul\":4397:4619   */\n    tag_54:\n        /* \"#utility.yul\":4490:4494   */\n      0x00\n        /* \"#utility.yul\":4528:4530   */\n      0x20\n        /* \"#utility.yul\":4517:4526   */\n      dup3\n        /* \"#utility.yul\":4513:4531   */\n      add\n        /* \"#utility.yul\":4505:4531   */\n      swap1\n      pop\n        /* \"#utility.yul\":4541:4612   */\n      tag_220\n        /* \"#utility.yul\":4609:4610   */\n      0x00\n        /* \"#utility.yul\":4598:4607   */\n      dup4\n        /* \"#utility.yul\":4594:4611   */\n      add\n        /* \"#utility.yul\":4585:4591   */\n      dup5\n        /* \"#utility.yul\":4541:4612   */\n      tag_187\n      jump\t// in\n    tag_220:\n        /* \"#utility.yul\":4397:4619   */\n      swap3\n      swap2\n      pop\n      pop\n      jump\t// out\n        /* \"#utility.yul\":4625:4835   */\n    tag_33:\n        /* \"#utility.yul\":4712:4716   */\n      0x00\n        /* \"#utility.yul\":4750:4752   */\n      0x20\n        /* \"#utility.yul\":4739:4748   */\n      dup3\n        /* \"#utility.yul\":4735:4753   */\n      add\n        /* \"#utility.yul\":4727:4753   */\n      swap1\n      pop\n        /* \"#utility.yul\":4763:4828   */\n      tag_222\n        /* \"#utility.yul\":4825:4826   */\n      0x00\n        /* \"#utility.yul\":4814:4823   */\n      dup4\n        /* \"#utility.yul\":4810:4827   */\n      add\n        /* \"#utility.yul\":4801:4807   */\n      dup5\n        /* \"#utility.yul\":4763:4828   */\n      tag_191\n      jump\t// in\n    tag_222:\n        /* \"#utility.yul\":4625:4835   */\n      swap3\n      swap2\n      pop\n      pop\n      jump\t// out\n        /* \"#utility.yul\":4841:5154   */\n    tag_19:\n        /* \"#utility.yul\":4954:4958   */\n      0x00\n        /* \"#utility.yul\":4992:4994   */\n      0x20\n        /* \"#utility.yul\":4981:4990   */\n      dup3\n        /* \"#utility.yul\":4977:4995   */\n      add\n        /* \"#utility.yul\":4969:4995   */\n      swap1\n      pop\n        /* \"#utility.yul\":5041:5050   */\n      dup2\n        /* \"#utility.yul\":5035:5039   */\n      dup2\n        /* \"#utility.yul\":5031:5051   */\n      sub\n        /* \"#utility.yul\":5027:5028   */\n      0x00\n        /* \"#utility.yul\":5016:5025   */\n      dup4\n        /* \"#utility.yul\":5012:5029   */\n      add\n        /* \"#utility.yul\":5005:5052   */\n      mstore\n        /* \"#utility.yul\":5069:5147   */\n      tag_224\n        /* \"#utility.yul\":5142:5146   */\n      dup2\n        /* \"#utility.yul\":5133:5139   */\n      dup5\n        /* \"#utility.yul\":5069:5147   */\n      tag_195\n      jump\t// in\n    tag_224:\n        /* \"#utility.yul\":5061:5147   */\n      swap1\n      pop\n        /* \"#utility.yul\":4841:5154   */\n      swap3\n      swap2\n      pop\n      pop\n      jump\t// out\n        /* \"#utility.yul\":5160:5571   */\n    tag_42:\n        /* \"#utility.yul\":5295:5299   */\n      0x00\n        /* \"#utility.yul\":5333:5335   */\n      0x40\n        /* \"#utility.yul\":5322:5331   */\n      dup3\n        /* \"#utility.yul\":5318:5336   */\n      add\n        /* \"#utility.yul\":5310:5336   */\n      swap1\n      pop\n        /* \"#utility.yul\":5382:5391   */\n      dup2\n        /* \"#utility.yul\":5376:5380   */\n      dup2\n        /* \"#utility.yul\":5372:5392   */\n      sub\n        /* \"#utility.yul\":5368:5369   */\n      0x00\n        /* \"#utility.yul\":5357:5366   */\n      dup4\n        /* \"#utility.yul\":5353:5370   */\n      add\n        /* \"#utility.yul\":5346:5393   */\n      mstore\n        /* \"#utility.yul\":5410:5488   */\n      tag_226\n        /* \"#utility.yul\":5483:5487   */\n      dup2\n        /* \"#utility.yul\":5474:5480   */\n      dup6\n        /* \"#utility.yul\":5410:5488   */\n      tag_195\n      jump\t// in\n    tag_226:\n        /* \"#utility.yul\":5402:5488   */\n      swap1\n      pop\n        /* \"#utility.yul\":5498:5564   */\n      tag_227\n        /* \"#utility.yul\":5560:5562   */\n      0x20\n        /* \"#utility.yul\":5549:5558   */\n      dup4\n        /* \"#utility.yul\":5545:5563   */\n      add\n        /* \"#utility.yul\":5536:5542   */\n      dup5\n        /* \"#utility.yul\":5498:5564   */\n      tag_191\n      jump\t// in\n    tag_227:\n        /* \"#utility.yul\":5160:5571   */\n      swap4\n      swap3\n      pop\n      pop\n      pop\n      jump\t// out\n        /* \"#utility.yul\":5577:5996   */\n    tag_76:\n        /* \"#utility.yul\":5743:5747   */\n      0x00\n        /* \"#utility.yul\":5781:5783   */\n      0x20\n        /* \"#utility.yul\":5770:5779   */\n      dup3\n        /* \"#utility.yul\":5766:5784   */\n      add\n        /* \"#utility.yul\":5758:5784   */\n      swap1\n      pop\n        /* \"#utility.yul\":5830:5839   */\n      dup2\n        /* \"#utility.yul\":5824:5828   */\n      dup2\n        /* \"#utility.yul\":5820:5840   */\n      sub\n        /* \"#utility.yul\":5816:5817   */\n      0x00\n        /* \"#utility.yul\":5805:5814   */\n      dup4\n        /* \"#utility.yul\":5801:5818   */\n      add\n        /* \"#utility.yul\":5794:5841   */\n      mstore\n        /* \"#utility.yul\":5858:5989   */\n      tag_229\n        /* \"#utility.yul\":5984:5988   */\n      dup2\n        /* \"#utility.yul\":5858:5989   */\n      tag_205\n      jump\t// in\n    tag_229:\n        /* \"#utility.yul\":5850:5989   */\n      swap1\n      pop\n        /* \"#utility.yul\":5577:5996   */\n      swap2\n      swap1\n      pop\n      jump\t// out\n        /* \"#utility.yul\":6002:6421   */\n    tag_67:\n        /* \"#utility.yul\":6168:6172   */\n      0x00\n        /* \"#utility.yul\":6206:6208   */\n      0x20\n        /* \"#utility.yul\":6195:6204   */\n      dup3\n        /* \"#utility.yul\":6191:6209   */\n      add\n        /* \"#utility.yul\":6183:6209   */\n      swap1\n      pop\n        /* \"#utility.yul\":6255:6264   */\n      dup2\n        /* \"#utility.yul\":6249:6253   */\n      dup2\n        /* \"#utility.yul\":6245:6265   */\n      sub\n        /* \"#utility.yul\":6241:6242   */\n      0x00\n        /* \"#utility.yul\":6230:6239   */\n      dup4\n        /* \"#utility.yul\":6226:6243   */\n      add\n        /* \"#utility.yul\":6219:6266   */\n      mstore\n        /* \"#utility.yul\":6283:6414   */\n      tag_231\n        /* \"#utility.yul\":6409:6413   */\n      dup2\n        /* \"#utility.yul\":6283:6414   */\n      tag_210\n      jump\t// in\n    tag_231:\n        /* \"#utility.yul\":6275:6414   */\n      swap1\n      pop\n        /* \"#utility.yul\":6002:6421   */\n      swap2\n      swap1\n      pop\n      jump\t// out\n        /* \"#utility.yul\":6427:6649   */\n    tag_25:\n        /* \"#utility.yul\":6520:6524   */\n      0x00\n        /* \"#utility.yul\":6558:6560   */\n      0x20\n        /* \"#utility.yul\":6547:6556   */\n      dup3\n        /* \"#utility.yul\":6543:6561   */\n      add\n        /* \"#utility.yul\":6535:6561   */\n      swap1\n      pop\n        /* \"#utility.yul\":6571:6642   */\n      tag_233\n        /* \"#utility.yul\":6639:6640   */\n      0x00\n        /* \"#utility.yul\":6628:6637   */\n      dup4\n        /* \"#utility.yul\":6624:6641   */\n      add\n        /* \"#utility.yul\":6615:6621   */\n      dup5\n        /* \"#utility.yul\":6571:6642   */\n      tag_215\n      jump\t// in\n    tag_233:\n        /* \"#utility.yul\":6427:6649   */\n      swap3\n      swap2\n      pop\n      pop\n      jump\t// out\n        /* \"#utility.yul\":6655:6784   */\n    tag_144:\n        /* \"#utility.yul\":6689:6695   */\n      0x00\n        /* \"#utility.yul\":6716:6736   */\n      tag_235\n      tag_236\n      jump\t// in\n    tag_235:\n        /* \"#utility.yul\":6706:6736   */\n      swap1\n      pop\n        /* \"#utility.yul\":6745:6778   */\n      tag_237\n        /* \"#utility.yul\":6773:6777   */\n      dup3\n        /* \"#utility.yul\":6765:6771   */\n      dup3\n        /* \"#utility.yul\":6745:6778   */\n      tag_238\n      jump\t// in\n    tag_237:\n        /* \"#utility.yul\":6655:6784   */\n      swap2\n      swap1\n      pop\n      jump\t// out\n        /* \"#utility.yul\":6790:6865   */\n    tag_236:\n        /* \"#utility.yul\":6823:6829   */\n      0x00\n        /* \"#utility.yul\":6856:6858   */\n      0x40\n        /* \"#utility.yul\":6850:6859   */\n      mload\n        /* \"#utility.yul\":6840:6859   */\n      swap1\n      pop\n        /* \"#utility.yul\":6790:6865   */\n      swap1\n      jump\t// out\n        /* \"#utility.yul\":6871:7179   */\n    tag_143:\n        /* \"#utility.yul\":6933:6937   */\n      0x00\n        /* \"#utility.yul\":7023:7041   */\n      0xffffffffffffffff\n        /* \"#utility.yul\":7015:7021   */\n      dup3\n        /* \"#utility.yul\":7012:7042   */\n      gt\n        /* \"#utility.yul\":7009:7065   */\n      iszero\n      tag_241\n      jumpi\n        /* \"#utility.yul\":7045:7063   */\n      tag_242\n      tag_243\n      jump\t// in\n    tag_242:\n        /* \"#utility.yul\":7009:7065   */\n    tag_241:\n        /* \"#utility.yul\":7083:7112   */\n      tag_244\n        /* \"#utility.yul\":7105:7111   */\n      dup3\n        /* \"#utility.yul\":7083:7112   */\n      tag_204\n      jump\t// in\n    tag_244:\n        /* \"#utility.yul\":7075:7112   */\n      swap1\n      pop\n        /* \"#utility.yul\":7167:7171   */\n      0x20\n        /* \"#utility.yul\":7161:7165   */\n      dup2\n        /* \"#utility.yul\":7157:7172   */\n      add\n        /* \"#utility.yul\":7149:7172   */\n      swap1\n      pop\n        /* \"#utility.yul\":6871:7179   */\n      swap2\n      swap1\n      pop\n      jump\t// out\n        /* \"#utility.yul\":7185:7284   */\n    tag_198:\n        /* \"#utility.yul\":7237:7243   */\n      0x00\n        /* \"#utility.yul\":7271:7276   */\n      dup2\n        /* \"#utility.yul\":7265:7277   */\n      mload\n        /* \"#utility.yul\":7255:7277   */\n      swap1\n      pop\n        /* \"#utility.yul\":7185:7284   */\n      swap2\n      swap1\n      pop\n      jump\t// out\n        /* \"#utility.yul\":7290:7459   */\n    tag_200:\n        /* \"#utility.yul\":7374:7385   */\n      0x00\n        /* \"#utility.yul\":7408:7414   */\n      dup3\n        /* \"#utility.yul\":7403:7406   */\n      dup3\n        /* \"#utility.yul\":7396:7415   */\n      mstore\n        /* \"#utility.yul\":7448:7452   */\n      0x20\n        /* \"#utility.yul\":7443:7446   */\n      dup3\n        /* \"#utility.yul\":7439:7453   */\n      add\n        /* \"#utility.yul\":7424:7453   */\n      swap1\n      pop\n        /* \"#utility.yul\":7290:7459   */\n      swap3\n      swap2\n      pop\n      pop\n      jump\t// out\n        /* \"#utility.yul\":7465:7770   */\n    tag_88:\n        /* \"#utility.yul\":7505:7508   */\n      0x00\n        /* \"#utility.yul\":7524:7544   */\n      tag_248\n        /* \"#utility.yul\":7542:7543   */\n      dup3\n        /* \"#utility.yul\":7524:7544   */\n      tag_218\n      jump\t// in\n    tag_248:\n        /* \"#utility.yul\":7519:7544   */\n      swap2\n      pop\n        /* \"#utility.yul\":7558:7578   */\n      tag_249\n        /* \"#utility.yul\":7576:7577   */\n      dup4\n        /* \"#utility.yul\":7558:7578   */\n      tag_218\n      jump\t// in\n    tag_249:\n        /* \"#utility.yul\":7553:7578   */\n      swap3\n      pop\n        /* \"#utility.yul\":7712:7713   */\n      dup3\n        /* \"#utility.yul\":7644:7710   */\n      0xffffffffffffffffffffffffffffffffffffffffffffffffffffffffffffffff\n        /* \"#utility.yul\":7640:7714   */\n      sub\n        /* \"#utility.yul\":7637:7638   */\n      dup3\n        /* \"#utility.yul\":7634:7715   */\n      gt\n        /* \"#utility.yul\":7631:7738   */\n      iszero\n      tag_250\n      jumpi\n        /* \"#utility.yul\":7718:7736   */\n      tag_251\n      tag_252\n      jump\t// in\n    tag_251:\n        /* \"#utility.yul\":7631:7738   */\n    tag_250:\n        /* \"#utility.yul\":7762:7763   */\n      dup3\n        /* \"#utility.yul\":7759:7760   */\n      dup3\n        /* \"#utility.yul\":7755:7764   */\n      add\n        /* \"#utility.yul\":7748:7764   */\n      swap1\n      pop\n        /* \"#utility.yul\":7465:7770   */\n      swap3\n      swap2\n      pop\n      pop\n      jump\t// out\n        /* \"#utility.yul\":7776:7961   */\n    tag_86:\n        /* \"#utility.yul\":7816:7817   */\n      0x00\n        /* \"#utility.yul\":7833:7853   */\n      tag_254\n        /* \"#utility.yul\":7851:7852   */\n      dup3\n        /* \"#utility.yul\":7833:7853   */\n      tag_218\n      jump\t// in\n    tag_254:\n        /* \"#utility.yul\":7828:7853   */\n      swap2\n      pop\n        /* \"#utility.yul\":7867:7887   */\n      tag_255\n        /* \"#utility.yul\":7885:7886   */\n      dup4\n        /* \"#utility.yul\":7867:7887   */\n      tag_218\n      jump\t// in\n    tag_255:\n        /* \"#utility.yul\":7862:7887   */\n      swap3\n      pop\n        /* \"#utility.yul\":7906:7907   */\n      dup3\n        /* \"#utility.yul\":7896:7931   */\n      tag_256\n      jumpi\n        /* \"#utility.yul\":7911:7929   */\n      tag_257\n      tag_258\n      jump\t// in\n    tag_257:\n        /* \"#utility.yul\":7896:7931   */\n    tag_256:\n        /* \"#utility.yul\":7953:7954   */\n      dup3\n        /* \"#utility.yul\":7950:7951   */\n      dup3\n        /* \"#utility.yul\":7946:7955   */\n      div\n        /* \"#utility.yul\":7941:7955   */\n      swap1\n      pop\n        /* \"#utility.yul\":7776:7961   */\n      swap3\n      swap2\n      pop\n      pop\n      jump\t// out\n        /* \"#utility.yul\":7967:8063   */\n    tag_190:\n        /* \"#utility.yul\":8004:8011   */\n      0x00\n        /* \"#utility.yul\":8033:8057   */\n      tag_260\n        /* \"#utility.yul\":8051:8056   */\n      dup3\n        /* \"#utility.yul\":8033:8057   */\n      tag_261\n      jump\t// in\n    tag_260:\n        /* \"#utility.yul\":8022:8057   */\n      swap1\n      pop\n        /* \"#utility.yul\":7967:8063   */\n      swap2\n      swap1\n      pop\n      jump\t// out\n        /* \"#utility.yul\":8069:8159   */\n    tag_194:\n        /* \"#utility.yul\":8103:8110   */\n      0x00\n        /* \"#utility.yul\":8146:8151   */\n      dup2\n        /* \"#utility.yul\":8139:8152   */\n      iszero\n        /* \"#utility.yul\":8132:8153   */\n      iszero\n        /* \"#utility.yul\":8121:8153   */\n      swap1\n      pop\n        /* \"#utility.yul\":8069:8159   */\n      swap2\n      swap1\n      pop\n      jump\t// out\n        /* \"#utility.yul\":8165:8291   */\n    tag_261:\n        /* \"#utility.yul\":8202:8209   */\n      0x00\n        /* \"#utility.yul\":8242:8284   */\n      0xffffffffffffffffffffffffffffffffffffffff\n        /* \"#utility.yul\":8235:8240   */\n      dup3\n        /* \"#utility.yul\":8231:8285   */\n      and\n        /* \"#utility.yul\":8220:8285   */\n      swap1\n      pop\n        /* \"#utility.yul\":8165:8291   */\n      swap2\n      swap1\n      pop\n      jump\t// out\n        /* \"#utility.yul\":8297:8374   */\n    tag_218:\n        /* \"#utility.yul\":8334:8341   */\n      0x00\n        /* \"#utility.yul\":8363:8368   */\n      dup2\n        /* \"#utility.yul\":8352:8368   */\n      swap1\n      pop\n        /* \"#utility.yul\":8297:8374   */\n      swap2\n      swap1\n      pop\n      jump\t// out\n        /* \"#utility.yul\":8380:8534   */\n    tag_149:\n        /* \"#utility.yul\":8464:8470   */\n      dup3\n        /* \"#utility.yul\":8459:8462   */\n      dup2\n        /* \"#utility.yul\":8454:8457   */\n      dup4\n        /* \"#utility.yul\":8441:8471   */\n      calldatacopy\n        /* \"#utility.yul\":8526:8527   */\n      0x00\n        /* \"#utility.yul\":8517:8523   */\n      dup4\n        /* \"#utility.yul\":8512:8515   */\n      dup4\n        /* \"#utility.yul\":8508:8524   */\n      add\n        /* \"#utility.yul\":8501:8528   */\n      mstore\n        /* \"#utility.yul\":8380:8534   */\n      pop\n      pop\n      pop\n      jump\t// out\n        /* \"#utility.yul\":8540:8847   */\n    tag_202:\n        /* \"#utility.yul\":8608:8609   */\n      0x00\n        /* \"#utility.yul\":8618:8731   */\n    tag_267:\n        /* \"#utility.yul\":8632:8638   */\n      dup4\n        /* \"#utility.yul\":8629:8630   */\n      dup2\n        /* \"#utility.yul\":8626:8639   */\n      lt\n        /* \"#utility.yul\":8618:8731   */\n      iszero\n      tag_269\n      jumpi\n        /* \"#utility.yul\":8717:8718   */\n      dup1\n        /* \"#utility.yul\":8712:8715   */\n      dup3\n        /* \"#utility.yul\":8708:8719   */\n      add\n        /* \"#utility.yul\":8702:8720   */\n      mload\n        /* \"#utility.yul\":8698:8699   */\n      dup2\n        /* \"#utility.yul\":8693:8696   */\n      dup5\n        /* \"#utility.yul\":8689:8700   */\n      add\n        /* \"#utility.yul\":8682:8721   */\n      mstore\n        /* \"#utility.yul\":8654:8656   */\n      0x20\n        /* \"#utility.yul\":8651:8652   */\n      dup2\n        /* \"#utility.yul\":8647:8657   */\n      add\n        /* \"#utility.yul\":8642:8657   */\n      swap1\n      pop\n        /* \"#utility.yul\":8618:8731   */\n      jump(tag_267)\n    tag_269:\n        /* \"#utility.yul\":8749:8755   */\n      dup4\n        /* \"#utility.yul\":8746:8747   */\n      dup2\n        /* \"#utility.yul\":8743:8756   */\n      gt\n        /* \"#utility.yul\":8740:8841   */\n      iszero\n      tag_270\n      jumpi\n        /* \"#utility.yul\":8829:8830   */\n      0x00\n        /* \"#utility.yul\":8820:8826   */\n      dup5\n        /* \"#utility.yul\":8815:8818   */\n      dup5\n        /* \"#utility.yul\":8811:8827   */\n      add\n        /* \"#utility.yul\":8804:8831   */\n      mstore\n        /* \"#utility.yul\":8740:8841   */\n    tag_270:\n        /* \"#utility.yul\":8589:8847   */\n      pop\n        /* \"#utility.yul\":8540:8847   */\n      pop\n      pop\n      pop\n      jump\t// out\n        /* \"#utility.yul\":8853:9173   */\n    tag_59:\n        /* \"#utility.yul\":8897:8903   */\n      0x00\n        /* \"#utility.yul\":8934:8935   */\n      0x02\n        /* \"#utility.yul\":8928:8932   */\n      dup3\n        /* \"#utility.yul\":8924:8936   */\n      div\n        /* \"#utility.yul\":8914:8936   */\n      swap1\n      pop\n        /* \"#utility.yul\":8981:8982   */\n      0x01\n        /* \"#utility.yul\":8975:8979   */\n      dup3\n        /* \"#utility.yul\":8971:8983   */\n      and\n        /* \"#utility.yul\":9002:9020   */\n      dup1\n        /* \"#utility.yul\":8992:9073   */\n      tag_272\n      jumpi\n        /* \"#utility.yul\":9058:9062   */\n      0x7f\n        /* \"#utility.yul\":9050:9056   */\n      dup3\n        /* \"#utility.yul\":9046:9063   */\n      and\n        /* \"#utility.yul\":9036:9063   */\n      swap2\n      pop\n        /* \"#utility.yul\":8992:9073   */\n    tag_272:\n        /* \"#utility.yul\":9120:9122   */\n      0x20\n        /* \"#utility.yul\":9112:9118   */\n      dup3\n        /* \"#utility.yul\":9109:9123   */\n      lt\n        /* \"#utility.yul\":9089:9107   */\n      dup2\n        /* \"#utility.yul\":9086:9124   */\n      eq\n        /* \"#utility.yul\":9083:9167   */\n      iszero\n      tag_273\n      jumpi\n        /* \"#utility.yul\":9139:9157   */\n      tag_274\n      tag_275\n      jump\t// in\n    tag_274:\n        /* \"#utility.yul\":9083:9167   */\n    tag_273:\n        /* \"#utility.yul\":8904:9173   */\n      pop\n        /* \"#utility.yul\":8853:9173   */\n      swap2\n      swap1\n      pop\n      jump\t// out\n        /* \"#utility.yul\":9179:9460   */\n    tag_238:\n        /* \"#utility.yul\":9262:9289   */\n      tag_277\n        /* \"#utility.yul\":9284:9288   */\n      dup3\n        /* \"#utility.yul\":9262:9289   */\n      tag_204\n      jump\t// in\n    tag_277:\n        /* \"#utility.yul\":9254:9260   */\n      dup2\n        /* \"#utility.yul\":9250:9290   */\n      add\n        /* \"#utility.yul\":9392:9398   */\n      dup2\n        /* \"#utility.yul\":9380:9390   */\n      dup2\n        /* \"#utility.yul\":9377:9399   */\n      lt\n        /* \"#utility.yul\":9356:9374   */\n      0xffffffffffffffff\n        /* \"#utility.yul\":9344:9354   */\n      dup3\n        /* \"#utility.yul\":9341:9375   */\n      gt\n        /* \"#utility.yul\":9338:9400   */\n      or\n        /* \"#utility.yul\":9335:9423   */\n      iszero\n      tag_278\n      jumpi\n        /* \"#utility.yul\":9403:9421   */\n      tag_279\n      tag_243\n      jump\t// in\n    tag_279:\n        /* \"#utility.yul\":9335:9423   */\n    tag_278:\n        /* \"#utility.yul\":9443:9453   */\n      dup1\n        /* \"#utility.yul\":9439:9441   */\n      0x40\n        /* \"#utility.yul\":9432:9454   */\n      mstore\n        /* \"#utility.yul\":9222:9460   */\n      pop\n        /* \"#utility.yul\":9179:9460   */\n      pop\n      pop\n      jump\t// out\n        /* \"#utility.yul\":9466:9699   */\n    tag_70:\n        /* \"#utility.yul\":9505:9508   */\n      0x00\n        /* \"#utility.yul\":9528:9552   */\n      tag_281\n        /* \"#utility.yul\":9546:9551   */\n      dup3\n        /* \"#utility.yul\":9528:9552   */\n      tag_218\n      jump\t// in\n    tag_281:\n        /* \"#utility.yul\":9519:9552   */\n      swap2\n      pop\n        /* \"#utility.yul\":9574:9640   */\n      0xffffffffffffffffffffffffffffffffffffffffffffffffffffffffffffffff\n        /* \"#utility.yul\":9567:9572   */\n      dup3\n        /* \"#utility.yul\":9564:9641   */\n      eq\n        /* \"#utility.yul\":9561:9664   */\n      iszero\n      tag_282\n      jumpi\n        /* \"#utility.yul\":9644:9662   */\n      tag_283\n      tag_252\n      jump\t// in\n    tag_283:\n        /* \"#utility.yul\":9561:9664   */\n    tag_282:\n        /* \"#utility.yul\":9691:9692   */\n      0x01\n        /* \"#utility.yul\":9684:9689   */\n      dup3\n        /* \"#utility.yul\":9680:9693   */\n      add\n        /* \"#utility.yul\":9673:9693   */\n      swap1\n      pop\n        /* \"#utility.yul\":9466:9699   */\n      swap2\n      swap1\n      pop\n      jump\t// out\n        /* \"#utility.yul\":9705:9885   */\n    tag_252:\n        /* \"#utility.yul\":9753:9830   */\n      0x4e487b7100000000000000000000000000000000000000000000000000000000\n        /* \"#utility.yul\":9750:9751   */\n      0x00\n        /* \"#utility.yul\":9743:9831   */\n      mstore\n        /* \"#utility.yul\":9850:9854   */\n      0x11\n        /* \"#utility.yul\":9847:9848   */\n      0x04\n        /* \"#utility.yul\":9840:9855   */\n      mstore\n        /* \"#utility.yul\":9874:9878   */\n      0x24\n        /* \"#utility.yul\":9871:9872   */\n      0x00\n        /* \"#utility.yul\":9864:9879   */\n      revert\n        /* \"#utility.yul\":9891:10071   */\n    tag_258:\n        /* \"#utility.yul\":9939:10016   */\n      0x4e487b7100000000000000000000000000000000000000000000000000000000\n        /* \"#utility.yul\":9936:9937   */\n      0x00\n        /* \"#utility.yul\":9929:10017   */\n      mstore\n        /* \"#utility.yul\":10036:10040   */\n      0x12\n        /* \"#utility.yul\":10033:10034   */\n      0x04\n        /* \"#utility.yul\":10026:10041   */\n      mstore\n        /* \"#utility.yul\":10060:10064   */\n      0x24\n        /* \"#utility.yul\":10057:10058   */\n      0x00\n        /* \"#utility.yul\":10050:10065   */\n      revert\n        /* \"#utility.yul\":10077:10257   */\n    tag_275:\n        /* \"#utility.yul\":10125:10202   */\n      0x4e487b7100000000000000000000000000000000000000000000000000000000\n        /* \"#utility.yul\":10122:10123   */\n      0x00\n        /* \"#utility.yul\":10115:10203   */\n      mstore\n        /* \"#utility.yul\":10222:10226   */\n      0x22\n        /* \"#utility.yul\":10219:10220   */\n      0x04\n        /* \"#utility.yul\":10212:10227   */\n      mstore\n        /* \"#utility.yul\":10246:10250   */\n      0x24\n        /* \"#utility.yul\":10243:10244   */\n      0x00\n        /* \"#utility.yul\":10236:10251   */\n      revert\n        /* \"#utility.yul\":10263:10443   */\n    tag_243:\n        /* \"#utility.yul\":10311:10388   */\n      0x4e487b7100000000000000000000000000000000000000000000000000000000\n        /* \"#utility.yul\":10308:10309   */\n      0x00\n        /* \"#utility.yul\":10301:10389   */\n      mstore\n        /* \"#utility.yul\":10408:10412   */\n      0x41\n        /* \"#utility.yul\":10405:10406   */\n      0x04\n        /* \"#utility.yul\":10398:10413   */\n      mstore\n        /* \"#utility.yul\":10432:10436   */\n      0x24\n        /* \"#utility.yul\":10429:10430   */\n      0x00\n        /* \"#utility.yul\":10422:10437   */\n      revert\n        /* \"#utility.yul\":10449:10566   */\n    tag_158:\n        /* \"#utility.yul\":10558:10559   */\n      0x00\n        /* \"#utility.yul\":10555:10556   */\n      dup1\n        /* \"#utility.yul\":10548:10560   */\n      revert\n        /* \"#utility.yul\":10572:10689   */\n    tag_147:\n        /* \"#utility.yul\":10681:10682   */\n      0x00\n        /* \"#utility.yul\":10678:10679   */\n      dup1\n        /* \"#utility.yul\":10671:10683   */\n      revert\n        /* \"#utility.yul\":10695:10812   */\n    tag_175:\n        /* \"#utility.yul\":10804:10805   */\n      0x00\n        /* \"#utility.yul\":10801:10802   */\n      dup1\n        /* \"#utility.yul\":10794:10806   */\n      revert\n        /* \"#utility.yul\":10818:10935   */\n    tag_167:\n        /* \"#utility.yul\":10927:10928   */\n      0x00\n        /* \"#utility.yul\":10924:10925   */\n      dup1\n        /* \"#utility.yul\":10917:10929   */\n      revert\n        /* \"#utility.yul\":10941:11043   */\n    tag_204:\n        /* \"#utility.yul\":10982:10988   */\n      0x00\n        /* \"#utility.yul\":11033:11035   */\n      0x1f\n        /* \"#utility.yul\":11029:11036   */\n      not\n        /* \"#utility.yul\":11024:11026   */\n      0x1f\n        /* \"#utility.yul\":11017:11022   */\n      dup4\n        /* \"#utility.yul\":11013:11027   */\n      add\n        /* \"#utility.yul\":11009:11037   */\n      and\n        /* \"#utility.yul\":10999:11037   */\n      swap1\n      pop\n        /* \"#utility.yul\":10941:11043   */\n      swap2\n      swap1\n      pop\n      jump\t// out\n        /* \"#utility.yul\":11049:11272   */\n    tag_209:\n        /* \"#utility.yul\":11189:11223   */\n      0x43616e20766f7465206f6e6c79207768696c6520766f74696e67206973206f70\n        /* \"#utility.yul\":11185:11186   */\n      0x00\n        /* \"#utility.yul\":11177:11183   */\n      dup3\n        /* \"#utility.yul\":11173:11187   */\n      add\n        /* \"#utility.yul\":11166:11224   */\n      mstore\n        /* \"#utility.yul\":11258:11264   */\n      0x656e202e00000000000000000000000000000000000000000000000000000000\n        /* \"#utility.yul\":11253:11255   */\n      0x20\n        /* \"#utility.yul\":11245:11251   */\n      dup3\n        /* \"#utility.yul\":11241:11256   */\n      add\n        /* \"#utility.yul\":11234:11265   */\n      mstore\n        /* \"#utility.yul\":11049:11272   */\n      pop\n      jump\t// out\n        /* \"#utility.yul\":11278:11500   */\n    tag_214:\n        /* \"#utility.yul\":11418:11452   */\n      0x43616e206f6e6c7920626520657865637574656420627920746865206d616e61\n        /* \"#utility.yul\":11414:11415   */\n      0x00\n        /* \"#utility.yul\":11406:11412   */\n      dup3\n        /* \"#utility.yul\":11402:11416   */\n      add\n        /* \"#utility.yul\":11395:11453   */\n      mstore\n        /* \"#utility.yul\":11487:11492   */\n      0x6765720000000000000000000000000000000000000000000000000000000000\n        /* \"#utility.yul\":11482:11484   */\n      0x20\n        /* \"#utility.yul\":11474:11480   */\n      dup3\n        /* \"#utility.yul\":11470:11485   */\n      add\n        /* \"#utility.yul\":11463:11493   */\n      mstore\n        /* \"#utility.yul\":11278:11500   */\n      pop\n      jump\t// out\n        /* \"#utility.yul\":11506:11628   */\n    tag_153:\n        /* \"#utility.yul\":11579:11603   */\n      tag_296\n        /* \"#utility.yul\":11597:11602   */\n      dup2\n        /* \"#utility.yul\":11579:11603   */\n      tag_190\n      jump\t// in\n    tag_296:\n        /* \"#utility.yul\":11572:11577   */\n      dup2\n        /* \"#utility.yul\":11569:11604   */\n      eq\n        /* \"#utility.yul\":11559:11622   */\n      tag_297\n      jumpi\n        /* \"#utility.yul\":11618:11619   */\n      0x00\n        /* \"#utility.yul\":11615:11616   */\n      dup1\n        /* \"#utility.yul\":11608:11620   */\n      revert\n        /* \"#utility.yul\":11559:11622   */\n    tag_297:\n        /* \"#utility.yul\":11506:11628   */\n      pop\n      jump\t// out\n        /* \"#utility.yul\":11634:11756   */\n    tag_163:\n        /* \"#utility.yul\":11707:11731   */\n      tag_299\n        /* \"#utility.yul\":11725:11730   */\n      dup2\n        /* \"#utility.yul\":11707:11731   */\n      tag_218\n      jump\t// in\n    tag_299:\n        /* \"#utility.yul\":11700:11705   */\n      dup2\n        /* \"#utility.yul\":11697:11732   */\n      eq\n        /* \"#utility.yul\":11687:11750   */\n      tag_300\n      jumpi\n        /* \"#utility.yul\":11746:11747   */\n      0x00\n        /* \"#utility.yul\":11743:11744   */\n      dup1\n        /* \"#utility.yul\":11736:11748   */\n      revert\n        /* \"#utility.yul\":11687:11750   */\n    tag_300:\n        /* \"#utility.yul\":11634:11756   */\n      pop\n      jump\t// out\n\n    auxdata: 0xa264697066735822122046a20cb45d380f935f4459d3f462b18e2230b05fa67437dd1e8207114d72cd6064736f6c63430008070033\n}\n",
				"bytecode": {
					"linkReferences": {},
					"object": "608060405260006002556000600355600060045560405180602001604052806000815250600690805190602001906200003a929190620000ab565b506001600960006101000a81548160ff0219169083151502179055503480156200006357600080fd5b5033600560006101000a81548173ffffffffffffffffffffffffffffffffffffffff021916908373ffffffffffffffffffffffffffffffffffffffff160217905550620001c0565b828054620000b9906200015b565b90600052602060002090601f016020900481019282620000dd576000855562000129565b82601f10620000f857805160ff191683800117855562000129565b8280016001018555821562000129579182015b82811115620001285782518255916020019190600101906200010b565b5b5090506200013891906200013c565b5090565b5b80821115620001575760008160009055506001016200013d565b5090565b600060028204905060018216806200017457607f821691505b602082108114156200018b576200018a62000191565b5b50919050565b7f4e487b7100000000000000000000000000000000000000000000000000000000600052602260045260246000fd5b6112a080620001d06000396000f3fe608060405234801561001057600080fd5b506004361061009e5760003560e01c80631ddabf7a116100665780631ddabf7a1461016f5780633b9f708d146101a057806347098f36146101d0578063481c6a75146101ee578063a3bef4d71461020c5761009e565b806302daf12f146100a357806302ee93c8146100d35780630843d16d14610103578063124258c6146101215780631635b5d314610151575b600080fd5b6100bd60048036038101906100b89190610cd2565b61022a565b6040516100ca9190610de1565b60405180910390f35b6100ed60048036038101906100e89190610c89565b6102ca565b6040516100fa9190610e73565b60405180910390f35b61010b6103a7565b6040516101189190610e73565b60405180910390f35b61013b60048036038101906101369190610cd2565b6103ad565b6040516101489190610dc6565b60405180910390f35b6101596105e3565b6040516101669190610de1565b60405180910390f35b61018960048036038101906101849190610c00565b610671565b604051610197929190610e03565b60405180910390f35b6101ba60048036038101906101b59190610c2d565b61072a565b6040516101c79190610e73565b60405180910390f35b6101d8610882565b6040516101e59190610e73565b60405180910390f35b6101f6610888565b6040516102039190610dab565b60405180910390f35b6102146108ae565b6040516102219190610e73565b60405180910390f35b6000602052806000526040600020600091509050805461024990611011565b80601f016020809104026020016040519081016040528092919081815260200182805461027590611011565b80156102c25780601f10610297576101008083540402835291602001916102c2565b820191906000526020600020905b8154815290600101906020018083116102a557829003601f168201915b505050505081565b6000600560009054906101000a900473ffffffffffffffffffffffffffffffffffffffff1673ffffffffffffffffffffffffffffffffffffffff163373ffffffffffffffffffffffffffffffffffffffff161461035c576040517f08c379a000000000000000000000000000000000000000000000000000000000815260040161035390610e53565b60405180910390fd5b6002600081548092919061036f90611074565b9190505550816000806002548152602001908152602001600020908051906020019061039c9291906109ea565b506002549050919050565b60025481565b600060011515600960009054906101000a900460ff16151514610405576040517f08c379a00000000000000000000000000000000000000000000000000000000081526004016103fc90610e33565b60405180910390fd5b600090506000600160003373ffffffffffffffffffffffffffffffffffffffff1673ffffffffffffffffffffffffffffffffffffffff168152602001908152602001600020600001805461045890611011565b9050146105b2576000806000848152602001908152602001600020805461047e90611011565b9050146105b1576001905060018060003373ffffffffffffffffffffffffffffffffffffffff1673ffffffffffffffffffffffffffffffffffffffff16815260200190815260200160002060010160006101000a81548160ff0219169083151502179055506104eb610a70565b33816000019073ffffffffffffffffffffffffffffffffffffffff16908173ffffffffffffffffffffffffffffffffffffffff1681525050828160200181815250506004600081548092919061054090611074565b91905055508060076000600454815260200190815260200160002060008201518160000160006101000a81548173ffffffffffffffffffffffffffffffffffffffff021916908373ffffffffffffffffffffffffffffffffffffffff16021790555060208201518160010155905050505b5b600160026003546105c39190610f56565b6105cd9190610f00565b600454106105de576105dd6108b4565b5b919050565b600680546105f090611011565b80601f016020809104026020016040519081016040528092919081815260200182805461061c90611011565b80156106695780601f1061063e57610100808354040283529160200191610669565b820191906000526020600020905b81548152906001019060200180831161064c57829003601f168201915b505050505081565b600160205280600052604060002060009150905080600001805461069490611011565b80601f01602080910402602001604051908101604052809291908181526020018280546106c090611011565b801561070d5780601f106106e25761010080835404028352916020019161070d565b820191906000526020600020905b8154815290600101906020018083116106f057829003601f168201915b5050505050908060010160009054906101000a900460ff16905082565b6000600560009054906101000a900473ffffffffffffffffffffffffffffffffffffffff1673ffffffffffffffffffffffffffffffffffffffff163373ffffffffffffffffffffffffffffffffffffffff16146107bc576040517f08c379a00000000000000000000000000000000000000000000000000000000081526004016107b390610e53565b60405180910390fd5b6107c4610aa0565b828160000181905250600081602001901515908115158152505080600160008673ffffffffffffffffffffffffffffffffffffffff1673ffffffffffffffffffffffffffffffffffffffff168152602001908152602001600020600082015181600001908051906020019061083a9291906109ea565b5060208201518160010160006101000a81548160ff0219169083151502179055509050506003600081548092919061087190611074565b919050555060035491505092915050565b60035481565b600560009054906101000a900473ffffffffffffffffffffffffffffffffffffffff1681565b60045481565b6000806000600190505b600454811161099e576000600190506000600860006007600086815260200190815260200160002060010154815260200190815260200160002054111561093757600860006007600085815260200190815260200160002060010154815260200190815260200160002054816109349190610f00565b90505b806008600060076000868152602001908152602001600020600101548152602001908152602001600020819055508381111561098a57809350600760008381526020019081526020016000206001015492505b50808061099690611074565b9150506108be565b5060008082815260200190815260200160002060069080546109bf90611011565b6109ca929190610abc565b506000600960006101000a81548160ff0219169083151502179055505050565b8280546109f690611011565b90600052602060002090601f016020900481019282610a185760008555610a5f565b82601f10610a3157805160ff1916838001178555610a5f565b82800160010185558215610a5f579182015b82811115610a5e578251825591602001919060010190610a43565b5b509050610a6c9190610b49565b5090565b6040518060400160405280600073ffffffffffffffffffffffffffffffffffffffff168152602001600081525090565b6040518060400160405280606081526020016000151581525090565b828054610ac890611011565b90600052602060002090601f016020900481019282610aea5760008555610b38565b82601f10610afb5780548555610b38565b82800160010185558215610b3857600052602060002091601f016020900482015b82811115610b37578254825591600101919060010190610b1c565b5b509050610b459190610b49565b5090565b5b80821115610b62576000816000905550600101610b4a565b5090565b6000610b79610b7484610eb3565b610e8e565b905082815260208101848484011115610b9557610b9461117e565b5b610ba0848285610fcf565b509392505050565b600081359050610bb78161123c565b92915050565b600082601f830112610bd257610bd1611179565b5b8135610be2848260208601610b66565b91505092915050565b600081359050610bfa81611253565b92915050565b600060208284031215610c1657610c15611188565b5b6000610c2484828501610ba8565b91505092915050565b60008060408385031215610c4457610c43611188565b5b6000610c5285828601610ba8565b925050602083013567ffffffffffffffff811115610c7357610c72611183565b5b610c7f85828601610bbd565b9150509250929050565b600060208284031215610c9f57610c9e611188565b5b600082013567ffffffffffffffff811115610cbd57610cbc611183565b5b610cc984828501610bbd565b91505092915050565b600060208284031215610ce857610ce7611188565b5b6000610cf684828501610beb565b91505092915050565b610d0881610f87565b82525050565b610d1781610f99565b82525050565b6000610d2882610ee4565b610d328185610eef565b9350610d42818560208601610fde565b610d4b8161118d565b840191505092915050565b6000610d63602483610eef565b9150610d6e8261119e565b604082019050919050565b6000610d86602383610eef565b9150610d91826111ed565b604082019050919050565b610da581610fc5565b82525050565b6000602082019050610dc06000830184610cff565b92915050565b6000602082019050610ddb6000830184610d0e565b92915050565b60006020820190508181036000830152610dfb8184610d1d565b905092915050565b60006040820190508181036000830152610e1d8185610d1d565b9050610e2c6020830184610d0e565b9392505050565b60006020820190508181036000830152610e4c81610d56565b9050919050565b60006020820190508181036000830152610e6c81610d79565b9050919050565b6000602082019050610e886000830184610d9c565b92915050565b6000610e98610ea9565b9050610ea48282611043565b919050565b6000604051905090565b600067ffffffffffffffff821115610ece57610ecd61114a565b5b610ed78261118d565b9050602081019050919050565b600081519050919050565b600082825260208201905092915050565b6000610f0b82610fc5565b9150610f1683610fc5565b9250827fffffffffffffffffffffffffffffffffffffffffffffffffffffffffffffffff03821115610f4b57610f4a6110bd565b5b828201905092915050565b6000610f6182610fc5565b9150610f6c83610fc5565b925082610f7c57610f7b6110ec565b5b828204905092915050565b6000610f9282610fa5565b9050919050565b60008115159050919050565b600073ffffffffffffffffffffffffffffffffffffffff82169050919050565b6000819050919050565b82818337600083830152505050565b60005b83811015610ffc578082015181840152602081019050610fe1565b8381111561100b576000848401525b50505050565b6000600282049050600182168061102957607f821691505b6020821081141561103d5761103c61111b565b5b50919050565b61104c8261118d565b810181811067ffffffffffffffff8211171561106b5761106a61114a565b5b80604052505050565b600061107f82610fc5565b91507fffffffffffffffffffffffffffffffffffffffffffffffffffffffffffffffff8214156110b2576110b16110bd565b5b600182019050919050565b7f4e487b7100000000000000000000000000000000000000000000000000000000600052601160045260246000fd5b7f4e487b7100000000000000000000000000000000000000000000000000000000600052601260045260246000fd5b7f4e487b7100000000000000000000000000000000000000000000000000000000600052602260045260246000fd5b7f4e487b7100000000000000000000000000000000000000000000000000000000600052604160045260246000fd5b600080fd5b600080fd5b600080fd5b600080fd5b6000601f19601f8301169050919050565b7f43616e20766f7465206f6e6c79207768696c6520766f74696e67206973206f7060008201527f656e202e00000000000000000000000000000000000000000000000000000000602082015250565b7f43616e206f6e6c7920626520657865637574656420627920746865206d616e6160008201527f6765720000000000000000000000000000000000000000000000000000000000602082015250565b61124581610f87565b811461125057600080fd5b50565b61125c81610fc5565b811461126757600080fd5b5056fea264697066735822122046a20cb45d380f935f4459d3f462b18e2230b05fa67437dd1e8207114d72cd6064736f6c63430008070033",
					"opcodes": "PUSH1 0x80 PUSH1 0x40 MSTORE PUSH1 0x0 PUSH1 0x2 SSTORE PUSH1 0x0 PUSH1 0x3 SSTORE PUSH1 0x0 PUSH1 0x4 SSTORE PUSH1 0x40 MLOAD DUP1 PUSH1 0x20 ADD PUSH1 0x40 MSTORE DUP1 PUSH1 0x0 DUP2 MSTORE POP PUSH1 0x6 SWAP1 DUP1 MLOAD SWAP1 PUSH1 0x20 ADD SWAP1 PUSH3 0x3A SWAP3 SWAP2 SWAP1 PUSH3 0xAB JUMP JUMPDEST POP PUSH1 0x1 PUSH1 0x9 PUSH1 0x0 PUSH2 0x100 EXP DUP2 SLOAD DUP2 PUSH1 0xFF MUL NOT AND SWAP1 DUP4 ISZERO ISZERO MUL OR SWAP1 SSTORE POP CALLVALUE DUP1 ISZERO PUSH3 0x63 JUMPI PUSH1 0x0 DUP1 REVERT JUMPDEST POP CALLER PUSH1 0x5 PUSH1 0x0 PUSH2 0x100 EXP DUP2 SLOAD DUP2 PUSH20 0xFFFFFFFFFFFFFFFFFFFFFFFFFFFFFFFFFFFFFFFF MUL NOT AND SWAP1 DUP4 PUSH20 0xFFFFFFFFFFFFFFFFFFFFFFFFFFFFFFFFFFFFFFFF AND MUL OR SWAP1 SSTORE POP PUSH3 0x1C0 JUMP JUMPDEST DUP3 DUP1 SLOAD PUSH3 0xB9 SWAP1 PUSH3 0x15B JUMP JUMPDEST SWAP1 PUSH1 0x0 MSTORE PUSH1 0x20 PUSH1 0x0 KECCAK256 SWAP1 PUSH1 0x1F ADD PUSH1 0x20 SWAP1 DIV DUP2 ADD SWAP3 DUP3 PUSH3 0xDD JUMPI PUSH1 0x0 DUP6 SSTORE PUSH3 0x129 JUMP JUMPDEST DUP3 PUSH1 0x1F LT PUSH3 0xF8 JUMPI DUP1 MLOAD PUSH1 0xFF NOT AND DUP4 DUP1 ADD OR DUP6 SSTORE PUSH3 0x129 JUMP JUMPDEST DUP3 DUP1 ADD PUSH1 0x1 ADD DUP6 SSTORE DUP3 ISZERO PUSH3 0x129 JUMPI SWAP2 DUP3 ADD JUMPDEST DUP3 DUP2 GT ISZERO PUSH3 0x128 JUMPI DUP3 MLOAD DUP3 SSTORE SWAP2 PUSH1 0x20 ADD SWAP2 SWAP1 PUSH1 0x1 ADD SWAP1 PUSH3 0x10B JUMP JUMPDEST JUMPDEST POP SWAP1 POP PUSH3 0x138 SWAP2 SWAP1 PUSH3 0x13C JUMP JUMPDEST POP SWAP1 JUMP JUMPDEST JUMPDEST DUP1 DUP3 GT ISZERO PUSH3 0x157 JUMPI PUSH1 0x0 DUP2 PUSH1 0x0 SWAP1 SSTORE POP PUSH1 0x1 ADD PUSH3 0x13D JUMP JUMPDEST POP SWAP1 JUMP JUMPDEST PUSH1 0x0 PUSH1 0x2 DUP3 DIV SWAP1 POP PUSH1 0x1 DUP3 AND DUP1 PUSH3 0x174 JUMPI PUSH1 0x7F DUP3 AND SWAP2 POP JUMPDEST PUSH1 0x20 DUP3 LT DUP2 EQ ISZERO PUSH3 0x18B JUMPI PUSH3 0x18A PUSH3 0x191 JUMP JUMPDEST JUMPDEST POP SWAP2 SWAP1 POP JUMP JUMPDEST PUSH32 0x4E487B7100000000000000000000000000000000000000000000000000000000 PUSH1 0x0 MSTORE PUSH1 0x22 PUSH1 0x4 MSTORE PUSH1 0x24 PUSH1 0x0 REVERT JUMPDEST PUSH2 0x12A0 DUP1 PUSH3 0x1D0 PUSH1 0x0 CODECOPY PUSH1 0x0 RETURN INVALID PUSH1 0x80 PUSH1 0x40 MSTORE CALLVALUE DUP1 ISZERO PUSH2 0x10 JUMPI PUSH1 0x0 DUP1 REVERT JUMPDEST POP PUSH1 0x4 CALLDATASIZE LT PUSH2 0x9E JUMPI PUSH1 0x0 CALLDATALOAD PUSH1 0xE0 SHR DUP1 PUSH4 0x1DDABF7A GT PUSH2 0x66 JUMPI DUP1 PUSH4 0x1DDABF7A EQ PUSH2 0x16F JUMPI DUP1 PUSH4 0x3B9F708D EQ PUSH2 0x1A0 JUMPI DUP1 PUSH4 0x47098F36 EQ PUSH2 0x1D0 JUMPI DUP1 PUSH4 0x481C6A75 EQ PUSH2 0x1EE JUMPI DUP1 PUSH4 0xA3BEF4D7 EQ PUSH2 0x20C JUMPI PUSH2 0x9E JUMP JUMPDEST DUP1 PUSH4 0x2DAF12F EQ PUSH2 0xA3 JUMPI DUP1 PUSH4 0x2EE93C8 EQ PUSH2 0xD3 JUMPI DUP1 PUSH4 0x843D16D EQ PUSH2 0x103 JUMPI DUP1 PUSH4 0x124258C6 EQ PUSH2 0x121 JUMPI DUP1 PUSH4 0x1635B5D3 EQ PUSH2 0x151 JUMPI JUMPDEST PUSH1 0x0 DUP1 REVERT JUMPDEST PUSH2 0xBD PUSH1 0x4 DUP1 CALLDATASIZE SUB DUP2 ADD SWAP1 PUSH2 0xB8 SWAP2 SWAP1 PUSH2 0xCD2 JUMP JUMPDEST PUSH2 0x22A JUMP JUMPDEST PUSH1 0x40 MLOAD PUSH2 0xCA SWAP2 SWAP1 PUSH2 0xDE1 JUMP JUMPDEST PUSH1 0x40 MLOAD DUP1 SWAP2 SUB SWAP1 RETURN JUMPDEST PUSH2 0xED PUSH1 0x4 DUP1 CALLDATASIZE SUB DUP2 ADD SWAP1 PUSH2 0xE8 SWAP2 SWAP1 PUSH2 0xC89 JUMP JUMPDEST PUSH2 0x2CA JUMP JUMPDEST PUSH1 0x40 MLOAD PUSH2 0xFA SWAP2 SWAP1 PUSH2 0xE73 JUMP JUMPDEST PUSH1 0x40 MLOAD DUP1 SWAP2 SUB SWAP1 RETURN JUMPDEST PUSH2 0x10B PUSH2 0x3A7 JUMP JUMPDEST PUSH1 0x40 MLOAD PUSH2 0x118 SWAP2 SWAP1 PUSH2 0xE73 JUMP JUMPDEST PUSH1 0x40 MLOAD DUP1 SWAP2 SUB SWAP1 RETURN JUMPDEST PUSH2 0x13B PUSH1 0x4 DUP1 CALLDATASIZE SUB DUP2 ADD SWAP1 PUSH2 0x136 SWAP2 SWAP1 PUSH2 0xCD2 JUMP JUMPDEST PUSH2 0x3AD JUMP JUMPDEST PUSH1 0x40 MLOAD PUSH2 0x148 SWAP2 SWAP1 PUSH2 0xDC6 JUMP JUMPDEST PUSH1 0x40 MLOAD DUP1 SWAP2 SUB SWAP1 RETURN JUMPDEST PUSH2 0x159 PUSH2 0x5E3 JUMP JUMPDEST PUSH1 0x40 MLOAD PUSH2 0x166 SWAP2 SWAP1 PUSH2 0xDE1 JUMP JUMPDEST PUSH1 0x40 MLOAD DUP1 SWAP2 SUB SWAP1 RETURN JUMPDEST PUSH2 0x189 PUSH1 0x4 DUP1 CALLDATASIZE SUB DUP2 ADD SWAP1 PUSH2 0x184 SWAP2 SWAP1 PUSH2 0xC00 JUMP JUMPDEST PUSH2 0x671 JUMP JUMPDEST PUSH1 0x40 MLOAD PUSH2 0x197 SWAP3 SWAP2 SWAP1 PUSH2 0xE03 JUMP JUMPDEST PUSH1 0x40 MLOAD DUP1 SWAP2 SUB SWAP1 RETURN JUMPDEST PUSH2 0x1BA PUSH1 0x4 DUP1 CALLDATASIZE SUB DUP2 ADD SWAP1 PUSH2 0x1B5 SWAP2 SWAP1 PUSH2 0xC2D JUMP JUMPDEST PUSH2 0x72A JUMP JUMPDEST PUSH1 0x40 MLOAD PUSH2 0x1C7 SWAP2 SWAP1 PUSH2 0xE73 JUMP JUMPDEST PUSH1 0x40 MLOAD DUP1 SWAP2 SUB SWAP1 RETURN JUMPDEST PUSH2 0x1D8 PUSH2 0x882 JUMP JUMPDEST PUSH1 0x40 MLOAD PUSH2 0x1E5 SWAP2 SWAP1 PUSH2 0xE73 JUMP JUMPDEST PUSH1 0x40 MLOAD DUP1 SWAP2 SUB SWAP1 RETURN JUMPDEST PUSH2 0x1F6 PUSH2 0x888 JUMP JUMPDEST PUSH1 0x40 MLOAD PUSH2 0x203 SWAP2 SWAP1 PUSH2 0xDAB JUMP JUMPDEST PUSH1 0x40 MLOAD DUP1 SWAP2 SUB SWAP1 RETURN JUMPDEST PUSH2 0x214 PUSH2 0x8AE JUMP JUMPDEST PUSH1 0x40 MLOAD PUSH2 0x221 SWAP2 SWAP1 PUSH2 0xE73 JUMP JUMPDEST PUSH1 0x40 MLOAD DUP1 SWAP2 SUB SWAP1 RETURN JUMPDEST PUSH1 0x0 PUSH1 0x20 MSTORE DUP1 PUSH1 0x0 MSTORE PUSH1 0x40 PUSH1 0x0 KECCAK256 PUSH1 0x0 SWAP2 POP SWAP1 POP DUP1 SLOAD PUSH2 0x249 SWAP1 PUSH2 0x1011 JUMP JUMPDEST DUP1 PUSH1 0x1F ADD PUSH1 0x20 DUP1 SWAP2 DIV MUL PUSH1 0x20 ADD PUSH1 0x40 MLOAD SWAP1 DUP2 ADD PUSH1 0x40 MSTORE DUP1 SWAP3 SWAP2 SWAP1 DUP2 DUP2 MSTORE PUSH1 0x20 ADD DUP3 DUP1 SLOAD PUSH2 0x275 SWAP1 PUSH2 0x1011 JUMP JUMPDEST DUP1 ISZERO PUSH2 0x2C2 JUMPI DUP1 PUSH1 0x1F LT PUSH2 0x297 JUMPI PUSH2 0x100 DUP1 DUP4 SLOAD DIV MUL DUP4 MSTORE SWAP2 PUSH1 0x20 ADD SWAP2 PUSH2 0x2C2 JUMP JUMPDEST DUP3 ADD SWAP2 SWAP1 PUSH1 0x0 MSTORE PUSH1 0x20 PUSH1 0x0 KECCAK256 SWAP1 JUMPDEST DUP2 SLOAD DUP2 MSTORE SWAP1 PUSH1 0x1 ADD SWAP1 PUSH1 0x20 ADD DUP1 DUP4 GT PUSH2 0x2A5 JUMPI DUP3 SWAP1 SUB PUSH1 0x1F AND DUP3 ADD SWAP2 JUMPDEST POP POP POP POP POP DUP2 JUMP JUMPDEST PUSH1 0x0 PUSH1 0x5 PUSH1 0x0 SWAP1 SLOAD SWAP1 PUSH2 0x100 EXP SWAP1 DIV PUSH20 0xFFFFFFFFFFFFFFFFFFFFFFFFFFFFFFFFFFFFFFFF AND PUSH20 0xFFFFFFFFFFFFFFFFFFFFFFFFFFFFFFFFFFFFFFFF AND CALLER PUSH20 0xFFFFFFFFFFFFFFFFFFFFFFFFFFFFFFFFFFFFFFFF AND EQ PUSH2 0x35C JUMPI PUSH1 0x40 MLOAD PUSH32 0x8C379A000000000000000000000000000000000000000000000000000000000 DUP2 MSTORE PUSH1 0x4 ADD PUSH2 0x353 SWAP1 PUSH2 0xE53 JUMP JUMPDEST PUSH1 0x40 MLOAD DUP1 SWAP2 SUB SWAP1 REVERT JUMPDEST PUSH1 0x2 PUSH1 0x0 DUP2 SLOAD DUP1 SWAP3 SWAP2 SWAP1 PUSH2 0x36F SWAP1 PUSH2 0x1074 JUMP JUMPDEST SWAP2 SWAP1 POP SSTORE POP DUP2 PUSH1 0x0 DUP1 PUSH1 0x2 SLOAD DUP2 MSTORE PUSH1 0x20 ADD SWAP1 DUP2 MSTORE PUSH1 0x20 ADD PUSH1 0x0 KECCAK256 SWAP1 DUP1 MLOAD SWAP1 PUSH1 0x20 ADD SWAP1 PUSH2 0x39C SWAP3 SWAP2 SWAP1 PUSH2 0x9EA JUMP JUMPDEST POP PUSH1 0x2 SLOAD SWAP1 POP SWAP2 SWAP1 POP JUMP JUMPDEST PUSH1 0x2 SLOAD DUP2 JUMP JUMPDEST PUSH1 0x0 PUSH1 0x1 ISZERO ISZERO PUSH1 0x9 PUSH1 0x0 SWAP1 SLOAD SWAP1 PUSH2 0x100 EXP SWAP1 DIV PUSH1 0xFF AND ISZERO ISZERO EQ PUSH2 0x405 JUMPI PUSH1 0x40 MLOAD PUSH32 0x8C379A000000000000000000000000000000000000000000000000000000000 DUP2 MSTORE PUSH1 0x4 ADD PUSH2 0x3FC SWAP1 PUSH2 0xE33 JUMP JUMPDEST PUSH1 0x40 MLOAD DUP1 SWAP2 SUB SWAP1 REVERT JUMPDEST PUSH1 0x0 SWAP1 POP PUSH1 0x0 PUSH1 0x1 PUSH1 0x0 CALLER PUSH20 0xFFFFFFFFFFFFFFFFFFFFFFFFFFFFFFFFFFFFFFFF AND PUSH20 0xFFFFFFFFFFFFFFFFFFFFFFFFFFFFFFFFFFFFFFFF AND DUP2 MSTORE PUSH1 0x20 ADD SWAP1 DUP2 MSTORE PUSH1 0x20 ADD PUSH1 0x0 KECCAK256 PUSH1 0x0 ADD DUP1 SLOAD PUSH2 0x458 SWAP1 PUSH2 0x1011 JUMP JUMPDEST SWAP1 POP EQ PUSH2 0x5B2 JUMPI PUSH1 0x0 DUP1 PUSH1 0x0 DUP5 DUP2 MSTORE PUSH1 0x20 ADD SWAP1 DUP2 MSTORE PUSH1 0x20 ADD PUSH1 0x0 KECCAK256 DUP1 SLOAD PUSH2 0x47E SWAP1 PUSH2 0x1011 JUMP JUMPDEST SWAP1 POP EQ PUSH2 0x5B1 JUMPI PUSH1 0x1 SWAP1 POP PUSH1 0x1 DUP1 PUSH1 0x0 CALLER PUSH20 0xFFFFFFFFFFFFFFFFFFFFFFFFFFFFFFFFFFFFFFFF AND PUSH20 0xFFFFFFFFFFFFFFFFFFFFFFFFFFFFFFFFFFFFFFFF AND DUP2 MSTORE PUSH1 0x20 ADD SWAP1 DUP2 MSTORE PUSH1 0x20 ADD PUSH1 0x0 KECCAK256 PUSH1 0x1 ADD PUSH1 0x0 PUSH2 0x100 EXP DUP2 SLOAD DUP2 PUSH1 0xFF MUL NOT AND SWAP1 DUP4 ISZERO ISZERO MUL OR SWAP1 SSTORE POP PUSH2 0x4EB PUSH2 0xA70 JUMP JUMPDEST CALLER DUP2 PUSH1 0x0 ADD SWAP1 PUSH20 0xFFFFFFFFFFFFFFFFFFFFFFFFFFFFFFFFFFFFFFFF AND SWAP1 DUP2 PUSH20 0xFFFFFFFFFFFFFFFFFFFFFFFFFFFFFFFFFFFFFFFF AND DUP2 MSTORE POP POP DUP3 DUP2 PUSH1 0x20 ADD DUP2 DUP2 MSTORE POP POP PUSH1 0x4 PUSH1 0x0 DUP2 SLOAD DUP1 SWAP3 SWAP2 SWAP1 PUSH2 0x540 SWAP1 PUSH2 0x1074 JUMP JUMPDEST SWAP2 SWAP1 POP SSTORE POP DUP1 PUSH1 0x7 PUSH1 0x0 PUSH1 0x4 SLOAD DUP2 MSTORE PUSH1 0x20 ADD SWAP1 DUP2 MSTORE PUSH1 0x20 ADD PUSH1 0x0 KECCAK256 PUSH1 0x0 DUP3 ADD MLOAD DUP2 PUSH1 0x0 ADD PUSH1 0x0 PUSH2 0x100 EXP DUP2 SLOAD DUP2 PUSH20 0xFFFFFFFFFFFFFFFFFFFFFFFFFFFFFFFFFFFFFFFF MUL NOT AND SWAP1 DUP4 PUSH20 0xFFFFFFFFFFFFFFFFFFFFFFFFFFFFFFFFFFFFFFFF AND MUL OR SWAP1 SSTORE POP PUSH1 0x20 DUP3 ADD MLOAD DUP2 PUSH1 0x1 ADD SSTORE SWAP1 POP POP POP JUMPDEST JUMPDEST PUSH1 0x1 PUSH1 0x2 PUSH1 0x3 SLOAD PUSH2 0x5C3 SWAP2 SWAP1 PUSH2 0xF56 JUMP JUMPDEST PUSH2 0x5CD SWAP2 SWAP1 PUSH2 0xF00 JUMP JUMPDEST PUSH1 0x4 SLOAD LT PUSH2 0x5DE JUMPI PUSH2 0x5DD PUSH2 0x8B4 JUMP JUMPDEST JUMPDEST SWAP2 SWAP1 POP JUMP JUMPDEST PUSH1 0x6 DUP1 SLOAD PUSH2 0x5F0 SWAP1 PUSH2 0x1011 JUMP JUMPDEST DUP1 PUSH1 0x1F ADD PUSH1 0x20 DUP1 SWAP2 DIV MUL PUSH1 0x20 ADD PUSH1 0x40 MLOAD SWAP1 DUP2 ADD PUSH1 0x40 MSTORE DUP1 SWAP3 SWAP2 SWAP1 DUP2 DUP2 MSTORE PUSH1 0x20 ADD DUP3 DUP1 SLOAD PUSH2 0x61C SWAP1 PUSH2 0x1011 JUMP JUMPDEST DUP1 ISZERO PUSH2 0x669 JUMPI DUP1 PUSH1 0x1F LT PUSH2 0x63E JUMPI PUSH2 0x100 DUP1 DUP4 SLOAD DIV MUL DUP4 MSTORE SWAP2 PUSH1 0x20 ADD SWAP2 PUSH2 0x669 JUMP JUMPDEST DUP3 ADD SWAP2 SWAP1 PUSH1 0x0 MSTORE PUSH1 0x20 PUSH1 0x0 KECCAK256 SWAP1 JUMPDEST DUP2 SLOAD DUP2 MSTORE SWAP1 PUSH1 0x1 ADD SWAP1 PUSH1 0x20 ADD DUP1 DUP4 GT PUSH2 0x64C JUMPI DUP3 SWAP1 SUB PUSH1 0x1F AND DUP3 ADD SWAP2 JUMPDEST POP POP POP POP POP DUP2 JUMP JUMPDEST PUSH1 0x1 PUSH1 0x20 MSTORE DUP1 PUSH1 0x0 MSTORE PUSH1 0x40 PUSH1 0x0 KECCAK256 PUSH1 0x0 SWAP2 POP SWAP1 POP DUP1 PUSH1 0x0 ADD DUP1 SLOAD PUSH2 0x694 SWAP1 PUSH2 0x1011 JUMP JUMPDEST DUP1 PUSH1 0x1F ADD PUSH1 0x20 DUP1 SWAP2 DIV MUL PUSH1 0x20 ADD PUSH1 0x40 MLOAD SWAP1 DUP2 ADD PUSH1 0x40 MSTORE DUP1 SWAP3 SWAP2 SWAP1 DUP2 DUP2 MSTORE PUSH1 0x20 ADD DUP3 DUP1 SLOAD PUSH2 0x6C0 SWAP1 PUSH2 0x1011 JUMP JUMPDEST DUP1 ISZERO PUSH2 0x70D JUMPI DUP1 PUSH1 0x1F LT PUSH2 0x6E2 JUMPI PUSH2 0x100 DUP1 DUP4 SLOAD DIV MUL DUP4 MSTORE SWAP2 PUSH1 0x20 ADD SWAP2 PUSH2 0x70D JUMP JUMPDEST DUP3 ADD SWAP2 SWAP1 PUSH1 0x0 MSTORE PUSH1 0x20 PUSH1 0x0 KECCAK256 SWAP1 JUMPDEST DUP2 SLOAD DUP2 MSTORE SWAP1 PUSH1 0x1 ADD SWAP1 PUSH1 0x20 ADD DUP1 DUP4 GT PUSH2 0x6F0 JUMPI DUP3 SWAP1 SUB PUSH1 0x1F AND DUP3 ADD SWAP2 JUMPDEST POP POP POP POP POP SWAP1 DUP1 PUSH1 0x1 ADD PUSH1 0x0 SWAP1 SLOAD SWAP1 PUSH2 0x100 EXP SWAP1 DIV PUSH1 0xFF AND SWAP1 POP DUP3 JUMP JUMPDEST PUSH1 0x0 PUSH1 0x5 PUSH1 0x0 SWAP1 SLOAD SWAP1 PUSH2 0x100 EXP SWAP1 DIV PUSH20 0xFFFFFFFFFFFFFFFFFFFFFFFFFFFFFFFFFFFFFFFF AND PUSH20 0xFFFFFFFFFFFFFFFFFFFFFFFFFFFFFFFFFFFFFFFF AND CALLER PUSH20 0xFFFFFFFFFFFFFFFFFFFFFFFFFFFFFFFFFFFFFFFF AND EQ PUSH2 0x7BC JUMPI PUSH1 0x40 MLOAD PUSH32 0x8C379A000000000000000000000000000000000000000000000000000000000 DUP2 MSTORE PUSH1 0x4 ADD PUSH2 0x7B3 SWAP1 PUSH2 0xE53 JUMP JUMPDEST PUSH1 0x40 MLOAD DUP1 SWAP2 SUB SWAP1 REVERT JUMPDEST PUSH2 0x7C4 PUSH2 0xAA0 JUMP JUMPDEST DUP3 DUP2 PUSH1 0x0 ADD DUP2 SWAP1 MSTORE POP PUSH1 0x0 DUP2 PUSH1 0x20 ADD SWAP1 ISZERO ISZERO SWAP1 DUP2 ISZERO ISZERO DUP2 MSTORE POP POP DUP1 PUSH1 0x1 PUSH1 0x0 DUP7 PUSH20 0xFFFFFFFFFFFFFFFFFFFFFFFFFFFFFFFFFFFFFFFF AND PUSH20 0xFFFFFFFFFFFFFFFFFFFFFFFFFFFFFFFFFFFFFFFF AND DUP2 MSTORE PUSH1 0x20 ADD SWAP1 DUP2 MSTORE PUSH1 0x20 ADD PUSH1 0x0 KECCAK256 PUSH1 0x0 DUP3 ADD MLOAD DUP2 PUSH1 0x0 ADD SWAP1 DUP1 MLOAD SWAP1 PUSH1 0x20 ADD SWAP1 PUSH2 0x83A SWAP3 SWAP2 SWAP1 PUSH2 0x9EA JUMP JUMPDEST POP PUSH1 0x20 DUP3 ADD MLOAD DUP2 PUSH1 0x1 ADD PUSH1 0x0 PUSH2 0x100 EXP DUP2 SLOAD DUP2 PUSH1 0xFF MUL NOT AND SWAP1 DUP4 ISZERO ISZERO MUL OR SWAP1 SSTORE POP SWAP1 POP POP PUSH1 0x3 PUSH1 0x0 DUP2 SLOAD DUP1 SWAP3 SWAP2 SWAP1 PUSH2 0x871 SWAP1 PUSH2 0x1074 JUMP JUMPDEST SWAP2 SWAP1 POP SSTORE POP PUSH1 0x3 SLOAD SWAP2 POP POP SWAP3 SWAP2 POP POP JUMP JUMPDEST PUSH1 0x3 SLOAD DUP2 JUMP JUMPDEST PUSH1 0x5 PUSH1 0x0 SWAP1 SLOAD SWAP1 PUSH2 0x100 EXP SWAP1 DIV PUSH20 0xFFFFFFFFFFFFFFFFFFFFFFFFFFFFFFFFFFFFFFFF AND DUP2 JUMP JUMPDEST PUSH1 0x4 SLOAD DUP2 JUMP JUMPDEST PUSH1 0x0 DUP1 PUSH1 0x0 PUSH1 0x1 SWAP1 POP JUMPDEST PUSH1 0x4 SLOAD DUP2 GT PUSH2 0x99E JUMPI PUSH1 0x0 PUSH1 0x1 SWAP1 POP PUSH1 0x0 PUSH1 0x8 PUSH1 0x0 PUSH1 0x7 PUSH1 0x0 DUP7 DUP2 MSTORE PUSH1 0x20 ADD SWAP1 DUP2 MSTORE PUSH1 0x20 ADD PUSH1 0x0 KECCAK256 PUSH1 0x1 ADD SLOAD DUP2 MSTORE PUSH1 0x20 ADD SWAP1 DUP2 MSTORE PUSH1 0x20 ADD PUSH1 0x0 KECCAK256 SLOAD GT ISZERO PUSH2 0x937 JUMPI PUSH1 0x8 PUSH1 0x0 PUSH1 0x7 PUSH1 0x0 DUP6 DUP2 MSTORE PUSH1 0x20 ADD SWAP1 DUP2 MSTORE PUSH1 0x20 ADD PUSH1 0x0 KECCAK256 PUSH1 0x1 ADD SLOAD DUP2 MSTORE PUSH1 0x20 ADD SWAP1 DUP2 MSTORE PUSH1 0x20 ADD PUSH1 0x0 KECCAK256 SLOAD DUP2 PUSH2 0x934 SWAP2 SWAP1 PUSH2 0xF00 JUMP JUMPDEST SWAP1 POP JUMPDEST DUP1 PUSH1 0x8 PUSH1 0x0 PUSH1 0x7 PUSH1 0x0 DUP7 DUP2 MSTORE PUSH1 0x20 ADD SWAP1 DUP2 MSTORE PUSH1 0x20 ADD PUSH1 0x0 KECCAK256 PUSH1 0x1 ADD SLOAD DUP2 MSTORE PUSH1 0x20 ADD SWAP1 DUP2 MSTORE PUSH1 0x20 ADD PUSH1 0x0 KECCAK256 DUP2 SWAP1 SSTORE POP DUP4 DUP2 GT ISZERO PUSH2 0x98A JUMPI DUP1 SWAP4 POP PUSH1 0x7 PUSH1 0x0 DUP4 DUP2 MSTORE PUSH1 0x20 ADD SWAP1 DUP2 MSTORE PUSH1 0x20 ADD PUSH1 0x0 KECCAK256 PUSH1 0x1 ADD SLOAD SWAP3 POP JUMPDEST POP DUP1 DUP1 PUSH2 0x996 SWAP1 PUSH2 0x1074 JUMP JUMPDEST SWAP2 POP POP PUSH2 0x8BE JUMP JUMPDEST POP PUSH1 0x0 DUP1 DUP3 DUP2 MSTORE PUSH1 0x20 ADD SWAP1 DUP2 MSTORE PUSH1 0x20 ADD PUSH1 0x0 KECCAK256 PUSH1 0x6 SWAP1 DUP1 SLOAD PUSH2 0x9BF SWAP1 PUSH2 0x1011 JUMP JUMPDEST PUSH2 0x9CA SWAP3 SWAP2 SWAP1 PUSH2 0xABC JUMP JUMPDEST POP PUSH1 0x0 PUSH1 0x9 PUSH1 0x0 PUSH2 0x100 EXP DUP2 SLOAD DUP2 PUSH1 0xFF MUL NOT AND SWAP1 DUP4 ISZERO ISZERO MUL OR SWAP1 SSTORE POP POP POP JUMP JUMPDEST DUP3 DUP1 SLOAD PUSH2 0x9F6 SWAP1 PUSH2 0x1011 JUMP JUMPDEST SWAP1 PUSH1 0x0 MSTORE PUSH1 0x20 PUSH1 0x0 KECCAK256 SWAP1 PUSH1 0x1F ADD PUSH1 0x20 SWAP1 DIV DUP2 ADD SWAP3 DUP3 PUSH2 0xA18 JUMPI PUSH1 0x0 DUP6 SSTORE PUSH2 0xA5F JUMP JUMPDEST DUP3 PUSH1 0x1F LT PUSH2 0xA31 JUMPI DUP1 MLOAD PUSH1 0xFF NOT AND DUP4 DUP1 ADD OR DUP6 SSTORE PUSH2 0xA5F JUMP JUMPDEST DUP3 DUP1 ADD PUSH1 0x1 ADD DUP6 SSTORE DUP3 ISZERO PUSH2 0xA5F JUMPI SWAP2 DUP3 ADD JUMPDEST DUP3 DUP2 GT ISZERO PUSH2 0xA5E JUMPI DUP3 MLOAD DUP3 SSTORE SWAP2 PUSH1 0x20 ADD SWAP2 SWAP1 PUSH1 0x1 ADD SWAP1 PUSH2 0xA43 JUMP JUMPDEST JUMPDEST POP SWAP1 POP PUSH2 0xA6C SWAP2 SWAP1 PUSH2 0xB49 JUMP JUMPDEST POP SWAP1 JUMP JUMPDEST PUSH1 0x40 MLOAD DUP1 PUSH1 0x40 ADD PUSH1 0x40 MSTORE DUP1 PUSH1 0x0 PUSH20 0xFFFFFFFFFFFFFFFFFFFFFFFFFFFFFFFFFFFFFFFF AND DUP2 MSTORE PUSH1 0x20 ADD PUSH1 0x0 DUP2 MSTORE POP SWAP1 JUMP JUMPDEST PUSH1 0x40 MLOAD DUP1 PUSH1 0x40 ADD PUSH1 0x40 MSTORE DUP1 PUSH1 0x60 DUP2 MSTORE PUSH1 0x20 ADD PUSH1 0x0 ISZERO ISZERO DUP2 MSTORE POP SWAP1 JUMP JUMPDEST DUP3 DUP1 SLOAD PUSH2 0xAC8 SWAP1 PUSH2 0x1011 JUMP JUMPDEST SWAP1 PUSH1 0x0 MSTORE PUSH1 0x20 PUSH1 0x0 KECCAK256 SWAP1 PUSH1 0x1F ADD PUSH1 0x20 SWAP1 DIV DUP2 ADD SWAP3 DUP3 PUSH2 0xAEA JUMPI PUSH1 0x0 DUP6 SSTORE PUSH2 0xB38 JUMP JUMPDEST DUP3 PUSH1 0x1F LT PUSH2 0xAFB JUMPI DUP1 SLOAD DUP6 SSTORE PUSH2 0xB38 JUMP JUMPDEST DUP3 DUP1 ADD PUSH1 0x1 ADD DUP6 SSTORE DUP3 ISZERO PUSH2 0xB38 JUMPI PUSH1 0x0 MSTORE PUSH1 0x20 PUSH1 0x0 KECCAK256 SWAP2 PUSH1 0x1F ADD PUSH1 0x20 SWAP1 DIV DUP3 ADD JUMPDEST DUP3 DUP2 GT ISZERO PUSH2 0xB37 JUMPI DUP3 SLOAD DUP3 SSTORE SWAP2 PUSH1 0x1 ADD SWAP2 SWAP1 PUSH1 0x1 ADD SWAP1 PUSH2 0xB1C JUMP JUMPDEST JUMPDEST POP SWAP1 POP PUSH2 0xB45 SWAP2 SWAP1 PUSH2 0xB49 JUMP JUMPDEST POP SWAP1 JUMP JUMPDEST JUMPDEST DUP1 DUP3 GT ISZERO PUSH2 0xB62 JUMPI PUSH1 0x0 DUP2 PUSH1 0x0 SWAP1 SSTORE POP PUSH1 0x1 ADD PUSH2 0xB4A JUMP JUMPDEST POP SWAP1 JUMP JUMPDEST PUSH1 0x0 PUSH2 0xB79 PUSH2 0xB74 DUP5 PUSH2 0xEB3 JUMP JUMPDEST PUSH2 0xE8E JUMP JUMPDEST SWAP1 POP DUP3 DUP2 MSTORE PUSH1 0x20 DUP2 ADD DUP5 DUP5 DUP5 ADD GT ISZERO PUSH2 0xB95 JUMPI PUSH2 0xB94 PUSH2 0x117E JUMP JUMPDEST JUMPDEST PUSH2 0xBA0 DUP5 DUP3 DUP6 PUSH2 0xFCF JUMP JUMPDEST POP SWAP4 SWAP3 POP POP POP JUMP JUMPDEST PUSH1 0x0 DUP2 CALLDATALOAD SWAP1 POP PUSH2 0xBB7 DUP2 PUSH2 0x123C JUMP JUMPDEST SWAP3 SWAP2 POP POP JUMP JUMPDEST PUSH1 0x0 DUP3 PUSH1 0x1F DUP4 ADD SLT PUSH2 0xBD2 JUMPI PUSH2 0xBD1 PUSH2 0x1179 JUMP JUMPDEST JUMPDEST DUP2 CALLDATALOAD PUSH2 0xBE2 DUP5 DUP3 PUSH1 0x20 DUP7 ADD PUSH2 0xB66 JUMP JUMPDEST SWAP2 POP POP SWAP3 SWAP2 POP POP JUMP JUMPDEST PUSH1 0x0 DUP2 CALLDATALOAD SWAP1 POP PUSH2 0xBFA DUP2 PUSH2 0x1253 JUMP JUMPDEST SWAP3 SWAP2 POP POP JUMP JUMPDEST PUSH1 0x0 PUSH1 0x20 DUP3 DUP5 SUB SLT ISZERO PUSH2 0xC16 JUMPI PUSH2 0xC15 PUSH2 0x1188 JUMP JUMPDEST JUMPDEST PUSH1 0x0 PUSH2 0xC24 DUP5 DUP3 DUP6 ADD PUSH2 0xBA8 JUMP JUMPDEST SWAP2 POP POP SWAP3 SWAP2 POP POP JUMP JUMPDEST PUSH1 0x0 DUP1 PUSH1 0x40 DUP4 DUP6 SUB SLT ISZERO PUSH2 0xC44 JUMPI PUSH2 0xC43 PUSH2 0x1188 JUMP JUMPDEST JUMPDEST PUSH1 0x0 PUSH2 0xC52 DUP6 DUP3 DUP7 ADD PUSH2 0xBA8 JUMP JUMPDEST SWAP3 POP POP PUSH1 0x20 DUP4 ADD CALLDATALOAD PUSH8 0xFFFFFFFFFFFFFFFF DUP2 GT ISZERO PUSH2 0xC73 JUMPI PUSH2 0xC72 PUSH2 0x1183 JUMP JUMPDEST JUMPDEST PUSH2 0xC7F DUP6 DUP3 DUP7 ADD PUSH2 0xBBD JUMP JUMPDEST SWAP2 POP POP SWAP3 POP SWAP3 SWAP1 POP JUMP JUMPDEST PUSH1 0x0 PUSH1 0x20 DUP3 DUP5 SUB SLT ISZERO PUSH2 0xC9F JUMPI PUSH2 0xC9E PUSH2 0x1188 JUMP JUMPDEST JUMPDEST PUSH1 0x0 DUP3 ADD CALLDATALOAD PUSH8 0xFFFFFFFFFFFFFFFF DUP2 GT ISZERO PUSH2 0xCBD JUMPI PUSH2 0xCBC PUSH2 0x1183 JUMP JUMPDEST JUMPDEST PUSH2 0xCC9 DUP5 DUP3 DUP6 ADD PUSH2 0xBBD JUMP JUMPDEST SWAP2 POP POP SWAP3 SWAP2 POP POP JUMP JUMPDEST PUSH1 0x0 PUSH1 0x20 DUP3 DUP5 SUB SLT ISZERO PUSH2 0xCE8 JUMPI PUSH2 0xCE7 PUSH2 0x1188 JUMP JUMPDEST JUMPDEST PUSH1 0x0 PUSH2 0xCF6 DUP5 DUP3 DUP6 ADD PUSH2 0xBEB JUMP JUMPDEST SWAP2 POP POP SWAP3 SWAP2 POP POP JUMP JUMPDEST PUSH2 0xD08 DUP2 PUSH2 0xF87 JUMP JUMPDEST DUP3 MSTORE POP POP JUMP JUMPDEST PUSH2 0xD17 DUP2 PUSH2 0xF99 JUMP JUMPDEST DUP3 MSTORE POP POP JUMP JUMPDEST PUSH1 0x0 PUSH2 0xD28 DUP3 PUSH2 0xEE4 JUMP JUMPDEST PUSH2 0xD32 DUP2 DUP6 PUSH2 0xEEF JUMP JUMPDEST SWAP4 POP PUSH2 0xD42 DUP2 DUP6 PUSH1 0x20 DUP7 ADD PUSH2 0xFDE JUMP JUMPDEST PUSH2 0xD4B DUP2 PUSH2 0x118D JUMP JUMPDEST DUP5 ADD SWAP2 POP POP SWAP3 SWAP2 POP POP JUMP JUMPDEST PUSH1 0x0 PUSH2 0xD63 PUSH1 0x24 DUP4 PUSH2 0xEEF JUMP JUMPDEST SWAP2 POP PUSH2 0xD6E DUP3 PUSH2 0x119E JUMP JUMPDEST PUSH1 0x40 DUP3 ADD SWAP1 POP SWAP2 SWAP1 POP JUMP JUMPDEST PUSH1 0x0 PUSH2 0xD86 PUSH1 0x23 DUP4 PUSH2 0xEEF JUMP JUMPDEST SWAP2 POP PUSH2 0xD91 DUP3 PUSH2 0x11ED JUMP JUMPDEST PUSH1 0x40 DUP3 ADD SWAP1 POP SWAP2 SWAP1 POP JUMP JUMPDEST PUSH2 0xDA5 DUP2 PUSH2 0xFC5 JUMP JUMPDEST DUP3 MSTORE POP POP JUMP JUMPDEST PUSH1 0x0 PUSH1 0x20 DUP3 ADD SWAP1 POP PUSH2 0xDC0 PUSH1 0x0 DUP4 ADD DUP5 PUSH2 0xCFF JUMP JUMPDEST SWAP3 SWAP2 POP POP JUMP JUMPDEST PUSH1 0x0 PUSH1 0x20 DUP3 ADD SWAP1 POP PUSH2 0xDDB PUSH1 0x0 DUP4 ADD DUP5 PUSH2 0xD0E JUMP JUMPDEST SWAP3 SWAP2 POP POP JUMP JUMPDEST PUSH1 0x0 PUSH1 0x20 DUP3 ADD SWAP1 POP DUP2 DUP2 SUB PUSH1 0x0 DUP4 ADD MSTORE PUSH2 0xDFB DUP2 DUP5 PUSH2 0xD1D JUMP JUMPDEST SWAP1 POP SWAP3 SWAP2 POP POP JUMP JUMPDEST PUSH1 0x0 PUSH1 0x40 DUP3 ADD SWAP1 POP DUP2 DUP2 SUB PUSH1 0x0 DUP4 ADD MSTORE PUSH2 0xE1D DUP2 DUP6 PUSH2 0xD1D JUMP JUMPDEST SWAP1 POP PUSH2 0xE2C PUSH1 0x20 DUP4 ADD DUP5 PUSH2 0xD0E JUMP JUMPDEST SWAP4 SWAP3 POP POP POP JUMP JUMPDEST PUSH1 0x0 PUSH1 0x20 DUP3 ADD SWAP1 POP DUP2 DUP2 SUB PUSH1 0x0 DUP4 ADD MSTORE PUSH2 0xE4C DUP2 PUSH2 0xD56 JUMP JUMPDEST SWAP1 POP SWAP2 SWAP1 POP JUMP JUMPDEST PUSH1 0x0 PUSH1 0x20 DUP3 ADD SWAP1 POP DUP2 DUP2 SUB PUSH1 0x0 DUP4 ADD MSTORE PUSH2 0xE6C DUP2 PUSH2 0xD79 JUMP JUMPDEST SWAP1 POP SWAP2 SWAP1 POP JUMP JUMPDEST PUSH1 0x0 PUSH1 0x20 DUP3 ADD SWAP1 POP PUSH2 0xE88 PUSH1 0x0 DUP4 ADD DUP5 PUSH2 0xD9C JUMP JUMPDEST SWAP3 SWAP2 POP POP JUMP JUMPDEST PUSH1 0x0 PUSH2 0xE98 PUSH2 0xEA9 JUMP JUMPDEST SWAP1 POP PUSH2 0xEA4 DUP3 DUP3 PUSH2 0x1043 JUMP JUMPDEST SWAP2 SWAP1 POP JUMP JUMPDEST PUSH1 0x0 PUSH1 0x40 MLOAD SWAP1 POP SWAP1 JUMP JUMPDEST PUSH1 0x0 PUSH8 0xFFFFFFFFFFFFFFFF DUP3 GT ISZERO PUSH2 0xECE JUMPI PUSH2 0xECD PUSH2 0x114A JUMP JUMPDEST JUMPDEST PUSH2 0xED7 DUP3 PUSH2 0x118D JUMP JUMPDEST SWAP1 POP PUSH1 0x20 DUP2 ADD SWAP1 POP SWAP2 SWAP1 POP JUMP JUMPDEST PUSH1 0x0 DUP2 MLOAD SWAP1 POP SWAP2 SWAP1 POP JUMP JUMPDEST PUSH1 0x0 DUP3 DUP3 MSTORE PUSH1 0x20 DUP3 ADD SWAP1 POP SWAP3 SWAP2 POP POP JUMP JUMPDEST PUSH1 0x0 PUSH2 0xF0B DUP3 PUSH2 0xFC5 JUMP JUMPDEST SWAP2 POP PUSH2 0xF16 DUP4 PUSH2 0xFC5 JUMP JUMPDEST SWAP3 POP DUP3 PUSH32 0xFFFFFFFFFFFFFFFFFFFFFFFFFFFFFFFFFFFFFFFFFFFFFFFFFFFFFFFFFFFFFFFF SUB DUP3 GT ISZERO PUSH2 0xF4B JUMPI PUSH2 0xF4A PUSH2 0x10BD JUMP JUMPDEST JUMPDEST DUP3 DUP3 ADD SWAP1 POP SWAP3 SWAP2 POP POP JUMP JUMPDEST PUSH1 0x0 PUSH2 0xF61 DUP3 PUSH2 0xFC5 JUMP JUMPDEST SWAP2 POP PUSH2 0xF6C DUP4 PUSH2 0xFC5 JUMP JUMPDEST SWAP3 POP DUP3 PUSH2 0xF7C JUMPI PUSH2 0xF7B PUSH2 0x10EC JUMP JUMPDEST JUMPDEST DUP3 DUP3 DIV SWAP1 POP SWAP3 SWAP2 POP POP JUMP JUMPDEST PUSH1 0x0 PUSH2 0xF92 DUP3 PUSH2 0xFA5 JUMP JUMPDEST SWAP1 POP SWAP2 SWAP1 POP JUMP JUMPDEST PUSH1 0x0 DUP2 ISZERO ISZERO SWAP1 POP SWAP2 SWAP1 POP JUMP JUMPDEST PUSH1 0x0 PUSH20 0xFFFFFFFFFFFFFFFFFFFFFFFFFFFFFFFFFFFFFFFF DUP3 AND SWAP1 POP SWAP2 SWAP1 POP JUMP JUMPDEST PUSH1 0x0 DUP2 SWAP1 POP SWAP2 SWAP1 POP JUMP JUMPDEST DUP3 DUP2 DUP4 CALLDATACOPY PUSH1 0x0 DUP4 DUP4 ADD MSTORE POP POP POP JUMP JUMPDEST PUSH1 0x0 JUMPDEST DUP4 DUP2 LT ISZERO PUSH2 0xFFC JUMPI DUP1 DUP3 ADD MLOAD DUP2 DUP5 ADD MSTORE PUSH1 0x20 DUP2 ADD SWAP1 POP PUSH2 0xFE1 JUMP JUMPDEST DUP4 DUP2 GT ISZERO PUSH2 0x100B JUMPI PUSH1 0x0 DUP5 DUP5 ADD MSTORE JUMPDEST POP POP POP POP JUMP JUMPDEST PUSH1 0x0 PUSH1 0x2 DUP3 DIV SWAP1 POP PUSH1 0x1 DUP3 AND DUP1 PUSH2 0x1029 JUMPI PUSH1 0x7F DUP3 AND SWAP2 POP JUMPDEST PUSH1 0x20 DUP3 LT DUP2 EQ ISZERO PUSH2 0x103D JUMPI PUSH2 0x103C PUSH2 0x111B JUMP JUMPDEST JUMPDEST POP SWAP2 SWAP1 POP JUMP JUMPDEST PUSH2 0x104C DUP3 PUSH2 0x118D JUMP JUMPDEST DUP2 ADD DUP2 DUP2 LT PUSH8 0xFFFFFFFFFFFFFFFF DUP3 GT OR ISZERO PUSH2 0x106B JUMPI PUSH2 0x106A PUSH2 0x114A JUMP JUMPDEST JUMPDEST DUP1 PUSH1 0x40 MSTORE POP POP POP JUMP JUMPDEST PUSH1 0x0 PUSH2 0x107F DUP3 PUSH2 0xFC5 JUMP JUMPDEST SWAP2 POP PUSH32 0xFFFFFFFFFFFFFFFFFFFFFFFFFFFFFFFFFFFFFFFFFFFFFFFFFFFFFFFFFFFFFFFF DUP3 EQ ISZERO PUSH2 0x10B2 JUMPI PUSH2 0x10B1 PUSH2 0x10BD JUMP JUMPDEST JUMPDEST PUSH1 0x1 DUP3 ADD SWAP1 POP SWAP2 SWAP1 POP JUMP JUMPDEST PUSH32 0x4E487B7100000000000000000000000000000000000000000000000000000000 PUSH1 0x0 MSTORE PUSH1 0x11 PUSH1 0x4 MSTORE PUSH1 0x24 PUSH1 0x0 REVERT JUMPDEST PUSH32 0x4E487B7100000000000000000000000000000000000000000000000000000000 PUSH1 0x0 MSTORE PUSH1 0x12 PUSH1 0x4 MSTORE PUSH1 0x24 PUSH1 0x0 REVERT JUMPDEST PUSH32 0x4E487B7100000000000000000000000000000000000000000000000000000000 PUSH1 0x0 MSTORE PUSH1 0x22 PUSH1 0x4 MSTORE PUSH1 0x24 PUSH1 0x0 REVERT JUMPDEST PUSH32 0x4E487B7100000000000000000000000000000000000000000000000000000000 PUSH1 0x0 MSTORE PUSH1 0x41 PUSH1 0x4 MSTORE PUSH1 0x24 PUSH1 0x0 REVERT JUMPDEST PUSH1 0x0 DUP1 REVERT JUMPDEST PUSH1 0x0 DUP1 REVERT JUMPDEST PUSH1 0x0 DUP1 REVERT JUMPDEST PUSH1 0x0 DUP1 REVERT JUMPDEST PUSH1 0x0 PUSH1 0x1F NOT PUSH1 0x1F DUP4 ADD AND SWAP1 POP SWAP2 SWAP1 POP JUMP JUMPDEST PUSH32 0x43616E20766F7465206F6E6C79207768696C6520766F74696E67206973206F70 PUSH1 0x0 DUP3 ADD MSTORE PUSH32 0x656E202E00000000000000000000000000000000000000000000000000000000 PUSH1 0x20 DUP3 ADD MSTORE POP JUMP JUMPDEST PUSH32 0x43616E206F6E6C7920626520657865637574656420627920746865206D616E61 PUSH1 0x0 DUP3 ADD MSTORE PUSH32 0x6765720000000000000000000000000000000000000000000000000000000000 PUSH1 0x20 DUP3 ADD MSTORE POP JUMP JUMPDEST PUSH2 0x1245 DUP2 PUSH2 0xF87 JUMP JUMPDEST DUP2 EQ PUSH2 0x1250 JUMPI PUSH1 0x0 DUP1 REVERT JUMPDEST POP JUMP JUMPDEST PUSH2 0x125C DUP2 PUSH2 0xFC5 JUMP JUMPDEST DUP2 EQ PUSH2 0x1267 JUMPI PUSH1 0x0 DUP1 REVERT JUMPDEST POP JUMP INVALID LOG2 PUSH5 0x6970667358 0x22 SLT KECCAK256 CHAINID LOG2 0xC 0xB4 0x5D CODESIZE 0xF SWAP4 0x5F DIFFICULTY MSIZE 0xD3 DELEGATECALL PUSH3 0xB18E22 ADDRESS 0xB0 0x5F 0xA6 PUSH21 0x37DD1E8207114D72CD6064736F6C63430008070033 "
				},
				"gasEstimates": {
					"creation": {
						"codeDepositCost": "953600",
						"executionCost": "infinite",
						"totalCost": "infinite"
					},
					"external": {
						"addFriend(address,string)": "infinite",
						"addVenue(string)": "infinite",
						"doVote(uint256)": "infinite",
						"friends(address)": "infinite",
						"manager()": "2580",
						"numFriends()": "2473",
						"numVenues()": "2474",
						"numVotes()": "2517",
						"venues(uint256)": "infinite",
						"votedVenue()": "infinite"
					},
					"internal": {
						"finalResult()": "infinite"
					}
				},
				"methodIdentifiers": {
					"addFriend(address,string)": "3b9f708d",
					"addVenue(string)": "02ee93c8",
					"doVote(uint256)": "124258c6",
					"friends(address)": "1ddabf7a",
					"manager()": "481c6a75",
					"numFriends()": "47098f36",
					"numVenues()": "0843d16d",
					"numVotes()": "a3bef4d7",
					"venues(uint256)": "02daf12f",
					"votedVenue()": "1635b5d3"
				}
			},
			"storageLayout": {
				"storage": [
					{
						"astId": 16,
						"contract": "contracts/LunchVenue1.sol:LunchVenue",
						"label": "venues",
						"offset": 0,
						"slot": "0",
						"type": "t_mapping(t_uint256,t_string_storage)"
					},
					{
						"astId": 21,
						"contract": "contracts/LunchVenue1.sol:LunchVenue",
						"label": "friends",
						"offset": 0,
						"slot": "1",
						"type": "t_mapping(t_address,t_struct(Friend)7_storage)"
					},
					{
						"astId": 24,
						"contract": "contracts/LunchVenue1.sol:LunchVenue",
						"label": "numVenues",
						"offset": 0,
						"slot": "2",
						"type": "t_uint256"
					},
					{
						"astId": 27,
						"contract": "contracts/LunchVenue1.sol:LunchVenue",
						"label": "numFriends",
						"offset": 0,
						"slot": "3",
						"type": "t_uint256"
					},
					{
						"astId": 30,
						"contract": "contracts/LunchVenue1.sol:LunchVenue",
						"label": "numVotes",
						"offset": 0,
						"slot": "4",
						"type": "t_uint256"
					},
					{
						"astId": 32,
						"contract": "contracts/LunchVenue1.sol:LunchVenue",
						"label": "manager",
						"offset": 0,
						"slot": "5",
						"type": "t_address"
					},
					{
						"astId": 35,
						"contract": "contracts/LunchVenue1.sol:LunchVenue",
						"label": "votedVenue",
						"offset": 0,
						"slot": "6",
						"type": "t_string_storage"
					},
					{
						"astId": 40,
						"contract": "contracts/LunchVenue1.sol:LunchVenue",
						"label": "votes",
						"offset": 0,
						"slot": "7",
						"type": "t_mapping(t_uint256,t_struct(Vote)12_storage)"
					},
					{
						"astId": 44,
						"contract": "contracts/LunchVenue1.sol:LunchVenue",
						"label": "results",
						"offset": 0,
						"slot": "8",
						"type": "t_mapping(t_uint256,t_uint256)"
					},
					{
						"astId": 47,
						"contract": "contracts/LunchVenue1.sol:LunchVenue",
						"label": "voteOpen",
						"offset": 0,
						"slot": "9",
						"type": "t_bool"
					}
				],
				"types": {
					"t_address": {
						"encoding": "inplace",
						"label": "address",
						"numberOfBytes": "20"
					},
					"t_bool": {
						"encoding": "inplace",
						"label": "bool",
						"numberOfBytes": "1"
					},
					"t_mapping(t_address,t_struct(Friend)7_storage)": {
						"encoding": "mapping",
						"key": "t_address",
						"label": "mapping(address => struct LunchVenue.Friend)",
						"numberOfBytes": "32",
						"value": "t_struct(Friend)7_storage"
					},
					"t_mapping(t_uint256,t_string_storage)": {
						"encoding": "mapping",
						"key": "t_uint256",
						"label": "mapping(uint256 => string)",
						"numberOfBytes": "32",
						"value": "t_string_storage"
					},
					"t_mapping(t_uint256,t_struct(Vote)12_storage)": {
						"encoding": "mapping",
						"key": "t_uint256",
						"label": "mapping(uint256 => struct LunchVenue.Vote)",
						"numberOfBytes": "32",
						"value": "t_struct(Vote)12_storage"
					},
					"t_mapping(t_uint256,t_uint256)": {
						"encoding": "mapping",
						"key": "t_uint256",
						"label": "mapping(uint256 => uint256)",
						"numberOfBytes": "32",
						"value": "t_uint256"
					},
					"t_string_storage": {
						"encoding": "bytes",
						"label": "string",
						"numberOfBytes": "32"
					},
					"t_struct(Friend)7_storage": {
						"encoding": "inplace",
						"label": "struct LunchVenue.Friend",
						"members": [
							{
								"astId": 4,
								"contract": "contracts/LunchVenue1.sol:LunchVenue",
								"label": "name",
								"offset": 0,
								"slot": "0",
								"type": "t_string_storage"
							},
							{
								"astId": 6,
								"contract": "contracts/LunchVenue1.sol:LunchVenue",
								"label": "voted",
								"offset": 0,
								"slot": "1",
								"type": "t_bool"
							}
						],
						"numberOfBytes": "64"
					},
					"t_struct(Vote)12_storage": {
						"encoding": "inplace",
						"label": "struct LunchVenue.Vote",
						"members": [
							{
								"astId": 9,
								"contract": "contracts/LunchVenue1.sol:LunchVenue",
								"label": "voterAddress",
								"offset": 0,
								"slot": "0",
								"type": "t_address"
							},
							{
								"astId": 11,
								"contract": "contracts/LunchVenue1.sol:LunchVenue",
								"label": "venue",
								"offset": 0,
								"slot": "1",
								"type": "t_uint256"
							}
						],
						"numberOfBytes": "64"
					},
					"t_uint256": {
						"encoding": "inplace",
						"label": "uint256",
						"numberOfBytes": "32"
					}
				}
			},
			"userdoc": {
				"kind": "user",
				"methods": {
					"addFriend(address,string)": {
						"notice": "Add a new friend who can vote on lunch venue"
					},
					"addVenue(string)": {
						"notice": "Add a new lunch venue"
					},
					"doVote(uint256)": {
						"notice": "Vote for a lunch venue"
					}
				},
				"version": 1
			}
		}
	}
}